{
	"contracts/CrowdFunding.sol": {
		"CrowdFunding": {
			"abi": [
				{
					"inputs": [
						{
							"internalType": "uint256",
							"name": "_target",
							"type": "uint256"
						},
						{
							"internalType": "uint256",
							"name": "_deadline",
							"type": "uint256"
						}
					],
					"stateMutability": "nonpayable",
					"type": "constructor"
				},
				{
					"inputs": [
						{
							"internalType": "address",
							"name": "",
							"type": "address"
						}
					],
					"name": "contributors",
					"outputs": [
						{
							"internalType": "uint256",
							"name": "",
							"type": "uint256"
						}
					],
					"stateMutability": "view",
					"type": "function"
				},
				{
					"inputs": [
						{
							"internalType": "string",
							"name": "_description",
							"type": "string"
						},
						{
							"internalType": "address payable",
							"name": "_recipient",
							"type": "address"
						},
						{
							"internalType": "uint256",
							"name": "_value",
							"type": "uint256"
						}
					],
					"name": "createRequests",
					"outputs": [],
					"stateMutability": "nonpayable",
					"type": "function"
				},
				{
					"inputs": [],
					"name": "deadline",
					"outputs": [
						{
							"internalType": "uint256",
							"name": "",
							"type": "uint256"
						}
					],
					"stateMutability": "view",
					"type": "function"
				},
				{
					"inputs": [],
					"name": "getContractBalance",
					"outputs": [
						{
							"internalType": "uint256",
							"name": "",
							"type": "uint256"
						}
					],
					"stateMutability": "view",
					"type": "function"
				},
				{
					"inputs": [],
					"name": "manager",
					"outputs": [
						{
							"internalType": "address",
							"name": "",
							"type": "address"
						}
					],
					"stateMutability": "view",
					"type": "function"
				},
				{
					"inputs": [],
					"name": "minContribution",
					"outputs": [
						{
							"internalType": "uint256",
							"name": "",
							"type": "uint256"
						}
					],
					"stateMutability": "view",
					"type": "function"
				},
				{
					"inputs": [],
					"name": "noOfContributors",
					"outputs": [
						{
							"internalType": "uint256",
							"name": "",
							"type": "uint256"
						}
					],
					"stateMutability": "view",
					"type": "function"
				},
				{
					"inputs": [],
					"name": "numRequests",
					"outputs": [
						{
							"internalType": "uint256",
							"name": "",
							"type": "uint256"
						}
					],
					"stateMutability": "view",
					"type": "function"
				},
				{
					"inputs": [],
					"name": "raisedAmount",
					"outputs": [
						{
							"internalType": "uint256",
							"name": "",
							"type": "uint256"
						}
					],
					"stateMutability": "view",
					"type": "function"
				},
				{
					"inputs": [],
					"name": "refund",
					"outputs": [],
					"stateMutability": "nonpayable",
					"type": "function"
				},
				{
					"inputs": [],
					"name": "sendEth",
					"outputs": [],
					"stateMutability": "payable",
					"type": "function"
				},
				{
					"inputs": [],
					"name": "target",
					"outputs": [
						{
							"internalType": "uint256",
							"name": "",
							"type": "uint256"
						}
					],
					"stateMutability": "view",
					"type": "function"
				},
				{
					"inputs": [
						{
							"internalType": "uint256",
							"name": "_reqno",
							"type": "uint256"
						}
					],
					"name": "voteRequest",
					"outputs": [],
					"stateMutability": "nonpayable",
					"type": "function"
				}
			],
			"devdoc": {
				"kind": "dev",
				"methods": {},
				"version": 1
			},
			"evm": {
				"assembly": "    /* \"contracts/CrowdFunding.sol\":73:2625  contract CrowdFunding{\r... */\n  mstore(0x40, 0x80)\n    /* \"contracts/CrowdFunding.sol\":803:1036  constructor(uint _target, uint _deadline){  //set by the manager initially while deploying\r... */\n  callvalue\n  dup1\n  iszero\n  tag_1\n  jumpi\n  0x00\n  dup1\n  revert\ntag_1:\n  pop\n  mload(0x40)\n  sub(codesize, bytecodeSize)\n  dup1\n  bytecodeSize\n  dup4\n  codecopy\n  dup2\n  dup2\n  add\n  0x40\n  mstore\n  dup2\n  add\n  swap1\n  tag_2\n  swap2\n  swap1\n  tag_3\n  jump\t// in\ntag_2:\n    /* \"contracts/CrowdFunding.sol\":910:917  _target */\n  dup2\n    /* \"contracts/CrowdFunding.sol\":903:909  target */\n  0x04\n    /* \"contracts/CrowdFunding.sol\":903:917  target=_target */\n  dup2\n  swap1\n  sstore\n  pop\n    /* \"contracts/CrowdFunding.sol\":954:963  _deadline */\n  dup1\n    /* \"contracts/CrowdFunding.sol\":937:952  block.timestamp */\n  timestamp\n    /* \"contracts/CrowdFunding.sol\":937:963  block.timestamp+ _deadline */\n  tag_6\n  swap2\n  swap1\n  tag_7\n  jump\t// in\ntag_6:\n    /* \"contracts/CrowdFunding.sol\":928:936  deadline */\n  0x03\n    /* \"contracts/CrowdFunding.sol\":928:963  deadline=block.timestamp+ _deadline */\n  dup2\n  swap1\n  sstore\n  pop\n    /* \"contracts/CrowdFunding.sol\":990:997  100 wei */\n  0x64\n    /* \"contracts/CrowdFunding.sol\":974:989  minContribution */\n  0x02\n    /* \"contracts/CrowdFunding.sol\":974:997  minContribution=100 wei */\n  dup2\n  swap1\n  sstore\n  pop\n    /* \"contracts/CrowdFunding.sol\":1018:1028  msg.sender */\n  caller\n    /* \"contracts/CrowdFunding.sol\":1008:1015  manager */\n  0x01\n  0x00\n    /* \"contracts/CrowdFunding.sol\":1008:1028  manager = msg.sender */\n  0x0100\n  exp\n  dup2\n  sload\n  dup2\n  0xffffffffffffffffffffffffffffffffffffffff\n  mul\n  not\n  and\n  swap1\n  dup4\n  0xffffffffffffffffffffffffffffffffffffffff\n  and\n  mul\n  or\n  swap1\n  sstore\n  pop\n    /* \"contracts/CrowdFunding.sol\":803:1036  constructor(uint _target, uint _deadline){  //set by the manager initially while deploying\r... */\n  pop\n  pop\n    /* \"contracts/CrowdFunding.sol\":73:2625  contract CrowdFunding{\r... */\n  jump(tag_8)\n    /* \"#utility.yul\":7:150   */\ntag_10:\n    /* \"#utility.yul\":64:69   */\n  0x00\n    /* \"#utility.yul\":95:101   */\n  dup2\n    /* \"#utility.yul\":89:102   */\n  mload\n    /* \"#utility.yul\":80:102   */\n  swap1\n  pop\n    /* \"#utility.yul\":111:144   */\n  tag_12\n    /* \"#utility.yul\":138:143   */\n  dup2\n    /* \"#utility.yul\":111:144   */\n  tag_13\n  jump\t// in\ntag_12:\n    /* \"#utility.yul\":7:150   */\n  swap3\n  swap2\n  pop\n  pop\n  jump\t// out\n    /* \"#utility.yul\":156:663   */\ntag_3:\n    /* \"#utility.yul\":235:241   */\n  0x00\n    /* \"#utility.yul\":243:249   */\n  dup1\n    /* \"#utility.yul\":292:294   */\n  0x40\n    /* \"#utility.yul\":280:289   */\n  dup4\n    /* \"#utility.yul\":271:278   */\n  dup6\n    /* \"#utility.yul\":267:290   */\n  sub\n    /* \"#utility.yul\":263:295   */\n  slt\n    /* \"#utility.yul\":260:379   */\n  iszero\n  tag_15\n  jumpi\n    /* \"#utility.yul\":298:377   */\n  tag_16\n  tag_17\n  jump\t// in\ntag_16:\n    /* \"#utility.yul\":260:379   */\ntag_15:\n    /* \"#utility.yul\":418:419   */\n  0x00\n    /* \"#utility.yul\":443:507   */\n  tag_18\n    /* \"#utility.yul\":499:506   */\n  dup6\n    /* \"#utility.yul\":490:496   */\n  dup3\n    /* \"#utility.yul\":479:488   */\n  dup7\n    /* \"#utility.yul\":475:497   */\n  add\n    /* \"#utility.yul\":443:507   */\n  tag_10\n  jump\t// in\ntag_18:\n    /* \"#utility.yul\":433:507   */\n  swap3\n  pop\n    /* \"#utility.yul\":389:517   */\n  pop\n    /* \"#utility.yul\":556:558   */\n  0x20\n    /* \"#utility.yul\":582:646   */\n  tag_19\n    /* \"#utility.yul\":638:645   */\n  dup6\n    /* \"#utility.yul\":629:635   */\n  dup3\n    /* \"#utility.yul\":618:627   */\n  dup7\n    /* \"#utility.yul\":614:636   */\n  add\n    /* \"#utility.yul\":582:646   */\n  tag_10\n  jump\t// in\ntag_19:\n    /* \"#utility.yul\":572:646   */\n  swap2\n  pop\n    /* \"#utility.yul\":527:656   */\n  pop\n    /* \"#utility.yul\":156:663   */\n  swap3\n  pop\n  swap3\n  swap1\n  pop\n  jump\t// out\n    /* \"#utility.yul\":750:1055   */\ntag_7:\n    /* \"#utility.yul\":790:793   */\n  0x00\n    /* \"#utility.yul\":809:829   */\n  tag_23\n    /* \"#utility.yul\":827:828   */\n  dup3\n    /* \"#utility.yul\":809:829   */\n  tag_24\n  jump\t// in\ntag_23:\n    /* \"#utility.yul\":804:829   */\n  swap2\n  pop\n    /* \"#utility.yul\":843:863   */\n  tag_25\n    /* \"#utility.yul\":861:862   */\n  dup4\n    /* \"#utility.yul\":843:863   */\n  tag_24\n  jump\t// in\ntag_25:\n    /* \"#utility.yul\":838:863   */\n  swap3\n  pop\n    /* \"#utility.yul\":997:998   */\n  dup3\n    /* \"#utility.yul\":929:995   */\n  0xffffffffffffffffffffffffffffffffffffffffffffffffffffffffffffffff\n    /* \"#utility.yul\":925:999   */\n  sub\n    /* \"#utility.yul\":922:923   */\n  dup3\n    /* \"#utility.yul\":919:1000   */\n  gt\n    /* \"#utility.yul\":916:1023   */\n  iszero\n  tag_26\n  jumpi\n    /* \"#utility.yul\":1003:1021   */\n  tag_27\n  tag_28\n  jump\t// in\ntag_27:\n    /* \"#utility.yul\":916:1023   */\ntag_26:\n    /* \"#utility.yul\":1047:1048   */\n  dup3\n    /* \"#utility.yul\":1044:1045   */\n  dup3\n    /* \"#utility.yul\":1040:1049   */\n  add\n    /* \"#utility.yul\":1033:1049   */\n  swap1\n  pop\n    /* \"#utility.yul\":750:1055   */\n  swap3\n  swap2\n  pop\n  pop\n  jump\t// out\n    /* \"#utility.yul\":1061:1138   */\ntag_24:\n    /* \"#utility.yul\":1098:1105   */\n  0x00\n    /* \"#utility.yul\":1127:1132   */\n  dup2\n    /* \"#utility.yul\":1116:1132   */\n  swap1\n  pop\n    /* \"#utility.yul\":1061:1138   */\n  swap2\n  swap1\n  pop\n  jump\t// out\n    /* \"#utility.yul\":1144:1324   */\ntag_28:\n    /* \"#utility.yul\":1192:1269   */\n  0x4e487b7100000000000000000000000000000000000000000000000000000000\n    /* \"#utility.yul\":1189:1190   */\n  0x00\n    /* \"#utility.yul\":1182:1270   */\n  mstore\n    /* \"#utility.yul\":1289:1293   */\n  0x11\n    /* \"#utility.yul\":1286:1287   */\n  0x04\n    /* \"#utility.yul\":1279:1294   */\n  mstore\n    /* \"#utility.yul\":1313:1317   */\n  0x24\n    /* \"#utility.yul\":1310:1311   */\n  0x00\n    /* \"#utility.yul\":1303:1318   */\n  revert\n    /* \"#utility.yul\":1453:1570   */\ntag_17:\n    /* \"#utility.yul\":1562:1563   */\n  0x00\n    /* \"#utility.yul\":1559:1560   */\n  dup1\n    /* \"#utility.yul\":1552:1564   */\n  revert\n    /* \"#utility.yul\":1576:1698   */\ntag_13:\n    /* \"#utility.yul\":1649:1673   */\n  tag_35\n    /* \"#utility.yul\":1667:1672   */\n  dup2\n    /* \"#utility.yul\":1649:1673   */\n  tag_24\n  jump\t// in\ntag_35:\n    /* \"#utility.yul\":1642:1647   */\n  dup2\n    /* \"#utility.yul\":1639:1674   */\n  eq\n    /* \"#utility.yul\":1629:1692   */\n  tag_36\n  jumpi\n    /* \"#utility.yul\":1688:1689   */\n  0x00\n    /* \"#utility.yul\":1685:1686   */\n  dup1\n    /* \"#utility.yul\":1678:1690   */\n  revert\n    /* \"#utility.yul\":1629:1692   */\ntag_36:\n    /* \"#utility.yul\":1576:1698   */\n  pop\n  jump\t// out\n    /* \"contracts/CrowdFunding.sol\":73:2625  contract CrowdFunding{\r... */\ntag_8:\n  dataSize(sub_0)\n  dup1\n  dataOffset(sub_0)\n  0x00\n  codecopy\n  0x00\n  return\nstop\n\nsub_0: assembly {\n        /* \"contracts/CrowdFunding.sol\":73:2625  contract CrowdFunding{\r... */\n      mstore(0x40, 0x80)\n      jumpi(tag_1, lt(calldatasize, 0x04))\n      shr(0xe0, calldataload(0x00))\n      dup1\n      0x4e260f6f\n      gt\n      tag_15\n      jumpi\n      dup1\n      0x9fb42b1f\n      gt\n      tag_16\n      jumpi\n      dup1\n      0x9fb42b1f\n      eq\n      tag_11\n      jumpi\n      dup1\n      0xaaffadf3\n      eq\n      tag_12\n      jumpi\n      dup1\n      0xc59ee1dc\n      eq\n      tag_13\n      jumpi\n      dup1\n      0xd4b83992\n      eq\n      tag_14\n      jumpi\n      jump(tag_1)\n    tag_16:\n      dup1\n      0x4e260f6f\n      eq\n      tag_8\n      jumpi\n      dup1\n      0x590e1ae3\n      eq\n      tag_9\n      jumpi\n      dup1\n      0x6f9fb98a\n      eq\n      tag_10\n      jumpi\n      jump(tag_1)\n    tag_15:\n      dup1\n      0x06e99fef\n      eq\n      tag_2\n      jumpi\n      dup1\n      0x1f6d4942\n      eq\n      tag_3\n      jumpi\n      dup1\n      0x29dcb0cf\n      eq\n      tag_4\n      jumpi\n      dup1\n      0x3eb7647b\n      eq\n      tag_5\n      jumpi\n      dup1\n      0x481c6a75\n      eq\n      tag_6\n      jumpi\n      dup1\n      0x4cb6f4a5\n      eq\n      tag_7\n      jumpi\n    tag_1:\n      0x00\n      dup1\n      revert\n        /* \"contracts/CrowdFunding.sol\":1044:1405  function sendEth() public payable{\r... */\n    tag_2:\n      tag_17\n      tag_18\n      jump\t// in\n    tag_17:\n      stop\n        /* \"contracts/CrowdFunding.sol\":103:145  mapping(address=>uint) public contributors */\n    tag_3:\n      callvalue\n      dup1\n      iszero\n      tag_19\n      jumpi\n      0x00\n      dup1\n      revert\n    tag_19:\n      pop\n      tag_20\n      0x04\n      dup1\n      calldatasize\n      sub\n      dup2\n      add\n      swap1\n      tag_21\n      swap2\n      swap1\n      tag_22\n      jump\t// in\n    tag_21:\n      tag_23\n      jump\t// in\n    tag_20:\n      mload(0x40)\n      tag_24\n      swap2\n      swap1\n      tag_25\n      jump\t// in\n    tag_24:\n      mload(0x40)\n      dup1\n      swap2\n      sub\n      swap1\n      return\n        /* \"contracts/CrowdFunding.sol\":267:287  uint public deadline */\n    tag_4:\n      callvalue\n      dup1\n      iszero\n      tag_26\n      jumpi\n      0x00\n      dup1\n      revert\n    tag_26:\n      pop\n      tag_27\n      tag_28\n      jump\t// in\n    tag_27:\n      mload(0x40)\n      tag_29\n      swap2\n      swap1\n      tag_25\n      jump\t// in\n    tag_29:\n      mload(0x40)\n      dup1\n      swap2\n      sub\n      swap1\n      return\n        /* \"contracts/CrowdFunding.sol\":2007:2408  function createRequests(string memory _description,address payable _recipient,uint _value) public onlyManager{\r... */\n    tag_5:\n      callvalue\n      dup1\n      iszero\n      tag_30\n      jumpi\n      0x00\n      dup1\n      revert\n    tag_30:\n      pop\n      tag_31\n      0x04\n      dup1\n      calldatasize\n      sub\n      dup2\n      add\n      swap1\n      tag_32\n      swap2\n      swap1\n      tag_33\n      jump\t// in\n    tag_32:\n      tag_34\n      jump\t// in\n    tag_31:\n      stop\n        /* \"contracts/CrowdFunding.sol\":192:214  address public manager */\n    tag_6:\n      callvalue\n      dup1\n      iszero\n      tag_35\n      jumpi\n      0x00\n      dup1\n      revert\n    tag_35:\n      pop\n      tag_36\n      tag_37\n      jump\t// in\n    tag_36:\n      mload(0x40)\n      tag_38\n      swap2\n      swap1\n      tag_39\n      jump\t// in\n    tag_38:\n      mload(0x40)\n      dup1\n      swap2\n      sub\n      swap1\n      return\n        /* \"contracts/CrowdFunding.sol\":2417:2622  function voteRequest(uint _reqno) public{\r... */\n    tag_7:\n      callvalue\n      dup1\n      iszero\n      tag_40\n      jumpi\n      0x00\n      dup1\n      revert\n    tag_40:\n      pop\n      tag_41\n      0x04\n      dup1\n      calldatasize\n      sub\n      dup2\n      add\n      swap1\n      tag_42\n      swap2\n      swap1\n      tag_43\n      jump\t// in\n    tag_42:\n      tag_44\n      jump\t// in\n    tag_41:\n      stop\n        /* \"contracts/CrowdFunding.sol\":370:398  uint public noOfContributors */\n    tag_8:\n      callvalue\n      dup1\n      iszero\n      tag_45\n      jumpi\n      0x00\n      dup1\n      revert\n    tag_45:\n      pop\n      tag_46\n      tag_47\n      jump\t// in\n    tag_46:\n      mload(0x40)\n      tag_48\n      swap2\n      swap1\n      tag_25\n      jump\t// in\n    tag_48:\n      mload(0x40)\n      dup1\n      swap2\n      sub\n      swap1\n      return\n        /* \"contracts/CrowdFunding.sol\":1523:1872  function refund() public{\r... */\n    tag_9:\n      callvalue\n      dup1\n      iszero\n      tag_49\n      jumpi\n      0x00\n      dup1\n      revert\n    tag_49:\n      pop\n      tag_50\n      tag_51\n      jump\t// in\n    tag_50:\n      stop\n        /* \"contracts/CrowdFunding.sol\":1413:1515  function getContractBalance() public view returns(uint){\r... */\n    tag_10:\n      callvalue\n      dup1\n      iszero\n      tag_52\n      jumpi\n      0x00\n      dup1\n      revert\n    tag_52:\n      pop\n      tag_53\n      tag_54\n      jump\t// in\n    tag_53:\n      mload(0x40)\n      tag_55\n      swap2\n      swap1\n      tag_25\n      jump\t// in\n    tag_55:\n      mload(0x40)\n      dup1\n      swap2\n      sub\n      swap1\n      return\n        /* \"contracts/CrowdFunding.sol\":744:767  uint public numRequests */\n    tag_11:\n      callvalue\n      dup1\n      iszero\n      tag_56\n      jumpi\n      0x00\n      dup1\n      revert\n    tag_56:\n      pop\n      tag_57\n      tag_58\n      jump\t// in\n    tag_57:\n      mload(0x40)\n      tag_59\n      swap2\n      swap1\n      tag_25\n      jump\t// in\n    tag_59:\n      mload(0x40)\n      dup1\n      swap2\n      sub\n      swap1\n      return\n        /* \"contracts/CrowdFunding.sol\":233:260  uint public minContribution */\n    tag_12:\n      callvalue\n      dup1\n      iszero\n      tag_60\n      jumpi\n      0x00\n      dup1\n      revert\n    tag_60:\n      pop\n      tag_61\n      tag_62\n      jump\t// in\n    tag_61:\n      mload(0x40)\n      tag_63\n      swap2\n      swap1\n      tag_25\n      jump\t// in\n    tag_63:\n      mload(0x40)\n      dup1\n      swap2\n      sub\n      swap1\n      return\n        /* \"contracts/CrowdFunding.sol\":339:363  uint public raisedAmount */\n    tag_13:\n      callvalue\n      dup1\n      iszero\n      tag_64\n      jumpi\n      0x00\n      dup1\n      revert\n    tag_64:\n      pop\n      tag_65\n      tag_66\n      jump\t// in\n    tag_65:\n      mload(0x40)\n      tag_67\n      swap2\n      swap1\n      tag_25\n      jump\t// in\n    tag_67:\n      mload(0x40)\n      dup1\n      swap2\n      sub\n      swap1\n      return\n        /* \"contracts/CrowdFunding.sol\":295:313  uint public target */\n    tag_14:\n      callvalue\n      dup1\n      iszero\n      tag_68\n      jumpi\n      0x00\n      dup1\n      revert\n    tag_68:\n      pop\n      tag_69\n      tag_70\n      jump\t// in\n    tag_69:\n      mload(0x40)\n      tag_71\n      swap2\n      swap1\n      tag_25\n      jump\t// in\n    tag_71:\n      mload(0x40)\n      dup1\n      swap2\n      sub\n      swap1\n      return\n        /* \"contracts/CrowdFunding.sol\":1044:1405  function sendEth() public payable{\r... */\n    tag_18:\n        /* \"contracts/CrowdFunding.sol\":1112:1120  deadline */\n      sload(0x03)\n        /* \"contracts/CrowdFunding.sol\":1096:1111  block.timestamp */\n      timestamp\n        /* \"contracts/CrowdFunding.sol\":1096:1120  block.timestamp<deadline */\n      lt\n        /* \"contracts/CrowdFunding.sol\":1088:1145  require(block.timestamp<deadline,\"Deadline passed away!\") */\n      tag_73\n      jumpi\n      mload(0x40)\n      0x08c379a000000000000000000000000000000000000000000000000000000000\n      dup2\n      mstore\n      0x04\n      add\n      tag_74\n      swap1\n      tag_75\n      jump\t// in\n    tag_74:\n      mload(0x40)\n      dup1\n      swap2\n      sub\n      swap1\n      revert\n    tag_73:\n        /* \"contracts/CrowdFunding.sol\":1175:1190  minContribution */\n      sload(0x02)\n        /* \"contracts/CrowdFunding.sol\":1164:1173  msg.value */\n      callvalue\n        /* \"contracts/CrowdFunding.sol\":1164:1190  msg.value>=minContribution */\n      lt\n      iszero\n        /* \"contracts/CrowdFunding.sol\":1156:1229  require(msg.value>=minContribution,\"Minimum contribution is of 100 wei!\") */\n      tag_76\n      jumpi\n      mload(0x40)\n      0x08c379a000000000000000000000000000000000000000000000000000000000\n      dup2\n      mstore\n      0x04\n      add\n      tag_77\n      swap1\n      tag_78\n      jump\t// in\n    tag_77:\n      mload(0x40)\n      dup1\n      swap2\n      sub\n      swap1\n      revert\n    tag_76:\n        /* \"contracts/CrowdFunding.sol\":1271:1272  0 */\n      0x00\n        /* \"contracts/CrowdFunding.sol\":1245:1257  contributors */\n      dup1\n        /* \"contracts/CrowdFunding.sol\":1245:1269  contributors[msg.sender] */\n      0x00\n        /* \"contracts/CrowdFunding.sol\":1258:1268  msg.sender */\n      caller\n        /* \"contracts/CrowdFunding.sol\":1245:1269  contributors[msg.sender] */\n      0xffffffffffffffffffffffffffffffffffffffff\n      and\n      0xffffffffffffffffffffffffffffffffffffffff\n      and\n      dup2\n      mstore\n      0x20\n      add\n      swap1\n      dup2\n      mstore\n      0x20\n      add\n      0x00\n      keccak256\n      sload\n        /* \"contracts/CrowdFunding.sol\":1245:1272  contributors[msg.sender]==0 */\n      eq\n        /* \"contracts/CrowdFunding.sol\":1242:1318  if(contributors[msg.sender]==0){\r... */\n      iszero\n      tag_79\n      jumpi\n        /* \"contracts/CrowdFunding.sol\":1288:1304  noOfContributors */\n      0x06\n      0x00\n        /* \"contracts/CrowdFunding.sol\":1288:1306  noOfContributors++ */\n      dup2\n      sload\n      dup1\n      swap3\n      swap2\n      swap1\n      tag_80\n      swap1\n      tag_81\n      jump\t// in\n    tag_80:\n      swap2\n      swap1\n      pop\n      sstore\n      pop\n        /* \"contracts/CrowdFunding.sol\":1242:1318  if(contributors[msg.sender]==0){\r... */\n    tag_79:\n        /* \"contracts/CrowdFunding.sol\":1354:1363  msg.value */\n      callvalue\n        /* \"contracts/CrowdFunding.sol\":1328:1340  contributors */\n      0x00\n        /* \"contracts/CrowdFunding.sol\":1328:1352  contributors[msg.sender] */\n      dup1\n        /* \"contracts/CrowdFunding.sol\":1341:1351  msg.sender */\n      caller\n        /* \"contracts/CrowdFunding.sol\":1328:1352  contributors[msg.sender] */\n      0xffffffffffffffffffffffffffffffffffffffff\n      and\n      0xffffffffffffffffffffffffffffffffffffffff\n      and\n      dup2\n      mstore\n      0x20\n      add\n      swap1\n      dup2\n      mstore\n      0x20\n      add\n      0x00\n      keccak256\n      0x00\n        /* \"contracts/CrowdFunding.sol\":1328:1363  contributors[msg.sender]+=msg.value */\n      dup3\n      dup3\n      sload\n      tag_82\n      swap2\n      swap1\n      tag_83\n      jump\t// in\n    tag_82:\n      swap3\n      pop\n      pop\n      dup2\n      swap1\n      sstore\n      pop\n        /* \"contracts/CrowdFunding.sol\":1388:1397  msg.value */\n      callvalue\n        /* \"contracts/CrowdFunding.sol\":1374:1386  raisedAmount */\n      0x05\n      0x00\n        /* \"contracts/CrowdFunding.sol\":1374:1397  raisedAmount+=msg.value */\n      dup3\n      dup3\n      sload\n      tag_84\n      swap2\n      swap1\n      tag_83\n      jump\t// in\n    tag_84:\n      swap3\n      pop\n      pop\n      dup2\n      swap1\n      sstore\n      pop\n        /* \"contracts/CrowdFunding.sol\":1044:1405  function sendEth() public payable{\r... */\n      jump\t// out\n        /* \"contracts/CrowdFunding.sol\":103:145  mapping(address=>uint) public contributors */\n    tag_23:\n      mstore(0x20, 0x00)\n      dup1\n      0x00\n      mstore\n      keccak256(0x00, 0x40)\n      0x00\n      swap2\n      pop\n      swap1\n      pop\n      sload\n      dup2\n      jump\t// out\n        /* \"contracts/CrowdFunding.sol\":267:287  uint public deadline */\n    tag_28:\n      sload(0x03)\n      dup2\n      jump\t// out\n        /* \"contracts/CrowdFunding.sol\":2007:2408  function createRequests(string memory _description,address payable _recipient,uint _value) public onlyManager{\r... */\n    tag_34:\n        /* \"contracts/CrowdFunding.sol\":1933:1940  manager */\n      0x01\n      0x00\n      swap1\n      sload\n      swap1\n      0x0100\n      exp\n      swap1\n      div\n      0xffffffffffffffffffffffffffffffffffffffff\n      and\n        /* \"contracts/CrowdFunding.sol\":1921:1940  msg.sender==manager */\n      0xffffffffffffffffffffffffffffffffffffffff\n      and\n        /* \"contracts/CrowdFunding.sol\":1921:1931  msg.sender */\n      caller\n        /* \"contracts/CrowdFunding.sol\":1921:1940  msg.sender==manager */\n      0xffffffffffffffffffffffffffffffffffffffff\n      and\n      eq\n        /* \"contracts/CrowdFunding.sol\":1913:1979  require(msg.sender==manager,\"Only manager can call this function\") */\n      tag_86\n      jumpi\n      mload(0x40)\n      0x08c379a000000000000000000000000000000000000000000000000000000000\n      dup2\n      mstore\n      0x04\n      add\n      tag_87\n      swap1\n      tag_88\n      jump\t// in\n    tag_87:\n      mload(0x40)\n      dup1\n      swap2\n      sub\n      swap1\n      revert\n    tag_86:\n        /* \"contracts/CrowdFunding.sol\":2127:2153  Request storage newRequest */\n      0x00\n        /* \"contracts/CrowdFunding.sol\":2156:2164  requests */\n      0x07\n        /* \"contracts/CrowdFunding.sol\":2156:2177  requests[numRequests] */\n      0x00\n        /* \"contracts/CrowdFunding.sol\":2165:2176  numRequests */\n      sload(0x08)\n        /* \"contracts/CrowdFunding.sol\":2156:2177  requests[numRequests] */\n      dup2\n      mstore\n      0x20\n      add\n      swap1\n      dup2\n      mstore\n      0x20\n      add\n      0x00\n      keccak256\n        /* \"contracts/CrowdFunding.sol\":2127:2177  Request storage newRequest = requests[numRequests] */\n      swap1\n      pop\n        /* \"contracts/CrowdFunding.sol\":2188:2199  numRequests */\n      0x08\n      0x00\n        /* \"contracts/CrowdFunding.sol\":2188:2201  numRequests++ */\n      dup2\n      sload\n      dup1\n      swap3\n      swap2\n      swap1\n      tag_90\n      swap1\n      tag_81\n      jump\t// in\n    tag_90:\n      swap2\n      swap1\n      pop\n      sstore\n      pop\n        /* \"contracts/CrowdFunding.sol\":2237:2249  _description */\n      dup4\n        /* \"contracts/CrowdFunding.sol\":2212:2222  newRequest */\n      dup2\n        /* \"contracts/CrowdFunding.sol\":2212:2234  newRequest.description */\n      0x00\n      add\n        /* \"contracts/CrowdFunding.sol\":2212:2249  newRequest.description = _description */\n      swap1\n      dup1\n      mload\n      swap1\n      0x20\n      add\n      swap1\n      tag_91\n      swap3\n      swap2\n      swap1\n      tag_92\n      jump\t// in\n    tag_91:\n      pop\n        /* \"contracts/CrowdFunding.sol\":2283:2293  _recipient */\n      dup3\n        /* \"contracts/CrowdFunding.sol\":2260:2270  newRequest */\n      dup2\n        /* \"contracts/CrowdFunding.sol\":2260:2280  newRequest.recipient */\n      0x01\n      add\n      0x00\n        /* \"contracts/CrowdFunding.sol\":2260:2293  newRequest.recipient = _recipient */\n      0x0100\n      exp\n      dup2\n      sload\n      dup2\n      0xffffffffffffffffffffffffffffffffffffffff\n      mul\n      not\n      and\n      swap1\n      dup4\n      0xffffffffffffffffffffffffffffffffffffffff\n      and\n      mul\n      or\n      swap1\n      sstore\n      pop\n        /* \"contracts/CrowdFunding.sol\":2323:2329  _value */\n      dup2\n        /* \"contracts/CrowdFunding.sol\":2304:2314  newRequest */\n      dup2\n        /* \"contracts/CrowdFunding.sol\":2304:2320  newRequest.value */\n      0x02\n      add\n        /* \"contracts/CrowdFunding.sol\":2304:2329  newRequest.value = _value */\n      dup2\n      swap1\n      sstore\n      pop\n        /* \"contracts/CrowdFunding.sol\":2361:2366  false */\n      0x00\n        /* \"contracts/CrowdFunding.sol\":2340:2350  newRequest */\n      dup2\n        /* \"contracts/CrowdFunding.sol\":2340:2360  newRequest.completed */\n      0x03\n      add\n      0x00\n        /* \"contracts/CrowdFunding.sol\":2340:2366  newRequest.completed=false */\n      0x0100\n      exp\n      dup2\n      sload\n      dup2\n      0xff\n      mul\n      not\n      and\n      swap1\n      dup4\n      iszero\n      iszero\n      mul\n      or\n      swap1\n      sstore\n      pop\n        /* \"contracts/CrowdFunding.sol\":2399:2400  0 */\n      0x00\n        /* \"contracts/CrowdFunding.sol\":2377:2387  newRequest */\n      dup2\n        /* \"contracts/CrowdFunding.sol\":2377:2398  newRequest.noOfVoters */\n      0x04\n      add\n        /* \"contracts/CrowdFunding.sol\":2377:2400  newRequest.noOfVoters=0 */\n      dup2\n      swap1\n      sstore\n      pop\n        /* \"contracts/CrowdFunding.sol\":2116:2408  {\r... */\n      pop\n        /* \"contracts/CrowdFunding.sol\":2007:2408  function createRequests(string memory _description,address payable _recipient,uint _value) public onlyManager{\r... */\n      pop\n      pop\n      pop\n      jump\t// out\n        /* \"contracts/CrowdFunding.sol\":192:214  address public manager */\n    tag_37:\n      0x01\n      0x00\n      swap1\n      sload\n      swap1\n      0x0100\n      exp\n      swap1\n      div\n      0xffffffffffffffffffffffffffffffffffffffff\n      and\n      dup2\n      jump\t// out\n        /* \"contracts/CrowdFunding.sol\":2417:2622  function voteRequest(uint _reqno) public{\r... */\n    tag_44:\n        /* \"contracts/CrowdFunding.sol\":2501:2502  0 */\n      0x00\n        /* \"contracts/CrowdFunding.sol\":2476:2488  contributors */\n      dup1\n        /* \"contracts/CrowdFunding.sol\":2476:2500  contributors[msg.sender] */\n      0x00\n        /* \"contracts/CrowdFunding.sol\":2489:2499  msg.sender */\n      caller\n        /* \"contracts/CrowdFunding.sol\":2476:2500  contributors[msg.sender] */\n      0xffffffffffffffffffffffffffffffffffffffff\n      and\n      0xffffffffffffffffffffffffffffffffffffffff\n      and\n      dup2\n      mstore\n      0x20\n      add\n      swap1\n      dup2\n      mstore\n      0x20\n      add\n      0x00\n      keccak256\n      sload\n        /* \"contracts/CrowdFunding.sol\":2476:2502  contributors[msg.sender]>0 */\n      gt\n        /* \"contracts/CrowdFunding.sol\":2468:2546  require(contributors[msg.sender]>0,\"You must be contributor in order to vote\") */\n      tag_94\n      jumpi\n      mload(0x40)\n      0x08c379a000000000000000000000000000000000000000000000000000000000\n      dup2\n      mstore\n      0x04\n      add\n      tag_95\n      swap1\n      tag_96\n      jump\t// in\n    tag_95:\n      mload(0x40)\n      dup1\n      swap2\n      sub\n      swap1\n      revert\n    tag_94:\n        /* \"contracts/CrowdFunding.sol\":2557:2584  Request storage thisRequest */\n      0x00\n        /* \"contracts/CrowdFunding.sol\":2587:2595  requests */\n      0x07\n        /* \"contracts/CrowdFunding.sol\":2587:2603  requests[_reqno] */\n      0x00\n        /* \"contracts/CrowdFunding.sol\":2596:2602  _reqno */\n      dup4\n        /* \"contracts/CrowdFunding.sol\":2587:2603  requests[_reqno] */\n      dup2\n      mstore\n      0x20\n      add\n      swap1\n      dup2\n      mstore\n      0x20\n      add\n      0x00\n      keccak256\n        /* \"contracts/CrowdFunding.sol\":2557:2603  Request storage thisRequest = requests[_reqno] */\n      swap1\n      pop\n        /* \"contracts/CrowdFunding.sol\":2457:2622  {\r... */\n      pop\n        /* \"contracts/CrowdFunding.sol\":2417:2622  function voteRequest(uint _reqno) public{\r... */\n      pop\n      jump\t// out\n        /* \"contracts/CrowdFunding.sol\":370:398  uint public noOfContributors */\n    tag_47:\n      sload(0x06)\n      dup2\n      jump\t// out\n        /* \"contracts/CrowdFunding.sol\":1523:1872  function refund() public{\r... */\n    tag_51:\n        /* \"contracts/CrowdFunding.sol\":1582:1590  deadline */\n      sload(0x03)\n        /* \"contracts/CrowdFunding.sol\":1566:1581  block.timestamp */\n      timestamp\n        /* \"contracts/CrowdFunding.sol\":1566:1590  block.timestamp>deadline */\n      gt\n        /* \"contracts/CrowdFunding.sol\":1566:1613  block.timestamp>deadline && target>raisedAmount */\n      dup1\n      iszero\n      tag_98\n      jumpi\n      pop\n        /* \"contracts/CrowdFunding.sol\":1601:1613  raisedAmount */\n      sload(0x05)\n        /* \"contracts/CrowdFunding.sol\":1594:1600  target */\n      sload(0x04)\n        /* \"contracts/CrowdFunding.sol\":1594:1613  target>raisedAmount */\n      gt\n        /* \"contracts/CrowdFunding.sol\":1566:1613  block.timestamp>deadline && target>raisedAmount */\n    tag_98:\n        /* \"contracts/CrowdFunding.sol\":1558:1648  require(block.timestamp>deadline && target>raisedAmount,\"You are not eligible for refund\") */\n      tag_99\n      jumpi\n      mload(0x40)\n      0x08c379a000000000000000000000000000000000000000000000000000000000\n      dup2\n      mstore\n      0x04\n      add\n      tag_100\n      swap1\n      tag_101\n      jump\t// in\n    tag_100:\n      mload(0x40)\n      dup1\n      swap2\n      sub\n      swap1\n      revert\n    tag_99:\n        /* \"contracts/CrowdFunding.sol\":1692:1693  0 */\n      0x00\n        /* \"contracts/CrowdFunding.sol\":1667:1679  contributors */\n      dup1\n        /* \"contracts/CrowdFunding.sol\":1667:1691  contributors[msg.sender] */\n      0x00\n        /* \"contracts/CrowdFunding.sol\":1680:1690  msg.sender */\n      caller\n        /* \"contracts/CrowdFunding.sol\":1667:1691  contributors[msg.sender] */\n      0xffffffffffffffffffffffffffffffffffffffff\n      and\n      0xffffffffffffffffffffffffffffffffffffffff\n      and\n      dup2\n      mstore\n      0x20\n      add\n      swap1\n      dup2\n      mstore\n      0x20\n      add\n      0x00\n      keccak256\n      sload\n        /* \"contracts/CrowdFunding.sol\":1667:1693  contributors[msg.sender]>0 */\n      gt\n        /* \"contracts/CrowdFunding.sol\":1659:1724  require(contributors[msg.sender]>0,\"You haven't contributed yet\") */\n      tag_102\n      jumpi\n      mload(0x40)\n      0x08c379a000000000000000000000000000000000000000000000000000000000\n      dup2\n      mstore\n      0x04\n      add\n      tag_103\n      swap1\n      tag_104\n      jump\t// in\n    tag_103:\n      mload(0x40)\n      dup1\n      swap2\n      sub\n      swap1\n      revert\n    tag_102:\n        /* \"contracts/CrowdFunding.sol\":1735:1755  address payable user */\n      0x00\n        /* \"contracts/CrowdFunding.sol\":1766:1776  msg.sender */\n      caller\n        /* \"contracts/CrowdFunding.sol\":1735:1777  address payable user = payable(msg.sender) */\n      swap1\n      pop\n        /* \"contracts/CrowdFunding.sol\":1788:1792  user */\n      dup1\n        /* \"contracts/CrowdFunding.sol\":1788:1801  user.transfer */\n      0xffffffffffffffffffffffffffffffffffffffff\n      and\n        /* \"contracts/CrowdFunding.sol\":1788:1827  user.transfer(contributors[msg.sender]) */\n      0x08fc\n        /* \"contracts/CrowdFunding.sol\":1802:1814  contributors */\n      0x00\n        /* \"contracts/CrowdFunding.sol\":1802:1826  contributors[msg.sender] */\n      dup1\n        /* \"contracts/CrowdFunding.sol\":1815:1825  msg.sender */\n      caller\n        /* \"contracts/CrowdFunding.sol\":1802:1826  contributors[msg.sender] */\n      0xffffffffffffffffffffffffffffffffffffffff\n      and\n      0xffffffffffffffffffffffffffffffffffffffff\n      and\n      dup2\n      mstore\n      0x20\n      add\n      swap1\n      dup2\n      mstore\n      0x20\n      add\n      0x00\n      keccak256\n      sload\n        /* \"contracts/CrowdFunding.sol\":1788:1827  user.transfer(contributors[msg.sender]) */\n      swap1\n      dup2\n      iszero\n      mul\n      swap1\n      mload(0x40)\n      0x00\n      mload(0x40)\n      dup1\n      dup4\n      sub\n      dup2\n      dup6\n      dup9\n      dup9\n      call\n      swap4\n      pop\n      pop\n      pop\n      pop\n      iszero\n      dup1\n      iszero\n      tag_106\n      jumpi\n      returndatasize\n      0x00\n      dup1\n      returndatacopy\n      revert(0x00, returndatasize)\n    tag_106:\n      pop\n        /* \"contracts/CrowdFunding.sol\":1863:1864  0 */\n      0x00\n        /* \"contracts/CrowdFunding.sol\":1838:1850  contributors */\n      dup1\n        /* \"contracts/CrowdFunding.sol\":1838:1862  contributors[msg.sender] */\n      0x00\n        /* \"contracts/CrowdFunding.sol\":1851:1861  msg.sender */\n      caller\n        /* \"contracts/CrowdFunding.sol\":1838:1862  contributors[msg.sender] */\n      0xffffffffffffffffffffffffffffffffffffffff\n      and\n      0xffffffffffffffffffffffffffffffffffffffff\n      and\n      dup2\n      mstore\n      0x20\n      add\n      swap1\n      dup2\n      mstore\n      0x20\n      add\n      0x00\n      keccak256\n        /* \"contracts/CrowdFunding.sol\":1838:1864  contributors[msg.sender]=0 */\n      dup2\n      swap1\n      sstore\n      pop\n        /* \"contracts/CrowdFunding.sol\":1547:1872  {\r... */\n      pop\n        /* \"contracts/CrowdFunding.sol\":1523:1872  function refund() public{\r... */\n      jump\t// out\n        /* \"contracts/CrowdFunding.sol\":1413:1515  function getContractBalance() public view returns(uint){\r... */\n    tag_54:\n        /* \"contracts/CrowdFunding.sol\":1463:1467  uint */\n      0x00\n        /* \"contracts/CrowdFunding.sol\":1486:1507  address(this).balance */\n      selfbalance\n        /* \"contracts/CrowdFunding.sol\":1479:1507  return address(this).balance */\n      swap1\n      pop\n        /* \"contracts/CrowdFunding.sol\":1413:1515  function getContractBalance() public view returns(uint){\r... */\n      swap1\n      jump\t// out\n        /* \"contracts/CrowdFunding.sol\":744:767  uint public numRequests */\n    tag_58:\n      sload(0x08)\n      dup2\n      jump\t// out\n        /* \"contracts/CrowdFunding.sol\":233:260  uint public minContribution */\n    tag_62:\n      sload(0x02)\n      dup2\n      jump\t// out\n        /* \"contracts/CrowdFunding.sol\":339:363  uint public raisedAmount */\n    tag_66:\n      sload(0x05)\n      dup2\n      jump\t// out\n        /* \"contracts/CrowdFunding.sol\":295:313  uint public target */\n    tag_70:\n      sload(0x04)\n      dup2\n      jump\t// out\n    tag_92:\n      dup3\n      dup1\n      sload\n      tag_108\n      swap1\n      tag_109\n      jump\t// in\n    tag_108:\n      swap1\n      0x00\n      mstore\n      keccak256(0x00, 0x20)\n      swap1\n      0x1f\n      add\n      0x20\n      swap1\n      div\n      dup2\n      add\n      swap3\n      dup3\n      tag_111\n      jumpi\n      0x00\n      dup6\n      sstore\n      jump(tag_110)\n    tag_111:\n      dup3\n      0x1f\n      lt\n      tag_112\n      jumpi\n      dup1\n      mload\n      not(0xff)\n      and\n      dup4\n      dup1\n      add\n      or\n      dup6\n      sstore\n      jump(tag_110)\n    tag_112:\n      dup3\n      dup1\n      add\n      0x01\n      add\n      dup6\n      sstore\n      dup3\n      iszero\n      tag_110\n      jumpi\n      swap2\n      dup3\n      add\n    tag_113:\n      dup3\n      dup2\n      gt\n      iszero\n      tag_114\n      jumpi\n      dup3\n      mload\n      dup3\n      sstore\n      swap2\n      0x20\n      add\n      swap2\n      swap1\n      0x01\n      add\n      swap1\n      jump(tag_113)\n    tag_114:\n    tag_110:\n      pop\n      swap1\n      pop\n      tag_115\n      swap2\n      swap1\n      tag_116\n      jump\t// in\n    tag_115:\n      pop\n      swap1\n      jump\t// out\n    tag_116:\n    tag_117:\n      dup1\n      dup3\n      gt\n      iszero\n      tag_118\n      jumpi\n      0x00\n      dup2\n      0x00\n      swap1\n      sstore\n      pop\n      0x01\n      add\n      jump(tag_117)\n    tag_118:\n      pop\n      swap1\n      jump\t// out\n        /* \"#utility.yul\":7:419   */\n    tag_120:\n        /* \"#utility.yul\":85:90   */\n      0x00\n        /* \"#utility.yul\":110:176   */\n      tag_122\n        /* \"#utility.yul\":126:175   */\n      tag_123\n        /* \"#utility.yul\":168:174   */\n      dup5\n        /* \"#utility.yul\":126:175   */\n      tag_124\n      jump\t// in\n    tag_123:\n        /* \"#utility.yul\":110:176   */\n      tag_125\n      jump\t// in\n    tag_122:\n        /* \"#utility.yul\":101:176   */\n      swap1\n      pop\n        /* \"#utility.yul\":199:205   */\n      dup3\n        /* \"#utility.yul\":192:197   */\n      dup2\n        /* \"#utility.yul\":185:206   */\n      mstore\n        /* \"#utility.yul\":237:241   */\n      0x20\n        /* \"#utility.yul\":230:235   */\n      dup2\n        /* \"#utility.yul\":226:242   */\n      add\n        /* \"#utility.yul\":275:278   */\n      dup5\n        /* \"#utility.yul\":266:272   */\n      dup5\n        /* \"#utility.yul\":261:264   */\n      dup5\n        /* \"#utility.yul\":257:273   */\n      add\n        /* \"#utility.yul\":254:279   */\n      gt\n        /* \"#utility.yul\":251:363   */\n      iszero\n      tag_126\n      jumpi\n        /* \"#utility.yul\":282:361   */\n      tag_127\n      tag_128\n      jump\t// in\n    tag_127:\n        /* \"#utility.yul\":251:363   */\n    tag_126:\n        /* \"#utility.yul\":372:413   */\n      tag_129\n        /* \"#utility.yul\":406:412   */\n      dup5\n        /* \"#utility.yul\":401:404   */\n      dup3\n        /* \"#utility.yul\":396:399   */\n      dup6\n        /* \"#utility.yul\":372:413   */\n      tag_130\n      jump\t// in\n    tag_129:\n        /* \"#utility.yul\":91:419   */\n      pop\n        /* \"#utility.yul\":7:419   */\n      swap4\n      swap3\n      pop\n      pop\n      pop\n      jump\t// out\n        /* \"#utility.yul\":425:564   */\n    tag_131:\n        /* \"#utility.yul\":471:476   */\n      0x00\n        /* \"#utility.yul\":509:515   */\n      dup2\n        /* \"#utility.yul\":496:516   */\n      calldataload\n        /* \"#utility.yul\":487:516   */\n      swap1\n      pop\n        /* \"#utility.yul\":525:558   */\n      tag_133\n        /* \"#utility.yul\":552:557   */\n      dup2\n        /* \"#utility.yul\":525:558   */\n      tag_134\n      jump\t// in\n    tag_133:\n        /* \"#utility.yul\":425:564   */\n      swap3\n      swap2\n      pop\n      pop\n      jump\t// out\n        /* \"#utility.yul\":570:725   */\n    tag_135:\n        /* \"#utility.yul\":624:629   */\n      0x00\n        /* \"#utility.yul\":662:668   */\n      dup2\n        /* \"#utility.yul\":649:669   */\n      calldataload\n        /* \"#utility.yul\":640:669   */\n      swap1\n      pop\n        /* \"#utility.yul\":678:719   */\n      tag_137\n        /* \"#utility.yul\":713:718   */\n      dup2\n        /* \"#utility.yul\":678:719   */\n      tag_138\n      jump\t// in\n    tag_137:\n        /* \"#utility.yul\":570:725   */\n      swap3\n      swap2\n      pop\n      pop\n      jump\t// out\n        /* \"#utility.yul\":745:1085   */\n    tag_139:\n        /* \"#utility.yul\":801:806   */\n      0x00\n        /* \"#utility.yul\":850:853   */\n      dup3\n        /* \"#utility.yul\":843:847   */\n      0x1f\n        /* \"#utility.yul\":835:841   */\n      dup4\n        /* \"#utility.yul\":831:848   */\n      add\n        /* \"#utility.yul\":827:854   */\n      slt\n        /* \"#utility.yul\":817:939   */\n      tag_141\n      jumpi\n        /* \"#utility.yul\":858:937   */\n      tag_142\n      tag_143\n      jump\t// in\n    tag_142:\n        /* \"#utility.yul\":817:939   */\n    tag_141:\n        /* \"#utility.yul\":975:981   */\n      dup2\n        /* \"#utility.yul\":962:982   */\n      calldataload\n        /* \"#utility.yul\":1000:1079   */\n      tag_144\n        /* \"#utility.yul\":1075:1078   */\n      dup5\n        /* \"#utility.yul\":1067:1073   */\n      dup3\n        /* \"#utility.yul\":1060:1064   */\n      0x20\n        /* \"#utility.yul\":1052:1058   */\n      dup7\n        /* \"#utility.yul\":1048:1065   */\n      add\n        /* \"#utility.yul\":1000:1079   */\n      tag_120\n      jump\t// in\n    tag_144:\n        /* \"#utility.yul\":991:1079   */\n      swap2\n      pop\n        /* \"#utility.yul\":807:1085   */\n      pop\n        /* \"#utility.yul\":745:1085   */\n      swap3\n      swap2\n      pop\n      pop\n      jump\t// out\n        /* \"#utility.yul\":1091:1230   */\n    tag_145:\n        /* \"#utility.yul\":1137:1142   */\n      0x00\n        /* \"#utility.yul\":1175:1181   */\n      dup2\n        /* \"#utility.yul\":1162:1182   */\n      calldataload\n        /* \"#utility.yul\":1153:1182   */\n      swap1\n      pop\n        /* \"#utility.yul\":1191:1224   */\n      tag_147\n        /* \"#utility.yul\":1218:1223   */\n      dup2\n        /* \"#utility.yul\":1191:1224   */\n      tag_148\n      jump\t// in\n    tag_147:\n        /* \"#utility.yul\":1091:1230   */\n      swap3\n      swap2\n      pop\n      pop\n      jump\t// out\n        /* \"#utility.yul\":1236:1565   */\n    tag_22:\n        /* \"#utility.yul\":1295:1301   */\n      0x00\n        /* \"#utility.yul\":1344:1346   */\n      0x20\n        /* \"#utility.yul\":1332:1341   */\n      dup3\n        /* \"#utility.yul\":1323:1330   */\n      dup5\n        /* \"#utility.yul\":1319:1342   */\n      sub\n        /* \"#utility.yul\":1315:1347   */\n      slt\n        /* \"#utility.yul\":1312:1431   */\n      iszero\n      tag_150\n      jumpi\n        /* \"#utility.yul\":1350:1429   */\n      tag_151\n      tag_152\n      jump\t// in\n    tag_151:\n        /* \"#utility.yul\":1312:1431   */\n    tag_150:\n        /* \"#utility.yul\":1470:1471   */\n      0x00\n        /* \"#utility.yul\":1495:1548   */\n      tag_153\n        /* \"#utility.yul\":1540:1547   */\n      dup5\n        /* \"#utility.yul\":1531:1537   */\n      dup3\n        /* \"#utility.yul\":1520:1529   */\n      dup6\n        /* \"#utility.yul\":1516:1538   */\n      add\n        /* \"#utility.yul\":1495:1548   */\n      tag_131\n      jump\t// in\n    tag_153:\n        /* \"#utility.yul\":1485:1548   */\n      swap2\n      pop\n        /* \"#utility.yul\":1441:1558   */\n      pop\n        /* \"#utility.yul\":1236:1565   */\n      swap3\n      swap2\n      pop\n      pop\n      jump\t// out\n        /* \"#utility.yul\":1571:2386   */\n    tag_33:\n        /* \"#utility.yul\":1666:1672   */\n      0x00\n        /* \"#utility.yul\":1674:1680   */\n      dup1\n        /* \"#utility.yul\":1682:1688   */\n      0x00\n        /* \"#utility.yul\":1731:1733   */\n      0x60\n        /* \"#utility.yul\":1719:1728   */\n      dup5\n        /* \"#utility.yul\":1710:1717   */\n      dup7\n        /* \"#utility.yul\":1706:1729   */\n      sub\n        /* \"#utility.yul\":1702:1734   */\n      slt\n        /* \"#utility.yul\":1699:1818   */\n      iszero\n      tag_155\n      jumpi\n        /* \"#utility.yul\":1737:1816   */\n      tag_156\n      tag_152\n      jump\t// in\n    tag_156:\n        /* \"#utility.yul\":1699:1818   */\n    tag_155:\n        /* \"#utility.yul\":1885:1886   */\n      0x00\n        /* \"#utility.yul\":1874:1883   */\n      dup5\n        /* \"#utility.yul\":1870:1887   */\n      add\n        /* \"#utility.yul\":1857:1888   */\n      calldataload\n        /* \"#utility.yul\":1915:1933   */\n      0xffffffffffffffff\n        /* \"#utility.yul\":1907:1913   */\n      dup2\n        /* \"#utility.yul\":1904:1934   */\n      gt\n        /* \"#utility.yul\":1901:2018   */\n      iszero\n      tag_157\n      jumpi\n        /* \"#utility.yul\":1937:2016   */\n      tag_158\n      tag_159\n      jump\t// in\n    tag_158:\n        /* \"#utility.yul\":1901:2018   */\n    tag_157:\n        /* \"#utility.yul\":2042:2105   */\n      tag_160\n        /* \"#utility.yul\":2097:2104   */\n      dup7\n        /* \"#utility.yul\":2088:2094   */\n      dup3\n        /* \"#utility.yul\":2077:2086   */\n      dup8\n        /* \"#utility.yul\":2073:2095   */\n      add\n        /* \"#utility.yul\":2042:2105   */\n      tag_139\n      jump\t// in\n    tag_160:\n        /* \"#utility.yul\":2032:2105   */\n      swap4\n      pop\n        /* \"#utility.yul\":1828:2115   */\n      pop\n        /* \"#utility.yul\":2154:2156   */\n      0x20\n        /* \"#utility.yul\":2180:2241   */\n      tag_161\n        /* \"#utility.yul\":2233:2240   */\n      dup7\n        /* \"#utility.yul\":2224:2230   */\n      dup3\n        /* \"#utility.yul\":2213:2222   */\n      dup8\n        /* \"#utility.yul\":2209:2231   */\n      add\n        /* \"#utility.yul\":2180:2241   */\n      tag_135\n      jump\t// in\n    tag_161:\n        /* \"#utility.yul\":2170:2241   */\n      swap3\n      pop\n        /* \"#utility.yul\":2125:2251   */\n      pop\n        /* \"#utility.yul\":2290:2292   */\n      0x40\n        /* \"#utility.yul\":2316:2369   */\n      tag_162\n        /* \"#utility.yul\":2361:2368   */\n      dup7\n        /* \"#utility.yul\":2352:2358   */\n      dup3\n        /* \"#utility.yul\":2341:2350   */\n      dup8\n        /* \"#utility.yul\":2337:2359   */\n      add\n        /* \"#utility.yul\":2316:2369   */\n      tag_145\n      jump\t// in\n    tag_162:\n        /* \"#utility.yul\":2306:2369   */\n      swap2\n      pop\n        /* \"#utility.yul\":2261:2379   */\n      pop\n        /* \"#utility.yul\":1571:2386   */\n      swap3\n      pop\n      swap3\n      pop\n      swap3\n      jump\t// out\n        /* \"#utility.yul\":2392:2721   */\n    tag_43:\n        /* \"#utility.yul\":2451:2457   */\n      0x00\n        /* \"#utility.yul\":2500:2502   */\n      0x20\n        /* \"#utility.yul\":2488:2497   */\n      dup3\n        /* \"#utility.yul\":2479:2486   */\n      dup5\n        /* \"#utility.yul\":2475:2498   */\n      sub\n        /* \"#utility.yul\":2471:2503   */\n      slt\n        /* \"#utility.yul\":2468:2587   */\n      iszero\n      tag_164\n      jumpi\n        /* \"#utility.yul\":2506:2585   */\n      tag_165\n      tag_152\n      jump\t// in\n    tag_165:\n        /* \"#utility.yul\":2468:2587   */\n    tag_164:\n        /* \"#utility.yul\":2626:2627   */\n      0x00\n        /* \"#utility.yul\":2651:2704   */\n      tag_166\n        /* \"#utility.yul\":2696:2703   */\n      dup5\n        /* \"#utility.yul\":2687:2693   */\n      dup3\n        /* \"#utility.yul\":2676:2685   */\n      dup6\n        /* \"#utility.yul\":2672:2694   */\n      add\n        /* \"#utility.yul\":2651:2704   */\n      tag_145\n      jump\t// in\n    tag_166:\n        /* \"#utility.yul\":2641:2704   */\n      swap2\n      pop\n        /* \"#utility.yul\":2597:2714   */\n      pop\n        /* \"#utility.yul\":2392:2721   */\n      swap3\n      swap2\n      pop\n      pop\n      jump\t// out\n        /* \"#utility.yul\":2727:2845   */\n    tag_167:\n        /* \"#utility.yul\":2814:2838   */\n      tag_169\n        /* \"#utility.yul\":2832:2837   */\n      dup2\n        /* \"#utility.yul\":2814:2838   */\n      tag_170\n      jump\t// in\n    tag_169:\n        /* \"#utility.yul\":2809:2812   */\n      dup3\n        /* \"#utility.yul\":2802:2839   */\n      mstore\n        /* \"#utility.yul\":2727:2845   */\n      pop\n      pop\n      jump\t// out\n        /* \"#utility.yul\":2851:3217   */\n    tag_171:\n        /* \"#utility.yul\":2993:2996   */\n      0x00\n        /* \"#utility.yul\":3014:3081   */\n      tag_173\n        /* \"#utility.yul\":3078:3080   */\n      0x23\n        /* \"#utility.yul\":3073:3076   */\n      dup4\n        /* \"#utility.yul\":3014:3081   */\n      tag_174\n      jump\t// in\n    tag_173:\n        /* \"#utility.yul\":3007:3081   */\n      swap2\n      pop\n        /* \"#utility.yul\":3090:3183   */\n      tag_175\n        /* \"#utility.yul\":3179:3182   */\n      dup3\n        /* \"#utility.yul\":3090:3183   */\n      tag_176\n      jump\t// in\n    tag_175:\n        /* \"#utility.yul\":3208:3210   */\n      0x40\n        /* \"#utility.yul\":3203:3206   */\n      dup3\n        /* \"#utility.yul\":3199:3211   */\n      add\n        /* \"#utility.yul\":3192:3211   */\n      swap1\n      pop\n        /* \"#utility.yul\":2851:3217   */\n      swap2\n      swap1\n      pop\n      jump\t// out\n        /* \"#utility.yul\":3223:3589   */\n    tag_177:\n        /* \"#utility.yul\":3365:3368   */\n      0x00\n        /* \"#utility.yul\":3386:3453   */\n      tag_179\n        /* \"#utility.yul\":3450:3452   */\n      0x23\n        /* \"#utility.yul\":3445:3448   */\n      dup4\n        /* \"#utility.yul\":3386:3453   */\n      tag_174\n      jump\t// in\n    tag_179:\n        /* \"#utility.yul\":3379:3453   */\n      swap2\n      pop\n        /* \"#utility.yul\":3462:3555   */\n      tag_180\n        /* \"#utility.yul\":3551:3554   */\n      dup3\n        /* \"#utility.yul\":3462:3555   */\n      tag_181\n      jump\t// in\n    tag_180:\n        /* \"#utility.yul\":3580:3582   */\n      0x40\n        /* \"#utility.yul\":3575:3578   */\n      dup3\n        /* \"#utility.yul\":3571:3583   */\n      add\n        /* \"#utility.yul\":3564:3583   */\n      swap1\n      pop\n        /* \"#utility.yul\":3223:3589   */\n      swap2\n      swap1\n      pop\n      jump\t// out\n        /* \"#utility.yul\":3595:3961   */\n    tag_182:\n        /* \"#utility.yul\":3737:3740   */\n      0x00\n        /* \"#utility.yul\":3758:3825   */\n      tag_184\n        /* \"#utility.yul\":3822:3824   */\n      0x1b\n        /* \"#utility.yul\":3817:3820   */\n      dup4\n        /* \"#utility.yul\":3758:3825   */\n      tag_174\n      jump\t// in\n    tag_184:\n        /* \"#utility.yul\":3751:3825   */\n      swap2\n      pop\n        /* \"#utility.yul\":3834:3927   */\n      tag_185\n        /* \"#utility.yul\":3923:3926   */\n      dup3\n        /* \"#utility.yul\":3834:3927   */\n      tag_186\n      jump\t// in\n    tag_185:\n        /* \"#utility.yul\":3952:3954   */\n      0x20\n        /* \"#utility.yul\":3947:3950   */\n      dup3\n        /* \"#utility.yul\":3943:3955   */\n      add\n        /* \"#utility.yul\":3936:3955   */\n      swap1\n      pop\n        /* \"#utility.yul\":3595:3961   */\n      swap2\n      swap1\n      pop\n      jump\t// out\n        /* \"#utility.yul\":3967:4333   */\n    tag_187:\n        /* \"#utility.yul\":4109:4112   */\n      0x00\n        /* \"#utility.yul\":4130:4197   */\n      tag_189\n        /* \"#utility.yul\":4194:4196   */\n      0x1f\n        /* \"#utility.yul\":4189:4192   */\n      dup4\n        /* \"#utility.yul\":4130:4197   */\n      tag_174\n      jump\t// in\n    tag_189:\n        /* \"#utility.yul\":4123:4197   */\n      swap2\n      pop\n        /* \"#utility.yul\":4206:4299   */\n      tag_190\n        /* \"#utility.yul\":4295:4298   */\n      dup3\n        /* \"#utility.yul\":4206:4299   */\n      tag_191\n      jump\t// in\n    tag_190:\n        /* \"#utility.yul\":4324:4326   */\n      0x20\n        /* \"#utility.yul\":4319:4322   */\n      dup3\n        /* \"#utility.yul\":4315:4327   */\n      add\n        /* \"#utility.yul\":4308:4327   */\n      swap1\n      pop\n        /* \"#utility.yul\":3967:4333   */\n      swap2\n      swap1\n      pop\n      jump\t// out\n        /* \"#utility.yul\":4339:4705   */\n    tag_192:\n        /* \"#utility.yul\":4481:4484   */\n      0x00\n        /* \"#utility.yul\":4502:4569   */\n      tag_194\n        /* \"#utility.yul\":4566:4568   */\n      0x28\n        /* \"#utility.yul\":4561:4564   */\n      dup4\n        /* \"#utility.yul\":4502:4569   */\n      tag_174\n      jump\t// in\n    tag_194:\n        /* \"#utility.yul\":4495:4569   */\n      swap2\n      pop\n        /* \"#utility.yul\":4578:4671   */\n      tag_195\n        /* \"#utility.yul\":4667:4670   */\n      dup3\n        /* \"#utility.yul\":4578:4671   */\n      tag_196\n      jump\t// in\n    tag_195:\n        /* \"#utility.yul\":4696:4698   */\n      0x40\n        /* \"#utility.yul\":4691:4694   */\n      dup3\n        /* \"#utility.yul\":4687:4699   */\n      add\n        /* \"#utility.yul\":4680:4699   */\n      swap1\n      pop\n        /* \"#utility.yul\":4339:4705   */\n      swap2\n      swap1\n      pop\n      jump\t// out\n        /* \"#utility.yul\":4711:5077   */\n    tag_197:\n        /* \"#utility.yul\":4853:4856   */\n      0x00\n        /* \"#utility.yul\":4874:4941   */\n      tag_199\n        /* \"#utility.yul\":4938:4940   */\n      0x15\n        /* \"#utility.yul\":4933:4936   */\n      dup4\n        /* \"#utility.yul\":4874:4941   */\n      tag_174\n      jump\t// in\n    tag_199:\n        /* \"#utility.yul\":4867:4941   */\n      swap2\n      pop\n        /* \"#utility.yul\":4950:5043   */\n      tag_200\n        /* \"#utility.yul\":5039:5042   */\n      dup3\n        /* \"#utility.yul\":4950:5043   */\n      tag_201\n      jump\t// in\n    tag_200:\n        /* \"#utility.yul\":5068:5070   */\n      0x20\n        /* \"#utility.yul\":5063:5066   */\n      dup3\n        /* \"#utility.yul\":5059:5071   */\n      add\n        /* \"#utility.yul\":5052:5071   */\n      swap1\n      pop\n        /* \"#utility.yul\":4711:5077   */\n      swap2\n      swap1\n      pop\n      jump\t// out\n        /* \"#utility.yul\":5083:5201   */\n    tag_202:\n        /* \"#utility.yul\":5170:5194   */\n      tag_204\n        /* \"#utility.yul\":5188:5193   */\n      dup2\n        /* \"#utility.yul\":5170:5194   */\n      tag_205\n      jump\t// in\n    tag_204:\n        /* \"#utility.yul\":5165:5168   */\n      dup3\n        /* \"#utility.yul\":5158:5195   */\n      mstore\n        /* \"#utility.yul\":5083:5201   */\n      pop\n      pop\n      jump\t// out\n        /* \"#utility.yul\":5207:5429   */\n    tag_39:\n        /* \"#utility.yul\":5300:5304   */\n      0x00\n        /* \"#utility.yul\":5338:5340   */\n      0x20\n        /* \"#utility.yul\":5327:5336   */\n      dup3\n        /* \"#utility.yul\":5323:5341   */\n      add\n        /* \"#utility.yul\":5315:5341   */\n      swap1\n      pop\n        /* \"#utility.yul\":5351:5422   */\n      tag_207\n        /* \"#utility.yul\":5419:5420   */\n      0x00\n        /* \"#utility.yul\":5408:5417   */\n      dup4\n        /* \"#utility.yul\":5404:5421   */\n      add\n        /* \"#utility.yul\":5395:5401   */\n      dup5\n        /* \"#utility.yul\":5351:5422   */\n      tag_167\n      jump\t// in\n    tag_207:\n        /* \"#utility.yul\":5207:5429   */\n      swap3\n      swap2\n      pop\n      pop\n      jump\t// out\n        /* \"#utility.yul\":5435:5854   */\n    tag_88:\n        /* \"#utility.yul\":5601:5605   */\n      0x00\n        /* \"#utility.yul\":5639:5641   */\n      0x20\n        /* \"#utility.yul\":5628:5637   */\n      dup3\n        /* \"#utility.yul\":5624:5642   */\n      add\n        /* \"#utility.yul\":5616:5642   */\n      swap1\n      pop\n        /* \"#utility.yul\":5688:5697   */\n      dup2\n        /* \"#utility.yul\":5682:5686   */\n      dup2\n        /* \"#utility.yul\":5678:5698   */\n      sub\n        /* \"#utility.yul\":5674:5675   */\n      0x00\n        /* \"#utility.yul\":5663:5672   */\n      dup4\n        /* \"#utility.yul\":5659:5676   */\n      add\n        /* \"#utility.yul\":5652:5699   */\n      mstore\n        /* \"#utility.yul\":5716:5847   */\n      tag_209\n        /* \"#utility.yul\":5842:5846   */\n      dup2\n        /* \"#utility.yul\":5716:5847   */\n      tag_171\n      jump\t// in\n    tag_209:\n        /* \"#utility.yul\":5708:5847   */\n      swap1\n      pop\n        /* \"#utility.yul\":5435:5854   */\n      swap2\n      swap1\n      pop\n      jump\t// out\n        /* \"#utility.yul\":5860:6279   */\n    tag_78:\n        /* \"#utility.yul\":6026:6030   */\n      0x00\n        /* \"#utility.yul\":6064:6066   */\n      0x20\n        /* \"#utility.yul\":6053:6062   */\n      dup3\n        /* \"#utility.yul\":6049:6067   */\n      add\n        /* \"#utility.yul\":6041:6067   */\n      swap1\n      pop\n        /* \"#utility.yul\":6113:6122   */\n      dup2\n        /* \"#utility.yul\":6107:6111   */\n      dup2\n        /* \"#utility.yul\":6103:6123   */\n      sub\n        /* \"#utility.yul\":6099:6100   */\n      0x00\n        /* \"#utility.yul\":6088:6097   */\n      dup4\n        /* \"#utility.yul\":6084:6101   */\n      add\n        /* \"#utility.yul\":6077:6124   */\n      mstore\n        /* \"#utility.yul\":6141:6272   */\n      tag_211\n        /* \"#utility.yul\":6267:6271   */\n      dup2\n        /* \"#utility.yul\":6141:6272   */\n      tag_177\n      jump\t// in\n    tag_211:\n        /* \"#utility.yul\":6133:6272   */\n      swap1\n      pop\n        /* \"#utility.yul\":5860:6279   */\n      swap2\n      swap1\n      pop\n      jump\t// out\n        /* \"#utility.yul\":6285:6704   */\n    tag_104:\n        /* \"#utility.yul\":6451:6455   */\n      0x00\n        /* \"#utility.yul\":6489:6491   */\n      0x20\n        /* \"#utility.yul\":6478:6487   */\n      dup3\n        /* \"#utility.yul\":6474:6492   */\n      add\n        /* \"#utility.yul\":6466:6492   */\n      swap1\n      pop\n        /* \"#utility.yul\":6538:6547   */\n      dup2\n        /* \"#utility.yul\":6532:6536   */\n      dup2\n        /* \"#utility.yul\":6528:6548   */\n      sub\n        /* \"#utility.yul\":6524:6525   */\n      0x00\n        /* \"#utility.yul\":6513:6522   */\n      dup4\n        /* \"#utility.yul\":6509:6526   */\n      add\n        /* \"#utility.yul\":6502:6549   */\n      mstore\n        /* \"#utility.yul\":6566:6697   */\n      tag_213\n        /* \"#utility.yul\":6692:6696   */\n      dup2\n        /* \"#utility.yul\":6566:6697   */\n      tag_182\n      jump\t// in\n    tag_213:\n        /* \"#utility.yul\":6558:6697   */\n      swap1\n      pop\n        /* \"#utility.yul\":6285:6704   */\n      swap2\n      swap1\n      pop\n      jump\t// out\n        /* \"#utility.yul\":6710:7129   */\n    tag_101:\n        /* \"#utility.yul\":6876:6880   */\n      0x00\n        /* \"#utility.yul\":6914:6916   */\n      0x20\n        /* \"#utility.yul\":6903:6912   */\n      dup3\n        /* \"#utility.yul\":6899:6917   */\n      add\n        /* \"#utility.yul\":6891:6917   */\n      swap1\n      pop\n        /* \"#utility.yul\":6963:6972   */\n      dup2\n        /* \"#utility.yul\":6957:6961   */\n      dup2\n        /* \"#utility.yul\":6953:6973   */\n      sub\n        /* \"#utility.yul\":6949:6950   */\n      0x00\n        /* \"#utility.yul\":6938:6947   */\n      dup4\n        /* \"#utility.yul\":6934:6951   */\n      add\n        /* \"#utility.yul\":6927:6974   */\n      mstore\n        /* \"#utility.yul\":6991:7122   */\n      tag_215\n        /* \"#utility.yul\":7117:7121   */\n      dup2\n        /* \"#utility.yul\":6991:7122   */\n      tag_187\n      jump\t// in\n    tag_215:\n        /* \"#utility.yul\":6983:7122   */\n      swap1\n      pop\n        /* \"#utility.yul\":6710:7129   */\n      swap2\n      swap1\n      pop\n      jump\t// out\n        /* \"#utility.yul\":7135:7554   */\n    tag_96:\n        /* \"#utility.yul\":7301:7305   */\n      0x00\n        /* \"#utility.yul\":7339:7341   */\n      0x20\n        /* \"#utility.yul\":7328:7337   */\n      dup3\n        /* \"#utility.yul\":7324:7342   */\n      add\n        /* \"#utility.yul\":7316:7342   */\n      swap1\n      pop\n        /* \"#utility.yul\":7388:7397   */\n      dup2\n        /* \"#utility.yul\":7382:7386   */\n      dup2\n        /* \"#utility.yul\":7378:7398   */\n      sub\n        /* \"#utility.yul\":7374:7375   */\n      0x00\n        /* \"#utility.yul\":7363:7372   */\n      dup4\n        /* \"#utility.yul\":7359:7376   */\n      add\n        /* \"#utility.yul\":7352:7399   */\n      mstore\n        /* \"#utility.yul\":7416:7547   */\n      tag_217\n        /* \"#utility.yul\":7542:7546   */\n      dup2\n        /* \"#utility.yul\":7416:7547   */\n      tag_192\n      jump\t// in\n    tag_217:\n        /* \"#utility.yul\":7408:7547   */\n      swap1\n      pop\n        /* \"#utility.yul\":7135:7554   */\n      swap2\n      swap1\n      pop\n      jump\t// out\n        /* \"#utility.yul\":7560:7979   */\n    tag_75:\n        /* \"#utility.yul\":7726:7730   */\n      0x00\n        /* \"#utility.yul\":7764:7766   */\n      0x20\n        /* \"#utility.yul\":7753:7762   */\n      dup3\n        /* \"#utility.yul\":7749:7767   */\n      add\n        /* \"#utility.yul\":7741:7767   */\n      swap1\n      pop\n        /* \"#utility.yul\":7813:7822   */\n      dup2\n        /* \"#utility.yul\":7807:7811   */\n      dup2\n        /* \"#utility.yul\":7803:7823   */\n      sub\n        /* \"#utility.yul\":7799:7800   */\n      0x00\n        /* \"#utility.yul\":7788:7797   */\n      dup4\n        /* \"#utility.yul\":7784:7801   */\n      add\n        /* \"#utility.yul\":7777:7824   */\n      mstore\n        /* \"#utility.yul\":7841:7972   */\n      tag_219\n        /* \"#utility.yul\":7967:7971   */\n      dup2\n        /* \"#utility.yul\":7841:7972   */\n      tag_197\n      jump\t// in\n    tag_219:\n        /* \"#utility.yul\":7833:7972   */\n      swap1\n      pop\n        /* \"#utility.yul\":7560:7979   */\n      swap2\n      swap1\n      pop\n      jump\t// out\n        /* \"#utility.yul\":7985:8207   */\n    tag_25:\n        /* \"#utility.yul\":8078:8082   */\n      0x00\n        /* \"#utility.yul\":8116:8118   */\n      0x20\n        /* \"#utility.yul\":8105:8114   */\n      dup3\n        /* \"#utility.yul\":8101:8119   */\n      add\n        /* \"#utility.yul\":8093:8119   */\n      swap1\n      pop\n        /* \"#utility.yul\":8129:8200   */\n      tag_221\n        /* \"#utility.yul\":8197:8198   */\n      0x00\n        /* \"#utility.yul\":8186:8195   */\n      dup4\n        /* \"#utility.yul\":8182:8199   */\n      add\n        /* \"#utility.yul\":8173:8179   */\n      dup5\n        /* \"#utility.yul\":8129:8200   */\n      tag_202\n      jump\t// in\n    tag_221:\n        /* \"#utility.yul\":7985:8207   */\n      swap3\n      swap2\n      pop\n      pop\n      jump\t// out\n        /* \"#utility.yul\":8213:8342   */\n    tag_125:\n        /* \"#utility.yul\":8247:8253   */\n      0x00\n        /* \"#utility.yul\":8274:8294   */\n      tag_223\n      tag_224\n      jump\t// in\n    tag_223:\n        /* \"#utility.yul\":8264:8294   */\n      swap1\n      pop\n        /* \"#utility.yul\":8303:8336   */\n      tag_225\n        /* \"#utility.yul\":8331:8335   */\n      dup3\n        /* \"#utility.yul\":8323:8329   */\n      dup3\n        /* \"#utility.yul\":8303:8336   */\n      tag_226\n      jump\t// in\n    tag_225:\n        /* \"#utility.yul\":8213:8342   */\n      swap2\n      swap1\n      pop\n      jump\t// out\n        /* \"#utility.yul\":8348:8423   */\n    tag_224:\n        /* \"#utility.yul\":8381:8387   */\n      0x00\n        /* \"#utility.yul\":8414:8416   */\n      0x40\n        /* \"#utility.yul\":8408:8417   */\n      mload\n        /* \"#utility.yul\":8398:8417   */\n      swap1\n      pop\n        /* \"#utility.yul\":8348:8423   */\n      swap1\n      jump\t// out\n        /* \"#utility.yul\":8429:8737   */\n    tag_124:\n        /* \"#utility.yul\":8491:8495   */\n      0x00\n        /* \"#utility.yul\":8581:8599   */\n      0xffffffffffffffff\n        /* \"#utility.yul\":8573:8579   */\n      dup3\n        /* \"#utility.yul\":8570:8600   */\n      gt\n        /* \"#utility.yul\":8567:8623   */\n      iszero\n      tag_229\n      jumpi\n        /* \"#utility.yul\":8603:8621   */\n      tag_230\n      tag_231\n      jump\t// in\n    tag_230:\n        /* \"#utility.yul\":8567:8623   */\n    tag_229:\n        /* \"#utility.yul\":8641:8670   */\n      tag_232\n        /* \"#utility.yul\":8663:8669   */\n      dup3\n        /* \"#utility.yul\":8641:8670   */\n      tag_233\n      jump\t// in\n    tag_232:\n        /* \"#utility.yul\":8633:8670   */\n      swap1\n      pop\n        /* \"#utility.yul\":8725:8729   */\n      0x20\n        /* \"#utility.yul\":8719:8723   */\n      dup2\n        /* \"#utility.yul\":8715:8730   */\n      add\n        /* \"#utility.yul\":8707:8730   */\n      swap1\n      pop\n        /* \"#utility.yul\":8429:8737   */\n      swap2\n      swap1\n      pop\n      jump\t// out\n        /* \"#utility.yul\":8743:8912   */\n    tag_174:\n        /* \"#utility.yul\":8827:8838   */\n      0x00\n        /* \"#utility.yul\":8861:8867   */\n      dup3\n        /* \"#utility.yul\":8856:8859   */\n      dup3\n        /* \"#utility.yul\":8849:8868   */\n      mstore\n        /* \"#utility.yul\":8901:8905   */\n      0x20\n        /* \"#utility.yul\":8896:8899   */\n      dup3\n        /* \"#utility.yul\":8892:8906   */\n      add\n        /* \"#utility.yul\":8877:8906   */\n      swap1\n      pop\n        /* \"#utility.yul\":8743:8912   */\n      swap3\n      swap2\n      pop\n      pop\n      jump\t// out\n        /* \"#utility.yul\":8918:9223   */\n    tag_83:\n        /* \"#utility.yul\":8958:8961   */\n      0x00\n        /* \"#utility.yul\":8977:8997   */\n      tag_236\n        /* \"#utility.yul\":8995:8996   */\n      dup3\n        /* \"#utility.yul\":8977:8997   */\n      tag_205\n      jump\t// in\n    tag_236:\n        /* \"#utility.yul\":8972:8997   */\n      swap2\n      pop\n        /* \"#utility.yul\":9011:9031   */\n      tag_237\n        /* \"#utility.yul\":9029:9030   */\n      dup4\n        /* \"#utility.yul\":9011:9031   */\n      tag_205\n      jump\t// in\n    tag_237:\n        /* \"#utility.yul\":9006:9031   */\n      swap3\n      pop\n        /* \"#utility.yul\":9165:9166   */\n      dup3\n        /* \"#utility.yul\":9097:9163   */\n      0xffffffffffffffffffffffffffffffffffffffffffffffffffffffffffffffff\n        /* \"#utility.yul\":9093:9167   */\n      sub\n        /* \"#utility.yul\":9090:9091   */\n      dup3\n        /* \"#utility.yul\":9087:9168   */\n      gt\n        /* \"#utility.yul\":9084:9191   */\n      iszero\n      tag_238\n      jumpi\n        /* \"#utility.yul\":9171:9189   */\n      tag_239\n      tag_240\n      jump\t// in\n    tag_239:\n        /* \"#utility.yul\":9084:9191   */\n    tag_238:\n        /* \"#utility.yul\":9215:9216   */\n      dup3\n        /* \"#utility.yul\":9212:9213   */\n      dup3\n        /* \"#utility.yul\":9208:9217   */\n      add\n        /* \"#utility.yul\":9201:9217   */\n      swap1\n      pop\n        /* \"#utility.yul\":8918:9223   */\n      swap3\n      swap2\n      pop\n      pop\n      jump\t// out\n        /* \"#utility.yul\":9229:9325   */\n    tag_170:\n        /* \"#utility.yul\":9266:9273   */\n      0x00\n        /* \"#utility.yul\":9295:9319   */\n      tag_242\n        /* \"#utility.yul\":9313:9318   */\n      dup3\n        /* \"#utility.yul\":9295:9319   */\n      tag_243\n      jump\t// in\n    tag_242:\n        /* \"#utility.yul\":9284:9319   */\n      swap1\n      pop\n        /* \"#utility.yul\":9229:9325   */\n      swap2\n      swap1\n      pop\n      jump\t// out\n        /* \"#utility.yul\":9331:9435   */\n    tag_244:\n        /* \"#utility.yul\":9376:9383   */\n      0x00\n        /* \"#utility.yul\":9405:9429   */\n      tag_246\n        /* \"#utility.yul\":9423:9428   */\n      dup3\n        /* \"#utility.yul\":9405:9429   */\n      tag_243\n      jump\t// in\n    tag_246:\n        /* \"#utility.yul\":9394:9429   */\n      swap1\n      pop\n        /* \"#utility.yul\":9331:9435   */\n      swap2\n      swap1\n      pop\n      jump\t// out\n        /* \"#utility.yul\":9441:9567   */\n    tag_243:\n        /* \"#utility.yul\":9478:9485   */\n      0x00\n        /* \"#utility.yul\":9518:9560   */\n      0xffffffffffffffffffffffffffffffffffffffff\n        /* \"#utility.yul\":9511:9516   */\n      dup3\n        /* \"#utility.yul\":9507:9561   */\n      and\n        /* \"#utility.yul\":9496:9561   */\n      swap1\n      pop\n        /* \"#utility.yul\":9441:9567   */\n      swap2\n      swap1\n      pop\n      jump\t// out\n        /* \"#utility.yul\":9573:9650   */\n    tag_205:\n        /* \"#utility.yul\":9610:9617   */\n      0x00\n        /* \"#utility.yul\":9639:9644   */\n      dup2\n        /* \"#utility.yul\":9628:9644   */\n      swap1\n      pop\n        /* \"#utility.yul\":9573:9650   */\n      swap2\n      swap1\n      pop\n      jump\t// out\n        /* \"#utility.yul\":9656:9810   */\n    tag_130:\n        /* \"#utility.yul\":9740:9746   */\n      dup3\n        /* \"#utility.yul\":9735:9738   */\n      dup2\n        /* \"#utility.yul\":9730:9733   */\n      dup4\n        /* \"#utility.yul\":9717:9747   */\n      calldatacopy\n        /* \"#utility.yul\":9802:9803   */\n      0x00\n        /* \"#utility.yul\":9793:9799   */\n      dup4\n        /* \"#utility.yul\":9788:9791   */\n      dup4\n        /* \"#utility.yul\":9784:9800   */\n      add\n        /* \"#utility.yul\":9777:9804   */\n      mstore\n        /* \"#utility.yul\":9656:9810   */\n      pop\n      pop\n      pop\n      jump\t// out\n        /* \"#utility.yul\":9816:10136   */\n    tag_109:\n        /* \"#utility.yul\":9860:9866   */\n      0x00\n        /* \"#utility.yul\":9897:9898   */\n      0x02\n        /* \"#utility.yul\":9891:9895   */\n      dup3\n        /* \"#utility.yul\":9887:9899   */\n      div\n        /* \"#utility.yul\":9877:9899   */\n      swap1\n      pop\n        /* \"#utility.yul\":9944:9945   */\n      0x01\n        /* \"#utility.yul\":9938:9942   */\n      dup3\n        /* \"#utility.yul\":9934:9946   */\n      and\n        /* \"#utility.yul\":9965:9983   */\n      dup1\n        /* \"#utility.yul\":9955:10036   */\n      tag_251\n      jumpi\n        /* \"#utility.yul\":10021:10025   */\n      0x7f\n        /* \"#utility.yul\":10013:10019   */\n      dup3\n        /* \"#utility.yul\":10009:10026   */\n      and\n        /* \"#utility.yul\":9999:10026   */\n      swap2\n      pop\n        /* \"#utility.yul\":9955:10036   */\n    tag_251:\n        /* \"#utility.yul\":10083:10085   */\n      0x20\n        /* \"#utility.yul\":10075:10081   */\n      dup3\n        /* \"#utility.yul\":10072:10086   */\n      lt\n        /* \"#utility.yul\":10052:10070   */\n      dup2\n        /* \"#utility.yul\":10049:10087   */\n      eq\n        /* \"#utility.yul\":10046:10130   */\n      iszero\n      tag_252\n      jumpi\n        /* \"#utility.yul\":10102:10120   */\n      tag_253\n      tag_254\n      jump\t// in\n    tag_253:\n        /* \"#utility.yul\":10046:10130   */\n    tag_252:\n        /* \"#utility.yul\":9867:10136   */\n      pop\n        /* \"#utility.yul\":9816:10136   */\n      swap2\n      swap1\n      pop\n      jump\t// out\n        /* \"#utility.yul\":10142:10423   */\n    tag_226:\n        /* \"#utility.yul\":10225:10252   */\n      tag_256\n        /* \"#utility.yul\":10247:10251   */\n      dup3\n        /* \"#utility.yul\":10225:10252   */\n      tag_233\n      jump\t// in\n    tag_256:\n        /* \"#utility.yul\":10217:10223   */\n      dup2\n        /* \"#utility.yul\":10213:10253   */\n      add\n        /* \"#utility.yul\":10355:10361   */\n      dup2\n        /* \"#utility.yul\":10343:10353   */\n      dup2\n        /* \"#utility.yul\":10340:10362   */\n      lt\n        /* \"#utility.yul\":10319:10337   */\n      0xffffffffffffffff\n        /* \"#utility.yul\":10307:10317   */\n      dup3\n        /* \"#utility.yul\":10304:10338   */\n      gt\n        /* \"#utility.yul\":10301:10363   */\n      or\n        /* \"#utility.yul\":10298:10386   */\n      iszero\n      tag_257\n      jumpi\n        /* \"#utility.yul\":10366:10384   */\n      tag_258\n      tag_231\n      jump\t// in\n    tag_258:\n        /* \"#utility.yul\":10298:10386   */\n    tag_257:\n        /* \"#utility.yul\":10406:10416   */\n      dup1\n        /* \"#utility.yul\":10402:10404   */\n      0x40\n        /* \"#utility.yul\":10395:10417   */\n      mstore\n        /* \"#utility.yul\":10185:10423   */\n      pop\n        /* \"#utility.yul\":10142:10423   */\n      pop\n      pop\n      jump\t// out\n        /* \"#utility.yul\":10429:10662   */\n    tag_81:\n        /* \"#utility.yul\":10468:10471   */\n      0x00\n        /* \"#utility.yul\":10491:10515   */\n      tag_260\n        /* \"#utility.yul\":10509:10514   */\n      dup3\n        /* \"#utility.yul\":10491:10515   */\n      tag_205\n      jump\t// in\n    tag_260:\n        /* \"#utility.yul\":10482:10515   */\n      swap2\n      pop\n        /* \"#utility.yul\":10537:10603   */\n      0xffffffffffffffffffffffffffffffffffffffffffffffffffffffffffffffff\n        /* \"#utility.yul\":10530:10535   */\n      dup3\n        /* \"#utility.yul\":10527:10604   */\n      eq\n        /* \"#utility.yul\":10524:10627   */\n      iszero\n      tag_261\n      jumpi\n        /* \"#utility.yul\":10607:10625   */\n      tag_262\n      tag_240\n      jump\t// in\n    tag_262:\n        /* \"#utility.yul\":10524:10627   */\n    tag_261:\n        /* \"#utility.yul\":10654:10655   */\n      0x01\n        /* \"#utility.yul\":10647:10652   */\n      dup3\n        /* \"#utility.yul\":10643:10656   */\n      add\n        /* \"#utility.yul\":10636:10656   */\n      swap1\n      pop\n        /* \"#utility.yul\":10429:10662   */\n      swap2\n      swap1\n      pop\n      jump\t// out\n        /* \"#utility.yul\":10668:10848   */\n    tag_240:\n        /* \"#utility.yul\":10716:10793   */\n      0x4e487b7100000000000000000000000000000000000000000000000000000000\n        /* \"#utility.yul\":10713:10714   */\n      0x00\n        /* \"#utility.yul\":10706:10794   */\n      mstore\n        /* \"#utility.yul\":10813:10817   */\n      0x11\n        /* \"#utility.yul\":10810:10811   */\n      0x04\n        /* \"#utility.yul\":10803:10818   */\n      mstore\n        /* \"#utility.yul\":10837:10841   */\n      0x24\n        /* \"#utility.yul\":10834:10835   */\n      0x00\n        /* \"#utility.yul\":10827:10842   */\n      revert\n        /* \"#utility.yul\":10854:11034   */\n    tag_254:\n        /* \"#utility.yul\":10902:10979   */\n      0x4e487b7100000000000000000000000000000000000000000000000000000000\n        /* \"#utility.yul\":10899:10900   */\n      0x00\n        /* \"#utility.yul\":10892:10980   */\n      mstore\n        /* \"#utility.yul\":10999:11003   */\n      0x22\n        /* \"#utility.yul\":10996:10997   */\n      0x04\n        /* \"#utility.yul\":10989:11004   */\n      mstore\n        /* \"#utility.yul\":11023:11027   */\n      0x24\n        /* \"#utility.yul\":11020:11021   */\n      0x00\n        /* \"#utility.yul\":11013:11028   */\n      revert\n        /* \"#utility.yul\":11040:11220   */\n    tag_231:\n        /* \"#utility.yul\":11088:11165   */\n      0x4e487b7100000000000000000000000000000000000000000000000000000000\n        /* \"#utility.yul\":11085:11086   */\n      0x00\n        /* \"#utility.yul\":11078:11166   */\n      mstore\n        /* \"#utility.yul\":11185:11189   */\n      0x41\n        /* \"#utility.yul\":11182:11183   */\n      0x04\n        /* \"#utility.yul\":11175:11190   */\n      mstore\n        /* \"#utility.yul\":11209:11213   */\n      0x24\n        /* \"#utility.yul\":11206:11207   */\n      0x00\n        /* \"#utility.yul\":11199:11214   */\n      revert\n        /* \"#utility.yul\":11226:11343   */\n    tag_143:\n        /* \"#utility.yul\":11335:11336   */\n      0x00\n        /* \"#utility.yul\":11332:11333   */\n      dup1\n        /* \"#utility.yul\":11325:11337   */\n      revert\n        /* \"#utility.yul\":11349:11466   */\n    tag_128:\n        /* \"#utility.yul\":11458:11459   */\n      0x00\n        /* \"#utility.yul\":11455:11456   */\n      dup1\n        /* \"#utility.yul\":11448:11460   */\n      revert\n        /* \"#utility.yul\":11472:11589   */\n    tag_159:\n        /* \"#utility.yul\":11581:11582   */\n      0x00\n        /* \"#utility.yul\":11578:11579   */\n      dup1\n        /* \"#utility.yul\":11571:11583   */\n      revert\n        /* \"#utility.yul\":11595:11712   */\n    tag_152:\n        /* \"#utility.yul\":11704:11705   */\n      0x00\n        /* \"#utility.yul\":11701:11702   */\n      dup1\n        /* \"#utility.yul\":11694:11706   */\n      revert\n        /* \"#utility.yul\":11718:11820   */\n    tag_233:\n        /* \"#utility.yul\":11759:11765   */\n      0x00\n        /* \"#utility.yul\":11810:11812   */\n      0x1f\n        /* \"#utility.yul\":11806:11813   */\n      not\n        /* \"#utility.yul\":11801:11803   */\n      0x1f\n        /* \"#utility.yul\":11794:11799   */\n      dup4\n        /* \"#utility.yul\":11790:11804   */\n      add\n        /* \"#utility.yul\":11786:11814   */\n      and\n        /* \"#utility.yul\":11776:11814   */\n      swap1\n      pop\n        /* \"#utility.yul\":11718:11820   */\n      swap2\n      swap1\n      pop\n      jump\t// out\n        /* \"#utility.yul\":11826:12048   */\n    tag_176:\n        /* \"#utility.yul\":11966:12000   */\n      0x4f6e6c79206d616e616765722063616e2063616c6c20746869732066756e6374\n        /* \"#utility.yul\":11962:11963   */\n      0x00\n        /* \"#utility.yul\":11954:11960   */\n      dup3\n        /* \"#utility.yul\":11950:11964   */\n      add\n        /* \"#utility.yul\":11943:12001   */\n      mstore\n        /* \"#utility.yul\":12035:12040   */\n      0x696f6e0000000000000000000000000000000000000000000000000000000000\n        /* \"#utility.yul\":12030:12032   */\n      0x20\n        /* \"#utility.yul\":12022:12028   */\n      dup3\n        /* \"#utility.yul\":12018:12033   */\n      add\n        /* \"#utility.yul\":12011:12041   */\n      mstore\n        /* \"#utility.yul\":11826:12048   */\n      pop\n      jump\t// out\n        /* \"#utility.yul\":12054:12276   */\n    tag_181:\n        /* \"#utility.yul\":12194:12228   */\n      0x4d696e696d756d20636f6e747269627574696f6e206973206f66203130302077\n        /* \"#utility.yul\":12190:12191   */\n      0x00\n        /* \"#utility.yul\":12182:12188   */\n      dup3\n        /* \"#utility.yul\":12178:12192   */\n      add\n        /* \"#utility.yul\":12171:12229   */\n      mstore\n        /* \"#utility.yul\":12263:12268   */\n      0x6569210000000000000000000000000000000000000000000000000000000000\n        /* \"#utility.yul\":12258:12260   */\n      0x20\n        /* \"#utility.yul\":12250:12256   */\n      dup3\n        /* \"#utility.yul\":12246:12261   */\n      add\n        /* \"#utility.yul\":12239:12269   */\n      mstore\n        /* \"#utility.yul\":12054:12276   */\n      pop\n      jump\t// out\n        /* \"#utility.yul\":12282:12459   */\n    tag_186:\n        /* \"#utility.yul\":12422:12451   */\n      0x596f7520686176656e277420636f6e7472696275746564207965740000000000\n        /* \"#utility.yul\":12418:12419   */\n      0x00\n        /* \"#utility.yul\":12410:12416   */\n      dup3\n        /* \"#utility.yul\":12406:12420   */\n      add\n        /* \"#utility.yul\":12399:12452   */\n      mstore\n        /* \"#utility.yul\":12282:12459   */\n      pop\n      jump\t// out\n        /* \"#utility.yul\":12465:12646   */\n    tag_191:\n        /* \"#utility.yul\":12605:12638   */\n      0x596f7520617265206e6f7420656c696769626c6520666f7220726566756e6400\n        /* \"#utility.yul\":12601:12602   */\n      0x00\n        /* \"#utility.yul\":12593:12599   */\n      dup3\n        /* \"#utility.yul\":12589:12603   */\n      add\n        /* \"#utility.yul\":12582:12639   */\n      mstore\n        /* \"#utility.yul\":12465:12646   */\n      pop\n      jump\t// out\n        /* \"#utility.yul\":12652:12879   */\n    tag_196:\n        /* \"#utility.yul\":12792:12826   */\n      0x596f75206d75737420626520636f6e7472696275746f7220696e206f72646572\n        /* \"#utility.yul\":12788:12789   */\n      0x00\n        /* \"#utility.yul\":12780:12786   */\n      dup3\n        /* \"#utility.yul\":12776:12790   */\n      add\n        /* \"#utility.yul\":12769:12827   */\n      mstore\n        /* \"#utility.yul\":12861:12871   */\n      0x20746f20766f7465000000000000000000000000000000000000000000000000\n        /* \"#utility.yul\":12856:12858   */\n      0x20\n        /* \"#utility.yul\":12848:12854   */\n      dup3\n        /* \"#utility.yul\":12844:12859   */\n      add\n        /* \"#utility.yul\":12837:12872   */\n      mstore\n        /* \"#utility.yul\":12652:12879   */\n      pop\n      jump\t// out\n        /* \"#utility.yul\":12885:13056   */\n    tag_201:\n        /* \"#utility.yul\":13025:13048   */\n      0x446561646c696e65207061737365642061776179210000000000000000000000\n        /* \"#utility.yul\":13021:13022   */\n      0x00\n        /* \"#utility.yul\":13013:13019   */\n      dup3\n        /* \"#utility.yul\":13009:13023   */\n      add\n        /* \"#utility.yul\":13002:13049   */\n      mstore\n        /* \"#utility.yul\":12885:13056   */\n      pop\n      jump\t// out\n        /* \"#utility.yul\":13062:13184   */\n    tag_134:\n        /* \"#utility.yul\":13135:13159   */\n      tag_278\n        /* \"#utility.yul\":13153:13158   */\n      dup2\n        /* \"#utility.yul\":13135:13159   */\n      tag_170\n      jump\t// in\n    tag_278:\n        /* \"#utility.yul\":13128:13133   */\n      dup2\n        /* \"#utility.yul\":13125:13160   */\n      eq\n        /* \"#utility.yul\":13115:13178   */\n      tag_279\n      jumpi\n        /* \"#utility.yul\":13174:13175   */\n      0x00\n        /* \"#utility.yul\":13171:13172   */\n      dup1\n        /* \"#utility.yul\":13164:13176   */\n      revert\n        /* \"#utility.yul\":13115:13178   */\n    tag_279:\n        /* \"#utility.yul\":13062:13184   */\n      pop\n      jump\t// out\n        /* \"#utility.yul\":13190:13328   */\n    tag_138:\n        /* \"#utility.yul\":13271:13303   */\n      tag_281\n        /* \"#utility.yul\":13297:13302   */\n      dup2\n        /* \"#utility.yul\":13271:13303   */\n      tag_244\n      jump\t// in\n    tag_281:\n        /* \"#utility.yul\":13264:13269   */\n      dup2\n        /* \"#utility.yul\":13261:13304   */\n      eq\n        /* \"#utility.yul\":13251:13322   */\n      tag_282\n      jumpi\n        /* \"#utility.yul\":13318:13319   */\n      0x00\n        /* \"#utility.yul\":13315:13316   */\n      dup1\n        /* \"#utility.yul\":13308:13320   */\n      revert\n        /* \"#utility.yul\":13251:13322   */\n    tag_282:\n        /* \"#utility.yul\":13190:13328   */\n      pop\n      jump\t// out\n        /* \"#utility.yul\":13334:13456   */\n    tag_148:\n        /* \"#utility.yul\":13407:13431   */\n      tag_284\n        /* \"#utility.yul\":13425:13430   */\n      dup2\n        /* \"#utility.yul\":13407:13431   */\n      tag_205\n      jump\t// in\n    tag_284:\n        /* \"#utility.yul\":13400:13405   */\n      dup2\n        /* \"#utility.yul\":13397:13432   */\n      eq\n        /* \"#utility.yul\":13387:13450   */\n      tag_285\n      jumpi\n        /* \"#utility.yul\":13446:13447   */\n      0x00\n        /* \"#utility.yul\":13443:13444   */\n      dup1\n        /* \"#utility.yul\":13436:13448   */\n      revert\n        /* \"#utility.yul\":13387:13450   */\n    tag_285:\n        /* \"#utility.yul\":13334:13456   */\n      pop\n      jump\t// out\n\n    auxdata: 0xa264697066735822122091a7fc5d65cfa5ea5477328f3de61fcbf965bfe04894bd6802f7759b77e353d664736f6c63430008070033\n}\n",
				"bytecode": {
					"linkReferences": {},
					"object": "60806040523480156200001157600080fd5b5060405162001248380380620012488339818101604052810190620000379190620000ba565b8160048190555080426200004c919062000101565b600381905550606460028190555033600160006101000a81548173ffffffffffffffffffffffffffffffffffffffff021916908373ffffffffffffffffffffffffffffffffffffffff1602179055505050620001b6565b600081519050620000b4816200019c565b92915050565b60008060408385031215620000d457620000d362000197565b5b6000620000e485828601620000a3565b9250506020620000f785828601620000a3565b9150509250929050565b60006200010e826200015e565b91506200011b836200015e565b9250827fffffffffffffffffffffffffffffffffffffffffffffffffffffffffffffffff0382111562000153576200015262000168565b5b828201905092915050565b6000819050919050565b7f4e487b7100000000000000000000000000000000000000000000000000000000600052601160045260246000fd5b600080fd5b620001a7816200015e565b8114620001b357600080fd5b50565b61108280620001c66000396000f3fe6080604052600436106100c25760003560e01c80634e260f6f1161007f5780639fb42b1f116100595780639fb42b1f14610223578063aaffadf31461024e578063c59ee1dc14610279578063d4b83992146102a4576100c2565b80634e260f6f146101b6578063590e1ae3146101e15780636f9fb98a146101f8576100c2565b806306e99fef146100c75780631f6d4942146100d157806329dcb0cf1461010e5780633eb7647b14610139578063481c6a75146101625780634cb6f4a51461018d575b600080fd5b6100cf6102cf565b005b3480156100dd57600080fd5b506100f860048036038101906100f39190610978565b610428565b6040516101059190610c0c565b60405180910390f35b34801561011a57600080fd5b50610123610440565b6040516101309190610c0c565b60405180910390f35b34801561014557600080fd5b50610160600480360381019061015b91906109a5565b610446565b005b34801561016e57600080fd5b50610177610599565b6040516101849190610b31565b60405180910390f35b34801561019957600080fd5b506101b460048036038101906101af9190610a14565b6105bf565b005b3480156101c257600080fd5b506101cb61065b565b6040516101d89190610c0c565b60405180910390f35b3480156101ed57600080fd5b506101f6610661565b005b34801561020457600080fd5b5061020d610806565b60405161021a9190610c0c565b60405180910390f35b34801561022f57600080fd5b5061023861080e565b6040516102459190610c0c565b60405180910390f35b34801561025a57600080fd5b50610263610814565b6040516102709190610c0c565b60405180910390f35b34801561028557600080fd5b5061028e61081a565b60405161029b9190610c0c565b60405180910390f35b3480156102b057600080fd5b506102b9610820565b6040516102c69190610c0c565b60405180910390f35b6003544210610313576040517f08c379a000000000000000000000000000000000000000000000000000000000815260040161030a90610bec565b60405180910390fd5b600254341015610358576040517f08c379a000000000000000000000000000000000000000000000000000000000815260040161034f90610b6c565b60405180910390fd5b60008060003373ffffffffffffffffffffffffffffffffffffffff1673ffffffffffffffffffffffffffffffffffffffff1681526020019081526020016000205414156103b857600660008154809291906103b290610da4565b91905055505b346000803373ffffffffffffffffffffffffffffffffffffffff1673ffffffffffffffffffffffffffffffffffffffff16815260200190815260200160002060008282546104069190610c8e565b92505081905550346005600082825461041f9190610c8e565b92505081905550565b60006020528060005260406000206000915090505481565b60035481565b600160009054906101000a900473ffffffffffffffffffffffffffffffffffffffff1673ffffffffffffffffffffffffffffffffffffffff163373ffffffffffffffffffffffffffffffffffffffff16146104d6576040517f08c379a00000000000000000000000000000000000000000000000000000000081526004016104cd90610b4c565b60405180910390fd5b600060076000600854815260200190815260200160002090506008600081548092919061050290610da4565b91905055508381600001908051906020019061051f929190610826565b50828160010160006101000a81548173ffffffffffffffffffffffffffffffffffffffff021916908373ffffffffffffffffffffffffffffffffffffffff16021790555081816002018190555060008160030160006101000a81548160ff0219169083151502179055506000816004018190555050505050565b600160009054906101000a900473ffffffffffffffffffffffffffffffffffffffff1681565b60008060003373ffffffffffffffffffffffffffffffffffffffff1673ffffffffffffffffffffffffffffffffffffffff1681526020019081526020016000205411610640576040517f08c379a000000000000000000000000000000000000000000000000000000000815260040161063790610bcc565b60405180910390fd5b60006007600083815260200190815260200160002090505050565b60065481565b600354421180156106755750600554600454115b6106b4576040517f08c379a00000000000000000000000000000000000000000000000000000000081526004016106ab90610bac565b60405180910390fd5b60008060003373ffffffffffffffffffffffffffffffffffffffff1673ffffffffffffffffffffffffffffffffffffffff1681526020019081526020016000205411610735576040517f08c379a000000000000000000000000000000000000000000000000000000000815260040161072c90610b8c565b60405180910390fd5b60003390508073ffffffffffffffffffffffffffffffffffffffff166108fc6000803373ffffffffffffffffffffffffffffffffffffffff1673ffffffffffffffffffffffffffffffffffffffff168152602001908152602001600020549081150290604051600060405180830381858888f193505050501580156107be573d6000803e3d6000fd5b5060008060003373ffffffffffffffffffffffffffffffffffffffff1673ffffffffffffffffffffffffffffffffffffffff1681526020019081526020016000208190555050565b600047905090565b60085481565b60025481565b60055481565b60045481565b82805461083290610d41565b90600052602060002090601f016020900481019282610854576000855561089b565b82601f1061086d57805160ff191683800117855561089b565b8280016001018555821561089b579182015b8281111561089a57825182559160200191906001019061087f565b5b5090506108a891906108ac565b5090565b5b808211156108c55760008160009055506001016108ad565b5090565b60006108dc6108d784610c4c565b610c27565b9050828152602081018484840111156108f8576108f7610e7f565b5b610903848285610d32565b509392505050565b60008135905061091a81611007565b92915050565b60008135905061092f8161101e565b92915050565b600082601f83011261094a57610949610e7a565b5b813561095a8482602086016108c9565b91505092915050565b60008135905061097281611035565b92915050565b60006020828403121561098e5761098d610e89565b5b600061099c8482850161090b565b91505092915050565b6000806000606084860312156109be576109bd610e89565b5b600084013567ffffffffffffffff8111156109dc576109db610e84565b5b6109e886828701610935565b93505060206109f986828701610920565b9250506040610a0a86828701610963565b9150509250925092565b600060208284031215610a2a57610a29610e89565b5b6000610a3884828501610963565b91505092915050565b610a4a81610ce4565b82525050565b6000610a5d602383610c7d565b9150610a6882610e9f565b604082019050919050565b6000610a80602383610c7d565b9150610a8b82610eee565b604082019050919050565b6000610aa3601b83610c7d565b9150610aae82610f3d565b602082019050919050565b6000610ac6601f83610c7d565b9150610ad182610f66565b602082019050919050565b6000610ae9602883610c7d565b9150610af482610f8f565b604082019050919050565b6000610b0c601583610c7d565b9150610b1782610fde565b602082019050919050565b610b2b81610d28565b82525050565b6000602082019050610b466000830184610a41565b92915050565b60006020820190508181036000830152610b6581610a50565b9050919050565b60006020820190508181036000830152610b8581610a73565b9050919050565b60006020820190508181036000830152610ba581610a96565b9050919050565b60006020820190508181036000830152610bc581610ab9565b9050919050565b60006020820190508181036000830152610be581610adc565b9050919050565b60006020820190508181036000830152610c0581610aff565b9050919050565b6000602082019050610c216000830184610b22565b92915050565b6000610c31610c42565b9050610c3d8282610d73565b919050565b6000604051905090565b600067ffffffffffffffff821115610c6757610c66610e4b565b5b610c7082610e8e565b9050602081019050919050565b600082825260208201905092915050565b6000610c9982610d28565b9150610ca483610d28565b9250827fffffffffffffffffffffffffffffffffffffffffffffffffffffffffffffffff03821115610cd957610cd8610ded565b5b828201905092915050565b6000610cef82610d08565b9050919050565b6000610d0182610d08565b9050919050565b600073ffffffffffffffffffffffffffffffffffffffff82169050919050565b6000819050919050565b82818337600083830152505050565b60006002820490506001821680610d5957607f821691505b60208210811415610d6d57610d6c610e1c565b5b50919050565b610d7c82610e8e565b810181811067ffffffffffffffff82111715610d9b57610d9a610e4b565b5b80604052505050565b6000610daf82610d28565b91507fffffffffffffffffffffffffffffffffffffffffffffffffffffffffffffffff821415610de257610de1610ded565b5b600182019050919050565b7f4e487b7100000000000000000000000000000000000000000000000000000000600052601160045260246000fd5b7f4e487b7100000000000000000000000000000000000000000000000000000000600052602260045260246000fd5b7f4e487b7100000000000000000000000000000000000000000000000000000000600052604160045260246000fd5b600080fd5b600080fd5b600080fd5b600080fd5b6000601f19601f8301169050919050565b7f4f6e6c79206d616e616765722063616e2063616c6c20746869732066756e637460008201527f696f6e0000000000000000000000000000000000000000000000000000000000602082015250565b7f4d696e696d756d20636f6e747269627574696f6e206973206f6620313030207760008201527f6569210000000000000000000000000000000000000000000000000000000000602082015250565b7f596f7520686176656e277420636f6e7472696275746564207965740000000000600082015250565b7f596f7520617265206e6f7420656c696769626c6520666f7220726566756e6400600082015250565b7f596f75206d75737420626520636f6e7472696275746f7220696e206f7264657260008201527f20746f20766f7465000000000000000000000000000000000000000000000000602082015250565b7f446561646c696e65207061737365642061776179210000000000000000000000600082015250565b61101081610ce4565b811461101b57600080fd5b50565b61102781610cf6565b811461103257600080fd5b50565b61103e81610d28565b811461104957600080fd5b5056fea264697066735822122091a7fc5d65cfa5ea5477328f3de61fcbf965bfe04894bd6802f7759b77e353d664736f6c63430008070033",
					"opcodes": "PUSH1 0x80 PUSH1 0x40 MSTORE CALLVALUE DUP1 ISZERO PUSH3 0x11 JUMPI PUSH1 0x0 DUP1 REVERT JUMPDEST POP PUSH1 0x40 MLOAD PUSH3 0x1248 CODESIZE SUB DUP1 PUSH3 0x1248 DUP4 CODECOPY DUP2 DUP2 ADD PUSH1 0x40 MSTORE DUP2 ADD SWAP1 PUSH3 0x37 SWAP2 SWAP1 PUSH3 0xBA JUMP JUMPDEST DUP2 PUSH1 0x4 DUP2 SWAP1 SSTORE POP DUP1 TIMESTAMP PUSH3 0x4C SWAP2 SWAP1 PUSH3 0x101 JUMP JUMPDEST PUSH1 0x3 DUP2 SWAP1 SSTORE POP PUSH1 0x64 PUSH1 0x2 DUP2 SWAP1 SSTORE POP CALLER PUSH1 0x1 PUSH1 0x0 PUSH2 0x100 EXP DUP2 SLOAD DUP2 PUSH20 0xFFFFFFFFFFFFFFFFFFFFFFFFFFFFFFFFFFFFFFFF MUL NOT AND SWAP1 DUP4 PUSH20 0xFFFFFFFFFFFFFFFFFFFFFFFFFFFFFFFFFFFFFFFF AND MUL OR SWAP1 SSTORE POP POP POP PUSH3 0x1B6 JUMP JUMPDEST PUSH1 0x0 DUP2 MLOAD SWAP1 POP PUSH3 0xB4 DUP2 PUSH3 0x19C JUMP JUMPDEST SWAP3 SWAP2 POP POP JUMP JUMPDEST PUSH1 0x0 DUP1 PUSH1 0x40 DUP4 DUP6 SUB SLT ISZERO PUSH3 0xD4 JUMPI PUSH3 0xD3 PUSH3 0x197 JUMP JUMPDEST JUMPDEST PUSH1 0x0 PUSH3 0xE4 DUP6 DUP3 DUP7 ADD PUSH3 0xA3 JUMP JUMPDEST SWAP3 POP POP PUSH1 0x20 PUSH3 0xF7 DUP6 DUP3 DUP7 ADD PUSH3 0xA3 JUMP JUMPDEST SWAP2 POP POP SWAP3 POP SWAP3 SWAP1 POP JUMP JUMPDEST PUSH1 0x0 PUSH3 0x10E DUP3 PUSH3 0x15E JUMP JUMPDEST SWAP2 POP PUSH3 0x11B DUP4 PUSH3 0x15E JUMP JUMPDEST SWAP3 POP DUP3 PUSH32 0xFFFFFFFFFFFFFFFFFFFFFFFFFFFFFFFFFFFFFFFFFFFFFFFFFFFFFFFFFFFFFFFF SUB DUP3 GT ISZERO PUSH3 0x153 JUMPI PUSH3 0x152 PUSH3 0x168 JUMP JUMPDEST JUMPDEST DUP3 DUP3 ADD SWAP1 POP SWAP3 SWAP2 POP POP JUMP JUMPDEST PUSH1 0x0 DUP2 SWAP1 POP SWAP2 SWAP1 POP JUMP JUMPDEST PUSH32 0x4E487B7100000000000000000000000000000000000000000000000000000000 PUSH1 0x0 MSTORE PUSH1 0x11 PUSH1 0x4 MSTORE PUSH1 0x24 PUSH1 0x0 REVERT JUMPDEST PUSH1 0x0 DUP1 REVERT JUMPDEST PUSH3 0x1A7 DUP2 PUSH3 0x15E JUMP JUMPDEST DUP2 EQ PUSH3 0x1B3 JUMPI PUSH1 0x0 DUP1 REVERT JUMPDEST POP JUMP JUMPDEST PUSH2 0x1082 DUP1 PUSH3 0x1C6 PUSH1 0x0 CODECOPY PUSH1 0x0 RETURN INVALID PUSH1 0x80 PUSH1 0x40 MSTORE PUSH1 0x4 CALLDATASIZE LT PUSH2 0xC2 JUMPI PUSH1 0x0 CALLDATALOAD PUSH1 0xE0 SHR DUP1 PUSH4 0x4E260F6F GT PUSH2 0x7F JUMPI DUP1 PUSH4 0x9FB42B1F GT PUSH2 0x59 JUMPI DUP1 PUSH4 0x9FB42B1F EQ PUSH2 0x223 JUMPI DUP1 PUSH4 0xAAFFADF3 EQ PUSH2 0x24E JUMPI DUP1 PUSH4 0xC59EE1DC EQ PUSH2 0x279 JUMPI DUP1 PUSH4 0xD4B83992 EQ PUSH2 0x2A4 JUMPI PUSH2 0xC2 JUMP JUMPDEST DUP1 PUSH4 0x4E260F6F EQ PUSH2 0x1B6 JUMPI DUP1 PUSH4 0x590E1AE3 EQ PUSH2 0x1E1 JUMPI DUP1 PUSH4 0x6F9FB98A EQ PUSH2 0x1F8 JUMPI PUSH2 0xC2 JUMP JUMPDEST DUP1 PUSH4 0x6E99FEF EQ PUSH2 0xC7 JUMPI DUP1 PUSH4 0x1F6D4942 EQ PUSH2 0xD1 JUMPI DUP1 PUSH4 0x29DCB0CF EQ PUSH2 0x10E JUMPI DUP1 PUSH4 0x3EB7647B EQ PUSH2 0x139 JUMPI DUP1 PUSH4 0x481C6A75 EQ PUSH2 0x162 JUMPI DUP1 PUSH4 0x4CB6F4A5 EQ PUSH2 0x18D JUMPI JUMPDEST PUSH1 0x0 DUP1 REVERT JUMPDEST PUSH2 0xCF PUSH2 0x2CF JUMP JUMPDEST STOP JUMPDEST CALLVALUE DUP1 ISZERO PUSH2 0xDD JUMPI PUSH1 0x0 DUP1 REVERT JUMPDEST POP PUSH2 0xF8 PUSH1 0x4 DUP1 CALLDATASIZE SUB DUP2 ADD SWAP1 PUSH2 0xF3 SWAP2 SWAP1 PUSH2 0x978 JUMP JUMPDEST PUSH2 0x428 JUMP JUMPDEST PUSH1 0x40 MLOAD PUSH2 0x105 SWAP2 SWAP1 PUSH2 0xC0C JUMP JUMPDEST PUSH1 0x40 MLOAD DUP1 SWAP2 SUB SWAP1 RETURN JUMPDEST CALLVALUE DUP1 ISZERO PUSH2 0x11A JUMPI PUSH1 0x0 DUP1 REVERT JUMPDEST POP PUSH2 0x123 PUSH2 0x440 JUMP JUMPDEST PUSH1 0x40 MLOAD PUSH2 0x130 SWAP2 SWAP1 PUSH2 0xC0C JUMP JUMPDEST PUSH1 0x40 MLOAD DUP1 SWAP2 SUB SWAP1 RETURN JUMPDEST CALLVALUE DUP1 ISZERO PUSH2 0x145 JUMPI PUSH1 0x0 DUP1 REVERT JUMPDEST POP PUSH2 0x160 PUSH1 0x4 DUP1 CALLDATASIZE SUB DUP2 ADD SWAP1 PUSH2 0x15B SWAP2 SWAP1 PUSH2 0x9A5 JUMP JUMPDEST PUSH2 0x446 JUMP JUMPDEST STOP JUMPDEST CALLVALUE DUP1 ISZERO PUSH2 0x16E JUMPI PUSH1 0x0 DUP1 REVERT JUMPDEST POP PUSH2 0x177 PUSH2 0x599 JUMP JUMPDEST PUSH1 0x40 MLOAD PUSH2 0x184 SWAP2 SWAP1 PUSH2 0xB31 JUMP JUMPDEST PUSH1 0x40 MLOAD DUP1 SWAP2 SUB SWAP1 RETURN JUMPDEST CALLVALUE DUP1 ISZERO PUSH2 0x199 JUMPI PUSH1 0x0 DUP1 REVERT JUMPDEST POP PUSH2 0x1B4 PUSH1 0x4 DUP1 CALLDATASIZE SUB DUP2 ADD SWAP1 PUSH2 0x1AF SWAP2 SWAP1 PUSH2 0xA14 JUMP JUMPDEST PUSH2 0x5BF JUMP JUMPDEST STOP JUMPDEST CALLVALUE DUP1 ISZERO PUSH2 0x1C2 JUMPI PUSH1 0x0 DUP1 REVERT JUMPDEST POP PUSH2 0x1CB PUSH2 0x65B JUMP JUMPDEST PUSH1 0x40 MLOAD PUSH2 0x1D8 SWAP2 SWAP1 PUSH2 0xC0C JUMP JUMPDEST PUSH1 0x40 MLOAD DUP1 SWAP2 SUB SWAP1 RETURN JUMPDEST CALLVALUE DUP1 ISZERO PUSH2 0x1ED JUMPI PUSH1 0x0 DUP1 REVERT JUMPDEST POP PUSH2 0x1F6 PUSH2 0x661 JUMP JUMPDEST STOP JUMPDEST CALLVALUE DUP1 ISZERO PUSH2 0x204 JUMPI PUSH1 0x0 DUP1 REVERT JUMPDEST POP PUSH2 0x20D PUSH2 0x806 JUMP JUMPDEST PUSH1 0x40 MLOAD PUSH2 0x21A SWAP2 SWAP1 PUSH2 0xC0C JUMP JUMPDEST PUSH1 0x40 MLOAD DUP1 SWAP2 SUB SWAP1 RETURN JUMPDEST CALLVALUE DUP1 ISZERO PUSH2 0x22F JUMPI PUSH1 0x0 DUP1 REVERT JUMPDEST POP PUSH2 0x238 PUSH2 0x80E JUMP JUMPDEST PUSH1 0x40 MLOAD PUSH2 0x245 SWAP2 SWAP1 PUSH2 0xC0C JUMP JUMPDEST PUSH1 0x40 MLOAD DUP1 SWAP2 SUB SWAP1 RETURN JUMPDEST CALLVALUE DUP1 ISZERO PUSH2 0x25A JUMPI PUSH1 0x0 DUP1 REVERT JUMPDEST POP PUSH2 0x263 PUSH2 0x814 JUMP JUMPDEST PUSH1 0x40 MLOAD PUSH2 0x270 SWAP2 SWAP1 PUSH2 0xC0C JUMP JUMPDEST PUSH1 0x40 MLOAD DUP1 SWAP2 SUB SWAP1 RETURN JUMPDEST CALLVALUE DUP1 ISZERO PUSH2 0x285 JUMPI PUSH1 0x0 DUP1 REVERT JUMPDEST POP PUSH2 0x28E PUSH2 0x81A JUMP JUMPDEST PUSH1 0x40 MLOAD PUSH2 0x29B SWAP2 SWAP1 PUSH2 0xC0C JUMP JUMPDEST PUSH1 0x40 MLOAD DUP1 SWAP2 SUB SWAP1 RETURN JUMPDEST CALLVALUE DUP1 ISZERO PUSH2 0x2B0 JUMPI PUSH1 0x0 DUP1 REVERT JUMPDEST POP PUSH2 0x2B9 PUSH2 0x820 JUMP JUMPDEST PUSH1 0x40 MLOAD PUSH2 0x2C6 SWAP2 SWAP1 PUSH2 0xC0C JUMP JUMPDEST PUSH1 0x40 MLOAD DUP1 SWAP2 SUB SWAP1 RETURN JUMPDEST PUSH1 0x3 SLOAD TIMESTAMP LT PUSH2 0x313 JUMPI PUSH1 0x40 MLOAD PUSH32 0x8C379A000000000000000000000000000000000000000000000000000000000 DUP2 MSTORE PUSH1 0x4 ADD PUSH2 0x30A SWAP1 PUSH2 0xBEC JUMP JUMPDEST PUSH1 0x40 MLOAD DUP1 SWAP2 SUB SWAP1 REVERT JUMPDEST PUSH1 0x2 SLOAD CALLVALUE LT ISZERO PUSH2 0x358 JUMPI PUSH1 0x40 MLOAD PUSH32 0x8C379A000000000000000000000000000000000000000000000000000000000 DUP2 MSTORE PUSH1 0x4 ADD PUSH2 0x34F SWAP1 PUSH2 0xB6C JUMP JUMPDEST PUSH1 0x40 MLOAD DUP1 SWAP2 SUB SWAP1 REVERT JUMPDEST PUSH1 0x0 DUP1 PUSH1 0x0 CALLER PUSH20 0xFFFFFFFFFFFFFFFFFFFFFFFFFFFFFFFFFFFFFFFF AND PUSH20 0xFFFFFFFFFFFFFFFFFFFFFFFFFFFFFFFFFFFFFFFF AND DUP2 MSTORE PUSH1 0x20 ADD SWAP1 DUP2 MSTORE PUSH1 0x20 ADD PUSH1 0x0 KECCAK256 SLOAD EQ ISZERO PUSH2 0x3B8 JUMPI PUSH1 0x6 PUSH1 0x0 DUP2 SLOAD DUP1 SWAP3 SWAP2 SWAP1 PUSH2 0x3B2 SWAP1 PUSH2 0xDA4 JUMP JUMPDEST SWAP2 SWAP1 POP SSTORE POP JUMPDEST CALLVALUE PUSH1 0x0 DUP1 CALLER PUSH20 0xFFFFFFFFFFFFFFFFFFFFFFFFFFFFFFFFFFFFFFFF AND PUSH20 0xFFFFFFFFFFFFFFFFFFFFFFFFFFFFFFFFFFFFFFFF AND DUP2 MSTORE PUSH1 0x20 ADD SWAP1 DUP2 MSTORE PUSH1 0x20 ADD PUSH1 0x0 KECCAK256 PUSH1 0x0 DUP3 DUP3 SLOAD PUSH2 0x406 SWAP2 SWAP1 PUSH2 0xC8E JUMP JUMPDEST SWAP3 POP POP DUP2 SWAP1 SSTORE POP CALLVALUE PUSH1 0x5 PUSH1 0x0 DUP3 DUP3 SLOAD PUSH2 0x41F SWAP2 SWAP1 PUSH2 0xC8E JUMP JUMPDEST SWAP3 POP POP DUP2 SWAP1 SSTORE POP JUMP JUMPDEST PUSH1 0x0 PUSH1 0x20 MSTORE DUP1 PUSH1 0x0 MSTORE PUSH1 0x40 PUSH1 0x0 KECCAK256 PUSH1 0x0 SWAP2 POP SWAP1 POP SLOAD DUP2 JUMP JUMPDEST PUSH1 0x3 SLOAD DUP2 JUMP JUMPDEST PUSH1 0x1 PUSH1 0x0 SWAP1 SLOAD SWAP1 PUSH2 0x100 EXP SWAP1 DIV PUSH20 0xFFFFFFFFFFFFFFFFFFFFFFFFFFFFFFFFFFFFFFFF AND PUSH20 0xFFFFFFFFFFFFFFFFFFFFFFFFFFFFFFFFFFFFFFFF AND CALLER PUSH20 0xFFFFFFFFFFFFFFFFFFFFFFFFFFFFFFFFFFFFFFFF AND EQ PUSH2 0x4D6 JUMPI PUSH1 0x40 MLOAD PUSH32 0x8C379A000000000000000000000000000000000000000000000000000000000 DUP2 MSTORE PUSH1 0x4 ADD PUSH2 0x4CD SWAP1 PUSH2 0xB4C JUMP JUMPDEST PUSH1 0x40 MLOAD DUP1 SWAP2 SUB SWAP1 REVERT JUMPDEST PUSH1 0x0 PUSH1 0x7 PUSH1 0x0 PUSH1 0x8 SLOAD DUP2 MSTORE PUSH1 0x20 ADD SWAP1 DUP2 MSTORE PUSH1 0x20 ADD PUSH1 0x0 KECCAK256 SWAP1 POP PUSH1 0x8 PUSH1 0x0 DUP2 SLOAD DUP1 SWAP3 SWAP2 SWAP1 PUSH2 0x502 SWAP1 PUSH2 0xDA4 JUMP JUMPDEST SWAP2 SWAP1 POP SSTORE POP DUP4 DUP2 PUSH1 0x0 ADD SWAP1 DUP1 MLOAD SWAP1 PUSH1 0x20 ADD SWAP1 PUSH2 0x51F SWAP3 SWAP2 SWAP1 PUSH2 0x826 JUMP JUMPDEST POP DUP3 DUP2 PUSH1 0x1 ADD PUSH1 0x0 PUSH2 0x100 EXP DUP2 SLOAD DUP2 PUSH20 0xFFFFFFFFFFFFFFFFFFFFFFFFFFFFFFFFFFFFFFFF MUL NOT AND SWAP1 DUP4 PUSH20 0xFFFFFFFFFFFFFFFFFFFFFFFFFFFFFFFFFFFFFFFF AND MUL OR SWAP1 SSTORE POP DUP2 DUP2 PUSH1 0x2 ADD DUP2 SWAP1 SSTORE POP PUSH1 0x0 DUP2 PUSH1 0x3 ADD PUSH1 0x0 PUSH2 0x100 EXP DUP2 SLOAD DUP2 PUSH1 0xFF MUL NOT AND SWAP1 DUP4 ISZERO ISZERO MUL OR SWAP1 SSTORE POP PUSH1 0x0 DUP2 PUSH1 0x4 ADD DUP2 SWAP1 SSTORE POP POP POP POP POP JUMP JUMPDEST PUSH1 0x1 PUSH1 0x0 SWAP1 SLOAD SWAP1 PUSH2 0x100 EXP SWAP1 DIV PUSH20 0xFFFFFFFFFFFFFFFFFFFFFFFFFFFFFFFFFFFFFFFF AND DUP2 JUMP JUMPDEST PUSH1 0x0 DUP1 PUSH1 0x0 CALLER PUSH20 0xFFFFFFFFFFFFFFFFFFFFFFFFFFFFFFFFFFFFFFFF AND PUSH20 0xFFFFFFFFFFFFFFFFFFFFFFFFFFFFFFFFFFFFFFFF AND DUP2 MSTORE PUSH1 0x20 ADD SWAP1 DUP2 MSTORE PUSH1 0x20 ADD PUSH1 0x0 KECCAK256 SLOAD GT PUSH2 0x640 JUMPI PUSH1 0x40 MLOAD PUSH32 0x8C379A000000000000000000000000000000000000000000000000000000000 DUP2 MSTORE PUSH1 0x4 ADD PUSH2 0x637 SWAP1 PUSH2 0xBCC JUMP JUMPDEST PUSH1 0x40 MLOAD DUP1 SWAP2 SUB SWAP1 REVERT JUMPDEST PUSH1 0x0 PUSH1 0x7 PUSH1 0x0 DUP4 DUP2 MSTORE PUSH1 0x20 ADD SWAP1 DUP2 MSTORE PUSH1 0x20 ADD PUSH1 0x0 KECCAK256 SWAP1 POP POP POP JUMP JUMPDEST PUSH1 0x6 SLOAD DUP2 JUMP JUMPDEST PUSH1 0x3 SLOAD TIMESTAMP GT DUP1 ISZERO PUSH2 0x675 JUMPI POP PUSH1 0x5 SLOAD PUSH1 0x4 SLOAD GT JUMPDEST PUSH2 0x6B4 JUMPI PUSH1 0x40 MLOAD PUSH32 0x8C379A000000000000000000000000000000000000000000000000000000000 DUP2 MSTORE PUSH1 0x4 ADD PUSH2 0x6AB SWAP1 PUSH2 0xBAC JUMP JUMPDEST PUSH1 0x40 MLOAD DUP1 SWAP2 SUB SWAP1 REVERT JUMPDEST PUSH1 0x0 DUP1 PUSH1 0x0 CALLER PUSH20 0xFFFFFFFFFFFFFFFFFFFFFFFFFFFFFFFFFFFFFFFF AND PUSH20 0xFFFFFFFFFFFFFFFFFFFFFFFFFFFFFFFFFFFFFFFF AND DUP2 MSTORE PUSH1 0x20 ADD SWAP1 DUP2 MSTORE PUSH1 0x20 ADD PUSH1 0x0 KECCAK256 SLOAD GT PUSH2 0x735 JUMPI PUSH1 0x40 MLOAD PUSH32 0x8C379A000000000000000000000000000000000000000000000000000000000 DUP2 MSTORE PUSH1 0x4 ADD PUSH2 0x72C SWAP1 PUSH2 0xB8C JUMP JUMPDEST PUSH1 0x40 MLOAD DUP1 SWAP2 SUB SWAP1 REVERT JUMPDEST PUSH1 0x0 CALLER SWAP1 POP DUP1 PUSH20 0xFFFFFFFFFFFFFFFFFFFFFFFFFFFFFFFFFFFFFFFF AND PUSH2 0x8FC PUSH1 0x0 DUP1 CALLER PUSH20 0xFFFFFFFFFFFFFFFFFFFFFFFFFFFFFFFFFFFFFFFF AND PUSH20 0xFFFFFFFFFFFFFFFFFFFFFFFFFFFFFFFFFFFFFFFF AND DUP2 MSTORE PUSH1 0x20 ADD SWAP1 DUP2 MSTORE PUSH1 0x20 ADD PUSH1 0x0 KECCAK256 SLOAD SWAP1 DUP2 ISZERO MUL SWAP1 PUSH1 0x40 MLOAD PUSH1 0x0 PUSH1 0x40 MLOAD DUP1 DUP4 SUB DUP2 DUP6 DUP9 DUP9 CALL SWAP4 POP POP POP POP ISZERO DUP1 ISZERO PUSH2 0x7BE JUMPI RETURNDATASIZE PUSH1 0x0 DUP1 RETURNDATACOPY RETURNDATASIZE PUSH1 0x0 REVERT JUMPDEST POP PUSH1 0x0 DUP1 PUSH1 0x0 CALLER PUSH20 0xFFFFFFFFFFFFFFFFFFFFFFFFFFFFFFFFFFFFFFFF AND PUSH20 0xFFFFFFFFFFFFFFFFFFFFFFFFFFFFFFFFFFFFFFFF AND DUP2 MSTORE PUSH1 0x20 ADD SWAP1 DUP2 MSTORE PUSH1 0x20 ADD PUSH1 0x0 KECCAK256 DUP2 SWAP1 SSTORE POP POP JUMP JUMPDEST PUSH1 0x0 SELFBALANCE SWAP1 POP SWAP1 JUMP JUMPDEST PUSH1 0x8 SLOAD DUP2 JUMP JUMPDEST PUSH1 0x2 SLOAD DUP2 JUMP JUMPDEST PUSH1 0x5 SLOAD DUP2 JUMP JUMPDEST PUSH1 0x4 SLOAD DUP2 JUMP JUMPDEST DUP3 DUP1 SLOAD PUSH2 0x832 SWAP1 PUSH2 0xD41 JUMP JUMPDEST SWAP1 PUSH1 0x0 MSTORE PUSH1 0x20 PUSH1 0x0 KECCAK256 SWAP1 PUSH1 0x1F ADD PUSH1 0x20 SWAP1 DIV DUP2 ADD SWAP3 DUP3 PUSH2 0x854 JUMPI PUSH1 0x0 DUP6 SSTORE PUSH2 0x89B JUMP JUMPDEST DUP3 PUSH1 0x1F LT PUSH2 0x86D JUMPI DUP1 MLOAD PUSH1 0xFF NOT AND DUP4 DUP1 ADD OR DUP6 SSTORE PUSH2 0x89B JUMP JUMPDEST DUP3 DUP1 ADD PUSH1 0x1 ADD DUP6 SSTORE DUP3 ISZERO PUSH2 0x89B JUMPI SWAP2 DUP3 ADD JUMPDEST DUP3 DUP2 GT ISZERO PUSH2 0x89A JUMPI DUP3 MLOAD DUP3 SSTORE SWAP2 PUSH1 0x20 ADD SWAP2 SWAP1 PUSH1 0x1 ADD SWAP1 PUSH2 0x87F JUMP JUMPDEST JUMPDEST POP SWAP1 POP PUSH2 0x8A8 SWAP2 SWAP1 PUSH2 0x8AC JUMP JUMPDEST POP SWAP1 JUMP JUMPDEST JUMPDEST DUP1 DUP3 GT ISZERO PUSH2 0x8C5 JUMPI PUSH1 0x0 DUP2 PUSH1 0x0 SWAP1 SSTORE POP PUSH1 0x1 ADD PUSH2 0x8AD JUMP JUMPDEST POP SWAP1 JUMP JUMPDEST PUSH1 0x0 PUSH2 0x8DC PUSH2 0x8D7 DUP5 PUSH2 0xC4C JUMP JUMPDEST PUSH2 0xC27 JUMP JUMPDEST SWAP1 POP DUP3 DUP2 MSTORE PUSH1 0x20 DUP2 ADD DUP5 DUP5 DUP5 ADD GT ISZERO PUSH2 0x8F8 JUMPI PUSH2 0x8F7 PUSH2 0xE7F JUMP JUMPDEST JUMPDEST PUSH2 0x903 DUP5 DUP3 DUP6 PUSH2 0xD32 JUMP JUMPDEST POP SWAP4 SWAP3 POP POP POP JUMP JUMPDEST PUSH1 0x0 DUP2 CALLDATALOAD SWAP1 POP PUSH2 0x91A DUP2 PUSH2 0x1007 JUMP JUMPDEST SWAP3 SWAP2 POP POP JUMP JUMPDEST PUSH1 0x0 DUP2 CALLDATALOAD SWAP1 POP PUSH2 0x92F DUP2 PUSH2 0x101E JUMP JUMPDEST SWAP3 SWAP2 POP POP JUMP JUMPDEST PUSH1 0x0 DUP3 PUSH1 0x1F DUP4 ADD SLT PUSH2 0x94A JUMPI PUSH2 0x949 PUSH2 0xE7A JUMP JUMPDEST JUMPDEST DUP2 CALLDATALOAD PUSH2 0x95A DUP5 DUP3 PUSH1 0x20 DUP7 ADD PUSH2 0x8C9 JUMP JUMPDEST SWAP2 POP POP SWAP3 SWAP2 POP POP JUMP JUMPDEST PUSH1 0x0 DUP2 CALLDATALOAD SWAP1 POP PUSH2 0x972 DUP2 PUSH2 0x1035 JUMP JUMPDEST SWAP3 SWAP2 POP POP JUMP JUMPDEST PUSH1 0x0 PUSH1 0x20 DUP3 DUP5 SUB SLT ISZERO PUSH2 0x98E JUMPI PUSH2 0x98D PUSH2 0xE89 JUMP JUMPDEST JUMPDEST PUSH1 0x0 PUSH2 0x99C DUP5 DUP3 DUP6 ADD PUSH2 0x90B JUMP JUMPDEST SWAP2 POP POP SWAP3 SWAP2 POP POP JUMP JUMPDEST PUSH1 0x0 DUP1 PUSH1 0x0 PUSH1 0x60 DUP5 DUP7 SUB SLT ISZERO PUSH2 0x9BE JUMPI PUSH2 0x9BD PUSH2 0xE89 JUMP JUMPDEST JUMPDEST PUSH1 0x0 DUP5 ADD CALLDATALOAD PUSH8 0xFFFFFFFFFFFFFFFF DUP2 GT ISZERO PUSH2 0x9DC JUMPI PUSH2 0x9DB PUSH2 0xE84 JUMP JUMPDEST JUMPDEST PUSH2 0x9E8 DUP7 DUP3 DUP8 ADD PUSH2 0x935 JUMP JUMPDEST SWAP4 POP POP PUSH1 0x20 PUSH2 0x9F9 DUP7 DUP3 DUP8 ADD PUSH2 0x920 JUMP JUMPDEST SWAP3 POP POP PUSH1 0x40 PUSH2 0xA0A DUP7 DUP3 DUP8 ADD PUSH2 0x963 JUMP JUMPDEST SWAP2 POP POP SWAP3 POP SWAP3 POP SWAP3 JUMP JUMPDEST PUSH1 0x0 PUSH1 0x20 DUP3 DUP5 SUB SLT ISZERO PUSH2 0xA2A JUMPI PUSH2 0xA29 PUSH2 0xE89 JUMP JUMPDEST JUMPDEST PUSH1 0x0 PUSH2 0xA38 DUP5 DUP3 DUP6 ADD PUSH2 0x963 JUMP JUMPDEST SWAP2 POP POP SWAP3 SWAP2 POP POP JUMP JUMPDEST PUSH2 0xA4A DUP2 PUSH2 0xCE4 JUMP JUMPDEST DUP3 MSTORE POP POP JUMP JUMPDEST PUSH1 0x0 PUSH2 0xA5D PUSH1 0x23 DUP4 PUSH2 0xC7D JUMP JUMPDEST SWAP2 POP PUSH2 0xA68 DUP3 PUSH2 0xE9F JUMP JUMPDEST PUSH1 0x40 DUP3 ADD SWAP1 POP SWAP2 SWAP1 POP JUMP JUMPDEST PUSH1 0x0 PUSH2 0xA80 PUSH1 0x23 DUP4 PUSH2 0xC7D JUMP JUMPDEST SWAP2 POP PUSH2 0xA8B DUP3 PUSH2 0xEEE JUMP JUMPDEST PUSH1 0x40 DUP3 ADD SWAP1 POP SWAP2 SWAP1 POP JUMP JUMPDEST PUSH1 0x0 PUSH2 0xAA3 PUSH1 0x1B DUP4 PUSH2 0xC7D JUMP JUMPDEST SWAP2 POP PUSH2 0xAAE DUP3 PUSH2 0xF3D JUMP JUMPDEST PUSH1 0x20 DUP3 ADD SWAP1 POP SWAP2 SWAP1 POP JUMP JUMPDEST PUSH1 0x0 PUSH2 0xAC6 PUSH1 0x1F DUP4 PUSH2 0xC7D JUMP JUMPDEST SWAP2 POP PUSH2 0xAD1 DUP3 PUSH2 0xF66 JUMP JUMPDEST PUSH1 0x20 DUP3 ADD SWAP1 POP SWAP2 SWAP1 POP JUMP JUMPDEST PUSH1 0x0 PUSH2 0xAE9 PUSH1 0x28 DUP4 PUSH2 0xC7D JUMP JUMPDEST SWAP2 POP PUSH2 0xAF4 DUP3 PUSH2 0xF8F JUMP JUMPDEST PUSH1 0x40 DUP3 ADD SWAP1 POP SWAP2 SWAP1 POP JUMP JUMPDEST PUSH1 0x0 PUSH2 0xB0C PUSH1 0x15 DUP4 PUSH2 0xC7D JUMP JUMPDEST SWAP2 POP PUSH2 0xB17 DUP3 PUSH2 0xFDE JUMP JUMPDEST PUSH1 0x20 DUP3 ADD SWAP1 POP SWAP2 SWAP1 POP JUMP JUMPDEST PUSH2 0xB2B DUP2 PUSH2 0xD28 JUMP JUMPDEST DUP3 MSTORE POP POP JUMP JUMPDEST PUSH1 0x0 PUSH1 0x20 DUP3 ADD SWAP1 POP PUSH2 0xB46 PUSH1 0x0 DUP4 ADD DUP5 PUSH2 0xA41 JUMP JUMPDEST SWAP3 SWAP2 POP POP JUMP JUMPDEST PUSH1 0x0 PUSH1 0x20 DUP3 ADD SWAP1 POP DUP2 DUP2 SUB PUSH1 0x0 DUP4 ADD MSTORE PUSH2 0xB65 DUP2 PUSH2 0xA50 JUMP JUMPDEST SWAP1 POP SWAP2 SWAP1 POP JUMP JUMPDEST PUSH1 0x0 PUSH1 0x20 DUP3 ADD SWAP1 POP DUP2 DUP2 SUB PUSH1 0x0 DUP4 ADD MSTORE PUSH2 0xB85 DUP2 PUSH2 0xA73 JUMP JUMPDEST SWAP1 POP SWAP2 SWAP1 POP JUMP JUMPDEST PUSH1 0x0 PUSH1 0x20 DUP3 ADD SWAP1 POP DUP2 DUP2 SUB PUSH1 0x0 DUP4 ADD MSTORE PUSH2 0xBA5 DUP2 PUSH2 0xA96 JUMP JUMPDEST SWAP1 POP SWAP2 SWAP1 POP JUMP JUMPDEST PUSH1 0x0 PUSH1 0x20 DUP3 ADD SWAP1 POP DUP2 DUP2 SUB PUSH1 0x0 DUP4 ADD MSTORE PUSH2 0xBC5 DUP2 PUSH2 0xAB9 JUMP JUMPDEST SWAP1 POP SWAP2 SWAP1 POP JUMP JUMPDEST PUSH1 0x0 PUSH1 0x20 DUP3 ADD SWAP1 POP DUP2 DUP2 SUB PUSH1 0x0 DUP4 ADD MSTORE PUSH2 0xBE5 DUP2 PUSH2 0xADC JUMP JUMPDEST SWAP1 POP SWAP2 SWAP1 POP JUMP JUMPDEST PUSH1 0x0 PUSH1 0x20 DUP3 ADD SWAP1 POP DUP2 DUP2 SUB PUSH1 0x0 DUP4 ADD MSTORE PUSH2 0xC05 DUP2 PUSH2 0xAFF JUMP JUMPDEST SWAP1 POP SWAP2 SWAP1 POP JUMP JUMPDEST PUSH1 0x0 PUSH1 0x20 DUP3 ADD SWAP1 POP PUSH2 0xC21 PUSH1 0x0 DUP4 ADD DUP5 PUSH2 0xB22 JUMP JUMPDEST SWAP3 SWAP2 POP POP JUMP JUMPDEST PUSH1 0x0 PUSH2 0xC31 PUSH2 0xC42 JUMP JUMPDEST SWAP1 POP PUSH2 0xC3D DUP3 DUP3 PUSH2 0xD73 JUMP JUMPDEST SWAP2 SWAP1 POP JUMP JUMPDEST PUSH1 0x0 PUSH1 0x40 MLOAD SWAP1 POP SWAP1 JUMP JUMPDEST PUSH1 0x0 PUSH8 0xFFFFFFFFFFFFFFFF DUP3 GT ISZERO PUSH2 0xC67 JUMPI PUSH2 0xC66 PUSH2 0xE4B JUMP JUMPDEST JUMPDEST PUSH2 0xC70 DUP3 PUSH2 0xE8E JUMP JUMPDEST SWAP1 POP PUSH1 0x20 DUP2 ADD SWAP1 POP SWAP2 SWAP1 POP JUMP JUMPDEST PUSH1 0x0 DUP3 DUP3 MSTORE PUSH1 0x20 DUP3 ADD SWAP1 POP SWAP3 SWAP2 POP POP JUMP JUMPDEST PUSH1 0x0 PUSH2 0xC99 DUP3 PUSH2 0xD28 JUMP JUMPDEST SWAP2 POP PUSH2 0xCA4 DUP4 PUSH2 0xD28 JUMP JUMPDEST SWAP3 POP DUP3 PUSH32 0xFFFFFFFFFFFFFFFFFFFFFFFFFFFFFFFFFFFFFFFFFFFFFFFFFFFFFFFFFFFFFFFF SUB DUP3 GT ISZERO PUSH2 0xCD9 JUMPI PUSH2 0xCD8 PUSH2 0xDED JUMP JUMPDEST JUMPDEST DUP3 DUP3 ADD SWAP1 POP SWAP3 SWAP2 POP POP JUMP JUMPDEST PUSH1 0x0 PUSH2 0xCEF DUP3 PUSH2 0xD08 JUMP JUMPDEST SWAP1 POP SWAP2 SWAP1 POP JUMP JUMPDEST PUSH1 0x0 PUSH2 0xD01 DUP3 PUSH2 0xD08 JUMP JUMPDEST SWAP1 POP SWAP2 SWAP1 POP JUMP JUMPDEST PUSH1 0x0 PUSH20 0xFFFFFFFFFFFFFFFFFFFFFFFFFFFFFFFFFFFFFFFF DUP3 AND SWAP1 POP SWAP2 SWAP1 POP JUMP JUMPDEST PUSH1 0x0 DUP2 SWAP1 POP SWAP2 SWAP1 POP JUMP JUMPDEST DUP3 DUP2 DUP4 CALLDATACOPY PUSH1 0x0 DUP4 DUP4 ADD MSTORE POP POP POP JUMP JUMPDEST PUSH1 0x0 PUSH1 0x2 DUP3 DIV SWAP1 POP PUSH1 0x1 DUP3 AND DUP1 PUSH2 0xD59 JUMPI PUSH1 0x7F DUP3 AND SWAP2 POP JUMPDEST PUSH1 0x20 DUP3 LT DUP2 EQ ISZERO PUSH2 0xD6D JUMPI PUSH2 0xD6C PUSH2 0xE1C JUMP JUMPDEST JUMPDEST POP SWAP2 SWAP1 POP JUMP JUMPDEST PUSH2 0xD7C DUP3 PUSH2 0xE8E JUMP JUMPDEST DUP2 ADD DUP2 DUP2 LT PUSH8 0xFFFFFFFFFFFFFFFF DUP3 GT OR ISZERO PUSH2 0xD9B JUMPI PUSH2 0xD9A PUSH2 0xE4B JUMP JUMPDEST JUMPDEST DUP1 PUSH1 0x40 MSTORE POP POP POP JUMP JUMPDEST PUSH1 0x0 PUSH2 0xDAF DUP3 PUSH2 0xD28 JUMP JUMPDEST SWAP2 POP PUSH32 0xFFFFFFFFFFFFFFFFFFFFFFFFFFFFFFFFFFFFFFFFFFFFFFFFFFFFFFFFFFFFFFFF DUP3 EQ ISZERO PUSH2 0xDE2 JUMPI PUSH2 0xDE1 PUSH2 0xDED JUMP JUMPDEST JUMPDEST PUSH1 0x1 DUP3 ADD SWAP1 POP SWAP2 SWAP1 POP JUMP JUMPDEST PUSH32 0x4E487B7100000000000000000000000000000000000000000000000000000000 PUSH1 0x0 MSTORE PUSH1 0x11 PUSH1 0x4 MSTORE PUSH1 0x24 PUSH1 0x0 REVERT JUMPDEST PUSH32 0x4E487B7100000000000000000000000000000000000000000000000000000000 PUSH1 0x0 MSTORE PUSH1 0x22 PUSH1 0x4 MSTORE PUSH1 0x24 PUSH1 0x0 REVERT JUMPDEST PUSH32 0x4E487B7100000000000000000000000000000000000000000000000000000000 PUSH1 0x0 MSTORE PUSH1 0x41 PUSH1 0x4 MSTORE PUSH1 0x24 PUSH1 0x0 REVERT JUMPDEST PUSH1 0x0 DUP1 REVERT JUMPDEST PUSH1 0x0 DUP1 REVERT JUMPDEST PUSH1 0x0 DUP1 REVERT JUMPDEST PUSH1 0x0 DUP1 REVERT JUMPDEST PUSH1 0x0 PUSH1 0x1F NOT PUSH1 0x1F DUP4 ADD AND SWAP1 POP SWAP2 SWAP1 POP JUMP JUMPDEST PUSH32 0x4F6E6C79206D616E616765722063616E2063616C6C20746869732066756E6374 PUSH1 0x0 DUP3 ADD MSTORE PUSH32 0x696F6E0000000000000000000000000000000000000000000000000000000000 PUSH1 0x20 DUP3 ADD MSTORE POP JUMP JUMPDEST PUSH32 0x4D696E696D756D20636F6E747269627574696F6E206973206F66203130302077 PUSH1 0x0 DUP3 ADD MSTORE PUSH32 0x6569210000000000000000000000000000000000000000000000000000000000 PUSH1 0x20 DUP3 ADD MSTORE POP JUMP JUMPDEST PUSH32 0x596F7520686176656E277420636F6E7472696275746564207965740000000000 PUSH1 0x0 DUP3 ADD MSTORE POP JUMP JUMPDEST PUSH32 0x596F7520617265206E6F7420656C696769626C6520666F7220726566756E6400 PUSH1 0x0 DUP3 ADD MSTORE POP JUMP JUMPDEST PUSH32 0x596F75206D75737420626520636F6E7472696275746F7220696E206F72646572 PUSH1 0x0 DUP3 ADD MSTORE PUSH32 0x20746F20766F7465000000000000000000000000000000000000000000000000 PUSH1 0x20 DUP3 ADD MSTORE POP JUMP JUMPDEST PUSH32 0x446561646C696E65207061737365642061776179210000000000000000000000 PUSH1 0x0 DUP3 ADD MSTORE POP JUMP JUMPDEST PUSH2 0x1010 DUP2 PUSH2 0xCE4 JUMP JUMPDEST DUP2 EQ PUSH2 0x101B JUMPI PUSH1 0x0 DUP1 REVERT JUMPDEST POP JUMP JUMPDEST PUSH2 0x1027 DUP2 PUSH2 0xCF6 JUMP JUMPDEST DUP2 EQ PUSH2 0x1032 JUMPI PUSH1 0x0 DUP1 REVERT JUMPDEST POP JUMP JUMPDEST PUSH2 0x103E DUP2 PUSH2 0xD28 JUMP JUMPDEST DUP2 EQ PUSH2 0x1049 JUMPI PUSH1 0x0 DUP1 REVERT JUMPDEST POP JUMP INVALID LOG2 PUSH5 0x6970667358 0x22 SLT KECCAK256 SWAP2 0xA7 0xFC 0x5D PUSH6 0xCFA5EA547732 DUP16 RETURNDATASIZE 0xE6 0x1F 0xCB 0xF9 PUSH6 0xBFE04894BD68 MUL 0xF7 PUSH22 0x9B77E353D664736F6C63430008070033000000000000 "
				},
				"gasEstimates": {
					"creation": {
						"codeDepositCost": "845200",
						"executionCost": "infinite",
						"totalCost": "infinite"
					},
					"external": {
						"contributors(address)": "2837",
						"createRequests(string,address,uint256)": "infinite",
						"deadline()": "2474",
						"getContractBalance()": "406",
						"manager()": "2603",
						"minContribution()": "2473",
						"noOfContributors()": "2452",
						"numRequests()": "2451",
						"raisedAmount()": "2495",
						"refund()": "infinite",
						"sendEth()": "infinite",
						"target()": "2517",
						"voteRequest(uint256)": "3034"
					}
				},
				"methodIdentifiers": {
					"contributors(address)": "1f6d4942",
					"createRequests(string,address,uint256)": "3eb7647b",
					"deadline()": "29dcb0cf",
					"getContractBalance()": "6f9fb98a",
					"manager()": "481c6a75",
					"minContribution()": "aaffadf3",
					"noOfContributors()": "4e260f6f",
					"numRequests()": "9fb42b1f",
					"raisedAmount()": "c59ee1dc",
					"refund()": "590e1ae3",
					"sendEth()": "06e99fef",
					"target()": "d4b83992",
					"voteRequest(uint256)": "4cb6f4a5"
				}
			},
			"storageLayout": {
				"storage": [
					{
						"astId": 5,
						"contract": "contracts/CrowdFunding.sol:CrowdFunding",
						"label": "contributors",
						"offset": 0,
						"slot": "0",
						"type": "t_mapping(t_address,t_uint256)"
					},
					{
						"astId": 7,
						"contract": "contracts/CrowdFunding.sol:CrowdFunding",
						"label": "manager",
						"offset": 0,
						"slot": "1",
						"type": "t_address"
					},
					{
						"astId": 9,
						"contract": "contracts/CrowdFunding.sol:CrowdFunding",
						"label": "minContribution",
						"offset": 0,
						"slot": "2",
						"type": "t_uint256"
					},
					{
						"astId": 11,
						"contract": "contracts/CrowdFunding.sol:CrowdFunding",
						"label": "deadline",
						"offset": 0,
						"slot": "3",
						"type": "t_uint256"
					},
					{
						"astId": 13,
						"contract": "contracts/CrowdFunding.sol:CrowdFunding",
						"label": "target",
						"offset": 0,
						"slot": "4",
						"type": "t_uint256"
					},
					{
						"astId": 15,
						"contract": "contracts/CrowdFunding.sol:CrowdFunding",
						"label": "raisedAmount",
						"offset": 0,
						"slot": "5",
						"type": "t_uint256"
					},
					{
						"astId": 17,
						"contract": "contracts/CrowdFunding.sol:CrowdFunding",
						"label": "noOfContributors",
						"offset": 0,
						"slot": "6",
						"type": "t_uint256"
					},
					{
						"astId": 37,
						"contract": "contracts/CrowdFunding.sol:CrowdFunding",
						"label": "requests",
						"offset": 0,
						"slot": "7",
						"type": "t_mapping(t_uint256,t_struct(Request)32_storage)"
					},
					{
						"astId": 39,
						"contract": "contracts/CrowdFunding.sol:CrowdFunding",
						"label": "numRequests",
						"offset": 0,
						"slot": "8",
						"type": "t_uint256"
					}
				],
				"types": {
					"t_address": {
						"encoding": "inplace",
						"label": "address",
						"numberOfBytes": "20"
					},
					"t_address_payable": {
						"encoding": "inplace",
						"label": "address payable",
						"numberOfBytes": "20"
					},
					"t_bool": {
						"encoding": "inplace",
						"label": "bool",
						"numberOfBytes": "1"
					},
					"t_mapping(t_address,t_bool)": {
						"encoding": "mapping",
						"key": "t_address",
						"label": "mapping(address => bool)",
						"numberOfBytes": "32",
						"value": "t_bool"
					},
					"t_mapping(t_address,t_uint256)": {
						"encoding": "mapping",
						"key": "t_address",
						"label": "mapping(address => uint256)",
						"numberOfBytes": "32",
						"value": "t_uint256"
					},
					"t_mapping(t_uint256,t_struct(Request)32_storage)": {
						"encoding": "mapping",
						"key": "t_uint256",
						"label": "mapping(uint256 => struct CrowdFunding.Request)",
						"numberOfBytes": "32",
						"value": "t_struct(Request)32_storage"
					},
					"t_string_storage": {
						"encoding": "bytes",
						"label": "string",
						"numberOfBytes": "32"
					},
					"t_struct(Request)32_storage": {
						"encoding": "inplace",
						"label": "struct CrowdFunding.Request",
						"members": [
							{
								"astId": 19,
								"contract": "contracts/CrowdFunding.sol:CrowdFunding",
								"label": "description",
								"offset": 0,
								"slot": "0",
								"type": "t_string_storage"
							},
							{
								"astId": 21,
								"contract": "contracts/CrowdFunding.sol:CrowdFunding",
								"label": "recipient",
								"offset": 0,
								"slot": "1",
								"type": "t_address_payable"
							},
							{
								"astId": 23,
								"contract": "contracts/CrowdFunding.sol:CrowdFunding",
								"label": "value",
								"offset": 0,
								"slot": "2",
								"type": "t_uint256"
							},
							{
								"astId": 25,
								"contract": "contracts/CrowdFunding.sol:CrowdFunding",
								"label": "completed",
								"offset": 0,
								"slot": "3",
								"type": "t_bool"
							},
							{
								"astId": 27,
								"contract": "contracts/CrowdFunding.sol:CrowdFunding",
								"label": "noOfVoters",
								"offset": 0,
								"slot": "4",
								"type": "t_uint256"
							},
							{
								"astId": 31,
								"contract": "contracts/CrowdFunding.sol:CrowdFunding",
								"label": "voters",
								"offset": 0,
								"slot": "5",
								"type": "t_mapping(t_address,t_bool)"
							}
						],
						"numberOfBytes": "192"
					},
					"t_uint256": {
						"encoding": "inplace",
						"label": "uint256",
						"numberOfBytes": "32"
					}
				}
			},
			"userdoc": {
				"kind": "user",
				"methods": {},
				"version": 1
			}
		}
	}
}