{
	"contracts/CrowdFunding.sol": {
		"CrowdFunding": {
			"abi": [
				{
					"inputs": [
						{
							"internalType": "uint256",
							"name": "_target",
							"type": "uint256"
						},
						{
							"internalType": "uint256",
							"name": "_deadline",
							"type": "uint256"
						}
					],
					"stateMutability": "nonpayable",
					"type": "constructor"
				},
				{
					"inputs": [
						{
							"internalType": "address",
							"name": "",
							"type": "address"
						}
					],
					"name": "contributors",
					"outputs": [
						{
							"internalType": "uint256",
							"name": "",
							"type": "uint256"
						}
					],
					"stateMutability": "view",
					"type": "function"
				},
				{
					"inputs": [
						{
							"internalType": "string",
							"name": "_description",
							"type": "string"
						},
						{
							"internalType": "address payable",
							"name": "_recipient",
							"type": "address"
						},
						{
							"internalType": "uint256",
							"name": "_value",
							"type": "uint256"
						}
					],
					"name": "createRequests",
					"outputs": [],
					"stateMutability": "nonpayable",
					"type": "function"
				},
				{
					"inputs": [],
					"name": "deadline",
					"outputs": [
						{
							"internalType": "uint256",
							"name": "",
							"type": "uint256"
						}
					],
					"stateMutability": "view",
					"type": "function"
				},
				{
					"inputs": [],
					"name": "getContractBalance",
					"outputs": [
						{
							"internalType": "uint256",
							"name": "",
							"type": "uint256"
						}
					],
					"stateMutability": "view",
					"type": "function"
				},
				{
					"inputs": [],
					"name": "manager",
					"outputs": [
						{
							"internalType": "address",
							"name": "",
							"type": "address"
						}
					],
					"stateMutability": "view",
					"type": "function"
				},
				{
					"inputs": [],
					"name": "minContribution",
					"outputs": [
						{
							"internalType": "uint256",
							"name": "",
							"type": "uint256"
						}
					],
					"stateMutability": "view",
					"type": "function"
				},
				{
					"inputs": [],
					"name": "noOfContributors",
					"outputs": [
						{
							"internalType": "uint256",
							"name": "",
							"type": "uint256"
						}
					],
					"stateMutability": "view",
					"type": "function"
				},
				{
					"inputs": [],
					"name": "numRequests",
					"outputs": [
						{
							"internalType": "uint256",
							"name": "",
							"type": "uint256"
						}
					],
					"stateMutability": "view",
					"type": "function"
				},
				{
					"inputs": [],
					"name": "raisedAmount",
					"outputs": [
						{
							"internalType": "uint256",
							"name": "",
							"type": "uint256"
						}
					],
					"stateMutability": "view",
					"type": "function"
				},
				{
					"inputs": [],
					"name": "refund",
					"outputs": [],
					"stateMutability": "nonpayable",
					"type": "function"
				},
				{
					"inputs": [],
					"name": "sendEth",
					"outputs": [],
					"stateMutability": "payable",
					"type": "function"
				},
				{
					"inputs": [],
					"name": "target",
					"outputs": [
						{
							"internalType": "uint256",
							"name": "",
							"type": "uint256"
						}
					],
					"stateMutability": "view",
					"type": "function"
				}
			],
			"devdoc": {
				"kind": "dev",
				"methods": {},
				"version": 1
			},
			"evm": {
				"assembly": "    /* \"contracts/CrowdFunding.sol\":73:2138  contract CrowdFunding{\r... */\n  mstore(0x40, 0x80)\n    /* \"contracts/CrowdFunding.sol\":803:1036  constructor(uint _target, uint _deadline){  //set by the manager initially while deploying\r... */\n  callvalue\n  dup1\n  iszero\n  tag_1\n  jumpi\n  0x00\n  dup1\n  revert\ntag_1:\n  pop\n  mload(0x40)\n  sub(codesize, bytecodeSize)\n  dup1\n  bytecodeSize\n  dup4\n  codecopy\n  dup2\n  dup2\n  add\n  0x40\n  mstore\n  dup2\n  add\n  swap1\n  tag_2\n  swap2\n  swap1\n  tag_3\n  jump\t// in\ntag_2:\n    /* \"contracts/CrowdFunding.sol\":910:917  _target */\n  dup2\n    /* \"contracts/CrowdFunding.sol\":903:909  target */\n  0x04\n    /* \"contracts/CrowdFunding.sol\":903:917  target=_target */\n  dup2\n  swap1\n  sstore\n  pop\n    /* \"contracts/CrowdFunding.sol\":954:963  _deadline */\n  dup1\n    /* \"contracts/CrowdFunding.sol\":937:952  block.timestamp */\n  timestamp\n    /* \"contracts/CrowdFunding.sol\":937:963  block.timestamp+ _deadline */\n  tag_6\n  swap2\n  swap1\n  tag_7\n  jump\t// in\ntag_6:\n    /* \"contracts/CrowdFunding.sol\":928:936  deadline */\n  0x03\n    /* \"contracts/CrowdFunding.sol\":928:963  deadline=block.timestamp+ _deadline */\n  dup2\n  swap1\n  sstore\n  pop\n    /* \"contracts/CrowdFunding.sol\":990:997  100 wei */\n  0x64\n    /* \"contracts/CrowdFunding.sol\":974:989  minContribution */\n  0x02\n    /* \"contracts/CrowdFunding.sol\":974:997  minContribution=100 wei */\n  dup2\n  swap1\n  sstore\n  pop\n    /* \"contracts/CrowdFunding.sol\":1018:1028  msg.sender */\n  caller\n    /* \"contracts/CrowdFunding.sol\":1008:1015  manager */\n  0x01\n  0x00\n    /* \"contracts/CrowdFunding.sol\":1008:1028  manager = msg.sender */\n  0x0100\n  exp\n  dup2\n  sload\n  dup2\n  0xffffffffffffffffffffffffffffffffffffffff\n  mul\n  not\n  and\n  swap1\n  dup4\n  0xffffffffffffffffffffffffffffffffffffffff\n  and\n  mul\n  or\n  swap1\n  sstore\n  pop\n    /* \"contracts/CrowdFunding.sol\":803:1036  constructor(uint _target, uint _deadline){  //set by the manager initially while deploying\r... */\n  pop\n  pop\n    /* \"contracts/CrowdFunding.sol\":73:2138  contract CrowdFunding{\r... */\n  jump(tag_8)\n    /* \"#utility.yul\":7:150   */\ntag_10:\n    /* \"#utility.yul\":64:69   */\n  0x00\n    /* \"#utility.yul\":95:101   */\n  dup2\n    /* \"#utility.yul\":89:102   */\n  mload\n    /* \"#utility.yul\":80:102   */\n  swap1\n  pop\n    /* \"#utility.yul\":111:144   */\n  tag_12\n    /* \"#utility.yul\":138:143   */\n  dup2\n    /* \"#utility.yul\":111:144   */\n  tag_13\n  jump\t// in\ntag_12:\n    /* \"#utility.yul\":7:150   */\n  swap3\n  swap2\n  pop\n  pop\n  jump\t// out\n    /* \"#utility.yul\":156:663   */\ntag_3:\n    /* \"#utility.yul\":235:241   */\n  0x00\n    /* \"#utility.yul\":243:249   */\n  dup1\n    /* \"#utility.yul\":292:294   */\n  0x40\n    /* \"#utility.yul\":280:289   */\n  dup4\n    /* \"#utility.yul\":271:278   */\n  dup6\n    /* \"#utility.yul\":267:290   */\n  sub\n    /* \"#utility.yul\":263:295   */\n  slt\n    /* \"#utility.yul\":260:379   */\n  iszero\n  tag_15\n  jumpi\n    /* \"#utility.yul\":298:377   */\n  tag_16\n  tag_17\n  jump\t// in\ntag_16:\n    /* \"#utility.yul\":260:379   */\ntag_15:\n    /* \"#utility.yul\":418:419   */\n  0x00\n    /* \"#utility.yul\":443:507   */\n  tag_18\n    /* \"#utility.yul\":499:506   */\n  dup6\n    /* \"#utility.yul\":490:496   */\n  dup3\n    /* \"#utility.yul\":479:488   */\n  dup7\n    /* \"#utility.yul\":475:497   */\n  add\n    /* \"#utility.yul\":443:507   */\n  tag_10\n  jump\t// in\ntag_18:\n    /* \"#utility.yul\":433:507   */\n  swap3\n  pop\n    /* \"#utility.yul\":389:517   */\n  pop\n    /* \"#utility.yul\":556:558   */\n  0x20\n    /* \"#utility.yul\":582:646   */\n  tag_19\n    /* \"#utility.yul\":638:645   */\n  dup6\n    /* \"#utility.yul\":629:635   */\n  dup3\n    /* \"#utility.yul\":618:627   */\n  dup7\n    /* \"#utility.yul\":614:636   */\n  add\n    /* \"#utility.yul\":582:646   */\n  tag_10\n  jump\t// in\ntag_19:\n    /* \"#utility.yul\":572:646   */\n  swap2\n  pop\n    /* \"#utility.yul\":527:656   */\n  pop\n    /* \"#utility.yul\":156:663   */\n  swap3\n  pop\n  swap3\n  swap1\n  pop\n  jump\t// out\n    /* \"#utility.yul\":750:1055   */\ntag_7:\n    /* \"#utility.yul\":790:793   */\n  0x00\n    /* \"#utility.yul\":809:829   */\n  tag_23\n    /* \"#utility.yul\":827:828   */\n  dup3\n    /* \"#utility.yul\":809:829   */\n  tag_24\n  jump\t// in\ntag_23:\n    /* \"#utility.yul\":804:829   */\n  swap2\n  pop\n    /* \"#utility.yul\":843:863   */\n  tag_25\n    /* \"#utility.yul\":861:862   */\n  dup4\n    /* \"#utility.yul\":843:863   */\n  tag_24\n  jump\t// in\ntag_25:\n    /* \"#utility.yul\":838:863   */\n  swap3\n  pop\n    /* \"#utility.yul\":997:998   */\n  dup3\n    /* \"#utility.yul\":929:995   */\n  0xffffffffffffffffffffffffffffffffffffffffffffffffffffffffffffffff\n    /* \"#utility.yul\":925:999   */\n  sub\n    /* \"#utility.yul\":922:923   */\n  dup3\n    /* \"#utility.yul\":919:1000   */\n  gt\n    /* \"#utility.yul\":916:1023   */\n  iszero\n  tag_26\n  jumpi\n    /* \"#utility.yul\":1003:1021   */\n  tag_27\n  tag_28\n  jump\t// in\ntag_27:\n    /* \"#utility.yul\":916:1023   */\ntag_26:\n    /* \"#utility.yul\":1047:1048   */\n  dup3\n    /* \"#utility.yul\":1044:1045   */\n  dup3\n    /* \"#utility.yul\":1040:1049   */\n  add\n    /* \"#utility.yul\":1033:1049   */\n  swap1\n  pop\n    /* \"#utility.yul\":750:1055   */\n  swap3\n  swap2\n  pop\n  pop\n  jump\t// out\n    /* \"#utility.yul\":1061:1138   */\ntag_24:\n    /* \"#utility.yul\":1098:1105   */\n  0x00\n    /* \"#utility.yul\":1127:1132   */\n  dup2\n    /* \"#utility.yul\":1116:1132   */\n  swap1\n  pop\n    /* \"#utility.yul\":1061:1138   */\n  swap2\n  swap1\n  pop\n  jump\t// out\n    /* \"#utility.yul\":1144:1324   */\ntag_28:\n    /* \"#utility.yul\":1192:1269   */\n  0x4e487b7100000000000000000000000000000000000000000000000000000000\n    /* \"#utility.yul\":1189:1190   */\n  0x00\n    /* \"#utility.yul\":1182:1270   */\n  mstore\n    /* \"#utility.yul\":1289:1293   */\n  0x11\n    /* \"#utility.yul\":1286:1287   */\n  0x04\n    /* \"#utility.yul\":1279:1294   */\n  mstore\n    /* \"#utility.yul\":1313:1317   */\n  0x24\n    /* \"#utility.yul\":1310:1311   */\n  0x00\n    /* \"#utility.yul\":1303:1318   */\n  revert\n    /* \"#utility.yul\":1453:1570   */\ntag_17:\n    /* \"#utility.yul\":1562:1563   */\n  0x00\n    /* \"#utility.yul\":1559:1560   */\n  dup1\n    /* \"#utility.yul\":1552:1564   */\n  revert\n    /* \"#utility.yul\":1576:1698   */\ntag_13:\n    /* \"#utility.yul\":1649:1673   */\n  tag_35\n    /* \"#utility.yul\":1667:1672   */\n  dup2\n    /* \"#utility.yul\":1649:1673   */\n  tag_24\n  jump\t// in\ntag_35:\n    /* \"#utility.yul\":1642:1647   */\n  dup2\n    /* \"#utility.yul\":1639:1674   */\n  eq\n    /* \"#utility.yul\":1629:1692   */\n  tag_36\n  jumpi\n    /* \"#utility.yul\":1688:1689   */\n  0x00\n    /* \"#utility.yul\":1685:1686   */\n  dup1\n    /* \"#utility.yul\":1678:1690   */\n  revert\n    /* \"#utility.yul\":1629:1692   */\ntag_36:\n    /* \"#utility.yul\":1576:1698   */\n  pop\n  jump\t// out\n    /* \"contracts/CrowdFunding.sol\":73:2138  contract CrowdFunding{\r... */\ntag_8:\n  dataSize(sub_0)\n  dup1\n  dataOffset(sub_0)\n  0x00\n  codecopy\n  0x00\n  return\nstop\n\nsub_0: assembly {\n        /* \"contracts/CrowdFunding.sol\":73:2138  contract CrowdFunding{\r... */\n      mstore(0x40, 0x80)\n      jumpi(tag_1, lt(calldatasize, 0x04))\n      shr(0xe0, calldataload(0x00))\n      dup1\n      0x590e1ae3\n      gt\n      tag_14\n      jumpi\n      dup1\n      0x590e1ae3\n      eq\n      tag_8\n      jumpi\n      dup1\n      0x6f9fb98a\n      eq\n      tag_9\n      jumpi\n      dup1\n      0x9fb42b1f\n      eq\n      tag_10\n      jumpi\n      dup1\n      0xaaffadf3\n      eq\n      tag_11\n      jumpi\n      dup1\n      0xc59ee1dc\n      eq\n      tag_12\n      jumpi\n      dup1\n      0xd4b83992\n      eq\n      tag_13\n      jumpi\n      jump(tag_1)\n    tag_14:\n      dup1\n      0x06e99fef\n      eq\n      tag_2\n      jumpi\n      dup1\n      0x1f6d4942\n      eq\n      tag_3\n      jumpi\n      dup1\n      0x29dcb0cf\n      eq\n      tag_4\n      jumpi\n      dup1\n      0x3eb7647b\n      eq\n      tag_5\n      jumpi\n      dup1\n      0x481c6a75\n      eq\n      tag_6\n      jumpi\n      dup1\n      0x4e260f6f\n      eq\n      tag_7\n      jumpi\n    tag_1:\n      0x00\n      dup1\n      revert\n        /* \"contracts/CrowdFunding.sol\":1044:1405  function sendEth() public payable{\r... */\n    tag_2:\n      tag_15\n      tag_16\n      jump\t// in\n    tag_15:\n      stop\n        /* \"contracts/CrowdFunding.sol\":103:145  mapping(address=>uint) public contributors */\n    tag_3:\n      callvalue\n      dup1\n      iszero\n      tag_17\n      jumpi\n      0x00\n      dup1\n      revert\n    tag_17:\n      pop\n      tag_18\n      0x04\n      dup1\n      calldatasize\n      sub\n      dup2\n      add\n      swap1\n      tag_19\n      swap2\n      swap1\n      tag_20\n      jump\t// in\n    tag_19:\n      tag_21\n      jump\t// in\n    tag_18:\n      mload(0x40)\n      tag_22\n      swap2\n      swap1\n      tag_23\n      jump\t// in\n    tag_22:\n      mload(0x40)\n      dup1\n      swap2\n      sub\n      swap1\n      return\n        /* \"contracts/CrowdFunding.sol\":267:287  uint public deadline */\n    tag_4:\n      callvalue\n      dup1\n      iszero\n      tag_24\n      jumpi\n      0x00\n      dup1\n      revert\n    tag_24:\n      pop\n      tag_25\n      tag_26\n      jump\t// in\n    tag_25:\n      mload(0x40)\n      tag_27\n      swap2\n      swap1\n      tag_23\n      jump\t// in\n    tag_27:\n      mload(0x40)\n      dup1\n      swap2\n      sub\n      swap1\n      return\n        /* \"contracts/CrowdFunding.sol\":2007:2134  function createRequests(string memory _description,address payable _recipient,uint _value) public onlyManager{\r... */\n    tag_5:\n      callvalue\n      dup1\n      iszero\n      tag_28\n      jumpi\n      0x00\n      dup1\n      revert\n    tag_28:\n      pop\n      tag_29\n      0x04\n      dup1\n      calldatasize\n      sub\n      dup2\n      add\n      swap1\n      tag_30\n      swap2\n      swap1\n      tag_31\n      jump\t// in\n    tag_30:\n      tag_32\n      jump\t// in\n    tag_29:\n      stop\n        /* \"contracts/CrowdFunding.sol\":192:214  address public manager */\n    tag_6:\n      callvalue\n      dup1\n      iszero\n      tag_33\n      jumpi\n      0x00\n      dup1\n      revert\n    tag_33:\n      pop\n      tag_34\n      tag_35\n      jump\t// in\n    tag_34:\n      mload(0x40)\n      tag_36\n      swap2\n      swap1\n      tag_37\n      jump\t// in\n    tag_36:\n      mload(0x40)\n      dup1\n      swap2\n      sub\n      swap1\n      return\n        /* \"contracts/CrowdFunding.sol\":370:398  uint public noOfContributors */\n    tag_7:\n      callvalue\n      dup1\n      iszero\n      tag_38\n      jumpi\n      0x00\n      dup1\n      revert\n    tag_38:\n      pop\n      tag_39\n      tag_40\n      jump\t// in\n    tag_39:\n      mload(0x40)\n      tag_41\n      swap2\n      swap1\n      tag_23\n      jump\t// in\n    tag_41:\n      mload(0x40)\n      dup1\n      swap2\n      sub\n      swap1\n      return\n        /* \"contracts/CrowdFunding.sol\":1523:1872  function refund() public{\r... */\n    tag_8:\n      callvalue\n      dup1\n      iszero\n      tag_42\n      jumpi\n      0x00\n      dup1\n      revert\n    tag_42:\n      pop\n      tag_43\n      tag_44\n      jump\t// in\n    tag_43:\n      stop\n        /* \"contracts/CrowdFunding.sol\":1413:1515  function getContractBalance() public view returns(uint){\r... */\n    tag_9:\n      callvalue\n      dup1\n      iszero\n      tag_45\n      jumpi\n      0x00\n      dup1\n      revert\n    tag_45:\n      pop\n      tag_46\n      tag_47\n      jump\t// in\n    tag_46:\n      mload(0x40)\n      tag_48\n      swap2\n      swap1\n      tag_23\n      jump\t// in\n    tag_48:\n      mload(0x40)\n      dup1\n      swap2\n      sub\n      swap1\n      return\n        /* \"contracts/CrowdFunding.sol\":744:767  uint public numRequests */\n    tag_10:\n      callvalue\n      dup1\n      iszero\n      tag_49\n      jumpi\n      0x00\n      dup1\n      revert\n    tag_49:\n      pop\n      tag_50\n      tag_51\n      jump\t// in\n    tag_50:\n      mload(0x40)\n      tag_52\n      swap2\n      swap1\n      tag_23\n      jump\t// in\n    tag_52:\n      mload(0x40)\n      dup1\n      swap2\n      sub\n      swap1\n      return\n        /* \"contracts/CrowdFunding.sol\":233:260  uint public minContribution */\n    tag_11:\n      callvalue\n      dup1\n      iszero\n      tag_53\n      jumpi\n      0x00\n      dup1\n      revert\n    tag_53:\n      pop\n      tag_54\n      tag_55\n      jump\t// in\n    tag_54:\n      mload(0x40)\n      tag_56\n      swap2\n      swap1\n      tag_23\n      jump\t// in\n    tag_56:\n      mload(0x40)\n      dup1\n      swap2\n      sub\n      swap1\n      return\n        /* \"contracts/CrowdFunding.sol\":339:363  uint public raisedAmount */\n    tag_12:\n      callvalue\n      dup1\n      iszero\n      tag_57\n      jumpi\n      0x00\n      dup1\n      revert\n    tag_57:\n      pop\n      tag_58\n      tag_59\n      jump\t// in\n    tag_58:\n      mload(0x40)\n      tag_60\n      swap2\n      swap1\n      tag_23\n      jump\t// in\n    tag_60:\n      mload(0x40)\n      dup1\n      swap2\n      sub\n      swap1\n      return\n        /* \"contracts/CrowdFunding.sol\":295:313  uint public target */\n    tag_13:\n      callvalue\n      dup1\n      iszero\n      tag_61\n      jumpi\n      0x00\n      dup1\n      revert\n    tag_61:\n      pop\n      tag_62\n      tag_63\n      jump\t// in\n    tag_62:\n      mload(0x40)\n      tag_64\n      swap2\n      swap1\n      tag_23\n      jump\t// in\n    tag_64:\n      mload(0x40)\n      dup1\n      swap2\n      sub\n      swap1\n      return\n        /* \"contracts/CrowdFunding.sol\":1044:1405  function sendEth() public payable{\r... */\n    tag_16:\n        /* \"contracts/CrowdFunding.sol\":1112:1120  deadline */\n      sload(0x03)\n        /* \"contracts/CrowdFunding.sol\":1096:1111  block.timestamp */\n      timestamp\n        /* \"contracts/CrowdFunding.sol\":1096:1120  block.timestamp<deadline */\n      lt\n        /* \"contracts/CrowdFunding.sol\":1088:1145  require(block.timestamp<deadline,\"Deadline passed away!\") */\n      tag_66\n      jumpi\n      mload(0x40)\n      0x08c379a000000000000000000000000000000000000000000000000000000000\n      dup2\n      mstore\n      0x04\n      add\n      tag_67\n      swap1\n      tag_68\n      jump\t// in\n    tag_67:\n      mload(0x40)\n      dup1\n      swap2\n      sub\n      swap1\n      revert\n    tag_66:\n        /* \"contracts/CrowdFunding.sol\":1175:1190  minContribution */\n      sload(0x02)\n        /* \"contracts/CrowdFunding.sol\":1164:1173  msg.value */\n      callvalue\n        /* \"contracts/CrowdFunding.sol\":1164:1190  msg.value>=minContribution */\n      lt\n      iszero\n        /* \"contracts/CrowdFunding.sol\":1156:1229  require(msg.value>=minContribution,\"Minimum contribution is of 100 wei!\") */\n      tag_69\n      jumpi\n      mload(0x40)\n      0x08c379a000000000000000000000000000000000000000000000000000000000\n      dup2\n      mstore\n      0x04\n      add\n      tag_70\n      swap1\n      tag_71\n      jump\t// in\n    tag_70:\n      mload(0x40)\n      dup1\n      swap2\n      sub\n      swap1\n      revert\n    tag_69:\n        /* \"contracts/CrowdFunding.sol\":1271:1272  0 */\n      0x00\n        /* \"contracts/CrowdFunding.sol\":1245:1257  contributors */\n      dup1\n        /* \"contracts/CrowdFunding.sol\":1245:1269  contributors[msg.sender] */\n      0x00\n        /* \"contracts/CrowdFunding.sol\":1258:1268  msg.sender */\n      caller\n        /* \"contracts/CrowdFunding.sol\":1245:1269  contributors[msg.sender] */\n      0xffffffffffffffffffffffffffffffffffffffff\n      and\n      0xffffffffffffffffffffffffffffffffffffffff\n      and\n      dup2\n      mstore\n      0x20\n      add\n      swap1\n      dup2\n      mstore\n      0x20\n      add\n      0x00\n      keccak256\n      sload\n        /* \"contracts/CrowdFunding.sol\":1245:1272  contributors[msg.sender]==0 */\n      eq\n        /* \"contracts/CrowdFunding.sol\":1242:1318  if(contributors[msg.sender]==0){\r... */\n      iszero\n      tag_72\n      jumpi\n        /* \"contracts/CrowdFunding.sol\":1288:1304  noOfContributors */\n      0x06\n      0x00\n        /* \"contracts/CrowdFunding.sol\":1288:1306  noOfContributors++ */\n      dup2\n      sload\n      dup1\n      swap3\n      swap2\n      swap1\n      tag_73\n      swap1\n      tag_74\n      jump\t// in\n    tag_73:\n      swap2\n      swap1\n      pop\n      sstore\n      pop\n        /* \"contracts/CrowdFunding.sol\":1242:1318  if(contributors[msg.sender]==0){\r... */\n    tag_72:\n        /* \"contracts/CrowdFunding.sol\":1354:1363  msg.value */\n      callvalue\n        /* \"contracts/CrowdFunding.sol\":1328:1340  contributors */\n      0x00\n        /* \"contracts/CrowdFunding.sol\":1328:1352  contributors[msg.sender] */\n      dup1\n        /* \"contracts/CrowdFunding.sol\":1341:1351  msg.sender */\n      caller\n        /* \"contracts/CrowdFunding.sol\":1328:1352  contributors[msg.sender] */\n      0xffffffffffffffffffffffffffffffffffffffff\n      and\n      0xffffffffffffffffffffffffffffffffffffffff\n      and\n      dup2\n      mstore\n      0x20\n      add\n      swap1\n      dup2\n      mstore\n      0x20\n      add\n      0x00\n      keccak256\n      0x00\n        /* \"contracts/CrowdFunding.sol\":1328:1363  contributors[msg.sender]+=msg.value */\n      dup3\n      dup3\n      sload\n      tag_75\n      swap2\n      swap1\n      tag_76\n      jump\t// in\n    tag_75:\n      swap3\n      pop\n      pop\n      dup2\n      swap1\n      sstore\n      pop\n        /* \"contracts/CrowdFunding.sol\":1388:1397  msg.value */\n      callvalue\n        /* \"contracts/CrowdFunding.sol\":1374:1386  raisedAmount */\n      0x05\n      0x00\n        /* \"contracts/CrowdFunding.sol\":1374:1397  raisedAmount+=msg.value */\n      dup3\n      dup3\n      sload\n      tag_77\n      swap2\n      swap1\n      tag_76\n      jump\t// in\n    tag_77:\n      swap3\n      pop\n      pop\n      dup2\n      swap1\n      sstore\n      pop\n        /* \"contracts/CrowdFunding.sol\":1044:1405  function sendEth() public payable{\r... */\n      jump\t// out\n        /* \"contracts/CrowdFunding.sol\":103:145  mapping(address=>uint) public contributors */\n    tag_21:\n      mstore(0x20, 0x00)\n      dup1\n      0x00\n      mstore\n      keccak256(0x00, 0x40)\n      0x00\n      swap2\n      pop\n      swap1\n      pop\n      sload\n      dup2\n      jump\t// out\n        /* \"contracts/CrowdFunding.sol\":267:287  uint public deadline */\n    tag_26:\n      sload(0x03)\n      dup2\n      jump\t// out\n        /* \"contracts/CrowdFunding.sol\":2007:2134  function createRequests(string memory _description,address payable _recipient,uint _value) public onlyManager{\r... */\n    tag_32:\n        /* \"contracts/CrowdFunding.sol\":1933:1940  manager */\n      0x01\n      0x00\n      swap1\n      sload\n      swap1\n      0x0100\n      exp\n      swap1\n      div\n      0xffffffffffffffffffffffffffffffffffffffff\n      and\n        /* \"contracts/CrowdFunding.sol\":1921:1940  msg.sender==manager */\n      0xffffffffffffffffffffffffffffffffffffffff\n      and\n        /* \"contracts/CrowdFunding.sol\":1921:1931  msg.sender */\n      caller\n        /* \"contracts/CrowdFunding.sol\":1921:1940  msg.sender==manager */\n      0xffffffffffffffffffffffffffffffffffffffff\n      and\n      eq\n        /* \"contracts/CrowdFunding.sol\":1913:1979  require(msg.sender==manager,\"Only manager can call this function\") */\n      tag_79\n      jumpi\n      mload(0x40)\n      0x08c379a000000000000000000000000000000000000000000000000000000000\n      dup2\n      mstore\n      0x04\n      add\n      tag_80\n      swap1\n      tag_81\n      jump\t// in\n    tag_80:\n      mload(0x40)\n      dup1\n      swap2\n      sub\n      swap1\n      revert\n    tag_79:\n        /* \"contracts/CrowdFunding.sol\":2007:2134  function createRequests(string memory _description,address payable _recipient,uint _value) public onlyManager{\r... */\n      pop\n      pop\n      pop\n      jump\t// out\n        /* \"contracts/CrowdFunding.sol\":192:214  address public manager */\n    tag_35:\n      0x01\n      0x00\n      swap1\n      sload\n      swap1\n      0x0100\n      exp\n      swap1\n      div\n      0xffffffffffffffffffffffffffffffffffffffff\n      and\n      dup2\n      jump\t// out\n        /* \"contracts/CrowdFunding.sol\":370:398  uint public noOfContributors */\n    tag_40:\n      sload(0x06)\n      dup2\n      jump\t// out\n        /* \"contracts/CrowdFunding.sol\":1523:1872  function refund() public{\r... */\n    tag_44:\n        /* \"contracts/CrowdFunding.sol\":1582:1590  deadline */\n      sload(0x03)\n        /* \"contracts/CrowdFunding.sol\":1566:1581  block.timestamp */\n      timestamp\n        /* \"contracts/CrowdFunding.sol\":1566:1590  block.timestamp>deadline */\n      gt\n        /* \"contracts/CrowdFunding.sol\":1566:1613  block.timestamp>deadline && target>raisedAmount */\n      dup1\n      iszero\n      tag_84\n      jumpi\n      pop\n        /* \"contracts/CrowdFunding.sol\":1601:1613  raisedAmount */\n      sload(0x05)\n        /* \"contracts/CrowdFunding.sol\":1594:1600  target */\n      sload(0x04)\n        /* \"contracts/CrowdFunding.sol\":1594:1613  target>raisedAmount */\n      gt\n        /* \"contracts/CrowdFunding.sol\":1566:1613  block.timestamp>deadline && target>raisedAmount */\n    tag_84:\n        /* \"contracts/CrowdFunding.sol\":1558:1648  require(block.timestamp>deadline && target>raisedAmount,\"You are not eligible for refund\") */\n      tag_85\n      jumpi\n      mload(0x40)\n      0x08c379a000000000000000000000000000000000000000000000000000000000\n      dup2\n      mstore\n      0x04\n      add\n      tag_86\n      swap1\n      tag_87\n      jump\t// in\n    tag_86:\n      mload(0x40)\n      dup1\n      swap2\n      sub\n      swap1\n      revert\n    tag_85:\n        /* \"contracts/CrowdFunding.sol\":1692:1693  0 */\n      0x00\n        /* \"contracts/CrowdFunding.sol\":1667:1679  contributors */\n      dup1\n        /* \"contracts/CrowdFunding.sol\":1667:1691  contributors[msg.sender] */\n      0x00\n        /* \"contracts/CrowdFunding.sol\":1680:1690  msg.sender */\n      caller\n        /* \"contracts/CrowdFunding.sol\":1667:1691  contributors[msg.sender] */\n      0xffffffffffffffffffffffffffffffffffffffff\n      and\n      0xffffffffffffffffffffffffffffffffffffffff\n      and\n      dup2\n      mstore\n      0x20\n      add\n      swap1\n      dup2\n      mstore\n      0x20\n      add\n      0x00\n      keccak256\n      sload\n        /* \"contracts/CrowdFunding.sol\":1667:1693  contributors[msg.sender]>0 */\n      gt\n        /* \"contracts/CrowdFunding.sol\":1659:1724  require(contributors[msg.sender]>0,\"You haven't contributed yet\") */\n      tag_88\n      jumpi\n      mload(0x40)\n      0x08c379a000000000000000000000000000000000000000000000000000000000\n      dup2\n      mstore\n      0x04\n      add\n      tag_89\n      swap1\n      tag_90\n      jump\t// in\n    tag_89:\n      mload(0x40)\n      dup1\n      swap2\n      sub\n      swap1\n      revert\n    tag_88:\n        /* \"contracts/CrowdFunding.sol\":1735:1755  address payable user */\n      0x00\n        /* \"contracts/CrowdFunding.sol\":1766:1776  msg.sender */\n      caller\n        /* \"contracts/CrowdFunding.sol\":1735:1777  address payable user = payable(msg.sender) */\n      swap1\n      pop\n        /* \"contracts/CrowdFunding.sol\":1788:1792  user */\n      dup1\n        /* \"contracts/CrowdFunding.sol\":1788:1801  user.transfer */\n      0xffffffffffffffffffffffffffffffffffffffff\n      and\n        /* \"contracts/CrowdFunding.sol\":1788:1827  user.transfer(contributors[msg.sender]) */\n      0x08fc\n        /* \"contracts/CrowdFunding.sol\":1802:1814  contributors */\n      0x00\n        /* \"contracts/CrowdFunding.sol\":1802:1826  contributors[msg.sender] */\n      dup1\n        /* \"contracts/CrowdFunding.sol\":1815:1825  msg.sender */\n      caller\n        /* \"contracts/CrowdFunding.sol\":1802:1826  contributors[msg.sender] */\n      0xffffffffffffffffffffffffffffffffffffffff\n      and\n      0xffffffffffffffffffffffffffffffffffffffff\n      and\n      dup2\n      mstore\n      0x20\n      add\n      swap1\n      dup2\n      mstore\n      0x20\n      add\n      0x00\n      keccak256\n      sload\n        /* \"contracts/CrowdFunding.sol\":1788:1827  user.transfer(contributors[msg.sender]) */\n      swap1\n      dup2\n      iszero\n      mul\n      swap1\n      mload(0x40)\n      0x00\n      mload(0x40)\n      dup1\n      dup4\n      sub\n      dup2\n      dup6\n      dup9\n      dup9\n      call\n      swap4\n      pop\n      pop\n      pop\n      pop\n      iszero\n      dup1\n      iszero\n      tag_92\n      jumpi\n      returndatasize\n      0x00\n      dup1\n      returndatacopy\n      revert(0x00, returndatasize)\n    tag_92:\n      pop\n        /* \"contracts/CrowdFunding.sol\":1863:1864  0 */\n      0x00\n        /* \"contracts/CrowdFunding.sol\":1838:1850  contributors */\n      dup1\n        /* \"contracts/CrowdFunding.sol\":1838:1862  contributors[msg.sender] */\n      0x00\n        /* \"contracts/CrowdFunding.sol\":1851:1861  msg.sender */\n      caller\n        /* \"contracts/CrowdFunding.sol\":1838:1862  contributors[msg.sender] */\n      0xffffffffffffffffffffffffffffffffffffffff\n      and\n      0xffffffffffffffffffffffffffffffffffffffff\n      and\n      dup2\n      mstore\n      0x20\n      add\n      swap1\n      dup2\n      mstore\n      0x20\n      add\n      0x00\n      keccak256\n        /* \"contracts/CrowdFunding.sol\":1838:1864  contributors[msg.sender]=0 */\n      dup2\n      swap1\n      sstore\n      pop\n        /* \"contracts/CrowdFunding.sol\":1547:1872  {\r... */\n      pop\n        /* \"contracts/CrowdFunding.sol\":1523:1872  function refund() public{\r... */\n      jump\t// out\n        /* \"contracts/CrowdFunding.sol\":1413:1515  function getContractBalance() public view returns(uint){\r... */\n    tag_47:\n        /* \"contracts/CrowdFunding.sol\":1463:1467  uint */\n      0x00\n        /* \"contracts/CrowdFunding.sol\":1486:1507  address(this).balance */\n      selfbalance\n        /* \"contracts/CrowdFunding.sol\":1479:1507  return address(this).balance */\n      swap1\n      pop\n        /* \"contracts/CrowdFunding.sol\":1413:1515  function getContractBalance() public view returns(uint){\r... */\n      swap1\n      jump\t// out\n        /* \"contracts/CrowdFunding.sol\":744:767  uint public numRequests */\n    tag_51:\n      sload(0x08)\n      dup2\n      jump\t// out\n        /* \"contracts/CrowdFunding.sol\":233:260  uint public minContribution */\n    tag_55:\n      sload(0x02)\n      dup2\n      jump\t// out\n        /* \"contracts/CrowdFunding.sol\":339:363  uint public raisedAmount */\n    tag_59:\n      sload(0x05)\n      dup2\n      jump\t// out\n        /* \"contracts/CrowdFunding.sol\":295:313  uint public target */\n    tag_63:\n      sload(0x04)\n      dup2\n      jump\t// out\n        /* \"#utility.yul\":7:419   */\n    tag_95:\n        /* \"#utility.yul\":85:90   */\n      0x00\n        /* \"#utility.yul\":110:176   */\n      tag_97\n        /* \"#utility.yul\":126:175   */\n      tag_98\n        /* \"#utility.yul\":168:174   */\n      dup5\n        /* \"#utility.yul\":126:175   */\n      tag_99\n      jump\t// in\n    tag_98:\n        /* \"#utility.yul\":110:176   */\n      tag_100\n      jump\t// in\n    tag_97:\n        /* \"#utility.yul\":101:176   */\n      swap1\n      pop\n        /* \"#utility.yul\":199:205   */\n      dup3\n        /* \"#utility.yul\":192:197   */\n      dup2\n        /* \"#utility.yul\":185:206   */\n      mstore\n        /* \"#utility.yul\":237:241   */\n      0x20\n        /* \"#utility.yul\":230:235   */\n      dup2\n        /* \"#utility.yul\":226:242   */\n      add\n        /* \"#utility.yul\":275:278   */\n      dup5\n        /* \"#utility.yul\":266:272   */\n      dup5\n        /* \"#utility.yul\":261:264   */\n      dup5\n        /* \"#utility.yul\":257:273   */\n      add\n        /* \"#utility.yul\":254:279   */\n      gt\n        /* \"#utility.yul\":251:363   */\n      iszero\n      tag_101\n      jumpi\n        /* \"#utility.yul\":282:361   */\n      tag_102\n      tag_103\n      jump\t// in\n    tag_102:\n        /* \"#utility.yul\":251:363   */\n    tag_101:\n        /* \"#utility.yul\":372:413   */\n      tag_104\n        /* \"#utility.yul\":406:412   */\n      dup5\n        /* \"#utility.yul\":401:404   */\n      dup3\n        /* \"#utility.yul\":396:399   */\n      dup6\n        /* \"#utility.yul\":372:413   */\n      tag_105\n      jump\t// in\n    tag_104:\n        /* \"#utility.yul\":91:419   */\n      pop\n        /* \"#utility.yul\":7:419   */\n      swap4\n      swap3\n      pop\n      pop\n      pop\n      jump\t// out\n        /* \"#utility.yul\":425:564   */\n    tag_106:\n        /* \"#utility.yul\":471:476   */\n      0x00\n        /* \"#utility.yul\":509:515   */\n      dup2\n        /* \"#utility.yul\":496:516   */\n      calldataload\n        /* \"#utility.yul\":487:516   */\n      swap1\n      pop\n        /* \"#utility.yul\":525:558   */\n      tag_108\n        /* \"#utility.yul\":552:557   */\n      dup2\n        /* \"#utility.yul\":525:558   */\n      tag_109\n      jump\t// in\n    tag_108:\n        /* \"#utility.yul\":425:564   */\n      swap3\n      swap2\n      pop\n      pop\n      jump\t// out\n        /* \"#utility.yul\":570:725   */\n    tag_110:\n        /* \"#utility.yul\":624:629   */\n      0x00\n        /* \"#utility.yul\":662:668   */\n      dup2\n        /* \"#utility.yul\":649:669   */\n      calldataload\n        /* \"#utility.yul\":640:669   */\n      swap1\n      pop\n        /* \"#utility.yul\":678:719   */\n      tag_112\n        /* \"#utility.yul\":713:718   */\n      dup2\n        /* \"#utility.yul\":678:719   */\n      tag_113\n      jump\t// in\n    tag_112:\n        /* \"#utility.yul\":570:725   */\n      swap3\n      swap2\n      pop\n      pop\n      jump\t// out\n        /* \"#utility.yul\":745:1085   */\n    tag_114:\n        /* \"#utility.yul\":801:806   */\n      0x00\n        /* \"#utility.yul\":850:853   */\n      dup3\n        /* \"#utility.yul\":843:847   */\n      0x1f\n        /* \"#utility.yul\":835:841   */\n      dup4\n        /* \"#utility.yul\":831:848   */\n      add\n        /* \"#utility.yul\":827:854   */\n      slt\n        /* \"#utility.yul\":817:939   */\n      tag_116\n      jumpi\n        /* \"#utility.yul\":858:937   */\n      tag_117\n      tag_118\n      jump\t// in\n    tag_117:\n        /* \"#utility.yul\":817:939   */\n    tag_116:\n        /* \"#utility.yul\":975:981   */\n      dup2\n        /* \"#utility.yul\":962:982   */\n      calldataload\n        /* \"#utility.yul\":1000:1079   */\n      tag_119\n        /* \"#utility.yul\":1075:1078   */\n      dup5\n        /* \"#utility.yul\":1067:1073   */\n      dup3\n        /* \"#utility.yul\":1060:1064   */\n      0x20\n        /* \"#utility.yul\":1052:1058   */\n      dup7\n        /* \"#utility.yul\":1048:1065   */\n      add\n        /* \"#utility.yul\":1000:1079   */\n      tag_95\n      jump\t// in\n    tag_119:\n        /* \"#utility.yul\":991:1079   */\n      swap2\n      pop\n        /* \"#utility.yul\":807:1085   */\n      pop\n        /* \"#utility.yul\":745:1085   */\n      swap3\n      swap2\n      pop\n      pop\n      jump\t// out\n        /* \"#utility.yul\":1091:1230   */\n    tag_120:\n        /* \"#utility.yul\":1137:1142   */\n      0x00\n        /* \"#utility.yul\":1175:1181   */\n      dup2\n        /* \"#utility.yul\":1162:1182   */\n      calldataload\n        /* \"#utility.yul\":1153:1182   */\n      swap1\n      pop\n        /* \"#utility.yul\":1191:1224   */\n      tag_122\n        /* \"#utility.yul\":1218:1223   */\n      dup2\n        /* \"#utility.yul\":1191:1224   */\n      tag_123\n      jump\t// in\n    tag_122:\n        /* \"#utility.yul\":1091:1230   */\n      swap3\n      swap2\n      pop\n      pop\n      jump\t// out\n        /* \"#utility.yul\":1236:1565   */\n    tag_20:\n        /* \"#utility.yul\":1295:1301   */\n      0x00\n        /* \"#utility.yul\":1344:1346   */\n      0x20\n        /* \"#utility.yul\":1332:1341   */\n      dup3\n        /* \"#utility.yul\":1323:1330   */\n      dup5\n        /* \"#utility.yul\":1319:1342   */\n      sub\n        /* \"#utility.yul\":1315:1347   */\n      slt\n        /* \"#utility.yul\":1312:1431   */\n      iszero\n      tag_125\n      jumpi\n        /* \"#utility.yul\":1350:1429   */\n      tag_126\n      tag_127\n      jump\t// in\n    tag_126:\n        /* \"#utility.yul\":1312:1431   */\n    tag_125:\n        /* \"#utility.yul\":1470:1471   */\n      0x00\n        /* \"#utility.yul\":1495:1548   */\n      tag_128\n        /* \"#utility.yul\":1540:1547   */\n      dup5\n        /* \"#utility.yul\":1531:1537   */\n      dup3\n        /* \"#utility.yul\":1520:1529   */\n      dup6\n        /* \"#utility.yul\":1516:1538   */\n      add\n        /* \"#utility.yul\":1495:1548   */\n      tag_106\n      jump\t// in\n    tag_128:\n        /* \"#utility.yul\":1485:1548   */\n      swap2\n      pop\n        /* \"#utility.yul\":1441:1558   */\n      pop\n        /* \"#utility.yul\":1236:1565   */\n      swap3\n      swap2\n      pop\n      pop\n      jump\t// out\n        /* \"#utility.yul\":1571:2386   */\n    tag_31:\n        /* \"#utility.yul\":1666:1672   */\n      0x00\n        /* \"#utility.yul\":1674:1680   */\n      dup1\n        /* \"#utility.yul\":1682:1688   */\n      0x00\n        /* \"#utility.yul\":1731:1733   */\n      0x60\n        /* \"#utility.yul\":1719:1728   */\n      dup5\n        /* \"#utility.yul\":1710:1717   */\n      dup7\n        /* \"#utility.yul\":1706:1729   */\n      sub\n        /* \"#utility.yul\":1702:1734   */\n      slt\n        /* \"#utility.yul\":1699:1818   */\n      iszero\n      tag_130\n      jumpi\n        /* \"#utility.yul\":1737:1816   */\n      tag_131\n      tag_127\n      jump\t// in\n    tag_131:\n        /* \"#utility.yul\":1699:1818   */\n    tag_130:\n        /* \"#utility.yul\":1885:1886   */\n      0x00\n        /* \"#utility.yul\":1874:1883   */\n      dup5\n        /* \"#utility.yul\":1870:1887   */\n      add\n        /* \"#utility.yul\":1857:1888   */\n      calldataload\n        /* \"#utility.yul\":1915:1933   */\n      0xffffffffffffffff\n        /* \"#utility.yul\":1907:1913   */\n      dup2\n        /* \"#utility.yul\":1904:1934   */\n      gt\n        /* \"#utility.yul\":1901:2018   */\n      iszero\n      tag_132\n      jumpi\n        /* \"#utility.yul\":1937:2016   */\n      tag_133\n      tag_134\n      jump\t// in\n    tag_133:\n        /* \"#utility.yul\":1901:2018   */\n    tag_132:\n        /* \"#utility.yul\":2042:2105   */\n      tag_135\n        /* \"#utility.yul\":2097:2104   */\n      dup7\n        /* \"#utility.yul\":2088:2094   */\n      dup3\n        /* \"#utility.yul\":2077:2086   */\n      dup8\n        /* \"#utility.yul\":2073:2095   */\n      add\n        /* \"#utility.yul\":2042:2105   */\n      tag_114\n      jump\t// in\n    tag_135:\n        /* \"#utility.yul\":2032:2105   */\n      swap4\n      pop\n        /* \"#utility.yul\":1828:2115   */\n      pop\n        /* \"#utility.yul\":2154:2156   */\n      0x20\n        /* \"#utility.yul\":2180:2241   */\n      tag_136\n        /* \"#utility.yul\":2233:2240   */\n      dup7\n        /* \"#utility.yul\":2224:2230   */\n      dup3\n        /* \"#utility.yul\":2213:2222   */\n      dup8\n        /* \"#utility.yul\":2209:2231   */\n      add\n        /* \"#utility.yul\":2180:2241   */\n      tag_110\n      jump\t// in\n    tag_136:\n        /* \"#utility.yul\":2170:2241   */\n      swap3\n      pop\n        /* \"#utility.yul\":2125:2251   */\n      pop\n        /* \"#utility.yul\":2290:2292   */\n      0x40\n        /* \"#utility.yul\":2316:2369   */\n      tag_137\n        /* \"#utility.yul\":2361:2368   */\n      dup7\n        /* \"#utility.yul\":2352:2358   */\n      dup3\n        /* \"#utility.yul\":2341:2350   */\n      dup8\n        /* \"#utility.yul\":2337:2359   */\n      add\n        /* \"#utility.yul\":2316:2369   */\n      tag_120\n      jump\t// in\n    tag_137:\n        /* \"#utility.yul\":2306:2369   */\n      swap2\n      pop\n        /* \"#utility.yul\":2261:2379   */\n      pop\n        /* \"#utility.yul\":1571:2386   */\n      swap3\n      pop\n      swap3\n      pop\n      swap3\n      jump\t// out\n        /* \"#utility.yul\":2392:2510   */\n    tag_138:\n        /* \"#utility.yul\":2479:2503   */\n      tag_140\n        /* \"#utility.yul\":2497:2502   */\n      dup2\n        /* \"#utility.yul\":2479:2503   */\n      tag_141\n      jump\t// in\n    tag_140:\n        /* \"#utility.yul\":2474:2477   */\n      dup3\n        /* \"#utility.yul\":2467:2504   */\n      mstore\n        /* \"#utility.yul\":2392:2510   */\n      pop\n      pop\n      jump\t// out\n        /* \"#utility.yul\":2516:2882   */\n    tag_142:\n        /* \"#utility.yul\":2658:2661   */\n      0x00\n        /* \"#utility.yul\":2679:2746   */\n      tag_144\n        /* \"#utility.yul\":2743:2745   */\n      0x23\n        /* \"#utility.yul\":2738:2741   */\n      dup4\n        /* \"#utility.yul\":2679:2746   */\n      tag_145\n      jump\t// in\n    tag_144:\n        /* \"#utility.yul\":2672:2746   */\n      swap2\n      pop\n        /* \"#utility.yul\":2755:2848   */\n      tag_146\n        /* \"#utility.yul\":2844:2847   */\n      dup3\n        /* \"#utility.yul\":2755:2848   */\n      tag_147\n      jump\t// in\n    tag_146:\n        /* \"#utility.yul\":2873:2875   */\n      0x40\n        /* \"#utility.yul\":2868:2871   */\n      dup3\n        /* \"#utility.yul\":2864:2876   */\n      add\n        /* \"#utility.yul\":2857:2876   */\n      swap1\n      pop\n        /* \"#utility.yul\":2516:2882   */\n      swap2\n      swap1\n      pop\n      jump\t// out\n        /* \"#utility.yul\":2888:3254   */\n    tag_148:\n        /* \"#utility.yul\":3030:3033   */\n      0x00\n        /* \"#utility.yul\":3051:3118   */\n      tag_150\n        /* \"#utility.yul\":3115:3117   */\n      0x23\n        /* \"#utility.yul\":3110:3113   */\n      dup4\n        /* \"#utility.yul\":3051:3118   */\n      tag_145\n      jump\t// in\n    tag_150:\n        /* \"#utility.yul\":3044:3118   */\n      swap2\n      pop\n        /* \"#utility.yul\":3127:3220   */\n      tag_151\n        /* \"#utility.yul\":3216:3219   */\n      dup3\n        /* \"#utility.yul\":3127:3220   */\n      tag_152\n      jump\t// in\n    tag_151:\n        /* \"#utility.yul\":3245:3247   */\n      0x40\n        /* \"#utility.yul\":3240:3243   */\n      dup3\n        /* \"#utility.yul\":3236:3248   */\n      add\n        /* \"#utility.yul\":3229:3248   */\n      swap1\n      pop\n        /* \"#utility.yul\":2888:3254   */\n      swap2\n      swap1\n      pop\n      jump\t// out\n        /* \"#utility.yul\":3260:3626   */\n    tag_153:\n        /* \"#utility.yul\":3402:3405   */\n      0x00\n        /* \"#utility.yul\":3423:3490   */\n      tag_155\n        /* \"#utility.yul\":3487:3489   */\n      0x1b\n        /* \"#utility.yul\":3482:3485   */\n      dup4\n        /* \"#utility.yul\":3423:3490   */\n      tag_145\n      jump\t// in\n    tag_155:\n        /* \"#utility.yul\":3416:3490   */\n      swap2\n      pop\n        /* \"#utility.yul\":3499:3592   */\n      tag_156\n        /* \"#utility.yul\":3588:3591   */\n      dup3\n        /* \"#utility.yul\":3499:3592   */\n      tag_157\n      jump\t// in\n    tag_156:\n        /* \"#utility.yul\":3617:3619   */\n      0x20\n        /* \"#utility.yul\":3612:3615   */\n      dup3\n        /* \"#utility.yul\":3608:3620   */\n      add\n        /* \"#utility.yul\":3601:3620   */\n      swap1\n      pop\n        /* \"#utility.yul\":3260:3626   */\n      swap2\n      swap1\n      pop\n      jump\t// out\n        /* \"#utility.yul\":3632:3998   */\n    tag_158:\n        /* \"#utility.yul\":3774:3777   */\n      0x00\n        /* \"#utility.yul\":3795:3862   */\n      tag_160\n        /* \"#utility.yul\":3859:3861   */\n      0x1f\n        /* \"#utility.yul\":3854:3857   */\n      dup4\n        /* \"#utility.yul\":3795:3862   */\n      tag_145\n      jump\t// in\n    tag_160:\n        /* \"#utility.yul\":3788:3862   */\n      swap2\n      pop\n        /* \"#utility.yul\":3871:3964   */\n      tag_161\n        /* \"#utility.yul\":3960:3963   */\n      dup3\n        /* \"#utility.yul\":3871:3964   */\n      tag_162\n      jump\t// in\n    tag_161:\n        /* \"#utility.yul\":3989:3991   */\n      0x20\n        /* \"#utility.yul\":3984:3987   */\n      dup3\n        /* \"#utility.yul\":3980:3992   */\n      add\n        /* \"#utility.yul\":3973:3992   */\n      swap1\n      pop\n        /* \"#utility.yul\":3632:3998   */\n      swap2\n      swap1\n      pop\n      jump\t// out\n        /* \"#utility.yul\":4004:4370   */\n    tag_163:\n        /* \"#utility.yul\":4146:4149   */\n      0x00\n        /* \"#utility.yul\":4167:4234   */\n      tag_165\n        /* \"#utility.yul\":4231:4233   */\n      0x15\n        /* \"#utility.yul\":4226:4229   */\n      dup4\n        /* \"#utility.yul\":4167:4234   */\n      tag_145\n      jump\t// in\n    tag_165:\n        /* \"#utility.yul\":4160:4234   */\n      swap2\n      pop\n        /* \"#utility.yul\":4243:4336   */\n      tag_166\n        /* \"#utility.yul\":4332:4335   */\n      dup3\n        /* \"#utility.yul\":4243:4336   */\n      tag_167\n      jump\t// in\n    tag_166:\n        /* \"#utility.yul\":4361:4363   */\n      0x20\n        /* \"#utility.yul\":4356:4359   */\n      dup3\n        /* \"#utility.yul\":4352:4364   */\n      add\n        /* \"#utility.yul\":4345:4364   */\n      swap1\n      pop\n        /* \"#utility.yul\":4004:4370   */\n      swap2\n      swap1\n      pop\n      jump\t// out\n        /* \"#utility.yul\":4376:4494   */\n    tag_168:\n        /* \"#utility.yul\":4463:4487   */\n      tag_170\n        /* \"#utility.yul\":4481:4486   */\n      dup2\n        /* \"#utility.yul\":4463:4487   */\n      tag_171\n      jump\t// in\n    tag_170:\n        /* \"#utility.yul\":4458:4461   */\n      dup3\n        /* \"#utility.yul\":4451:4488   */\n      mstore\n        /* \"#utility.yul\":4376:4494   */\n      pop\n      pop\n      jump\t// out\n        /* \"#utility.yul\":4500:4722   */\n    tag_37:\n        /* \"#utility.yul\":4593:4597   */\n      0x00\n        /* \"#utility.yul\":4631:4633   */\n      0x20\n        /* \"#utility.yul\":4620:4629   */\n      dup3\n        /* \"#utility.yul\":4616:4634   */\n      add\n        /* \"#utility.yul\":4608:4634   */\n      swap1\n      pop\n        /* \"#utility.yul\":4644:4715   */\n      tag_173\n        /* \"#utility.yul\":4712:4713   */\n      0x00\n        /* \"#utility.yul\":4701:4710   */\n      dup4\n        /* \"#utility.yul\":4697:4714   */\n      add\n        /* \"#utility.yul\":4688:4694   */\n      dup5\n        /* \"#utility.yul\":4644:4715   */\n      tag_138\n      jump\t// in\n    tag_173:\n        /* \"#utility.yul\":4500:4722   */\n      swap3\n      swap2\n      pop\n      pop\n      jump\t// out\n        /* \"#utility.yul\":4728:5147   */\n    tag_81:\n        /* \"#utility.yul\":4894:4898   */\n      0x00\n        /* \"#utility.yul\":4932:4934   */\n      0x20\n        /* \"#utility.yul\":4921:4930   */\n      dup3\n        /* \"#utility.yul\":4917:4935   */\n      add\n        /* \"#utility.yul\":4909:4935   */\n      swap1\n      pop\n        /* \"#utility.yul\":4981:4990   */\n      dup2\n        /* \"#utility.yul\":4975:4979   */\n      dup2\n        /* \"#utility.yul\":4971:4991   */\n      sub\n        /* \"#utility.yul\":4967:4968   */\n      0x00\n        /* \"#utility.yul\":4956:4965   */\n      dup4\n        /* \"#utility.yul\":4952:4969   */\n      add\n        /* \"#utility.yul\":4945:4992   */\n      mstore\n        /* \"#utility.yul\":5009:5140   */\n      tag_175\n        /* \"#utility.yul\":5135:5139   */\n      dup2\n        /* \"#utility.yul\":5009:5140   */\n      tag_142\n      jump\t// in\n    tag_175:\n        /* \"#utility.yul\":5001:5140   */\n      swap1\n      pop\n        /* \"#utility.yul\":4728:5147   */\n      swap2\n      swap1\n      pop\n      jump\t// out\n        /* \"#utility.yul\":5153:5572   */\n    tag_71:\n        /* \"#utility.yul\":5319:5323   */\n      0x00\n        /* \"#utility.yul\":5357:5359   */\n      0x20\n        /* \"#utility.yul\":5346:5355   */\n      dup3\n        /* \"#utility.yul\":5342:5360   */\n      add\n        /* \"#utility.yul\":5334:5360   */\n      swap1\n      pop\n        /* \"#utility.yul\":5406:5415   */\n      dup2\n        /* \"#utility.yul\":5400:5404   */\n      dup2\n        /* \"#utility.yul\":5396:5416   */\n      sub\n        /* \"#utility.yul\":5392:5393   */\n      0x00\n        /* \"#utility.yul\":5381:5390   */\n      dup4\n        /* \"#utility.yul\":5377:5394   */\n      add\n        /* \"#utility.yul\":5370:5417   */\n      mstore\n        /* \"#utility.yul\":5434:5565   */\n      tag_177\n        /* \"#utility.yul\":5560:5564   */\n      dup2\n        /* \"#utility.yul\":5434:5565   */\n      tag_148\n      jump\t// in\n    tag_177:\n        /* \"#utility.yul\":5426:5565   */\n      swap1\n      pop\n        /* \"#utility.yul\":5153:5572   */\n      swap2\n      swap1\n      pop\n      jump\t// out\n        /* \"#utility.yul\":5578:5997   */\n    tag_90:\n        /* \"#utility.yul\":5744:5748   */\n      0x00\n        /* \"#utility.yul\":5782:5784   */\n      0x20\n        /* \"#utility.yul\":5771:5780   */\n      dup3\n        /* \"#utility.yul\":5767:5785   */\n      add\n        /* \"#utility.yul\":5759:5785   */\n      swap1\n      pop\n        /* \"#utility.yul\":5831:5840   */\n      dup2\n        /* \"#utility.yul\":5825:5829   */\n      dup2\n        /* \"#utility.yul\":5821:5841   */\n      sub\n        /* \"#utility.yul\":5817:5818   */\n      0x00\n        /* \"#utility.yul\":5806:5815   */\n      dup4\n        /* \"#utility.yul\":5802:5819   */\n      add\n        /* \"#utility.yul\":5795:5842   */\n      mstore\n        /* \"#utility.yul\":5859:5990   */\n      tag_179\n        /* \"#utility.yul\":5985:5989   */\n      dup2\n        /* \"#utility.yul\":5859:5990   */\n      tag_153\n      jump\t// in\n    tag_179:\n        /* \"#utility.yul\":5851:5990   */\n      swap1\n      pop\n        /* \"#utility.yul\":5578:5997   */\n      swap2\n      swap1\n      pop\n      jump\t// out\n        /* \"#utility.yul\":6003:6422   */\n    tag_87:\n        /* \"#utility.yul\":6169:6173   */\n      0x00\n        /* \"#utility.yul\":6207:6209   */\n      0x20\n        /* \"#utility.yul\":6196:6205   */\n      dup3\n        /* \"#utility.yul\":6192:6210   */\n      add\n        /* \"#utility.yul\":6184:6210   */\n      swap1\n      pop\n        /* \"#utility.yul\":6256:6265   */\n      dup2\n        /* \"#utility.yul\":6250:6254   */\n      dup2\n        /* \"#utility.yul\":6246:6266   */\n      sub\n        /* \"#utility.yul\":6242:6243   */\n      0x00\n        /* \"#utility.yul\":6231:6240   */\n      dup4\n        /* \"#utility.yul\":6227:6244   */\n      add\n        /* \"#utility.yul\":6220:6267   */\n      mstore\n        /* \"#utility.yul\":6284:6415   */\n      tag_181\n        /* \"#utility.yul\":6410:6414   */\n      dup2\n        /* \"#utility.yul\":6284:6415   */\n      tag_158\n      jump\t// in\n    tag_181:\n        /* \"#utility.yul\":6276:6415   */\n      swap1\n      pop\n        /* \"#utility.yul\":6003:6422   */\n      swap2\n      swap1\n      pop\n      jump\t// out\n        /* \"#utility.yul\":6428:6847   */\n    tag_68:\n        /* \"#utility.yul\":6594:6598   */\n      0x00\n        /* \"#utility.yul\":6632:6634   */\n      0x20\n        /* \"#utility.yul\":6621:6630   */\n      dup3\n        /* \"#utility.yul\":6617:6635   */\n      add\n        /* \"#utility.yul\":6609:6635   */\n      swap1\n      pop\n        /* \"#utility.yul\":6681:6690   */\n      dup2\n        /* \"#utility.yul\":6675:6679   */\n      dup2\n        /* \"#utility.yul\":6671:6691   */\n      sub\n        /* \"#utility.yul\":6667:6668   */\n      0x00\n        /* \"#utility.yul\":6656:6665   */\n      dup4\n        /* \"#utility.yul\":6652:6669   */\n      add\n        /* \"#utility.yul\":6645:6692   */\n      mstore\n        /* \"#utility.yul\":6709:6840   */\n      tag_183\n        /* \"#utility.yul\":6835:6839   */\n      dup2\n        /* \"#utility.yul\":6709:6840   */\n      tag_163\n      jump\t// in\n    tag_183:\n        /* \"#utility.yul\":6701:6840   */\n      swap1\n      pop\n        /* \"#utility.yul\":6428:6847   */\n      swap2\n      swap1\n      pop\n      jump\t// out\n        /* \"#utility.yul\":6853:7075   */\n    tag_23:\n        /* \"#utility.yul\":6946:6950   */\n      0x00\n        /* \"#utility.yul\":6984:6986   */\n      0x20\n        /* \"#utility.yul\":6973:6982   */\n      dup3\n        /* \"#utility.yul\":6969:6987   */\n      add\n        /* \"#utility.yul\":6961:6987   */\n      swap1\n      pop\n        /* \"#utility.yul\":6997:7068   */\n      tag_185\n        /* \"#utility.yul\":7065:7066   */\n      0x00\n        /* \"#utility.yul\":7054:7063   */\n      dup4\n        /* \"#utility.yul\":7050:7067   */\n      add\n        /* \"#utility.yul\":7041:7047   */\n      dup5\n        /* \"#utility.yul\":6997:7068   */\n      tag_168\n      jump\t// in\n    tag_185:\n        /* \"#utility.yul\":6853:7075   */\n      swap3\n      swap2\n      pop\n      pop\n      jump\t// out\n        /* \"#utility.yul\":7081:7210   */\n    tag_100:\n        /* \"#utility.yul\":7115:7121   */\n      0x00\n        /* \"#utility.yul\":7142:7162   */\n      tag_187\n      tag_188\n      jump\t// in\n    tag_187:\n        /* \"#utility.yul\":7132:7162   */\n      swap1\n      pop\n        /* \"#utility.yul\":7171:7204   */\n      tag_189\n        /* \"#utility.yul\":7199:7203   */\n      dup3\n        /* \"#utility.yul\":7191:7197   */\n      dup3\n        /* \"#utility.yul\":7171:7204   */\n      tag_190\n      jump\t// in\n    tag_189:\n        /* \"#utility.yul\":7081:7210   */\n      swap2\n      swap1\n      pop\n      jump\t// out\n        /* \"#utility.yul\":7216:7291   */\n    tag_188:\n        /* \"#utility.yul\":7249:7255   */\n      0x00\n        /* \"#utility.yul\":7282:7284   */\n      0x40\n        /* \"#utility.yul\":7276:7285   */\n      mload\n        /* \"#utility.yul\":7266:7285   */\n      swap1\n      pop\n        /* \"#utility.yul\":7216:7291   */\n      swap1\n      jump\t// out\n        /* \"#utility.yul\":7297:7605   */\n    tag_99:\n        /* \"#utility.yul\":7359:7363   */\n      0x00\n        /* \"#utility.yul\":7449:7467   */\n      0xffffffffffffffff\n        /* \"#utility.yul\":7441:7447   */\n      dup3\n        /* \"#utility.yul\":7438:7468   */\n      gt\n        /* \"#utility.yul\":7435:7491   */\n      iszero\n      tag_193\n      jumpi\n        /* \"#utility.yul\":7471:7489   */\n      tag_194\n      tag_195\n      jump\t// in\n    tag_194:\n        /* \"#utility.yul\":7435:7491   */\n    tag_193:\n        /* \"#utility.yul\":7509:7538   */\n      tag_196\n        /* \"#utility.yul\":7531:7537   */\n      dup3\n        /* \"#utility.yul\":7509:7538   */\n      tag_197\n      jump\t// in\n    tag_196:\n        /* \"#utility.yul\":7501:7538   */\n      swap1\n      pop\n        /* \"#utility.yul\":7593:7597   */\n      0x20\n        /* \"#utility.yul\":7587:7591   */\n      dup2\n        /* \"#utility.yul\":7583:7598   */\n      add\n        /* \"#utility.yul\":7575:7598   */\n      swap1\n      pop\n        /* \"#utility.yul\":7297:7605   */\n      swap2\n      swap1\n      pop\n      jump\t// out\n        /* \"#utility.yul\":7611:7780   */\n    tag_145:\n        /* \"#utility.yul\":7695:7706   */\n      0x00\n        /* \"#utility.yul\":7729:7735   */\n      dup3\n        /* \"#utility.yul\":7724:7727   */\n      dup3\n        /* \"#utility.yul\":7717:7736   */\n      mstore\n        /* \"#utility.yul\":7769:7773   */\n      0x20\n        /* \"#utility.yul\":7764:7767   */\n      dup3\n        /* \"#utility.yul\":7760:7774   */\n      add\n        /* \"#utility.yul\":7745:7774   */\n      swap1\n      pop\n        /* \"#utility.yul\":7611:7780   */\n      swap3\n      swap2\n      pop\n      pop\n      jump\t// out\n        /* \"#utility.yul\":7786:8091   */\n    tag_76:\n        /* \"#utility.yul\":7826:7829   */\n      0x00\n        /* \"#utility.yul\":7845:7865   */\n      tag_200\n        /* \"#utility.yul\":7863:7864   */\n      dup3\n        /* \"#utility.yul\":7845:7865   */\n      tag_171\n      jump\t// in\n    tag_200:\n        /* \"#utility.yul\":7840:7865   */\n      swap2\n      pop\n        /* \"#utility.yul\":7879:7899   */\n      tag_201\n        /* \"#utility.yul\":7897:7898   */\n      dup4\n        /* \"#utility.yul\":7879:7899   */\n      tag_171\n      jump\t// in\n    tag_201:\n        /* \"#utility.yul\":7874:7899   */\n      swap3\n      pop\n        /* \"#utility.yul\":8033:8034   */\n      dup3\n        /* \"#utility.yul\":7965:8031   */\n      0xffffffffffffffffffffffffffffffffffffffffffffffffffffffffffffffff\n        /* \"#utility.yul\":7961:8035   */\n      sub\n        /* \"#utility.yul\":7958:7959   */\n      dup3\n        /* \"#utility.yul\":7955:8036   */\n      gt\n        /* \"#utility.yul\":7952:8059   */\n      iszero\n      tag_202\n      jumpi\n        /* \"#utility.yul\":8039:8057   */\n      tag_203\n      tag_204\n      jump\t// in\n    tag_203:\n        /* \"#utility.yul\":7952:8059   */\n    tag_202:\n        /* \"#utility.yul\":8083:8084   */\n      dup3\n        /* \"#utility.yul\":8080:8081   */\n      dup3\n        /* \"#utility.yul\":8076:8085   */\n      add\n        /* \"#utility.yul\":8069:8085   */\n      swap1\n      pop\n        /* \"#utility.yul\":7786:8091   */\n      swap3\n      swap2\n      pop\n      pop\n      jump\t// out\n        /* \"#utility.yul\":8097:8193   */\n    tag_141:\n        /* \"#utility.yul\":8134:8141   */\n      0x00\n        /* \"#utility.yul\":8163:8187   */\n      tag_206\n        /* \"#utility.yul\":8181:8186   */\n      dup3\n        /* \"#utility.yul\":8163:8187   */\n      tag_207\n      jump\t// in\n    tag_206:\n        /* \"#utility.yul\":8152:8187   */\n      swap1\n      pop\n        /* \"#utility.yul\":8097:8193   */\n      swap2\n      swap1\n      pop\n      jump\t// out\n        /* \"#utility.yul\":8199:8303   */\n    tag_208:\n        /* \"#utility.yul\":8244:8251   */\n      0x00\n        /* \"#utility.yul\":8273:8297   */\n      tag_210\n        /* \"#utility.yul\":8291:8296   */\n      dup3\n        /* \"#utility.yul\":8273:8297   */\n      tag_207\n      jump\t// in\n    tag_210:\n        /* \"#utility.yul\":8262:8297   */\n      swap1\n      pop\n        /* \"#utility.yul\":8199:8303   */\n      swap2\n      swap1\n      pop\n      jump\t// out\n        /* \"#utility.yul\":8309:8435   */\n    tag_207:\n        /* \"#utility.yul\":8346:8353   */\n      0x00\n        /* \"#utility.yul\":8386:8428   */\n      0xffffffffffffffffffffffffffffffffffffffff\n        /* \"#utility.yul\":8379:8384   */\n      dup3\n        /* \"#utility.yul\":8375:8429   */\n      and\n        /* \"#utility.yul\":8364:8429   */\n      swap1\n      pop\n        /* \"#utility.yul\":8309:8435   */\n      swap2\n      swap1\n      pop\n      jump\t// out\n        /* \"#utility.yul\":8441:8518   */\n    tag_171:\n        /* \"#utility.yul\":8478:8485   */\n      0x00\n        /* \"#utility.yul\":8507:8512   */\n      dup2\n        /* \"#utility.yul\":8496:8512   */\n      swap1\n      pop\n        /* \"#utility.yul\":8441:8518   */\n      swap2\n      swap1\n      pop\n      jump\t// out\n        /* \"#utility.yul\":8524:8678   */\n    tag_105:\n        /* \"#utility.yul\":8608:8614   */\n      dup3\n        /* \"#utility.yul\":8603:8606   */\n      dup2\n        /* \"#utility.yul\":8598:8601   */\n      dup4\n        /* \"#utility.yul\":8585:8615   */\n      calldatacopy\n        /* \"#utility.yul\":8670:8671   */\n      0x00\n        /* \"#utility.yul\":8661:8667   */\n      dup4\n        /* \"#utility.yul\":8656:8659   */\n      dup4\n        /* \"#utility.yul\":8652:8668   */\n      add\n        /* \"#utility.yul\":8645:8672   */\n      mstore\n        /* \"#utility.yul\":8524:8678   */\n      pop\n      pop\n      pop\n      jump\t// out\n        /* \"#utility.yul\":8684:8965   */\n    tag_190:\n        /* \"#utility.yul\":8767:8794   */\n      tag_215\n        /* \"#utility.yul\":8789:8793   */\n      dup3\n        /* \"#utility.yul\":8767:8794   */\n      tag_197\n      jump\t// in\n    tag_215:\n        /* \"#utility.yul\":8759:8765   */\n      dup2\n        /* \"#utility.yul\":8755:8795   */\n      add\n        /* \"#utility.yul\":8897:8903   */\n      dup2\n        /* \"#utility.yul\":8885:8895   */\n      dup2\n        /* \"#utility.yul\":8882:8904   */\n      lt\n        /* \"#utility.yul\":8861:8879   */\n      0xffffffffffffffff\n        /* \"#utility.yul\":8849:8859   */\n      dup3\n        /* \"#utility.yul\":8846:8880   */\n      gt\n        /* \"#utility.yul\":8843:8905   */\n      or\n        /* \"#utility.yul\":8840:8928   */\n      iszero\n      tag_216\n      jumpi\n        /* \"#utility.yul\":8908:8926   */\n      tag_217\n      tag_195\n      jump\t// in\n    tag_217:\n        /* \"#utility.yul\":8840:8928   */\n    tag_216:\n        /* \"#utility.yul\":8948:8958   */\n      dup1\n        /* \"#utility.yul\":8944:8946   */\n      0x40\n        /* \"#utility.yul\":8937:8959   */\n      mstore\n        /* \"#utility.yul\":8727:8965   */\n      pop\n        /* \"#utility.yul\":8684:8965   */\n      pop\n      pop\n      jump\t// out\n        /* \"#utility.yul\":8971:9204   */\n    tag_74:\n        /* \"#utility.yul\":9010:9013   */\n      0x00\n        /* \"#utility.yul\":9033:9057   */\n      tag_219\n        /* \"#utility.yul\":9051:9056   */\n      dup3\n        /* \"#utility.yul\":9033:9057   */\n      tag_171\n      jump\t// in\n    tag_219:\n        /* \"#utility.yul\":9024:9057   */\n      swap2\n      pop\n        /* \"#utility.yul\":9079:9145   */\n      0xffffffffffffffffffffffffffffffffffffffffffffffffffffffffffffffff\n        /* \"#utility.yul\":9072:9077   */\n      dup3\n        /* \"#utility.yul\":9069:9146   */\n      eq\n        /* \"#utility.yul\":9066:9169   */\n      iszero\n      tag_220\n      jumpi\n        /* \"#utility.yul\":9149:9167   */\n      tag_221\n      tag_204\n      jump\t// in\n    tag_221:\n        /* \"#utility.yul\":9066:9169   */\n    tag_220:\n        /* \"#utility.yul\":9196:9197   */\n      0x01\n        /* \"#utility.yul\":9189:9194   */\n      dup3\n        /* \"#utility.yul\":9185:9198   */\n      add\n        /* \"#utility.yul\":9178:9198   */\n      swap1\n      pop\n        /* \"#utility.yul\":8971:9204   */\n      swap2\n      swap1\n      pop\n      jump\t// out\n        /* \"#utility.yul\":9210:9390   */\n    tag_204:\n        /* \"#utility.yul\":9258:9335   */\n      0x4e487b7100000000000000000000000000000000000000000000000000000000\n        /* \"#utility.yul\":9255:9256   */\n      0x00\n        /* \"#utility.yul\":9248:9336   */\n      mstore\n        /* \"#utility.yul\":9355:9359   */\n      0x11\n        /* \"#utility.yul\":9352:9353   */\n      0x04\n        /* \"#utility.yul\":9345:9360   */\n      mstore\n        /* \"#utility.yul\":9379:9383   */\n      0x24\n        /* \"#utility.yul\":9376:9377   */\n      0x00\n        /* \"#utility.yul\":9369:9384   */\n      revert\n        /* \"#utility.yul\":9396:9576   */\n    tag_195:\n        /* \"#utility.yul\":9444:9521   */\n      0x4e487b7100000000000000000000000000000000000000000000000000000000\n        /* \"#utility.yul\":9441:9442   */\n      0x00\n        /* \"#utility.yul\":9434:9522   */\n      mstore\n        /* \"#utility.yul\":9541:9545   */\n      0x41\n        /* \"#utility.yul\":9538:9539   */\n      0x04\n        /* \"#utility.yul\":9531:9546   */\n      mstore\n        /* \"#utility.yul\":9565:9569   */\n      0x24\n        /* \"#utility.yul\":9562:9563   */\n      0x00\n        /* \"#utility.yul\":9555:9570   */\n      revert\n        /* \"#utility.yul\":9582:9699   */\n    tag_118:\n        /* \"#utility.yul\":9691:9692   */\n      0x00\n        /* \"#utility.yul\":9688:9689   */\n      dup1\n        /* \"#utility.yul\":9681:9693   */\n      revert\n        /* \"#utility.yul\":9705:9822   */\n    tag_103:\n        /* \"#utility.yul\":9814:9815   */\n      0x00\n        /* \"#utility.yul\":9811:9812   */\n      dup1\n        /* \"#utility.yul\":9804:9816   */\n      revert\n        /* \"#utility.yul\":9828:9945   */\n    tag_134:\n        /* \"#utility.yul\":9937:9938   */\n      0x00\n        /* \"#utility.yul\":9934:9935   */\n      dup1\n        /* \"#utility.yul\":9927:9939   */\n      revert\n        /* \"#utility.yul\":9951:10068   */\n    tag_127:\n        /* \"#utility.yul\":10060:10061   */\n      0x00\n        /* \"#utility.yul\":10057:10058   */\n      dup1\n        /* \"#utility.yul\":10050:10062   */\n      revert\n        /* \"#utility.yul\":10074:10176   */\n    tag_197:\n        /* \"#utility.yul\":10115:10121   */\n      0x00\n        /* \"#utility.yul\":10166:10168   */\n      0x1f\n        /* \"#utility.yul\":10162:10169   */\n      not\n        /* \"#utility.yul\":10157:10159   */\n      0x1f\n        /* \"#utility.yul\":10150:10155   */\n      dup4\n        /* \"#utility.yul\":10146:10160   */\n      add\n        /* \"#utility.yul\":10142:10170   */\n      and\n        /* \"#utility.yul\":10132:10170   */\n      swap1\n      pop\n        /* \"#utility.yul\":10074:10176   */\n      swap2\n      swap1\n      pop\n      jump\t// out\n        /* \"#utility.yul\":10182:10404   */\n    tag_147:\n        /* \"#utility.yul\":10322:10356   */\n      0x4f6e6c79206d616e616765722063616e2063616c6c20746869732066756e6374\n        /* \"#utility.yul\":10318:10319   */\n      0x00\n        /* \"#utility.yul\":10310:10316   */\n      dup3\n        /* \"#utility.yul\":10306:10320   */\n      add\n        /* \"#utility.yul\":10299:10357   */\n      mstore\n        /* \"#utility.yul\":10391:10396   */\n      0x696f6e0000000000000000000000000000000000000000000000000000000000\n        /* \"#utility.yul\":10386:10388   */\n      0x20\n        /* \"#utility.yul\":10378:10384   */\n      dup3\n        /* \"#utility.yul\":10374:10389   */\n      add\n        /* \"#utility.yul\":10367:10397   */\n      mstore\n        /* \"#utility.yul\":10182:10404   */\n      pop\n      jump\t// out\n        /* \"#utility.yul\":10410:10632   */\n    tag_152:\n        /* \"#utility.yul\":10550:10584   */\n      0x4d696e696d756d20636f6e747269627574696f6e206973206f66203130302077\n        /* \"#utility.yul\":10546:10547   */\n      0x00\n        /* \"#utility.yul\":10538:10544   */\n      dup3\n        /* \"#utility.yul\":10534:10548   */\n      add\n        /* \"#utility.yul\":10527:10585   */\n      mstore\n        /* \"#utility.yul\":10619:10624   */\n      0x6569210000000000000000000000000000000000000000000000000000000000\n        /* \"#utility.yul\":10614:10616   */\n      0x20\n        /* \"#utility.yul\":10606:10612   */\n      dup3\n        /* \"#utility.yul\":10602:10617   */\n      add\n        /* \"#utility.yul\":10595:10625   */\n      mstore\n        /* \"#utility.yul\":10410:10632   */\n      pop\n      jump\t// out\n        /* \"#utility.yul\":10638:10815   */\n    tag_157:\n        /* \"#utility.yul\":10778:10807   */\n      0x596f7520686176656e277420636f6e7472696275746564207965740000000000\n        /* \"#utility.yul\":10774:10775   */\n      0x00\n        /* \"#utility.yul\":10766:10772   */\n      dup3\n        /* \"#utility.yul\":10762:10776   */\n      add\n        /* \"#utility.yul\":10755:10808   */\n      mstore\n        /* \"#utility.yul\":10638:10815   */\n      pop\n      jump\t// out\n        /* \"#utility.yul\":10821:11002   */\n    tag_162:\n        /* \"#utility.yul\":10961:10994   */\n      0x596f7520617265206e6f7420656c696769626c6520666f7220726566756e6400\n        /* \"#utility.yul\":10957:10958   */\n      0x00\n        /* \"#utility.yul\":10949:10955   */\n      dup3\n        /* \"#utility.yul\":10945:10959   */\n      add\n        /* \"#utility.yul\":10938:10995   */\n      mstore\n        /* \"#utility.yul\":10821:11002   */\n      pop\n      jump\t// out\n        /* \"#utility.yul\":11008:11179   */\n    tag_167:\n        /* \"#utility.yul\":11148:11171   */\n      0x446561646c696e65207061737365642061776179210000000000000000000000\n        /* \"#utility.yul\":11144:11145   */\n      0x00\n        /* \"#utility.yul\":11136:11142   */\n      dup3\n        /* \"#utility.yul\":11132:11146   */\n      add\n        /* \"#utility.yul\":11125:11172   */\n      mstore\n        /* \"#utility.yul\":11008:11179   */\n      pop\n      jump\t// out\n        /* \"#utility.yul\":11185:11307   */\n    tag_109:\n        /* \"#utility.yul\":11258:11282   */\n      tag_235\n        /* \"#utility.yul\":11276:11281   */\n      dup2\n        /* \"#utility.yul\":11258:11282   */\n      tag_141\n      jump\t// in\n    tag_235:\n        /* \"#utility.yul\":11251:11256   */\n      dup2\n        /* \"#utility.yul\":11248:11283   */\n      eq\n        /* \"#utility.yul\":11238:11301   */\n      tag_236\n      jumpi\n        /* \"#utility.yul\":11297:11298   */\n      0x00\n        /* \"#utility.yul\":11294:11295   */\n      dup1\n        /* \"#utility.yul\":11287:11299   */\n      revert\n        /* \"#utility.yul\":11238:11301   */\n    tag_236:\n        /* \"#utility.yul\":11185:11307   */\n      pop\n      jump\t// out\n        /* \"#utility.yul\":11313:11451   */\n    tag_113:\n        /* \"#utility.yul\":11394:11426   */\n      tag_238\n        /* \"#utility.yul\":11420:11425   */\n      dup2\n        /* \"#utility.yul\":11394:11426   */\n      tag_208\n      jump\t// in\n    tag_238:\n        /* \"#utility.yul\":11387:11392   */\n      dup2\n        /* \"#utility.yul\":11384:11427   */\n      eq\n        /* \"#utility.yul\":11374:11445   */\n      tag_239\n      jumpi\n        /* \"#utility.yul\":11441:11442   */\n      0x00\n        /* \"#utility.yul\":11438:11439   */\n      dup1\n        /* \"#utility.yul\":11431:11443   */\n      revert\n        /* \"#utility.yul\":11374:11445   */\n    tag_239:\n        /* \"#utility.yul\":11313:11451   */\n      pop\n      jump\t// out\n        /* \"#utility.yul\":11457:11579   */\n    tag_123:\n        /* \"#utility.yul\":11530:11554   */\n      tag_241\n        /* \"#utility.yul\":11548:11553   */\n      dup2\n        /* \"#utility.yul\":11530:11554   */\n      tag_171\n      jump\t// in\n    tag_241:\n        /* \"#utility.yul\":11523:11528   */\n      dup2\n        /* \"#utility.yul\":11520:11555   */\n      eq\n        /* \"#utility.yul\":11510:11573   */\n      tag_242\n      jumpi\n        /* \"#utility.yul\":11569:11570   */\n      0x00\n        /* \"#utility.yul\":11566:11567   */\n      dup1\n        /* \"#utility.yul\":11559:11571   */\n      revert\n        /* \"#utility.yul\":11510:11573   */\n    tag_242:\n        /* \"#utility.yul\":11457:11579   */\n      pop\n      jump\t// out\n\n    auxdata: 0xa26469706673582212204a62b68895c15035621602d79ca81f8e3c912b914925ed9faa66d1127f2b78a664736f6c63430008070033\n}\n",
				"bytecode": {
					"linkReferences": {},
					"object": "60806040523480156200001157600080fd5b5060405162000ee738038062000ee78339818101604052810190620000379190620000ba565b8160048190555080426200004c919062000101565b600381905550606460028190555033600160006101000a81548173ffffffffffffffffffffffffffffffffffffffff021916908373ffffffffffffffffffffffffffffffffffffffff1602179055505050620001b6565b600081519050620000b4816200019c565b92915050565b60008060408385031215620000d457620000d362000197565b5b6000620000e485828601620000a3565b9250506020620000f785828601620000a3565b9150509250929050565b60006200010e826200015e565b91506200011b836200015e565b9250827fffffffffffffffffffffffffffffffffffffffffffffffffffffffffffffffff0382111562000153576200015262000168565b5b828201905092915050565b6000819050919050565b7f4e487b7100000000000000000000000000000000000000000000000000000000600052601160045260246000fd5b600080fd5b620001a7816200015e565b8114620001b357600080fd5b50565b610d2180620001c66000396000f3fe6080604052600436106100a75760003560e01c8063590e1ae311610064578063590e1ae31461019d5780636f9fb98a146101b45780639fb42b1f146101df578063aaffadf31461020a578063c59ee1dc14610235578063d4b8399214610260576100a7565b806306e99fef146100ac5780631f6d4942146100b657806329dcb0cf146100f35780633eb7647b1461011e578063481c6a75146101475780634e260f6f14610172575b600080fd5b6100b461028b565b005b3480156100c257600080fd5b506100dd60048036038101906100d89190610737565b6103e4565b6040516100ea919061095b565b60405180910390f35b3480156100ff57600080fd5b506101086103fc565b604051610115919061095b565b60405180910390f35b34801561012a57600080fd5b5061014560048036038101906101409190610764565b610402565b005b34801561015357600080fd5b5061015c610497565b60405161016991906108a0565b60405180910390f35b34801561017e57600080fd5b506101876104bd565b604051610194919061095b565b60405180910390f35b3480156101a957600080fd5b506101b26104c3565b005b3480156101c057600080fd5b506101c9610668565b6040516101d6919061095b565b60405180910390f35b3480156101eb57600080fd5b506101f4610670565b604051610201919061095b565b60405180910390f35b34801561021657600080fd5b5061021f610676565b60405161022c919061095b565b60405180910390f35b34801561024157600080fd5b5061024a61067c565b604051610257919061095b565b60405180910390f35b34801561026c57600080fd5b50610275610682565b604051610282919061095b565b60405180910390f35b60035442106102cf576040517f08c379a00000000000000000000000000000000000000000000000000000000081526004016102c69061093b565b60405180910390fd5b600254341015610314576040517f08c379a000000000000000000000000000000000000000000000000000000000815260040161030b906108db565b60405180910390fd5b60008060003373ffffffffffffffffffffffffffffffffffffffff1673ffffffffffffffffffffffffffffffffffffffff168152602001908152602001600020541415610374576006600081548092919061036e90610ac1565b91905055505b346000803373ffffffffffffffffffffffffffffffffffffffff1673ffffffffffffffffffffffffffffffffffffffff16815260200190815260200160002060008282546103c291906109dd565b9250508190555034600560008282546103db91906109dd565b92505081905550565b60006020528060005260406000206000915090505481565b60035481565b600160009054906101000a900473ffffffffffffffffffffffffffffffffffffffff1673ffffffffffffffffffffffffffffffffffffffff163373ffffffffffffffffffffffffffffffffffffffff1614610492576040517f08c379a0000000000000000000000000000000000000000000000000000000008152600401610489906108bb565b60405180910390fd5b505050565b600160009054906101000a900473ffffffffffffffffffffffffffffffffffffffff1681565b60065481565b600354421180156104d75750600554600454115b610516576040517f08c379a000000000000000000000000000000000000000000000000000000000815260040161050d9061091b565b60405180910390fd5b60008060003373ffffffffffffffffffffffffffffffffffffffff1673ffffffffffffffffffffffffffffffffffffffff1681526020019081526020016000205411610597576040517f08c379a000000000000000000000000000000000000000000000000000000000815260040161058e906108fb565b60405180910390fd5b60003390508073ffffffffffffffffffffffffffffffffffffffff166108fc6000803373ffffffffffffffffffffffffffffffffffffffff1673ffffffffffffffffffffffffffffffffffffffff168152602001908152602001600020549081150290604051600060405180830381858888f19350505050158015610620573d6000803e3d6000fd5b5060008060003373ffffffffffffffffffffffffffffffffffffffff1673ffffffffffffffffffffffffffffffffffffffff1681526020019081526020016000208190555050565b600047905090565b60085481565b60025481565b60055481565b60045481565b600061069b6106968461099b565b610976565b9050828152602081018484840111156106b7576106b6610b6d565b5b6106c2848285610a81565b509392505050565b6000813590506106d981610ca6565b92915050565b6000813590506106ee81610cbd565b92915050565b600082601f83011261070957610708610b68565b5b8135610719848260208601610688565b91505092915050565b60008135905061073181610cd4565b92915050565b60006020828403121561074d5761074c610b77565b5b600061075b848285016106ca565b91505092915050565b60008060006060848603121561077d5761077c610b77565b5b600084013567ffffffffffffffff81111561079b5761079a610b72565b5b6107a7868287016106f4565b93505060206107b8868287016106df565b92505060406107c986828701610722565b9150509250925092565b6107dc81610a33565b82525050565b60006107ef6023836109cc565b91506107fa82610b8d565b604082019050919050565b60006108126023836109cc565b915061081d82610bdc565b604082019050919050565b6000610835601b836109cc565b915061084082610c2b565b602082019050919050565b6000610858601f836109cc565b915061086382610c54565b602082019050919050565b600061087b6015836109cc565b915061088682610c7d565b602082019050919050565b61089a81610a77565b82525050565b60006020820190506108b560008301846107d3565b92915050565b600060208201905081810360008301526108d4816107e2565b9050919050565b600060208201905081810360008301526108f481610805565b9050919050565b6000602082019050818103600083015261091481610828565b9050919050565b600060208201905081810360008301526109348161084b565b9050919050565b600060208201905081810360008301526109548161086e565b9050919050565b60006020820190506109706000830184610891565b92915050565b6000610980610991565b905061098c8282610a90565b919050565b6000604051905090565b600067ffffffffffffffff8211156109b6576109b5610b39565b5b6109bf82610b7c565b9050602081019050919050565b600082825260208201905092915050565b60006109e882610a77565b91506109f383610a77565b9250827fffffffffffffffffffffffffffffffffffffffffffffffffffffffffffffffff03821115610a2857610a27610b0a565b5b828201905092915050565b6000610a3e82610a57565b9050919050565b6000610a5082610a57565b9050919050565b600073ffffffffffffffffffffffffffffffffffffffff82169050919050565b6000819050919050565b82818337600083830152505050565b610a9982610b7c565b810181811067ffffffffffffffff82111715610ab857610ab7610b39565b5b80604052505050565b6000610acc82610a77565b91507fffffffffffffffffffffffffffffffffffffffffffffffffffffffffffffffff821415610aff57610afe610b0a565b5b600182019050919050565b7f4e487b7100000000000000000000000000000000000000000000000000000000600052601160045260246000fd5b7f4e487b7100000000000000000000000000000000000000000000000000000000600052604160045260246000fd5b600080fd5b600080fd5b600080fd5b600080fd5b6000601f19601f8301169050919050565b7f4f6e6c79206d616e616765722063616e2063616c6c20746869732066756e637460008201527f696f6e0000000000000000000000000000000000000000000000000000000000602082015250565b7f4d696e696d756d20636f6e747269627574696f6e206973206f6620313030207760008201527f6569210000000000000000000000000000000000000000000000000000000000602082015250565b7f596f7520686176656e277420636f6e7472696275746564207965740000000000600082015250565b7f596f7520617265206e6f7420656c696769626c6520666f7220726566756e6400600082015250565b7f446561646c696e65207061737365642061776179210000000000000000000000600082015250565b610caf81610a33565b8114610cba57600080fd5b50565b610cc681610a45565b8114610cd157600080fd5b50565b610cdd81610a77565b8114610ce857600080fd5b5056fea26469706673582212204a62b68895c15035621602d79ca81f8e3c912b914925ed9faa66d1127f2b78a664736f6c63430008070033",
					"opcodes": "PUSH1 0x80 PUSH1 0x40 MSTORE CALLVALUE DUP1 ISZERO PUSH3 0x11 JUMPI PUSH1 0x0 DUP1 REVERT JUMPDEST POP PUSH1 0x40 MLOAD PUSH3 0xEE7 CODESIZE SUB DUP1 PUSH3 0xEE7 DUP4 CODECOPY DUP2 DUP2 ADD PUSH1 0x40 MSTORE DUP2 ADD SWAP1 PUSH3 0x37 SWAP2 SWAP1 PUSH3 0xBA JUMP JUMPDEST DUP2 PUSH1 0x4 DUP2 SWAP1 SSTORE POP DUP1 TIMESTAMP PUSH3 0x4C SWAP2 SWAP1 PUSH3 0x101 JUMP JUMPDEST PUSH1 0x3 DUP2 SWAP1 SSTORE POP PUSH1 0x64 PUSH1 0x2 DUP2 SWAP1 SSTORE POP CALLER PUSH1 0x1 PUSH1 0x0 PUSH2 0x100 EXP DUP2 SLOAD DUP2 PUSH20 0xFFFFFFFFFFFFFFFFFFFFFFFFFFFFFFFFFFFFFFFF MUL NOT AND SWAP1 DUP4 PUSH20 0xFFFFFFFFFFFFFFFFFFFFFFFFFFFFFFFFFFFFFFFF AND MUL OR SWAP1 SSTORE POP POP POP PUSH3 0x1B6 JUMP JUMPDEST PUSH1 0x0 DUP2 MLOAD SWAP1 POP PUSH3 0xB4 DUP2 PUSH3 0x19C JUMP JUMPDEST SWAP3 SWAP2 POP POP JUMP JUMPDEST PUSH1 0x0 DUP1 PUSH1 0x40 DUP4 DUP6 SUB SLT ISZERO PUSH3 0xD4 JUMPI PUSH3 0xD3 PUSH3 0x197 JUMP JUMPDEST JUMPDEST PUSH1 0x0 PUSH3 0xE4 DUP6 DUP3 DUP7 ADD PUSH3 0xA3 JUMP JUMPDEST SWAP3 POP POP PUSH1 0x20 PUSH3 0xF7 DUP6 DUP3 DUP7 ADD PUSH3 0xA3 JUMP JUMPDEST SWAP2 POP POP SWAP3 POP SWAP3 SWAP1 POP JUMP JUMPDEST PUSH1 0x0 PUSH3 0x10E DUP3 PUSH3 0x15E JUMP JUMPDEST SWAP2 POP PUSH3 0x11B DUP4 PUSH3 0x15E JUMP JUMPDEST SWAP3 POP DUP3 PUSH32 0xFFFFFFFFFFFFFFFFFFFFFFFFFFFFFFFFFFFFFFFFFFFFFFFFFFFFFFFFFFFFFFFF SUB DUP3 GT ISZERO PUSH3 0x153 JUMPI PUSH3 0x152 PUSH3 0x168 JUMP JUMPDEST JUMPDEST DUP3 DUP3 ADD SWAP1 POP SWAP3 SWAP2 POP POP JUMP JUMPDEST PUSH1 0x0 DUP2 SWAP1 POP SWAP2 SWAP1 POP JUMP JUMPDEST PUSH32 0x4E487B7100000000000000000000000000000000000000000000000000000000 PUSH1 0x0 MSTORE PUSH1 0x11 PUSH1 0x4 MSTORE PUSH1 0x24 PUSH1 0x0 REVERT JUMPDEST PUSH1 0x0 DUP1 REVERT JUMPDEST PUSH3 0x1A7 DUP2 PUSH3 0x15E JUMP JUMPDEST DUP2 EQ PUSH3 0x1B3 JUMPI PUSH1 0x0 DUP1 REVERT JUMPDEST POP JUMP JUMPDEST PUSH2 0xD21 DUP1 PUSH3 0x1C6 PUSH1 0x0 CODECOPY PUSH1 0x0 RETURN INVALID PUSH1 0x80 PUSH1 0x40 MSTORE PUSH1 0x4 CALLDATASIZE LT PUSH2 0xA7 JUMPI PUSH1 0x0 CALLDATALOAD PUSH1 0xE0 SHR DUP1 PUSH4 0x590E1AE3 GT PUSH2 0x64 JUMPI DUP1 PUSH4 0x590E1AE3 EQ PUSH2 0x19D JUMPI DUP1 PUSH4 0x6F9FB98A EQ PUSH2 0x1B4 JUMPI DUP1 PUSH4 0x9FB42B1F EQ PUSH2 0x1DF JUMPI DUP1 PUSH4 0xAAFFADF3 EQ PUSH2 0x20A JUMPI DUP1 PUSH4 0xC59EE1DC EQ PUSH2 0x235 JUMPI DUP1 PUSH4 0xD4B83992 EQ PUSH2 0x260 JUMPI PUSH2 0xA7 JUMP JUMPDEST DUP1 PUSH4 0x6E99FEF EQ PUSH2 0xAC JUMPI DUP1 PUSH4 0x1F6D4942 EQ PUSH2 0xB6 JUMPI DUP1 PUSH4 0x29DCB0CF EQ PUSH2 0xF3 JUMPI DUP1 PUSH4 0x3EB7647B EQ PUSH2 0x11E JUMPI DUP1 PUSH4 0x481C6A75 EQ PUSH2 0x147 JUMPI DUP1 PUSH4 0x4E260F6F EQ PUSH2 0x172 JUMPI JUMPDEST PUSH1 0x0 DUP1 REVERT JUMPDEST PUSH2 0xB4 PUSH2 0x28B JUMP JUMPDEST STOP JUMPDEST CALLVALUE DUP1 ISZERO PUSH2 0xC2 JUMPI PUSH1 0x0 DUP1 REVERT JUMPDEST POP PUSH2 0xDD PUSH1 0x4 DUP1 CALLDATASIZE SUB DUP2 ADD SWAP1 PUSH2 0xD8 SWAP2 SWAP1 PUSH2 0x737 JUMP JUMPDEST PUSH2 0x3E4 JUMP JUMPDEST PUSH1 0x40 MLOAD PUSH2 0xEA SWAP2 SWAP1 PUSH2 0x95B JUMP JUMPDEST PUSH1 0x40 MLOAD DUP1 SWAP2 SUB SWAP1 RETURN JUMPDEST CALLVALUE DUP1 ISZERO PUSH2 0xFF JUMPI PUSH1 0x0 DUP1 REVERT JUMPDEST POP PUSH2 0x108 PUSH2 0x3FC JUMP JUMPDEST PUSH1 0x40 MLOAD PUSH2 0x115 SWAP2 SWAP1 PUSH2 0x95B JUMP JUMPDEST PUSH1 0x40 MLOAD DUP1 SWAP2 SUB SWAP1 RETURN JUMPDEST CALLVALUE DUP1 ISZERO PUSH2 0x12A JUMPI PUSH1 0x0 DUP1 REVERT JUMPDEST POP PUSH2 0x145 PUSH1 0x4 DUP1 CALLDATASIZE SUB DUP2 ADD SWAP1 PUSH2 0x140 SWAP2 SWAP1 PUSH2 0x764 JUMP JUMPDEST PUSH2 0x402 JUMP JUMPDEST STOP JUMPDEST CALLVALUE DUP1 ISZERO PUSH2 0x153 JUMPI PUSH1 0x0 DUP1 REVERT JUMPDEST POP PUSH2 0x15C PUSH2 0x497 JUMP JUMPDEST PUSH1 0x40 MLOAD PUSH2 0x169 SWAP2 SWAP1 PUSH2 0x8A0 JUMP JUMPDEST PUSH1 0x40 MLOAD DUP1 SWAP2 SUB SWAP1 RETURN JUMPDEST CALLVALUE DUP1 ISZERO PUSH2 0x17E JUMPI PUSH1 0x0 DUP1 REVERT JUMPDEST POP PUSH2 0x187 PUSH2 0x4BD JUMP JUMPDEST PUSH1 0x40 MLOAD PUSH2 0x194 SWAP2 SWAP1 PUSH2 0x95B JUMP JUMPDEST PUSH1 0x40 MLOAD DUP1 SWAP2 SUB SWAP1 RETURN JUMPDEST CALLVALUE DUP1 ISZERO PUSH2 0x1A9 JUMPI PUSH1 0x0 DUP1 REVERT JUMPDEST POP PUSH2 0x1B2 PUSH2 0x4C3 JUMP JUMPDEST STOP JUMPDEST CALLVALUE DUP1 ISZERO PUSH2 0x1C0 JUMPI PUSH1 0x0 DUP1 REVERT JUMPDEST POP PUSH2 0x1C9 PUSH2 0x668 JUMP JUMPDEST PUSH1 0x40 MLOAD PUSH2 0x1D6 SWAP2 SWAP1 PUSH2 0x95B JUMP JUMPDEST PUSH1 0x40 MLOAD DUP1 SWAP2 SUB SWAP1 RETURN JUMPDEST CALLVALUE DUP1 ISZERO PUSH2 0x1EB JUMPI PUSH1 0x0 DUP1 REVERT JUMPDEST POP PUSH2 0x1F4 PUSH2 0x670 JUMP JUMPDEST PUSH1 0x40 MLOAD PUSH2 0x201 SWAP2 SWAP1 PUSH2 0x95B JUMP JUMPDEST PUSH1 0x40 MLOAD DUP1 SWAP2 SUB SWAP1 RETURN JUMPDEST CALLVALUE DUP1 ISZERO PUSH2 0x216 JUMPI PUSH1 0x0 DUP1 REVERT JUMPDEST POP PUSH2 0x21F PUSH2 0x676 JUMP JUMPDEST PUSH1 0x40 MLOAD PUSH2 0x22C SWAP2 SWAP1 PUSH2 0x95B JUMP JUMPDEST PUSH1 0x40 MLOAD DUP1 SWAP2 SUB SWAP1 RETURN JUMPDEST CALLVALUE DUP1 ISZERO PUSH2 0x241 JUMPI PUSH1 0x0 DUP1 REVERT JUMPDEST POP PUSH2 0x24A PUSH2 0x67C JUMP JUMPDEST PUSH1 0x40 MLOAD PUSH2 0x257 SWAP2 SWAP1 PUSH2 0x95B JUMP JUMPDEST PUSH1 0x40 MLOAD DUP1 SWAP2 SUB SWAP1 RETURN JUMPDEST CALLVALUE DUP1 ISZERO PUSH2 0x26C JUMPI PUSH1 0x0 DUP1 REVERT JUMPDEST POP PUSH2 0x275 PUSH2 0x682 JUMP JUMPDEST PUSH1 0x40 MLOAD PUSH2 0x282 SWAP2 SWAP1 PUSH2 0x95B JUMP JUMPDEST PUSH1 0x40 MLOAD DUP1 SWAP2 SUB SWAP1 RETURN JUMPDEST PUSH1 0x3 SLOAD TIMESTAMP LT PUSH2 0x2CF JUMPI PUSH1 0x40 MLOAD PUSH32 0x8C379A000000000000000000000000000000000000000000000000000000000 DUP2 MSTORE PUSH1 0x4 ADD PUSH2 0x2C6 SWAP1 PUSH2 0x93B JUMP JUMPDEST PUSH1 0x40 MLOAD DUP1 SWAP2 SUB SWAP1 REVERT JUMPDEST PUSH1 0x2 SLOAD CALLVALUE LT ISZERO PUSH2 0x314 JUMPI PUSH1 0x40 MLOAD PUSH32 0x8C379A000000000000000000000000000000000000000000000000000000000 DUP2 MSTORE PUSH1 0x4 ADD PUSH2 0x30B SWAP1 PUSH2 0x8DB JUMP JUMPDEST PUSH1 0x40 MLOAD DUP1 SWAP2 SUB SWAP1 REVERT JUMPDEST PUSH1 0x0 DUP1 PUSH1 0x0 CALLER PUSH20 0xFFFFFFFFFFFFFFFFFFFFFFFFFFFFFFFFFFFFFFFF AND PUSH20 0xFFFFFFFFFFFFFFFFFFFFFFFFFFFFFFFFFFFFFFFF AND DUP2 MSTORE PUSH1 0x20 ADD SWAP1 DUP2 MSTORE PUSH1 0x20 ADD PUSH1 0x0 KECCAK256 SLOAD EQ ISZERO PUSH2 0x374 JUMPI PUSH1 0x6 PUSH1 0x0 DUP2 SLOAD DUP1 SWAP3 SWAP2 SWAP1 PUSH2 0x36E SWAP1 PUSH2 0xAC1 JUMP JUMPDEST SWAP2 SWAP1 POP SSTORE POP JUMPDEST CALLVALUE PUSH1 0x0 DUP1 CALLER PUSH20 0xFFFFFFFFFFFFFFFFFFFFFFFFFFFFFFFFFFFFFFFF AND PUSH20 0xFFFFFFFFFFFFFFFFFFFFFFFFFFFFFFFFFFFFFFFF AND DUP2 MSTORE PUSH1 0x20 ADD SWAP1 DUP2 MSTORE PUSH1 0x20 ADD PUSH1 0x0 KECCAK256 PUSH1 0x0 DUP3 DUP3 SLOAD PUSH2 0x3C2 SWAP2 SWAP1 PUSH2 0x9DD JUMP JUMPDEST SWAP3 POP POP DUP2 SWAP1 SSTORE POP CALLVALUE PUSH1 0x5 PUSH1 0x0 DUP3 DUP3 SLOAD PUSH2 0x3DB SWAP2 SWAP1 PUSH2 0x9DD JUMP JUMPDEST SWAP3 POP POP DUP2 SWAP1 SSTORE POP JUMP JUMPDEST PUSH1 0x0 PUSH1 0x20 MSTORE DUP1 PUSH1 0x0 MSTORE PUSH1 0x40 PUSH1 0x0 KECCAK256 PUSH1 0x0 SWAP2 POP SWAP1 POP SLOAD DUP2 JUMP JUMPDEST PUSH1 0x3 SLOAD DUP2 JUMP JUMPDEST PUSH1 0x1 PUSH1 0x0 SWAP1 SLOAD SWAP1 PUSH2 0x100 EXP SWAP1 DIV PUSH20 0xFFFFFFFFFFFFFFFFFFFFFFFFFFFFFFFFFFFFFFFF AND PUSH20 0xFFFFFFFFFFFFFFFFFFFFFFFFFFFFFFFFFFFFFFFF AND CALLER PUSH20 0xFFFFFFFFFFFFFFFFFFFFFFFFFFFFFFFFFFFFFFFF AND EQ PUSH2 0x492 JUMPI PUSH1 0x40 MLOAD PUSH32 0x8C379A000000000000000000000000000000000000000000000000000000000 DUP2 MSTORE PUSH1 0x4 ADD PUSH2 0x489 SWAP1 PUSH2 0x8BB JUMP JUMPDEST PUSH1 0x40 MLOAD DUP1 SWAP2 SUB SWAP1 REVERT JUMPDEST POP POP POP JUMP JUMPDEST PUSH1 0x1 PUSH1 0x0 SWAP1 SLOAD SWAP1 PUSH2 0x100 EXP SWAP1 DIV PUSH20 0xFFFFFFFFFFFFFFFFFFFFFFFFFFFFFFFFFFFFFFFF AND DUP2 JUMP JUMPDEST PUSH1 0x6 SLOAD DUP2 JUMP JUMPDEST PUSH1 0x3 SLOAD TIMESTAMP GT DUP1 ISZERO PUSH2 0x4D7 JUMPI POP PUSH1 0x5 SLOAD PUSH1 0x4 SLOAD GT JUMPDEST PUSH2 0x516 JUMPI PUSH1 0x40 MLOAD PUSH32 0x8C379A000000000000000000000000000000000000000000000000000000000 DUP2 MSTORE PUSH1 0x4 ADD PUSH2 0x50D SWAP1 PUSH2 0x91B JUMP JUMPDEST PUSH1 0x40 MLOAD DUP1 SWAP2 SUB SWAP1 REVERT JUMPDEST PUSH1 0x0 DUP1 PUSH1 0x0 CALLER PUSH20 0xFFFFFFFFFFFFFFFFFFFFFFFFFFFFFFFFFFFFFFFF AND PUSH20 0xFFFFFFFFFFFFFFFFFFFFFFFFFFFFFFFFFFFFFFFF AND DUP2 MSTORE PUSH1 0x20 ADD SWAP1 DUP2 MSTORE PUSH1 0x20 ADD PUSH1 0x0 KECCAK256 SLOAD GT PUSH2 0x597 JUMPI PUSH1 0x40 MLOAD PUSH32 0x8C379A000000000000000000000000000000000000000000000000000000000 DUP2 MSTORE PUSH1 0x4 ADD PUSH2 0x58E SWAP1 PUSH2 0x8FB JUMP JUMPDEST PUSH1 0x40 MLOAD DUP1 SWAP2 SUB SWAP1 REVERT JUMPDEST PUSH1 0x0 CALLER SWAP1 POP DUP1 PUSH20 0xFFFFFFFFFFFFFFFFFFFFFFFFFFFFFFFFFFFFFFFF AND PUSH2 0x8FC PUSH1 0x0 DUP1 CALLER PUSH20 0xFFFFFFFFFFFFFFFFFFFFFFFFFFFFFFFFFFFFFFFF AND PUSH20 0xFFFFFFFFFFFFFFFFFFFFFFFFFFFFFFFFFFFFFFFF AND DUP2 MSTORE PUSH1 0x20 ADD SWAP1 DUP2 MSTORE PUSH1 0x20 ADD PUSH1 0x0 KECCAK256 SLOAD SWAP1 DUP2 ISZERO MUL SWAP1 PUSH1 0x40 MLOAD PUSH1 0x0 PUSH1 0x40 MLOAD DUP1 DUP4 SUB DUP2 DUP6 DUP9 DUP9 CALL SWAP4 POP POP POP POP ISZERO DUP1 ISZERO PUSH2 0x620 JUMPI RETURNDATASIZE PUSH1 0x0 DUP1 RETURNDATACOPY RETURNDATASIZE PUSH1 0x0 REVERT JUMPDEST POP PUSH1 0x0 DUP1 PUSH1 0x0 CALLER PUSH20 0xFFFFFFFFFFFFFFFFFFFFFFFFFFFFFFFFFFFFFFFF AND PUSH20 0xFFFFFFFFFFFFFFFFFFFFFFFFFFFFFFFFFFFFFFFF AND DUP2 MSTORE PUSH1 0x20 ADD SWAP1 DUP2 MSTORE PUSH1 0x20 ADD PUSH1 0x0 KECCAK256 DUP2 SWAP1 SSTORE POP POP JUMP JUMPDEST PUSH1 0x0 SELFBALANCE SWAP1 POP SWAP1 JUMP JUMPDEST PUSH1 0x8 SLOAD DUP2 JUMP JUMPDEST PUSH1 0x2 SLOAD DUP2 JUMP JUMPDEST PUSH1 0x5 SLOAD DUP2 JUMP JUMPDEST PUSH1 0x4 SLOAD DUP2 JUMP JUMPDEST PUSH1 0x0 PUSH2 0x69B PUSH2 0x696 DUP5 PUSH2 0x99B JUMP JUMPDEST PUSH2 0x976 JUMP JUMPDEST SWAP1 POP DUP3 DUP2 MSTORE PUSH1 0x20 DUP2 ADD DUP5 DUP5 DUP5 ADD GT ISZERO PUSH2 0x6B7 JUMPI PUSH2 0x6B6 PUSH2 0xB6D JUMP JUMPDEST JUMPDEST PUSH2 0x6C2 DUP5 DUP3 DUP6 PUSH2 0xA81 JUMP JUMPDEST POP SWAP4 SWAP3 POP POP POP JUMP JUMPDEST PUSH1 0x0 DUP2 CALLDATALOAD SWAP1 POP PUSH2 0x6D9 DUP2 PUSH2 0xCA6 JUMP JUMPDEST SWAP3 SWAP2 POP POP JUMP JUMPDEST PUSH1 0x0 DUP2 CALLDATALOAD SWAP1 POP PUSH2 0x6EE DUP2 PUSH2 0xCBD JUMP JUMPDEST SWAP3 SWAP2 POP POP JUMP JUMPDEST PUSH1 0x0 DUP3 PUSH1 0x1F DUP4 ADD SLT PUSH2 0x709 JUMPI PUSH2 0x708 PUSH2 0xB68 JUMP JUMPDEST JUMPDEST DUP2 CALLDATALOAD PUSH2 0x719 DUP5 DUP3 PUSH1 0x20 DUP7 ADD PUSH2 0x688 JUMP JUMPDEST SWAP2 POP POP SWAP3 SWAP2 POP POP JUMP JUMPDEST PUSH1 0x0 DUP2 CALLDATALOAD SWAP1 POP PUSH2 0x731 DUP2 PUSH2 0xCD4 JUMP JUMPDEST SWAP3 SWAP2 POP POP JUMP JUMPDEST PUSH1 0x0 PUSH1 0x20 DUP3 DUP5 SUB SLT ISZERO PUSH2 0x74D JUMPI PUSH2 0x74C PUSH2 0xB77 JUMP JUMPDEST JUMPDEST PUSH1 0x0 PUSH2 0x75B DUP5 DUP3 DUP6 ADD PUSH2 0x6CA JUMP JUMPDEST SWAP2 POP POP SWAP3 SWAP2 POP POP JUMP JUMPDEST PUSH1 0x0 DUP1 PUSH1 0x0 PUSH1 0x60 DUP5 DUP7 SUB SLT ISZERO PUSH2 0x77D JUMPI PUSH2 0x77C PUSH2 0xB77 JUMP JUMPDEST JUMPDEST PUSH1 0x0 DUP5 ADD CALLDATALOAD PUSH8 0xFFFFFFFFFFFFFFFF DUP2 GT ISZERO PUSH2 0x79B JUMPI PUSH2 0x79A PUSH2 0xB72 JUMP JUMPDEST JUMPDEST PUSH2 0x7A7 DUP7 DUP3 DUP8 ADD PUSH2 0x6F4 JUMP JUMPDEST SWAP4 POP POP PUSH1 0x20 PUSH2 0x7B8 DUP7 DUP3 DUP8 ADD PUSH2 0x6DF JUMP JUMPDEST SWAP3 POP POP PUSH1 0x40 PUSH2 0x7C9 DUP7 DUP3 DUP8 ADD PUSH2 0x722 JUMP JUMPDEST SWAP2 POP POP SWAP3 POP SWAP3 POP SWAP3 JUMP JUMPDEST PUSH2 0x7DC DUP2 PUSH2 0xA33 JUMP JUMPDEST DUP3 MSTORE POP POP JUMP JUMPDEST PUSH1 0x0 PUSH2 0x7EF PUSH1 0x23 DUP4 PUSH2 0x9CC JUMP JUMPDEST SWAP2 POP PUSH2 0x7FA DUP3 PUSH2 0xB8D JUMP JUMPDEST PUSH1 0x40 DUP3 ADD SWAP1 POP SWAP2 SWAP1 POP JUMP JUMPDEST PUSH1 0x0 PUSH2 0x812 PUSH1 0x23 DUP4 PUSH2 0x9CC JUMP JUMPDEST SWAP2 POP PUSH2 0x81D DUP3 PUSH2 0xBDC JUMP JUMPDEST PUSH1 0x40 DUP3 ADD SWAP1 POP SWAP2 SWAP1 POP JUMP JUMPDEST PUSH1 0x0 PUSH2 0x835 PUSH1 0x1B DUP4 PUSH2 0x9CC JUMP JUMPDEST SWAP2 POP PUSH2 0x840 DUP3 PUSH2 0xC2B JUMP JUMPDEST PUSH1 0x20 DUP3 ADD SWAP1 POP SWAP2 SWAP1 POP JUMP JUMPDEST PUSH1 0x0 PUSH2 0x858 PUSH1 0x1F DUP4 PUSH2 0x9CC JUMP JUMPDEST SWAP2 POP PUSH2 0x863 DUP3 PUSH2 0xC54 JUMP JUMPDEST PUSH1 0x20 DUP3 ADD SWAP1 POP SWAP2 SWAP1 POP JUMP JUMPDEST PUSH1 0x0 PUSH2 0x87B PUSH1 0x15 DUP4 PUSH2 0x9CC JUMP JUMPDEST SWAP2 POP PUSH2 0x886 DUP3 PUSH2 0xC7D JUMP JUMPDEST PUSH1 0x20 DUP3 ADD SWAP1 POP SWAP2 SWAP1 POP JUMP JUMPDEST PUSH2 0x89A DUP2 PUSH2 0xA77 JUMP JUMPDEST DUP3 MSTORE POP POP JUMP JUMPDEST PUSH1 0x0 PUSH1 0x20 DUP3 ADD SWAP1 POP PUSH2 0x8B5 PUSH1 0x0 DUP4 ADD DUP5 PUSH2 0x7D3 JUMP JUMPDEST SWAP3 SWAP2 POP POP JUMP JUMPDEST PUSH1 0x0 PUSH1 0x20 DUP3 ADD SWAP1 POP DUP2 DUP2 SUB PUSH1 0x0 DUP4 ADD MSTORE PUSH2 0x8D4 DUP2 PUSH2 0x7E2 JUMP JUMPDEST SWAP1 POP SWAP2 SWAP1 POP JUMP JUMPDEST PUSH1 0x0 PUSH1 0x20 DUP3 ADD SWAP1 POP DUP2 DUP2 SUB PUSH1 0x0 DUP4 ADD MSTORE PUSH2 0x8F4 DUP2 PUSH2 0x805 JUMP JUMPDEST SWAP1 POP SWAP2 SWAP1 POP JUMP JUMPDEST PUSH1 0x0 PUSH1 0x20 DUP3 ADD SWAP1 POP DUP2 DUP2 SUB PUSH1 0x0 DUP4 ADD MSTORE PUSH2 0x914 DUP2 PUSH2 0x828 JUMP JUMPDEST SWAP1 POP SWAP2 SWAP1 POP JUMP JUMPDEST PUSH1 0x0 PUSH1 0x20 DUP3 ADD SWAP1 POP DUP2 DUP2 SUB PUSH1 0x0 DUP4 ADD MSTORE PUSH2 0x934 DUP2 PUSH2 0x84B JUMP JUMPDEST SWAP1 POP SWAP2 SWAP1 POP JUMP JUMPDEST PUSH1 0x0 PUSH1 0x20 DUP3 ADD SWAP1 POP DUP2 DUP2 SUB PUSH1 0x0 DUP4 ADD MSTORE PUSH2 0x954 DUP2 PUSH2 0x86E JUMP JUMPDEST SWAP1 POP SWAP2 SWAP1 POP JUMP JUMPDEST PUSH1 0x0 PUSH1 0x20 DUP3 ADD SWAP1 POP PUSH2 0x970 PUSH1 0x0 DUP4 ADD DUP5 PUSH2 0x891 JUMP JUMPDEST SWAP3 SWAP2 POP POP JUMP JUMPDEST PUSH1 0x0 PUSH2 0x980 PUSH2 0x991 JUMP JUMPDEST SWAP1 POP PUSH2 0x98C DUP3 DUP3 PUSH2 0xA90 JUMP JUMPDEST SWAP2 SWAP1 POP JUMP JUMPDEST PUSH1 0x0 PUSH1 0x40 MLOAD SWAP1 POP SWAP1 JUMP JUMPDEST PUSH1 0x0 PUSH8 0xFFFFFFFFFFFFFFFF DUP3 GT ISZERO PUSH2 0x9B6 JUMPI PUSH2 0x9B5 PUSH2 0xB39 JUMP JUMPDEST JUMPDEST PUSH2 0x9BF DUP3 PUSH2 0xB7C JUMP JUMPDEST SWAP1 POP PUSH1 0x20 DUP2 ADD SWAP1 POP SWAP2 SWAP1 POP JUMP JUMPDEST PUSH1 0x0 DUP3 DUP3 MSTORE PUSH1 0x20 DUP3 ADD SWAP1 POP SWAP3 SWAP2 POP POP JUMP JUMPDEST PUSH1 0x0 PUSH2 0x9E8 DUP3 PUSH2 0xA77 JUMP JUMPDEST SWAP2 POP PUSH2 0x9F3 DUP4 PUSH2 0xA77 JUMP JUMPDEST SWAP3 POP DUP3 PUSH32 0xFFFFFFFFFFFFFFFFFFFFFFFFFFFFFFFFFFFFFFFFFFFFFFFFFFFFFFFFFFFFFFFF SUB DUP3 GT ISZERO PUSH2 0xA28 JUMPI PUSH2 0xA27 PUSH2 0xB0A JUMP JUMPDEST JUMPDEST DUP3 DUP3 ADD SWAP1 POP SWAP3 SWAP2 POP POP JUMP JUMPDEST PUSH1 0x0 PUSH2 0xA3E DUP3 PUSH2 0xA57 JUMP JUMPDEST SWAP1 POP SWAP2 SWAP1 POP JUMP JUMPDEST PUSH1 0x0 PUSH2 0xA50 DUP3 PUSH2 0xA57 JUMP JUMPDEST SWAP1 POP SWAP2 SWAP1 POP JUMP JUMPDEST PUSH1 0x0 PUSH20 0xFFFFFFFFFFFFFFFFFFFFFFFFFFFFFFFFFFFFFFFF DUP3 AND SWAP1 POP SWAP2 SWAP1 POP JUMP JUMPDEST PUSH1 0x0 DUP2 SWAP1 POP SWAP2 SWAP1 POP JUMP JUMPDEST DUP3 DUP2 DUP4 CALLDATACOPY PUSH1 0x0 DUP4 DUP4 ADD MSTORE POP POP POP JUMP JUMPDEST PUSH2 0xA99 DUP3 PUSH2 0xB7C JUMP JUMPDEST DUP2 ADD DUP2 DUP2 LT PUSH8 0xFFFFFFFFFFFFFFFF DUP3 GT OR ISZERO PUSH2 0xAB8 JUMPI PUSH2 0xAB7 PUSH2 0xB39 JUMP JUMPDEST JUMPDEST DUP1 PUSH1 0x40 MSTORE POP POP POP JUMP JUMPDEST PUSH1 0x0 PUSH2 0xACC DUP3 PUSH2 0xA77 JUMP JUMPDEST SWAP2 POP PUSH32 0xFFFFFFFFFFFFFFFFFFFFFFFFFFFFFFFFFFFFFFFFFFFFFFFFFFFFFFFFFFFFFFFF DUP3 EQ ISZERO PUSH2 0xAFF JUMPI PUSH2 0xAFE PUSH2 0xB0A JUMP JUMPDEST JUMPDEST PUSH1 0x1 DUP3 ADD SWAP1 POP SWAP2 SWAP1 POP JUMP JUMPDEST PUSH32 0x4E487B7100000000000000000000000000000000000000000000000000000000 PUSH1 0x0 MSTORE PUSH1 0x11 PUSH1 0x4 MSTORE PUSH1 0x24 PUSH1 0x0 REVERT JUMPDEST PUSH32 0x4E487B7100000000000000000000000000000000000000000000000000000000 PUSH1 0x0 MSTORE PUSH1 0x41 PUSH1 0x4 MSTORE PUSH1 0x24 PUSH1 0x0 REVERT JUMPDEST PUSH1 0x0 DUP1 REVERT JUMPDEST PUSH1 0x0 DUP1 REVERT JUMPDEST PUSH1 0x0 DUP1 REVERT JUMPDEST PUSH1 0x0 DUP1 REVERT JUMPDEST PUSH1 0x0 PUSH1 0x1F NOT PUSH1 0x1F DUP4 ADD AND SWAP1 POP SWAP2 SWAP1 POP JUMP JUMPDEST PUSH32 0x4F6E6C79206D616E616765722063616E2063616C6C20746869732066756E6374 PUSH1 0x0 DUP3 ADD MSTORE PUSH32 0x696F6E0000000000000000000000000000000000000000000000000000000000 PUSH1 0x20 DUP3 ADD MSTORE POP JUMP JUMPDEST PUSH32 0x4D696E696D756D20636F6E747269627574696F6E206973206F66203130302077 PUSH1 0x0 DUP3 ADD MSTORE PUSH32 0x6569210000000000000000000000000000000000000000000000000000000000 PUSH1 0x20 DUP3 ADD MSTORE POP JUMP JUMPDEST PUSH32 0x596F7520686176656E277420636F6E7472696275746564207965740000000000 PUSH1 0x0 DUP3 ADD MSTORE POP JUMP JUMPDEST PUSH32 0x596F7520617265206E6F7420656C696769626C6520666F7220726566756E6400 PUSH1 0x0 DUP3 ADD MSTORE POP JUMP JUMPDEST PUSH32 0x446561646C696E65207061737365642061776179210000000000000000000000 PUSH1 0x0 DUP3 ADD MSTORE POP JUMP JUMPDEST PUSH2 0xCAF DUP2 PUSH2 0xA33 JUMP JUMPDEST DUP2 EQ PUSH2 0xCBA JUMPI PUSH1 0x0 DUP1 REVERT JUMPDEST POP JUMP JUMPDEST PUSH2 0xCC6 DUP2 PUSH2 0xA45 JUMP JUMPDEST DUP2 EQ PUSH2 0xCD1 JUMPI PUSH1 0x0 DUP1 REVERT JUMPDEST POP JUMP JUMPDEST PUSH2 0xCDD DUP2 PUSH2 0xA77 JUMP JUMPDEST DUP2 EQ PUSH2 0xCE8 JUMPI PUSH1 0x0 DUP1 REVERT JUMPDEST POP JUMP INVALID LOG2 PUSH5 0x6970667358 0x22 SLT KECCAK256 0x4A PUSH3 0xB68895 0xC1 POP CALLDATALOAD PUSH3 0x1602D7 SWAP13 0xA8 0x1F DUP15 EXTCODECOPY SWAP2 0x2B SWAP2 0x49 0x25 0xED SWAP16 0xAA PUSH7 0xD1127F2B78A664 PUSH20 0x6F6C634300080700330000000000000000000000 "
				},
				"gasEstimates": {
					"creation": {
						"codeDepositCost": "672200",
						"executionCost": "infinite",
						"totalCost": "infinite"
					},
					"external": {
						"contributors(address)": "2837",
						"createRequests(string,address,uint256)": "infinite",
						"deadline()": "2474",
						"getContractBalance()": "361",
						"manager()": "2603",
						"minContribution()": "2495",
						"noOfContributors()": "2540",
						"numRequests()": "2473",
						"raisedAmount()": "2517",
						"refund()": "infinite",
						"sendEth()": "infinite",
						"target()": "2539"
					}
				},
				"methodIdentifiers": {
					"contributors(address)": "1f6d4942",
					"createRequests(string,address,uint256)": "3eb7647b",
					"deadline()": "29dcb0cf",
					"getContractBalance()": "6f9fb98a",
					"manager()": "481c6a75",
					"minContribution()": "aaffadf3",
					"noOfContributors()": "4e260f6f",
					"numRequests()": "9fb42b1f",
					"raisedAmount()": "c59ee1dc",
					"refund()": "590e1ae3",
					"sendEth()": "06e99fef",
					"target()": "d4b83992"
				}
			},
			"storageLayout": {
				"storage": [
					{
						"astId": 5,
						"contract": "contracts/CrowdFunding.sol:CrowdFunding",
						"label": "contributors",
						"offset": 0,
						"slot": "0",
						"type": "t_mapping(t_address,t_uint256)"
					},
					{
						"astId": 7,
						"contract": "contracts/CrowdFunding.sol:CrowdFunding",
						"label": "manager",
						"offset": 0,
						"slot": "1",
						"type": "t_address"
					},
					{
						"astId": 9,
						"contract": "contracts/CrowdFunding.sol:CrowdFunding",
						"label": "minContribution",
						"offset": 0,
						"slot": "2",
						"type": "t_uint256"
					},
					{
						"astId": 11,
						"contract": "contracts/CrowdFunding.sol:CrowdFunding",
						"label": "deadline",
						"offset": 0,
						"slot": "3",
						"type": "t_uint256"
					},
					{
						"astId": 13,
						"contract": "contracts/CrowdFunding.sol:CrowdFunding",
						"label": "target",
						"offset": 0,
						"slot": "4",
						"type": "t_uint256"
					},
					{
						"astId": 15,
						"contract": "contracts/CrowdFunding.sol:CrowdFunding",
						"label": "raisedAmount",
						"offset": 0,
						"slot": "5",
						"type": "t_uint256"
					},
					{
						"astId": 17,
						"contract": "contracts/CrowdFunding.sol:CrowdFunding",
						"label": "noOfContributors",
						"offset": 0,
						"slot": "6",
						"type": "t_uint256"
					},
					{
						"astId": 37,
						"contract": "contracts/CrowdFunding.sol:CrowdFunding",
						"label": "requests",
						"offset": 0,
						"slot": "7",
						"type": "t_mapping(t_uint256,t_struct(Request)32_storage)"
					},
					{
						"astId": 39,
						"contract": "contracts/CrowdFunding.sol:CrowdFunding",
						"label": "numRequests",
						"offset": 0,
						"slot": "8",
						"type": "t_uint256"
					}
				],
				"types": {
					"t_address": {
						"encoding": "inplace",
						"label": "address",
						"numberOfBytes": "20"
					},
					"t_address_payable": {
						"encoding": "inplace",
						"label": "address payable",
						"numberOfBytes": "20"
					},
					"t_bool": {
						"encoding": "inplace",
						"label": "bool",
						"numberOfBytes": "1"
					},
					"t_mapping(t_address,t_bool)": {
						"encoding": "mapping",
						"key": "t_address",
						"label": "mapping(address => bool)",
						"numberOfBytes": "32",
						"value": "t_bool"
					},
					"t_mapping(t_address,t_uint256)": {
						"encoding": "mapping",
						"key": "t_address",
						"label": "mapping(address => uint256)",
						"numberOfBytes": "32",
						"value": "t_uint256"
					},
					"t_mapping(t_uint256,t_struct(Request)32_storage)": {
						"encoding": "mapping",
						"key": "t_uint256",
						"label": "mapping(uint256 => struct CrowdFunding.Request)",
						"numberOfBytes": "32",
						"value": "t_struct(Request)32_storage"
					},
					"t_string_storage": {
						"encoding": "bytes",
						"label": "string",
						"numberOfBytes": "32"
					},
					"t_struct(Request)32_storage": {
						"encoding": "inplace",
						"label": "struct CrowdFunding.Request",
						"members": [
							{
								"astId": 19,
								"contract": "contracts/CrowdFunding.sol:CrowdFunding",
								"label": "description",
								"offset": 0,
								"slot": "0",
								"type": "t_string_storage"
							},
							{
								"astId": 21,
								"contract": "contracts/CrowdFunding.sol:CrowdFunding",
								"label": "recipient",
								"offset": 0,
								"slot": "1",
								"type": "t_address_payable"
							},
							{
								"astId": 23,
								"contract": "contracts/CrowdFunding.sol:CrowdFunding",
								"label": "value",
								"offset": 0,
								"slot": "2",
								"type": "t_uint256"
							},
							{
								"astId": 25,
								"contract": "contracts/CrowdFunding.sol:CrowdFunding",
								"label": "completed",
								"offset": 0,
								"slot": "3",
								"type": "t_bool"
							},
							{
								"astId": 27,
								"contract": "contracts/CrowdFunding.sol:CrowdFunding",
								"label": "noOfVoters",
								"offset": 0,
								"slot": "4",
								"type": "t_uint256"
							},
							{
								"astId": 31,
								"contract": "contracts/CrowdFunding.sol:CrowdFunding",
								"label": "voters",
								"offset": 0,
								"slot": "5",
								"type": "t_mapping(t_address,t_bool)"
							}
						],
						"numberOfBytes": "192"
					},
					"t_uint256": {
						"encoding": "inplace",
						"label": "uint256",
						"numberOfBytes": "32"
					}
				}
			},
			"userdoc": {
				"kind": "user",
				"methods": {},
				"version": 1
			}
		}
	}
}