{
	"contracts/CrowdFunding.sol": {
		"CrowdFunding": {
			"abi": [
				{
					"inputs": [
						{
							"internalType": "uint256",
							"name": "_target",
							"type": "uint256"
						},
						{
							"internalType": "uint256",
							"name": "_deadline",
							"type": "uint256"
						}
					],
					"stateMutability": "nonpayable",
					"type": "constructor"
				},
				{
					"inputs": [
						{
							"internalType": "address",
							"name": "",
							"type": "address"
						}
					],
					"name": "contributors",
					"outputs": [
						{
							"internalType": "uint256",
							"name": "",
							"type": "uint256"
						}
					],
					"stateMutability": "view",
					"type": "function"
				},
				{
					"inputs": [
						{
							"internalType": "string",
							"name": "_description",
							"type": "string"
						},
						{
							"internalType": "address payable",
							"name": "_recipient",
							"type": "address"
						},
						{
							"internalType": "uint256",
							"name": "_value",
							"type": "uint256"
						}
					],
					"name": "createRequests",
					"outputs": [],
					"stateMutability": "nonpayable",
					"type": "function"
				},
				{
					"inputs": [],
					"name": "deadline",
					"outputs": [
						{
							"internalType": "uint256",
							"name": "",
							"type": "uint256"
						}
					],
					"stateMutability": "view",
					"type": "function"
				},
				{
					"inputs": [],
					"name": "getContractBalance",
					"outputs": [
						{
							"internalType": "uint256",
							"name": "",
							"type": "uint256"
						}
					],
					"stateMutability": "view",
					"type": "function"
				},
				{
					"inputs": [],
					"name": "manager",
					"outputs": [
						{
							"internalType": "address",
							"name": "",
							"type": "address"
						}
					],
					"stateMutability": "view",
					"type": "function"
				},
				{
					"inputs": [],
					"name": "minContribution",
					"outputs": [
						{
							"internalType": "uint256",
							"name": "",
							"type": "uint256"
						}
					],
					"stateMutability": "view",
					"type": "function"
				},
				{
					"inputs": [],
					"name": "noOfContributors",
					"outputs": [
						{
							"internalType": "uint256",
							"name": "",
							"type": "uint256"
						}
					],
					"stateMutability": "view",
					"type": "function"
				},
				{
					"inputs": [],
					"name": "numRequests",
					"outputs": [
						{
							"internalType": "uint256",
							"name": "",
							"type": "uint256"
						}
					],
					"stateMutability": "view",
					"type": "function"
				},
				{
					"inputs": [],
					"name": "raisedAmount",
					"outputs": [
						{
							"internalType": "uint256",
							"name": "",
							"type": "uint256"
						}
					],
					"stateMutability": "view",
					"type": "function"
				},
				{
					"inputs": [],
					"name": "refund",
					"outputs": [],
					"stateMutability": "nonpayable",
					"type": "function"
				},
				{
					"inputs": [],
					"name": "sendEth",
					"outputs": [],
					"stateMutability": "payable",
					"type": "function"
				},
				{
					"inputs": [],
					"name": "target",
					"outputs": [
						{
							"internalType": "uint256",
							"name": "",
							"type": "uint256"
						}
					],
					"stateMutability": "view",
					"type": "function"
				},
				{
					"inputs": [
						{
							"internalType": "uint256",
							"name": "_reqno",
							"type": "uint256"
						}
					],
					"name": "voteRequest",
					"outputs": [],
					"stateMutability": "nonpayable",
					"type": "function"
				}
			],
			"devdoc": {
				"kind": "dev",
				"methods": {},
				"version": 1
			},
			"evm": {
				"assembly": "    /* \"contracts/CrowdFunding.sol\":73:2470  contract CrowdFunding{\r... */\n  mstore(0x40, 0x80)\n    /* \"contracts/CrowdFunding.sol\":803:1036  constructor(uint _target, uint _deadline){  //set by the manager initially while deploying\r... */\n  callvalue\n  dup1\n  iszero\n  tag_1\n  jumpi\n  0x00\n  dup1\n  revert\ntag_1:\n  pop\n  mload(0x40)\n  sub(codesize, bytecodeSize)\n  dup1\n  bytecodeSize\n  dup4\n  codecopy\n  dup2\n  dup2\n  add\n  0x40\n  mstore\n  dup2\n  add\n  swap1\n  tag_2\n  swap2\n  swap1\n  tag_3\n  jump\t// in\ntag_2:\n    /* \"contracts/CrowdFunding.sol\":910:917  _target */\n  dup2\n    /* \"contracts/CrowdFunding.sol\":903:909  target */\n  0x04\n    /* \"contracts/CrowdFunding.sol\":903:917  target=_target */\n  dup2\n  swap1\n  sstore\n  pop\n    /* \"contracts/CrowdFunding.sol\":954:963  _deadline */\n  dup1\n    /* \"contracts/CrowdFunding.sol\":937:952  block.timestamp */\n  timestamp\n    /* \"contracts/CrowdFunding.sol\":937:963  block.timestamp+ _deadline */\n  tag_6\n  swap2\n  swap1\n  tag_7\n  jump\t// in\ntag_6:\n    /* \"contracts/CrowdFunding.sol\":928:936  deadline */\n  0x03\n    /* \"contracts/CrowdFunding.sol\":928:963  deadline=block.timestamp+ _deadline */\n  dup2\n  swap1\n  sstore\n  pop\n    /* \"contracts/CrowdFunding.sol\":990:997  100 wei */\n  0x64\n    /* \"contracts/CrowdFunding.sol\":974:989  minContribution */\n  0x02\n    /* \"contracts/CrowdFunding.sol\":974:997  minContribution=100 wei */\n  dup2\n  swap1\n  sstore\n  pop\n    /* \"contracts/CrowdFunding.sol\":1018:1028  msg.sender */\n  caller\n    /* \"contracts/CrowdFunding.sol\":1008:1015  manager */\n  0x01\n  0x00\n    /* \"contracts/CrowdFunding.sol\":1008:1028  manager = msg.sender */\n  0x0100\n  exp\n  dup2\n  sload\n  dup2\n  0xffffffffffffffffffffffffffffffffffffffff\n  mul\n  not\n  and\n  swap1\n  dup4\n  0xffffffffffffffffffffffffffffffffffffffff\n  and\n  mul\n  or\n  swap1\n  sstore\n  pop\n    /* \"contracts/CrowdFunding.sol\":803:1036  constructor(uint _target, uint _deadline){  //set by the manager initially while deploying\r... */\n  pop\n  pop\n    /* \"contracts/CrowdFunding.sol\":73:2470  contract CrowdFunding{\r... */\n  jump(tag_8)\n    /* \"#utility.yul\":7:150   */\ntag_10:\n    /* \"#utility.yul\":64:69   */\n  0x00\n    /* \"#utility.yul\":95:101   */\n  dup2\n    /* \"#utility.yul\":89:102   */\n  mload\n    /* \"#utility.yul\":80:102   */\n  swap1\n  pop\n    /* \"#utility.yul\":111:144   */\n  tag_12\n    /* \"#utility.yul\":138:143   */\n  dup2\n    /* \"#utility.yul\":111:144   */\n  tag_13\n  jump\t// in\ntag_12:\n    /* \"#utility.yul\":7:150   */\n  swap3\n  swap2\n  pop\n  pop\n  jump\t// out\n    /* \"#utility.yul\":156:663   */\ntag_3:\n    /* \"#utility.yul\":235:241   */\n  0x00\n    /* \"#utility.yul\":243:249   */\n  dup1\n    /* \"#utility.yul\":292:294   */\n  0x40\n    /* \"#utility.yul\":280:289   */\n  dup4\n    /* \"#utility.yul\":271:278   */\n  dup6\n    /* \"#utility.yul\":267:290   */\n  sub\n    /* \"#utility.yul\":263:295   */\n  slt\n    /* \"#utility.yul\":260:379   */\n  iszero\n  tag_15\n  jumpi\n    /* \"#utility.yul\":298:377   */\n  tag_16\n  tag_17\n  jump\t// in\ntag_16:\n    /* \"#utility.yul\":260:379   */\ntag_15:\n    /* \"#utility.yul\":418:419   */\n  0x00\n    /* \"#utility.yul\":443:507   */\n  tag_18\n    /* \"#utility.yul\":499:506   */\n  dup6\n    /* \"#utility.yul\":490:496   */\n  dup3\n    /* \"#utility.yul\":479:488   */\n  dup7\n    /* \"#utility.yul\":475:497   */\n  add\n    /* \"#utility.yul\":443:507   */\n  tag_10\n  jump\t// in\ntag_18:\n    /* \"#utility.yul\":433:507   */\n  swap3\n  pop\n    /* \"#utility.yul\":389:517   */\n  pop\n    /* \"#utility.yul\":556:558   */\n  0x20\n    /* \"#utility.yul\":582:646   */\n  tag_19\n    /* \"#utility.yul\":638:645   */\n  dup6\n    /* \"#utility.yul\":629:635   */\n  dup3\n    /* \"#utility.yul\":618:627   */\n  dup7\n    /* \"#utility.yul\":614:636   */\n  add\n    /* \"#utility.yul\":582:646   */\n  tag_10\n  jump\t// in\ntag_19:\n    /* \"#utility.yul\":572:646   */\n  swap2\n  pop\n    /* \"#utility.yul\":527:656   */\n  pop\n    /* \"#utility.yul\":156:663   */\n  swap3\n  pop\n  swap3\n  swap1\n  pop\n  jump\t// out\n    /* \"#utility.yul\":750:1055   */\ntag_7:\n    /* \"#utility.yul\":790:793   */\n  0x00\n    /* \"#utility.yul\":809:829   */\n  tag_23\n    /* \"#utility.yul\":827:828   */\n  dup3\n    /* \"#utility.yul\":809:829   */\n  tag_24\n  jump\t// in\ntag_23:\n    /* \"#utility.yul\":804:829   */\n  swap2\n  pop\n    /* \"#utility.yul\":843:863   */\n  tag_25\n    /* \"#utility.yul\":861:862   */\n  dup4\n    /* \"#utility.yul\":843:863   */\n  tag_24\n  jump\t// in\ntag_25:\n    /* \"#utility.yul\":838:863   */\n  swap3\n  pop\n    /* \"#utility.yul\":997:998   */\n  dup3\n    /* \"#utility.yul\":929:995   */\n  0xffffffffffffffffffffffffffffffffffffffffffffffffffffffffffffffff\n    /* \"#utility.yul\":925:999   */\n  sub\n    /* \"#utility.yul\":922:923   */\n  dup3\n    /* \"#utility.yul\":919:1000   */\n  gt\n    /* \"#utility.yul\":916:1023   */\n  iszero\n  tag_26\n  jumpi\n    /* \"#utility.yul\":1003:1021   */\n  tag_27\n  tag_28\n  jump\t// in\ntag_27:\n    /* \"#utility.yul\":916:1023   */\ntag_26:\n    /* \"#utility.yul\":1047:1048   */\n  dup3\n    /* \"#utility.yul\":1044:1045   */\n  dup3\n    /* \"#utility.yul\":1040:1049   */\n  add\n    /* \"#utility.yul\":1033:1049   */\n  swap1\n  pop\n    /* \"#utility.yul\":750:1055   */\n  swap3\n  swap2\n  pop\n  pop\n  jump\t// out\n    /* \"#utility.yul\":1061:1138   */\ntag_24:\n    /* \"#utility.yul\":1098:1105   */\n  0x00\n    /* \"#utility.yul\":1127:1132   */\n  dup2\n    /* \"#utility.yul\":1116:1132   */\n  swap1\n  pop\n    /* \"#utility.yul\":1061:1138   */\n  swap2\n  swap1\n  pop\n  jump\t// out\n    /* \"#utility.yul\":1144:1324   */\ntag_28:\n    /* \"#utility.yul\":1192:1269   */\n  0x4e487b7100000000000000000000000000000000000000000000000000000000\n    /* \"#utility.yul\":1189:1190   */\n  0x00\n    /* \"#utility.yul\":1182:1270   */\n  mstore\n    /* \"#utility.yul\":1289:1293   */\n  0x11\n    /* \"#utility.yul\":1286:1287   */\n  0x04\n    /* \"#utility.yul\":1279:1294   */\n  mstore\n    /* \"#utility.yul\":1313:1317   */\n  0x24\n    /* \"#utility.yul\":1310:1311   */\n  0x00\n    /* \"#utility.yul\":1303:1318   */\n  revert\n    /* \"#utility.yul\":1453:1570   */\ntag_17:\n    /* \"#utility.yul\":1562:1563   */\n  0x00\n    /* \"#utility.yul\":1559:1560   */\n  dup1\n    /* \"#utility.yul\":1552:1564   */\n  revert\n    /* \"#utility.yul\":1576:1698   */\ntag_13:\n    /* \"#utility.yul\":1649:1673   */\n  tag_35\n    /* \"#utility.yul\":1667:1672   */\n  dup2\n    /* \"#utility.yul\":1649:1673   */\n  tag_24\n  jump\t// in\ntag_35:\n    /* \"#utility.yul\":1642:1647   */\n  dup2\n    /* \"#utility.yul\":1639:1674   */\n  eq\n    /* \"#utility.yul\":1629:1692   */\n  tag_36\n  jumpi\n    /* \"#utility.yul\":1688:1689   */\n  0x00\n    /* \"#utility.yul\":1685:1686   */\n  dup1\n    /* \"#utility.yul\":1678:1690   */\n  revert\n    /* \"#utility.yul\":1629:1692   */\ntag_36:\n    /* \"#utility.yul\":1576:1698   */\n  pop\n  jump\t// out\n    /* \"contracts/CrowdFunding.sol\":73:2470  contract CrowdFunding{\r... */\ntag_8:\n  dataSize(sub_0)\n  dup1\n  dataOffset(sub_0)\n  0x00\n  codecopy\n  0x00\n  return\nstop\n\nsub_0: assembly {\n        /* \"contracts/CrowdFunding.sol\":73:2470  contract CrowdFunding{\r... */\n      mstore(0x40, 0x80)\n      jumpi(tag_1, lt(calldatasize, 0x04))\n      shr(0xe0, calldataload(0x00))\n      dup1\n      0x4e260f6f\n      gt\n      tag_15\n      jumpi\n      dup1\n      0x9fb42b1f\n      gt\n      tag_16\n      jumpi\n      dup1\n      0x9fb42b1f\n      eq\n      tag_11\n      jumpi\n      dup1\n      0xaaffadf3\n      eq\n      tag_12\n      jumpi\n      dup1\n      0xc59ee1dc\n      eq\n      tag_13\n      jumpi\n      dup1\n      0xd4b83992\n      eq\n      tag_14\n      jumpi\n      jump(tag_1)\n    tag_16:\n      dup1\n      0x4e260f6f\n      eq\n      tag_8\n      jumpi\n      dup1\n      0x590e1ae3\n      eq\n      tag_9\n      jumpi\n      dup1\n      0x6f9fb98a\n      eq\n      tag_10\n      jumpi\n      jump(tag_1)\n    tag_15:\n      dup1\n      0x06e99fef\n      eq\n      tag_2\n      jumpi\n      dup1\n      0x1f6d4942\n      eq\n      tag_3\n      jumpi\n      dup1\n      0x29dcb0cf\n      eq\n      tag_4\n      jumpi\n      dup1\n      0x3eb7647b\n      eq\n      tag_5\n      jumpi\n      dup1\n      0x481c6a75\n      eq\n      tag_6\n      jumpi\n      dup1\n      0x4cb6f4a5\n      eq\n      tag_7\n      jumpi\n    tag_1:\n      0x00\n      dup1\n      revert\n        /* \"contracts/CrowdFunding.sol\":1044:1405  function sendEth() public payable{\r... */\n    tag_2:\n      tag_17\n      tag_18\n      jump\t// in\n    tag_17:\n      stop\n        /* \"contracts/CrowdFunding.sol\":103:145  mapping(address=>uint) public contributors */\n    tag_3:\n      callvalue\n      dup1\n      iszero\n      tag_19\n      jumpi\n      0x00\n      dup1\n      revert\n    tag_19:\n      pop\n      tag_20\n      0x04\n      dup1\n      calldatasize\n      sub\n      dup2\n      add\n      swap1\n      tag_21\n      swap2\n      swap1\n      tag_22\n      jump\t// in\n    tag_21:\n      tag_23\n      jump\t// in\n    tag_20:\n      mload(0x40)\n      tag_24\n      swap2\n      swap1\n      tag_25\n      jump\t// in\n    tag_24:\n      mload(0x40)\n      dup1\n      swap2\n      sub\n      swap1\n      return\n        /* \"contracts/CrowdFunding.sol\":267:287  uint public deadline */\n    tag_4:\n      callvalue\n      dup1\n      iszero\n      tag_26\n      jumpi\n      0x00\n      dup1\n      revert\n    tag_26:\n      pop\n      tag_27\n      tag_28\n      jump\t// in\n    tag_27:\n      mload(0x40)\n      tag_29\n      swap2\n      swap1\n      tag_25\n      jump\t// in\n    tag_29:\n      mload(0x40)\n      dup1\n      swap2\n      sub\n      swap1\n      return\n        /* \"contracts/CrowdFunding.sol\":2007:2408  function createRequests(string memory _description,address payable _recipient,uint _value) public onlyManager{\r... */\n    tag_5:\n      callvalue\n      dup1\n      iszero\n      tag_30\n      jumpi\n      0x00\n      dup1\n      revert\n    tag_30:\n      pop\n      tag_31\n      0x04\n      dup1\n      calldatasize\n      sub\n      dup2\n      add\n      swap1\n      tag_32\n      swap2\n      swap1\n      tag_33\n      jump\t// in\n    tag_32:\n      tag_34\n      jump\t// in\n    tag_31:\n      stop\n        /* \"contracts/CrowdFunding.sol\":192:214  address public manager */\n    tag_6:\n      callvalue\n      dup1\n      iszero\n      tag_35\n      jumpi\n      0x00\n      dup1\n      revert\n    tag_35:\n      pop\n      tag_36\n      tag_37\n      jump\t// in\n    tag_36:\n      mload(0x40)\n      tag_38\n      swap2\n      swap1\n      tag_39\n      jump\t// in\n    tag_38:\n      mload(0x40)\n      dup1\n      swap2\n      sub\n      swap1\n      return\n        /* \"contracts/CrowdFunding.sol\":2417:2467  function voteRequest(uint _reqno) public{\r... */\n    tag_7:\n      callvalue\n      dup1\n      iszero\n      tag_40\n      jumpi\n      0x00\n      dup1\n      revert\n    tag_40:\n      pop\n      tag_41\n      0x04\n      dup1\n      calldatasize\n      sub\n      dup2\n      add\n      swap1\n      tag_42\n      swap2\n      swap1\n      tag_43\n      jump\t// in\n    tag_42:\n      tag_44\n      jump\t// in\n    tag_41:\n      stop\n        /* \"contracts/CrowdFunding.sol\":370:398  uint public noOfContributors */\n    tag_8:\n      callvalue\n      dup1\n      iszero\n      tag_45\n      jumpi\n      0x00\n      dup1\n      revert\n    tag_45:\n      pop\n      tag_46\n      tag_47\n      jump\t// in\n    tag_46:\n      mload(0x40)\n      tag_48\n      swap2\n      swap1\n      tag_25\n      jump\t// in\n    tag_48:\n      mload(0x40)\n      dup1\n      swap2\n      sub\n      swap1\n      return\n        /* \"contracts/CrowdFunding.sol\":1523:1872  function refund() public{\r... */\n    tag_9:\n      callvalue\n      dup1\n      iszero\n      tag_49\n      jumpi\n      0x00\n      dup1\n      revert\n    tag_49:\n      pop\n      tag_50\n      tag_51\n      jump\t// in\n    tag_50:\n      stop\n        /* \"contracts/CrowdFunding.sol\":1413:1515  function getContractBalance() public view returns(uint){\r... */\n    tag_10:\n      callvalue\n      dup1\n      iszero\n      tag_52\n      jumpi\n      0x00\n      dup1\n      revert\n    tag_52:\n      pop\n      tag_53\n      tag_54\n      jump\t// in\n    tag_53:\n      mload(0x40)\n      tag_55\n      swap2\n      swap1\n      tag_25\n      jump\t// in\n    tag_55:\n      mload(0x40)\n      dup1\n      swap2\n      sub\n      swap1\n      return\n        /* \"contracts/CrowdFunding.sol\":744:767  uint public numRequests */\n    tag_11:\n      callvalue\n      dup1\n      iszero\n      tag_56\n      jumpi\n      0x00\n      dup1\n      revert\n    tag_56:\n      pop\n      tag_57\n      tag_58\n      jump\t// in\n    tag_57:\n      mload(0x40)\n      tag_59\n      swap2\n      swap1\n      tag_25\n      jump\t// in\n    tag_59:\n      mload(0x40)\n      dup1\n      swap2\n      sub\n      swap1\n      return\n        /* \"contracts/CrowdFunding.sol\":233:260  uint public minContribution */\n    tag_12:\n      callvalue\n      dup1\n      iszero\n      tag_60\n      jumpi\n      0x00\n      dup1\n      revert\n    tag_60:\n      pop\n      tag_61\n      tag_62\n      jump\t// in\n    tag_61:\n      mload(0x40)\n      tag_63\n      swap2\n      swap1\n      tag_25\n      jump\t// in\n    tag_63:\n      mload(0x40)\n      dup1\n      swap2\n      sub\n      swap1\n      return\n        /* \"contracts/CrowdFunding.sol\":339:363  uint public raisedAmount */\n    tag_13:\n      callvalue\n      dup1\n      iszero\n      tag_64\n      jumpi\n      0x00\n      dup1\n      revert\n    tag_64:\n      pop\n      tag_65\n      tag_66\n      jump\t// in\n    tag_65:\n      mload(0x40)\n      tag_67\n      swap2\n      swap1\n      tag_25\n      jump\t// in\n    tag_67:\n      mload(0x40)\n      dup1\n      swap2\n      sub\n      swap1\n      return\n        /* \"contracts/CrowdFunding.sol\":295:313  uint public target */\n    tag_14:\n      callvalue\n      dup1\n      iszero\n      tag_68\n      jumpi\n      0x00\n      dup1\n      revert\n    tag_68:\n      pop\n      tag_69\n      tag_70\n      jump\t// in\n    tag_69:\n      mload(0x40)\n      tag_71\n      swap2\n      swap1\n      tag_25\n      jump\t// in\n    tag_71:\n      mload(0x40)\n      dup1\n      swap2\n      sub\n      swap1\n      return\n        /* \"contracts/CrowdFunding.sol\":1044:1405  function sendEth() public payable{\r... */\n    tag_18:\n        /* \"contracts/CrowdFunding.sol\":1112:1120  deadline */\n      sload(0x03)\n        /* \"contracts/CrowdFunding.sol\":1096:1111  block.timestamp */\n      timestamp\n        /* \"contracts/CrowdFunding.sol\":1096:1120  block.timestamp<deadline */\n      lt\n        /* \"contracts/CrowdFunding.sol\":1088:1145  require(block.timestamp<deadline,\"Deadline passed away!\") */\n      tag_73\n      jumpi\n      mload(0x40)\n      0x08c379a000000000000000000000000000000000000000000000000000000000\n      dup2\n      mstore\n      0x04\n      add\n      tag_74\n      swap1\n      tag_75\n      jump\t// in\n    tag_74:\n      mload(0x40)\n      dup1\n      swap2\n      sub\n      swap1\n      revert\n    tag_73:\n        /* \"contracts/CrowdFunding.sol\":1175:1190  minContribution */\n      sload(0x02)\n        /* \"contracts/CrowdFunding.sol\":1164:1173  msg.value */\n      callvalue\n        /* \"contracts/CrowdFunding.sol\":1164:1190  msg.value>=minContribution */\n      lt\n      iszero\n        /* \"contracts/CrowdFunding.sol\":1156:1229  require(msg.value>=minContribution,\"Minimum contribution is of 100 wei!\") */\n      tag_76\n      jumpi\n      mload(0x40)\n      0x08c379a000000000000000000000000000000000000000000000000000000000\n      dup2\n      mstore\n      0x04\n      add\n      tag_77\n      swap1\n      tag_78\n      jump\t// in\n    tag_77:\n      mload(0x40)\n      dup1\n      swap2\n      sub\n      swap1\n      revert\n    tag_76:\n        /* \"contracts/CrowdFunding.sol\":1271:1272  0 */\n      0x00\n        /* \"contracts/CrowdFunding.sol\":1245:1257  contributors */\n      dup1\n        /* \"contracts/CrowdFunding.sol\":1245:1269  contributors[msg.sender] */\n      0x00\n        /* \"contracts/CrowdFunding.sol\":1258:1268  msg.sender */\n      caller\n        /* \"contracts/CrowdFunding.sol\":1245:1269  contributors[msg.sender] */\n      0xffffffffffffffffffffffffffffffffffffffff\n      and\n      0xffffffffffffffffffffffffffffffffffffffff\n      and\n      dup2\n      mstore\n      0x20\n      add\n      swap1\n      dup2\n      mstore\n      0x20\n      add\n      0x00\n      keccak256\n      sload\n        /* \"contracts/CrowdFunding.sol\":1245:1272  contributors[msg.sender]==0 */\n      eq\n        /* \"contracts/CrowdFunding.sol\":1242:1318  if(contributors[msg.sender]==0){\r... */\n      iszero\n      tag_79\n      jumpi\n        /* \"contracts/CrowdFunding.sol\":1288:1304  noOfContributors */\n      0x06\n      0x00\n        /* \"contracts/CrowdFunding.sol\":1288:1306  noOfContributors++ */\n      dup2\n      sload\n      dup1\n      swap3\n      swap2\n      swap1\n      tag_80\n      swap1\n      tag_81\n      jump\t// in\n    tag_80:\n      swap2\n      swap1\n      pop\n      sstore\n      pop\n        /* \"contracts/CrowdFunding.sol\":1242:1318  if(contributors[msg.sender]==0){\r... */\n    tag_79:\n        /* \"contracts/CrowdFunding.sol\":1354:1363  msg.value */\n      callvalue\n        /* \"contracts/CrowdFunding.sol\":1328:1340  contributors */\n      0x00\n        /* \"contracts/CrowdFunding.sol\":1328:1352  contributors[msg.sender] */\n      dup1\n        /* \"contracts/CrowdFunding.sol\":1341:1351  msg.sender */\n      caller\n        /* \"contracts/CrowdFunding.sol\":1328:1352  contributors[msg.sender] */\n      0xffffffffffffffffffffffffffffffffffffffff\n      and\n      0xffffffffffffffffffffffffffffffffffffffff\n      and\n      dup2\n      mstore\n      0x20\n      add\n      swap1\n      dup2\n      mstore\n      0x20\n      add\n      0x00\n      keccak256\n      0x00\n        /* \"contracts/CrowdFunding.sol\":1328:1363  contributors[msg.sender]+=msg.value */\n      dup3\n      dup3\n      sload\n      tag_82\n      swap2\n      swap1\n      tag_83\n      jump\t// in\n    tag_82:\n      swap3\n      pop\n      pop\n      dup2\n      swap1\n      sstore\n      pop\n        /* \"contracts/CrowdFunding.sol\":1388:1397  msg.value */\n      callvalue\n        /* \"contracts/CrowdFunding.sol\":1374:1386  raisedAmount */\n      0x05\n      0x00\n        /* \"contracts/CrowdFunding.sol\":1374:1397  raisedAmount+=msg.value */\n      dup3\n      dup3\n      sload\n      tag_84\n      swap2\n      swap1\n      tag_83\n      jump\t// in\n    tag_84:\n      swap3\n      pop\n      pop\n      dup2\n      swap1\n      sstore\n      pop\n        /* \"contracts/CrowdFunding.sol\":1044:1405  function sendEth() public payable{\r... */\n      jump\t// out\n        /* \"contracts/CrowdFunding.sol\":103:145  mapping(address=>uint) public contributors */\n    tag_23:\n      mstore(0x20, 0x00)\n      dup1\n      0x00\n      mstore\n      keccak256(0x00, 0x40)\n      0x00\n      swap2\n      pop\n      swap1\n      pop\n      sload\n      dup2\n      jump\t// out\n        /* \"contracts/CrowdFunding.sol\":267:287  uint public deadline */\n    tag_28:\n      sload(0x03)\n      dup2\n      jump\t// out\n        /* \"contracts/CrowdFunding.sol\":2007:2408  function createRequests(string memory _description,address payable _recipient,uint _value) public onlyManager{\r... */\n    tag_34:\n        /* \"contracts/CrowdFunding.sol\":1933:1940  manager */\n      0x01\n      0x00\n      swap1\n      sload\n      swap1\n      0x0100\n      exp\n      swap1\n      div\n      0xffffffffffffffffffffffffffffffffffffffff\n      and\n        /* \"contracts/CrowdFunding.sol\":1921:1940  msg.sender==manager */\n      0xffffffffffffffffffffffffffffffffffffffff\n      and\n        /* \"contracts/CrowdFunding.sol\":1921:1931  msg.sender */\n      caller\n        /* \"contracts/CrowdFunding.sol\":1921:1940  msg.sender==manager */\n      0xffffffffffffffffffffffffffffffffffffffff\n      and\n      eq\n        /* \"contracts/CrowdFunding.sol\":1913:1979  require(msg.sender==manager,\"Only manager can call this function\") */\n      tag_86\n      jumpi\n      mload(0x40)\n      0x08c379a000000000000000000000000000000000000000000000000000000000\n      dup2\n      mstore\n      0x04\n      add\n      tag_87\n      swap1\n      tag_88\n      jump\t// in\n    tag_87:\n      mload(0x40)\n      dup1\n      swap2\n      sub\n      swap1\n      revert\n    tag_86:\n        /* \"contracts/CrowdFunding.sol\":2127:2153  Request storage newRequest */\n      0x00\n        /* \"contracts/CrowdFunding.sol\":2156:2164  requests */\n      0x07\n        /* \"contracts/CrowdFunding.sol\":2156:2177  requests[numRequests] */\n      0x00\n        /* \"contracts/CrowdFunding.sol\":2165:2176  numRequests */\n      sload(0x08)\n        /* \"contracts/CrowdFunding.sol\":2156:2177  requests[numRequests] */\n      dup2\n      mstore\n      0x20\n      add\n      swap1\n      dup2\n      mstore\n      0x20\n      add\n      0x00\n      keccak256\n        /* \"contracts/CrowdFunding.sol\":2127:2177  Request storage newRequest = requests[numRequests] */\n      swap1\n      pop\n        /* \"contracts/CrowdFunding.sol\":2188:2199  numRequests */\n      0x08\n      0x00\n        /* \"contracts/CrowdFunding.sol\":2188:2201  numRequests++ */\n      dup2\n      sload\n      dup1\n      swap3\n      swap2\n      swap1\n      tag_90\n      swap1\n      tag_81\n      jump\t// in\n    tag_90:\n      swap2\n      swap1\n      pop\n      sstore\n      pop\n        /* \"contracts/CrowdFunding.sol\":2237:2249  _description */\n      dup4\n        /* \"contracts/CrowdFunding.sol\":2212:2222  newRequest */\n      dup2\n        /* \"contracts/CrowdFunding.sol\":2212:2234  newRequest.description */\n      0x00\n      add\n        /* \"contracts/CrowdFunding.sol\":2212:2249  newRequest.description = _description */\n      swap1\n      dup1\n      mload\n      swap1\n      0x20\n      add\n      swap1\n      tag_91\n      swap3\n      swap2\n      swap1\n      tag_92\n      jump\t// in\n    tag_91:\n      pop\n        /* \"contracts/CrowdFunding.sol\":2283:2293  _recipient */\n      dup3\n        /* \"contracts/CrowdFunding.sol\":2260:2270  newRequest */\n      dup2\n        /* \"contracts/CrowdFunding.sol\":2260:2280  newRequest.recipient */\n      0x01\n      add\n      0x00\n        /* \"contracts/CrowdFunding.sol\":2260:2293  newRequest.recipient = _recipient */\n      0x0100\n      exp\n      dup2\n      sload\n      dup2\n      0xffffffffffffffffffffffffffffffffffffffff\n      mul\n      not\n      and\n      swap1\n      dup4\n      0xffffffffffffffffffffffffffffffffffffffff\n      and\n      mul\n      or\n      swap1\n      sstore\n      pop\n        /* \"contracts/CrowdFunding.sol\":2323:2329  _value */\n      dup2\n        /* \"contracts/CrowdFunding.sol\":2304:2314  newRequest */\n      dup2\n        /* \"contracts/CrowdFunding.sol\":2304:2320  newRequest.value */\n      0x02\n      add\n        /* \"contracts/CrowdFunding.sol\":2304:2329  newRequest.value = _value */\n      dup2\n      swap1\n      sstore\n      pop\n        /* \"contracts/CrowdFunding.sol\":2361:2366  false */\n      0x00\n        /* \"contracts/CrowdFunding.sol\":2340:2350  newRequest */\n      dup2\n        /* \"contracts/CrowdFunding.sol\":2340:2360  newRequest.completed */\n      0x03\n      add\n      0x00\n        /* \"contracts/CrowdFunding.sol\":2340:2366  newRequest.completed=false */\n      0x0100\n      exp\n      dup2\n      sload\n      dup2\n      0xff\n      mul\n      not\n      and\n      swap1\n      dup4\n      iszero\n      iszero\n      mul\n      or\n      swap1\n      sstore\n      pop\n        /* \"contracts/CrowdFunding.sol\":2399:2400  0 */\n      0x00\n        /* \"contracts/CrowdFunding.sol\":2377:2387  newRequest */\n      dup2\n        /* \"contracts/CrowdFunding.sol\":2377:2398  newRequest.noOfVoters */\n      0x04\n      add\n        /* \"contracts/CrowdFunding.sol\":2377:2400  newRequest.noOfVoters=0 */\n      dup2\n      swap1\n      sstore\n      pop\n        /* \"contracts/CrowdFunding.sol\":2116:2408  {\r... */\n      pop\n        /* \"contracts/CrowdFunding.sol\":2007:2408  function createRequests(string memory _description,address payable _recipient,uint _value) public onlyManager{\r... */\n      pop\n      pop\n      pop\n      jump\t// out\n        /* \"contracts/CrowdFunding.sol\":192:214  address public manager */\n    tag_37:\n      0x01\n      0x00\n      swap1\n      sload\n      swap1\n      0x0100\n      exp\n      swap1\n      div\n      0xffffffffffffffffffffffffffffffffffffffff\n      and\n      dup2\n      jump\t// out\n        /* \"contracts/CrowdFunding.sol\":2417:2467  function voteRequest(uint _reqno) public{\r... */\n    tag_44:\n      pop\n      jump\t// out\n        /* \"contracts/CrowdFunding.sol\":370:398  uint public noOfContributors */\n    tag_47:\n      sload(0x06)\n      dup2\n      jump\t// out\n        /* \"contracts/CrowdFunding.sol\":1523:1872  function refund() public{\r... */\n    tag_51:\n        /* \"contracts/CrowdFunding.sol\":1582:1590  deadline */\n      sload(0x03)\n        /* \"contracts/CrowdFunding.sol\":1566:1581  block.timestamp */\n      timestamp\n        /* \"contracts/CrowdFunding.sol\":1566:1590  block.timestamp>deadline */\n      gt\n        /* \"contracts/CrowdFunding.sol\":1566:1613  block.timestamp>deadline && target>raisedAmount */\n      dup1\n      iszero\n      tag_95\n      jumpi\n      pop\n        /* \"contracts/CrowdFunding.sol\":1601:1613  raisedAmount */\n      sload(0x05)\n        /* \"contracts/CrowdFunding.sol\":1594:1600  target */\n      sload(0x04)\n        /* \"contracts/CrowdFunding.sol\":1594:1613  target>raisedAmount */\n      gt\n        /* \"contracts/CrowdFunding.sol\":1566:1613  block.timestamp>deadline && target>raisedAmount */\n    tag_95:\n        /* \"contracts/CrowdFunding.sol\":1558:1648  require(block.timestamp>deadline && target>raisedAmount,\"You are not eligible for refund\") */\n      tag_96\n      jumpi\n      mload(0x40)\n      0x08c379a000000000000000000000000000000000000000000000000000000000\n      dup2\n      mstore\n      0x04\n      add\n      tag_97\n      swap1\n      tag_98\n      jump\t// in\n    tag_97:\n      mload(0x40)\n      dup1\n      swap2\n      sub\n      swap1\n      revert\n    tag_96:\n        /* \"contracts/CrowdFunding.sol\":1692:1693  0 */\n      0x00\n        /* \"contracts/CrowdFunding.sol\":1667:1679  contributors */\n      dup1\n        /* \"contracts/CrowdFunding.sol\":1667:1691  contributors[msg.sender] */\n      0x00\n        /* \"contracts/CrowdFunding.sol\":1680:1690  msg.sender */\n      caller\n        /* \"contracts/CrowdFunding.sol\":1667:1691  contributors[msg.sender] */\n      0xffffffffffffffffffffffffffffffffffffffff\n      and\n      0xffffffffffffffffffffffffffffffffffffffff\n      and\n      dup2\n      mstore\n      0x20\n      add\n      swap1\n      dup2\n      mstore\n      0x20\n      add\n      0x00\n      keccak256\n      sload\n        /* \"contracts/CrowdFunding.sol\":1667:1693  contributors[msg.sender]>0 */\n      gt\n        /* \"contracts/CrowdFunding.sol\":1659:1724  require(contributors[msg.sender]>0,\"You haven't contributed yet\") */\n      tag_99\n      jumpi\n      mload(0x40)\n      0x08c379a000000000000000000000000000000000000000000000000000000000\n      dup2\n      mstore\n      0x04\n      add\n      tag_100\n      swap1\n      tag_101\n      jump\t// in\n    tag_100:\n      mload(0x40)\n      dup1\n      swap2\n      sub\n      swap1\n      revert\n    tag_99:\n        /* \"contracts/CrowdFunding.sol\":1735:1755  address payable user */\n      0x00\n        /* \"contracts/CrowdFunding.sol\":1766:1776  msg.sender */\n      caller\n        /* \"contracts/CrowdFunding.sol\":1735:1777  address payable user = payable(msg.sender) */\n      swap1\n      pop\n        /* \"contracts/CrowdFunding.sol\":1788:1792  user */\n      dup1\n        /* \"contracts/CrowdFunding.sol\":1788:1801  user.transfer */\n      0xffffffffffffffffffffffffffffffffffffffff\n      and\n        /* \"contracts/CrowdFunding.sol\":1788:1827  user.transfer(contributors[msg.sender]) */\n      0x08fc\n        /* \"contracts/CrowdFunding.sol\":1802:1814  contributors */\n      0x00\n        /* \"contracts/CrowdFunding.sol\":1802:1826  contributors[msg.sender] */\n      dup1\n        /* \"contracts/CrowdFunding.sol\":1815:1825  msg.sender */\n      caller\n        /* \"contracts/CrowdFunding.sol\":1802:1826  contributors[msg.sender] */\n      0xffffffffffffffffffffffffffffffffffffffff\n      and\n      0xffffffffffffffffffffffffffffffffffffffff\n      and\n      dup2\n      mstore\n      0x20\n      add\n      swap1\n      dup2\n      mstore\n      0x20\n      add\n      0x00\n      keccak256\n      sload\n        /* \"contracts/CrowdFunding.sol\":1788:1827  user.transfer(contributors[msg.sender]) */\n      swap1\n      dup2\n      iszero\n      mul\n      swap1\n      mload(0x40)\n      0x00\n      mload(0x40)\n      dup1\n      dup4\n      sub\n      dup2\n      dup6\n      dup9\n      dup9\n      call\n      swap4\n      pop\n      pop\n      pop\n      pop\n      iszero\n      dup1\n      iszero\n      tag_103\n      jumpi\n      returndatasize\n      0x00\n      dup1\n      returndatacopy\n      revert(0x00, returndatasize)\n    tag_103:\n      pop\n        /* \"contracts/CrowdFunding.sol\":1863:1864  0 */\n      0x00\n        /* \"contracts/CrowdFunding.sol\":1838:1850  contributors */\n      dup1\n        /* \"contracts/CrowdFunding.sol\":1838:1862  contributors[msg.sender] */\n      0x00\n        /* \"contracts/CrowdFunding.sol\":1851:1861  msg.sender */\n      caller\n        /* \"contracts/CrowdFunding.sol\":1838:1862  contributors[msg.sender] */\n      0xffffffffffffffffffffffffffffffffffffffff\n      and\n      0xffffffffffffffffffffffffffffffffffffffff\n      and\n      dup2\n      mstore\n      0x20\n      add\n      swap1\n      dup2\n      mstore\n      0x20\n      add\n      0x00\n      keccak256\n        /* \"contracts/CrowdFunding.sol\":1838:1864  contributors[msg.sender]=0 */\n      dup2\n      swap1\n      sstore\n      pop\n        /* \"contracts/CrowdFunding.sol\":1547:1872  {\r... */\n      pop\n        /* \"contracts/CrowdFunding.sol\":1523:1872  function refund() public{\r... */\n      jump\t// out\n        /* \"contracts/CrowdFunding.sol\":1413:1515  function getContractBalance() public view returns(uint){\r... */\n    tag_54:\n        /* \"contracts/CrowdFunding.sol\":1463:1467  uint */\n      0x00\n        /* \"contracts/CrowdFunding.sol\":1486:1507  address(this).balance */\n      selfbalance\n        /* \"contracts/CrowdFunding.sol\":1479:1507  return address(this).balance */\n      swap1\n      pop\n        /* \"contracts/CrowdFunding.sol\":1413:1515  function getContractBalance() public view returns(uint){\r... */\n      swap1\n      jump\t// out\n        /* \"contracts/CrowdFunding.sol\":744:767  uint public numRequests */\n    tag_58:\n      sload(0x08)\n      dup2\n      jump\t// out\n        /* \"contracts/CrowdFunding.sol\":233:260  uint public minContribution */\n    tag_62:\n      sload(0x02)\n      dup2\n      jump\t// out\n        /* \"contracts/CrowdFunding.sol\":339:363  uint public raisedAmount */\n    tag_66:\n      sload(0x05)\n      dup2\n      jump\t// out\n        /* \"contracts/CrowdFunding.sol\":295:313  uint public target */\n    tag_70:\n      sload(0x04)\n      dup2\n      jump\t// out\n    tag_92:\n      dup3\n      dup1\n      sload\n      tag_105\n      swap1\n      tag_106\n      jump\t// in\n    tag_105:\n      swap1\n      0x00\n      mstore\n      keccak256(0x00, 0x20)\n      swap1\n      0x1f\n      add\n      0x20\n      swap1\n      div\n      dup2\n      add\n      swap3\n      dup3\n      tag_108\n      jumpi\n      0x00\n      dup6\n      sstore\n      jump(tag_107)\n    tag_108:\n      dup3\n      0x1f\n      lt\n      tag_109\n      jumpi\n      dup1\n      mload\n      not(0xff)\n      and\n      dup4\n      dup1\n      add\n      or\n      dup6\n      sstore\n      jump(tag_107)\n    tag_109:\n      dup3\n      dup1\n      add\n      0x01\n      add\n      dup6\n      sstore\n      dup3\n      iszero\n      tag_107\n      jumpi\n      swap2\n      dup3\n      add\n    tag_110:\n      dup3\n      dup2\n      gt\n      iszero\n      tag_111\n      jumpi\n      dup3\n      mload\n      dup3\n      sstore\n      swap2\n      0x20\n      add\n      swap2\n      swap1\n      0x01\n      add\n      swap1\n      jump(tag_110)\n    tag_111:\n    tag_107:\n      pop\n      swap1\n      pop\n      tag_112\n      swap2\n      swap1\n      tag_113\n      jump\t// in\n    tag_112:\n      pop\n      swap1\n      jump\t// out\n    tag_113:\n    tag_114:\n      dup1\n      dup3\n      gt\n      iszero\n      tag_115\n      jumpi\n      0x00\n      dup2\n      0x00\n      swap1\n      sstore\n      pop\n      0x01\n      add\n      jump(tag_114)\n    tag_115:\n      pop\n      swap1\n      jump\t// out\n        /* \"#utility.yul\":7:419   */\n    tag_117:\n        /* \"#utility.yul\":85:90   */\n      0x00\n        /* \"#utility.yul\":110:176   */\n      tag_119\n        /* \"#utility.yul\":126:175   */\n      tag_120\n        /* \"#utility.yul\":168:174   */\n      dup5\n        /* \"#utility.yul\":126:175   */\n      tag_121\n      jump\t// in\n    tag_120:\n        /* \"#utility.yul\":110:176   */\n      tag_122\n      jump\t// in\n    tag_119:\n        /* \"#utility.yul\":101:176   */\n      swap1\n      pop\n        /* \"#utility.yul\":199:205   */\n      dup3\n        /* \"#utility.yul\":192:197   */\n      dup2\n        /* \"#utility.yul\":185:206   */\n      mstore\n        /* \"#utility.yul\":237:241   */\n      0x20\n        /* \"#utility.yul\":230:235   */\n      dup2\n        /* \"#utility.yul\":226:242   */\n      add\n        /* \"#utility.yul\":275:278   */\n      dup5\n        /* \"#utility.yul\":266:272   */\n      dup5\n        /* \"#utility.yul\":261:264   */\n      dup5\n        /* \"#utility.yul\":257:273   */\n      add\n        /* \"#utility.yul\":254:279   */\n      gt\n        /* \"#utility.yul\":251:363   */\n      iszero\n      tag_123\n      jumpi\n        /* \"#utility.yul\":282:361   */\n      tag_124\n      tag_125\n      jump\t// in\n    tag_124:\n        /* \"#utility.yul\":251:363   */\n    tag_123:\n        /* \"#utility.yul\":372:413   */\n      tag_126\n        /* \"#utility.yul\":406:412   */\n      dup5\n        /* \"#utility.yul\":401:404   */\n      dup3\n        /* \"#utility.yul\":396:399   */\n      dup6\n        /* \"#utility.yul\":372:413   */\n      tag_127\n      jump\t// in\n    tag_126:\n        /* \"#utility.yul\":91:419   */\n      pop\n        /* \"#utility.yul\":7:419   */\n      swap4\n      swap3\n      pop\n      pop\n      pop\n      jump\t// out\n        /* \"#utility.yul\":425:564   */\n    tag_128:\n        /* \"#utility.yul\":471:476   */\n      0x00\n        /* \"#utility.yul\":509:515   */\n      dup2\n        /* \"#utility.yul\":496:516   */\n      calldataload\n        /* \"#utility.yul\":487:516   */\n      swap1\n      pop\n        /* \"#utility.yul\":525:558   */\n      tag_130\n        /* \"#utility.yul\":552:557   */\n      dup2\n        /* \"#utility.yul\":525:558   */\n      tag_131\n      jump\t// in\n    tag_130:\n        /* \"#utility.yul\":425:564   */\n      swap3\n      swap2\n      pop\n      pop\n      jump\t// out\n        /* \"#utility.yul\":570:725   */\n    tag_132:\n        /* \"#utility.yul\":624:629   */\n      0x00\n        /* \"#utility.yul\":662:668   */\n      dup2\n        /* \"#utility.yul\":649:669   */\n      calldataload\n        /* \"#utility.yul\":640:669   */\n      swap1\n      pop\n        /* \"#utility.yul\":678:719   */\n      tag_134\n        /* \"#utility.yul\":713:718   */\n      dup2\n        /* \"#utility.yul\":678:719   */\n      tag_135\n      jump\t// in\n    tag_134:\n        /* \"#utility.yul\":570:725   */\n      swap3\n      swap2\n      pop\n      pop\n      jump\t// out\n        /* \"#utility.yul\":745:1085   */\n    tag_136:\n        /* \"#utility.yul\":801:806   */\n      0x00\n        /* \"#utility.yul\":850:853   */\n      dup3\n        /* \"#utility.yul\":843:847   */\n      0x1f\n        /* \"#utility.yul\":835:841   */\n      dup4\n        /* \"#utility.yul\":831:848   */\n      add\n        /* \"#utility.yul\":827:854   */\n      slt\n        /* \"#utility.yul\":817:939   */\n      tag_138\n      jumpi\n        /* \"#utility.yul\":858:937   */\n      tag_139\n      tag_140\n      jump\t// in\n    tag_139:\n        /* \"#utility.yul\":817:939   */\n    tag_138:\n        /* \"#utility.yul\":975:981   */\n      dup2\n        /* \"#utility.yul\":962:982   */\n      calldataload\n        /* \"#utility.yul\":1000:1079   */\n      tag_141\n        /* \"#utility.yul\":1075:1078   */\n      dup5\n        /* \"#utility.yul\":1067:1073   */\n      dup3\n        /* \"#utility.yul\":1060:1064   */\n      0x20\n        /* \"#utility.yul\":1052:1058   */\n      dup7\n        /* \"#utility.yul\":1048:1065   */\n      add\n        /* \"#utility.yul\":1000:1079   */\n      tag_117\n      jump\t// in\n    tag_141:\n        /* \"#utility.yul\":991:1079   */\n      swap2\n      pop\n        /* \"#utility.yul\":807:1085   */\n      pop\n        /* \"#utility.yul\":745:1085   */\n      swap3\n      swap2\n      pop\n      pop\n      jump\t// out\n        /* \"#utility.yul\":1091:1230   */\n    tag_142:\n        /* \"#utility.yul\":1137:1142   */\n      0x00\n        /* \"#utility.yul\":1175:1181   */\n      dup2\n        /* \"#utility.yul\":1162:1182   */\n      calldataload\n        /* \"#utility.yul\":1153:1182   */\n      swap1\n      pop\n        /* \"#utility.yul\":1191:1224   */\n      tag_144\n        /* \"#utility.yul\":1218:1223   */\n      dup2\n        /* \"#utility.yul\":1191:1224   */\n      tag_145\n      jump\t// in\n    tag_144:\n        /* \"#utility.yul\":1091:1230   */\n      swap3\n      swap2\n      pop\n      pop\n      jump\t// out\n        /* \"#utility.yul\":1236:1565   */\n    tag_22:\n        /* \"#utility.yul\":1295:1301   */\n      0x00\n        /* \"#utility.yul\":1344:1346   */\n      0x20\n        /* \"#utility.yul\":1332:1341   */\n      dup3\n        /* \"#utility.yul\":1323:1330   */\n      dup5\n        /* \"#utility.yul\":1319:1342   */\n      sub\n        /* \"#utility.yul\":1315:1347   */\n      slt\n        /* \"#utility.yul\":1312:1431   */\n      iszero\n      tag_147\n      jumpi\n        /* \"#utility.yul\":1350:1429   */\n      tag_148\n      tag_149\n      jump\t// in\n    tag_148:\n        /* \"#utility.yul\":1312:1431   */\n    tag_147:\n        /* \"#utility.yul\":1470:1471   */\n      0x00\n        /* \"#utility.yul\":1495:1548   */\n      tag_150\n        /* \"#utility.yul\":1540:1547   */\n      dup5\n        /* \"#utility.yul\":1531:1537   */\n      dup3\n        /* \"#utility.yul\":1520:1529   */\n      dup6\n        /* \"#utility.yul\":1516:1538   */\n      add\n        /* \"#utility.yul\":1495:1548   */\n      tag_128\n      jump\t// in\n    tag_150:\n        /* \"#utility.yul\":1485:1548   */\n      swap2\n      pop\n        /* \"#utility.yul\":1441:1558   */\n      pop\n        /* \"#utility.yul\":1236:1565   */\n      swap3\n      swap2\n      pop\n      pop\n      jump\t// out\n        /* \"#utility.yul\":1571:2386   */\n    tag_33:\n        /* \"#utility.yul\":1666:1672   */\n      0x00\n        /* \"#utility.yul\":1674:1680   */\n      dup1\n        /* \"#utility.yul\":1682:1688   */\n      0x00\n        /* \"#utility.yul\":1731:1733   */\n      0x60\n        /* \"#utility.yul\":1719:1728   */\n      dup5\n        /* \"#utility.yul\":1710:1717   */\n      dup7\n        /* \"#utility.yul\":1706:1729   */\n      sub\n        /* \"#utility.yul\":1702:1734   */\n      slt\n        /* \"#utility.yul\":1699:1818   */\n      iszero\n      tag_152\n      jumpi\n        /* \"#utility.yul\":1737:1816   */\n      tag_153\n      tag_149\n      jump\t// in\n    tag_153:\n        /* \"#utility.yul\":1699:1818   */\n    tag_152:\n        /* \"#utility.yul\":1885:1886   */\n      0x00\n        /* \"#utility.yul\":1874:1883   */\n      dup5\n        /* \"#utility.yul\":1870:1887   */\n      add\n        /* \"#utility.yul\":1857:1888   */\n      calldataload\n        /* \"#utility.yul\":1915:1933   */\n      0xffffffffffffffff\n        /* \"#utility.yul\":1907:1913   */\n      dup2\n        /* \"#utility.yul\":1904:1934   */\n      gt\n        /* \"#utility.yul\":1901:2018   */\n      iszero\n      tag_154\n      jumpi\n        /* \"#utility.yul\":1937:2016   */\n      tag_155\n      tag_156\n      jump\t// in\n    tag_155:\n        /* \"#utility.yul\":1901:2018   */\n    tag_154:\n        /* \"#utility.yul\":2042:2105   */\n      tag_157\n        /* \"#utility.yul\":2097:2104   */\n      dup7\n        /* \"#utility.yul\":2088:2094   */\n      dup3\n        /* \"#utility.yul\":2077:2086   */\n      dup8\n        /* \"#utility.yul\":2073:2095   */\n      add\n        /* \"#utility.yul\":2042:2105   */\n      tag_136\n      jump\t// in\n    tag_157:\n        /* \"#utility.yul\":2032:2105   */\n      swap4\n      pop\n        /* \"#utility.yul\":1828:2115   */\n      pop\n        /* \"#utility.yul\":2154:2156   */\n      0x20\n        /* \"#utility.yul\":2180:2241   */\n      tag_158\n        /* \"#utility.yul\":2233:2240   */\n      dup7\n        /* \"#utility.yul\":2224:2230   */\n      dup3\n        /* \"#utility.yul\":2213:2222   */\n      dup8\n        /* \"#utility.yul\":2209:2231   */\n      add\n        /* \"#utility.yul\":2180:2241   */\n      tag_132\n      jump\t// in\n    tag_158:\n        /* \"#utility.yul\":2170:2241   */\n      swap3\n      pop\n        /* \"#utility.yul\":2125:2251   */\n      pop\n        /* \"#utility.yul\":2290:2292   */\n      0x40\n        /* \"#utility.yul\":2316:2369   */\n      tag_159\n        /* \"#utility.yul\":2361:2368   */\n      dup7\n        /* \"#utility.yul\":2352:2358   */\n      dup3\n        /* \"#utility.yul\":2341:2350   */\n      dup8\n        /* \"#utility.yul\":2337:2359   */\n      add\n        /* \"#utility.yul\":2316:2369   */\n      tag_142\n      jump\t// in\n    tag_159:\n        /* \"#utility.yul\":2306:2369   */\n      swap2\n      pop\n        /* \"#utility.yul\":2261:2379   */\n      pop\n        /* \"#utility.yul\":1571:2386   */\n      swap3\n      pop\n      swap3\n      pop\n      swap3\n      jump\t// out\n        /* \"#utility.yul\":2392:2721   */\n    tag_43:\n        /* \"#utility.yul\":2451:2457   */\n      0x00\n        /* \"#utility.yul\":2500:2502   */\n      0x20\n        /* \"#utility.yul\":2488:2497   */\n      dup3\n        /* \"#utility.yul\":2479:2486   */\n      dup5\n        /* \"#utility.yul\":2475:2498   */\n      sub\n        /* \"#utility.yul\":2471:2503   */\n      slt\n        /* \"#utility.yul\":2468:2587   */\n      iszero\n      tag_161\n      jumpi\n        /* \"#utility.yul\":2506:2585   */\n      tag_162\n      tag_149\n      jump\t// in\n    tag_162:\n        /* \"#utility.yul\":2468:2587   */\n    tag_161:\n        /* \"#utility.yul\":2626:2627   */\n      0x00\n        /* \"#utility.yul\":2651:2704   */\n      tag_163\n        /* \"#utility.yul\":2696:2703   */\n      dup5\n        /* \"#utility.yul\":2687:2693   */\n      dup3\n        /* \"#utility.yul\":2676:2685   */\n      dup6\n        /* \"#utility.yul\":2672:2694   */\n      add\n        /* \"#utility.yul\":2651:2704   */\n      tag_142\n      jump\t// in\n    tag_163:\n        /* \"#utility.yul\":2641:2704   */\n      swap2\n      pop\n        /* \"#utility.yul\":2597:2714   */\n      pop\n        /* \"#utility.yul\":2392:2721   */\n      swap3\n      swap2\n      pop\n      pop\n      jump\t// out\n        /* \"#utility.yul\":2727:2845   */\n    tag_164:\n        /* \"#utility.yul\":2814:2838   */\n      tag_166\n        /* \"#utility.yul\":2832:2837   */\n      dup2\n        /* \"#utility.yul\":2814:2838   */\n      tag_167\n      jump\t// in\n    tag_166:\n        /* \"#utility.yul\":2809:2812   */\n      dup3\n        /* \"#utility.yul\":2802:2839   */\n      mstore\n        /* \"#utility.yul\":2727:2845   */\n      pop\n      pop\n      jump\t// out\n        /* \"#utility.yul\":2851:3217   */\n    tag_168:\n        /* \"#utility.yul\":2993:2996   */\n      0x00\n        /* \"#utility.yul\":3014:3081   */\n      tag_170\n        /* \"#utility.yul\":3078:3080   */\n      0x23\n        /* \"#utility.yul\":3073:3076   */\n      dup4\n        /* \"#utility.yul\":3014:3081   */\n      tag_171\n      jump\t// in\n    tag_170:\n        /* \"#utility.yul\":3007:3081   */\n      swap2\n      pop\n        /* \"#utility.yul\":3090:3183   */\n      tag_172\n        /* \"#utility.yul\":3179:3182   */\n      dup3\n        /* \"#utility.yul\":3090:3183   */\n      tag_173\n      jump\t// in\n    tag_172:\n        /* \"#utility.yul\":3208:3210   */\n      0x40\n        /* \"#utility.yul\":3203:3206   */\n      dup3\n        /* \"#utility.yul\":3199:3211   */\n      add\n        /* \"#utility.yul\":3192:3211   */\n      swap1\n      pop\n        /* \"#utility.yul\":2851:3217   */\n      swap2\n      swap1\n      pop\n      jump\t// out\n        /* \"#utility.yul\":3223:3589   */\n    tag_174:\n        /* \"#utility.yul\":3365:3368   */\n      0x00\n        /* \"#utility.yul\":3386:3453   */\n      tag_176\n        /* \"#utility.yul\":3450:3452   */\n      0x23\n        /* \"#utility.yul\":3445:3448   */\n      dup4\n        /* \"#utility.yul\":3386:3453   */\n      tag_171\n      jump\t// in\n    tag_176:\n        /* \"#utility.yul\":3379:3453   */\n      swap2\n      pop\n        /* \"#utility.yul\":3462:3555   */\n      tag_177\n        /* \"#utility.yul\":3551:3554   */\n      dup3\n        /* \"#utility.yul\":3462:3555   */\n      tag_178\n      jump\t// in\n    tag_177:\n        /* \"#utility.yul\":3580:3582   */\n      0x40\n        /* \"#utility.yul\":3575:3578   */\n      dup3\n        /* \"#utility.yul\":3571:3583   */\n      add\n        /* \"#utility.yul\":3564:3583   */\n      swap1\n      pop\n        /* \"#utility.yul\":3223:3589   */\n      swap2\n      swap1\n      pop\n      jump\t// out\n        /* \"#utility.yul\":3595:3961   */\n    tag_179:\n        /* \"#utility.yul\":3737:3740   */\n      0x00\n        /* \"#utility.yul\":3758:3825   */\n      tag_181\n        /* \"#utility.yul\":3822:3824   */\n      0x1b\n        /* \"#utility.yul\":3817:3820   */\n      dup4\n        /* \"#utility.yul\":3758:3825   */\n      tag_171\n      jump\t// in\n    tag_181:\n        /* \"#utility.yul\":3751:3825   */\n      swap2\n      pop\n        /* \"#utility.yul\":3834:3927   */\n      tag_182\n        /* \"#utility.yul\":3923:3926   */\n      dup3\n        /* \"#utility.yul\":3834:3927   */\n      tag_183\n      jump\t// in\n    tag_182:\n        /* \"#utility.yul\":3952:3954   */\n      0x20\n        /* \"#utility.yul\":3947:3950   */\n      dup3\n        /* \"#utility.yul\":3943:3955   */\n      add\n        /* \"#utility.yul\":3936:3955   */\n      swap1\n      pop\n        /* \"#utility.yul\":3595:3961   */\n      swap2\n      swap1\n      pop\n      jump\t// out\n        /* \"#utility.yul\":3967:4333   */\n    tag_184:\n        /* \"#utility.yul\":4109:4112   */\n      0x00\n        /* \"#utility.yul\":4130:4197   */\n      tag_186\n        /* \"#utility.yul\":4194:4196   */\n      0x1f\n        /* \"#utility.yul\":4189:4192   */\n      dup4\n        /* \"#utility.yul\":4130:4197   */\n      tag_171\n      jump\t// in\n    tag_186:\n        /* \"#utility.yul\":4123:4197   */\n      swap2\n      pop\n        /* \"#utility.yul\":4206:4299   */\n      tag_187\n        /* \"#utility.yul\":4295:4298   */\n      dup3\n        /* \"#utility.yul\":4206:4299   */\n      tag_188\n      jump\t// in\n    tag_187:\n        /* \"#utility.yul\":4324:4326   */\n      0x20\n        /* \"#utility.yul\":4319:4322   */\n      dup3\n        /* \"#utility.yul\":4315:4327   */\n      add\n        /* \"#utility.yul\":4308:4327   */\n      swap1\n      pop\n        /* \"#utility.yul\":3967:4333   */\n      swap2\n      swap1\n      pop\n      jump\t// out\n        /* \"#utility.yul\":4339:4705   */\n    tag_189:\n        /* \"#utility.yul\":4481:4484   */\n      0x00\n        /* \"#utility.yul\":4502:4569   */\n      tag_191\n        /* \"#utility.yul\":4566:4568   */\n      0x15\n        /* \"#utility.yul\":4561:4564   */\n      dup4\n        /* \"#utility.yul\":4502:4569   */\n      tag_171\n      jump\t// in\n    tag_191:\n        /* \"#utility.yul\":4495:4569   */\n      swap2\n      pop\n        /* \"#utility.yul\":4578:4671   */\n      tag_192\n        /* \"#utility.yul\":4667:4670   */\n      dup3\n        /* \"#utility.yul\":4578:4671   */\n      tag_193\n      jump\t// in\n    tag_192:\n        /* \"#utility.yul\":4696:4698   */\n      0x20\n        /* \"#utility.yul\":4691:4694   */\n      dup3\n        /* \"#utility.yul\":4687:4699   */\n      add\n        /* \"#utility.yul\":4680:4699   */\n      swap1\n      pop\n        /* \"#utility.yul\":4339:4705   */\n      swap2\n      swap1\n      pop\n      jump\t// out\n        /* \"#utility.yul\":4711:4829   */\n    tag_194:\n        /* \"#utility.yul\":4798:4822   */\n      tag_196\n        /* \"#utility.yul\":4816:4821   */\n      dup2\n        /* \"#utility.yul\":4798:4822   */\n      tag_197\n      jump\t// in\n    tag_196:\n        /* \"#utility.yul\":4793:4796   */\n      dup3\n        /* \"#utility.yul\":4786:4823   */\n      mstore\n        /* \"#utility.yul\":4711:4829   */\n      pop\n      pop\n      jump\t// out\n        /* \"#utility.yul\":4835:5057   */\n    tag_39:\n        /* \"#utility.yul\":4928:4932   */\n      0x00\n        /* \"#utility.yul\":4966:4968   */\n      0x20\n        /* \"#utility.yul\":4955:4964   */\n      dup3\n        /* \"#utility.yul\":4951:4969   */\n      add\n        /* \"#utility.yul\":4943:4969   */\n      swap1\n      pop\n        /* \"#utility.yul\":4979:5050   */\n      tag_199\n        /* \"#utility.yul\":5047:5048   */\n      0x00\n        /* \"#utility.yul\":5036:5045   */\n      dup4\n        /* \"#utility.yul\":5032:5049   */\n      add\n        /* \"#utility.yul\":5023:5029   */\n      dup5\n        /* \"#utility.yul\":4979:5050   */\n      tag_164\n      jump\t// in\n    tag_199:\n        /* \"#utility.yul\":4835:5057   */\n      swap3\n      swap2\n      pop\n      pop\n      jump\t// out\n        /* \"#utility.yul\":5063:5482   */\n    tag_88:\n        /* \"#utility.yul\":5229:5233   */\n      0x00\n        /* \"#utility.yul\":5267:5269   */\n      0x20\n        /* \"#utility.yul\":5256:5265   */\n      dup3\n        /* \"#utility.yul\":5252:5270   */\n      add\n        /* \"#utility.yul\":5244:5270   */\n      swap1\n      pop\n        /* \"#utility.yul\":5316:5325   */\n      dup2\n        /* \"#utility.yul\":5310:5314   */\n      dup2\n        /* \"#utility.yul\":5306:5326   */\n      sub\n        /* \"#utility.yul\":5302:5303   */\n      0x00\n        /* \"#utility.yul\":5291:5300   */\n      dup4\n        /* \"#utility.yul\":5287:5304   */\n      add\n        /* \"#utility.yul\":5280:5327   */\n      mstore\n        /* \"#utility.yul\":5344:5475   */\n      tag_201\n        /* \"#utility.yul\":5470:5474   */\n      dup2\n        /* \"#utility.yul\":5344:5475   */\n      tag_168\n      jump\t// in\n    tag_201:\n        /* \"#utility.yul\":5336:5475   */\n      swap1\n      pop\n        /* \"#utility.yul\":5063:5482   */\n      swap2\n      swap1\n      pop\n      jump\t// out\n        /* \"#utility.yul\":5488:5907   */\n    tag_78:\n        /* \"#utility.yul\":5654:5658   */\n      0x00\n        /* \"#utility.yul\":5692:5694   */\n      0x20\n        /* \"#utility.yul\":5681:5690   */\n      dup3\n        /* \"#utility.yul\":5677:5695   */\n      add\n        /* \"#utility.yul\":5669:5695   */\n      swap1\n      pop\n        /* \"#utility.yul\":5741:5750   */\n      dup2\n        /* \"#utility.yul\":5735:5739   */\n      dup2\n        /* \"#utility.yul\":5731:5751   */\n      sub\n        /* \"#utility.yul\":5727:5728   */\n      0x00\n        /* \"#utility.yul\":5716:5725   */\n      dup4\n        /* \"#utility.yul\":5712:5729   */\n      add\n        /* \"#utility.yul\":5705:5752   */\n      mstore\n        /* \"#utility.yul\":5769:5900   */\n      tag_203\n        /* \"#utility.yul\":5895:5899   */\n      dup2\n        /* \"#utility.yul\":5769:5900   */\n      tag_174\n      jump\t// in\n    tag_203:\n        /* \"#utility.yul\":5761:5900   */\n      swap1\n      pop\n        /* \"#utility.yul\":5488:5907   */\n      swap2\n      swap1\n      pop\n      jump\t// out\n        /* \"#utility.yul\":5913:6332   */\n    tag_101:\n        /* \"#utility.yul\":6079:6083   */\n      0x00\n        /* \"#utility.yul\":6117:6119   */\n      0x20\n        /* \"#utility.yul\":6106:6115   */\n      dup3\n        /* \"#utility.yul\":6102:6120   */\n      add\n        /* \"#utility.yul\":6094:6120   */\n      swap1\n      pop\n        /* \"#utility.yul\":6166:6175   */\n      dup2\n        /* \"#utility.yul\":6160:6164   */\n      dup2\n        /* \"#utility.yul\":6156:6176   */\n      sub\n        /* \"#utility.yul\":6152:6153   */\n      0x00\n        /* \"#utility.yul\":6141:6150   */\n      dup4\n        /* \"#utility.yul\":6137:6154   */\n      add\n        /* \"#utility.yul\":6130:6177   */\n      mstore\n        /* \"#utility.yul\":6194:6325   */\n      tag_205\n        /* \"#utility.yul\":6320:6324   */\n      dup2\n        /* \"#utility.yul\":6194:6325   */\n      tag_179\n      jump\t// in\n    tag_205:\n        /* \"#utility.yul\":6186:6325   */\n      swap1\n      pop\n        /* \"#utility.yul\":5913:6332   */\n      swap2\n      swap1\n      pop\n      jump\t// out\n        /* \"#utility.yul\":6338:6757   */\n    tag_98:\n        /* \"#utility.yul\":6504:6508   */\n      0x00\n        /* \"#utility.yul\":6542:6544   */\n      0x20\n        /* \"#utility.yul\":6531:6540   */\n      dup3\n        /* \"#utility.yul\":6527:6545   */\n      add\n        /* \"#utility.yul\":6519:6545   */\n      swap1\n      pop\n        /* \"#utility.yul\":6591:6600   */\n      dup2\n        /* \"#utility.yul\":6585:6589   */\n      dup2\n        /* \"#utility.yul\":6581:6601   */\n      sub\n        /* \"#utility.yul\":6577:6578   */\n      0x00\n        /* \"#utility.yul\":6566:6575   */\n      dup4\n        /* \"#utility.yul\":6562:6579   */\n      add\n        /* \"#utility.yul\":6555:6602   */\n      mstore\n        /* \"#utility.yul\":6619:6750   */\n      tag_207\n        /* \"#utility.yul\":6745:6749   */\n      dup2\n        /* \"#utility.yul\":6619:6750   */\n      tag_184\n      jump\t// in\n    tag_207:\n        /* \"#utility.yul\":6611:6750   */\n      swap1\n      pop\n        /* \"#utility.yul\":6338:6757   */\n      swap2\n      swap1\n      pop\n      jump\t// out\n        /* \"#utility.yul\":6763:7182   */\n    tag_75:\n        /* \"#utility.yul\":6929:6933   */\n      0x00\n        /* \"#utility.yul\":6967:6969   */\n      0x20\n        /* \"#utility.yul\":6956:6965   */\n      dup3\n        /* \"#utility.yul\":6952:6970   */\n      add\n        /* \"#utility.yul\":6944:6970   */\n      swap1\n      pop\n        /* \"#utility.yul\":7016:7025   */\n      dup2\n        /* \"#utility.yul\":7010:7014   */\n      dup2\n        /* \"#utility.yul\":7006:7026   */\n      sub\n        /* \"#utility.yul\":7002:7003   */\n      0x00\n        /* \"#utility.yul\":6991:7000   */\n      dup4\n        /* \"#utility.yul\":6987:7004   */\n      add\n        /* \"#utility.yul\":6980:7027   */\n      mstore\n        /* \"#utility.yul\":7044:7175   */\n      tag_209\n        /* \"#utility.yul\":7170:7174   */\n      dup2\n        /* \"#utility.yul\":7044:7175   */\n      tag_189\n      jump\t// in\n    tag_209:\n        /* \"#utility.yul\":7036:7175   */\n      swap1\n      pop\n        /* \"#utility.yul\":6763:7182   */\n      swap2\n      swap1\n      pop\n      jump\t// out\n        /* \"#utility.yul\":7188:7410   */\n    tag_25:\n        /* \"#utility.yul\":7281:7285   */\n      0x00\n        /* \"#utility.yul\":7319:7321   */\n      0x20\n        /* \"#utility.yul\":7308:7317   */\n      dup3\n        /* \"#utility.yul\":7304:7322   */\n      add\n        /* \"#utility.yul\":7296:7322   */\n      swap1\n      pop\n        /* \"#utility.yul\":7332:7403   */\n      tag_211\n        /* \"#utility.yul\":7400:7401   */\n      0x00\n        /* \"#utility.yul\":7389:7398   */\n      dup4\n        /* \"#utility.yul\":7385:7402   */\n      add\n        /* \"#utility.yul\":7376:7382   */\n      dup5\n        /* \"#utility.yul\":7332:7403   */\n      tag_194\n      jump\t// in\n    tag_211:\n        /* \"#utility.yul\":7188:7410   */\n      swap3\n      swap2\n      pop\n      pop\n      jump\t// out\n        /* \"#utility.yul\":7416:7545   */\n    tag_122:\n        /* \"#utility.yul\":7450:7456   */\n      0x00\n        /* \"#utility.yul\":7477:7497   */\n      tag_213\n      tag_214\n      jump\t// in\n    tag_213:\n        /* \"#utility.yul\":7467:7497   */\n      swap1\n      pop\n        /* \"#utility.yul\":7506:7539   */\n      tag_215\n        /* \"#utility.yul\":7534:7538   */\n      dup3\n        /* \"#utility.yul\":7526:7532   */\n      dup3\n        /* \"#utility.yul\":7506:7539   */\n      tag_216\n      jump\t// in\n    tag_215:\n        /* \"#utility.yul\":7416:7545   */\n      swap2\n      swap1\n      pop\n      jump\t// out\n        /* \"#utility.yul\":7551:7626   */\n    tag_214:\n        /* \"#utility.yul\":7584:7590   */\n      0x00\n        /* \"#utility.yul\":7617:7619   */\n      0x40\n        /* \"#utility.yul\":7611:7620   */\n      mload\n        /* \"#utility.yul\":7601:7620   */\n      swap1\n      pop\n        /* \"#utility.yul\":7551:7626   */\n      swap1\n      jump\t// out\n        /* \"#utility.yul\":7632:7940   */\n    tag_121:\n        /* \"#utility.yul\":7694:7698   */\n      0x00\n        /* \"#utility.yul\":7784:7802   */\n      0xffffffffffffffff\n        /* \"#utility.yul\":7776:7782   */\n      dup3\n        /* \"#utility.yul\":7773:7803   */\n      gt\n        /* \"#utility.yul\":7770:7826   */\n      iszero\n      tag_219\n      jumpi\n        /* \"#utility.yul\":7806:7824   */\n      tag_220\n      tag_221\n      jump\t// in\n    tag_220:\n        /* \"#utility.yul\":7770:7826   */\n    tag_219:\n        /* \"#utility.yul\":7844:7873   */\n      tag_222\n        /* \"#utility.yul\":7866:7872   */\n      dup3\n        /* \"#utility.yul\":7844:7873   */\n      tag_223\n      jump\t// in\n    tag_222:\n        /* \"#utility.yul\":7836:7873   */\n      swap1\n      pop\n        /* \"#utility.yul\":7928:7932   */\n      0x20\n        /* \"#utility.yul\":7922:7926   */\n      dup2\n        /* \"#utility.yul\":7918:7933   */\n      add\n        /* \"#utility.yul\":7910:7933   */\n      swap1\n      pop\n        /* \"#utility.yul\":7632:7940   */\n      swap2\n      swap1\n      pop\n      jump\t// out\n        /* \"#utility.yul\":7946:8115   */\n    tag_171:\n        /* \"#utility.yul\":8030:8041   */\n      0x00\n        /* \"#utility.yul\":8064:8070   */\n      dup3\n        /* \"#utility.yul\":8059:8062   */\n      dup3\n        /* \"#utility.yul\":8052:8071   */\n      mstore\n        /* \"#utility.yul\":8104:8108   */\n      0x20\n        /* \"#utility.yul\":8099:8102   */\n      dup3\n        /* \"#utility.yul\":8095:8109   */\n      add\n        /* \"#utility.yul\":8080:8109   */\n      swap1\n      pop\n        /* \"#utility.yul\":7946:8115   */\n      swap3\n      swap2\n      pop\n      pop\n      jump\t// out\n        /* \"#utility.yul\":8121:8426   */\n    tag_83:\n        /* \"#utility.yul\":8161:8164   */\n      0x00\n        /* \"#utility.yul\":8180:8200   */\n      tag_226\n        /* \"#utility.yul\":8198:8199   */\n      dup3\n        /* \"#utility.yul\":8180:8200   */\n      tag_197\n      jump\t// in\n    tag_226:\n        /* \"#utility.yul\":8175:8200   */\n      swap2\n      pop\n        /* \"#utility.yul\":8214:8234   */\n      tag_227\n        /* \"#utility.yul\":8232:8233   */\n      dup4\n        /* \"#utility.yul\":8214:8234   */\n      tag_197\n      jump\t// in\n    tag_227:\n        /* \"#utility.yul\":8209:8234   */\n      swap3\n      pop\n        /* \"#utility.yul\":8368:8369   */\n      dup3\n        /* \"#utility.yul\":8300:8366   */\n      0xffffffffffffffffffffffffffffffffffffffffffffffffffffffffffffffff\n        /* \"#utility.yul\":8296:8370   */\n      sub\n        /* \"#utility.yul\":8293:8294   */\n      dup3\n        /* \"#utility.yul\":8290:8371   */\n      gt\n        /* \"#utility.yul\":8287:8394   */\n      iszero\n      tag_228\n      jumpi\n        /* \"#utility.yul\":8374:8392   */\n      tag_229\n      tag_230\n      jump\t// in\n    tag_229:\n        /* \"#utility.yul\":8287:8394   */\n    tag_228:\n        /* \"#utility.yul\":8418:8419   */\n      dup3\n        /* \"#utility.yul\":8415:8416   */\n      dup3\n        /* \"#utility.yul\":8411:8420   */\n      add\n        /* \"#utility.yul\":8404:8420   */\n      swap1\n      pop\n        /* \"#utility.yul\":8121:8426   */\n      swap3\n      swap2\n      pop\n      pop\n      jump\t// out\n        /* \"#utility.yul\":8432:8528   */\n    tag_167:\n        /* \"#utility.yul\":8469:8476   */\n      0x00\n        /* \"#utility.yul\":8498:8522   */\n      tag_232\n        /* \"#utility.yul\":8516:8521   */\n      dup3\n        /* \"#utility.yul\":8498:8522   */\n      tag_233\n      jump\t// in\n    tag_232:\n        /* \"#utility.yul\":8487:8522   */\n      swap1\n      pop\n        /* \"#utility.yul\":8432:8528   */\n      swap2\n      swap1\n      pop\n      jump\t// out\n        /* \"#utility.yul\":8534:8638   */\n    tag_234:\n        /* \"#utility.yul\":8579:8586   */\n      0x00\n        /* \"#utility.yul\":8608:8632   */\n      tag_236\n        /* \"#utility.yul\":8626:8631   */\n      dup3\n        /* \"#utility.yul\":8608:8632   */\n      tag_233\n      jump\t// in\n    tag_236:\n        /* \"#utility.yul\":8597:8632   */\n      swap1\n      pop\n        /* \"#utility.yul\":8534:8638   */\n      swap2\n      swap1\n      pop\n      jump\t// out\n        /* \"#utility.yul\":8644:8770   */\n    tag_233:\n        /* \"#utility.yul\":8681:8688   */\n      0x00\n        /* \"#utility.yul\":8721:8763   */\n      0xffffffffffffffffffffffffffffffffffffffff\n        /* \"#utility.yul\":8714:8719   */\n      dup3\n        /* \"#utility.yul\":8710:8764   */\n      and\n        /* \"#utility.yul\":8699:8764   */\n      swap1\n      pop\n        /* \"#utility.yul\":8644:8770   */\n      swap2\n      swap1\n      pop\n      jump\t// out\n        /* \"#utility.yul\":8776:8853   */\n    tag_197:\n        /* \"#utility.yul\":8813:8820   */\n      0x00\n        /* \"#utility.yul\":8842:8847   */\n      dup2\n        /* \"#utility.yul\":8831:8847   */\n      swap1\n      pop\n        /* \"#utility.yul\":8776:8853   */\n      swap2\n      swap1\n      pop\n      jump\t// out\n        /* \"#utility.yul\":8859:9013   */\n    tag_127:\n        /* \"#utility.yul\":8943:8949   */\n      dup3\n        /* \"#utility.yul\":8938:8941   */\n      dup2\n        /* \"#utility.yul\":8933:8936   */\n      dup4\n        /* \"#utility.yul\":8920:8950   */\n      calldatacopy\n        /* \"#utility.yul\":9005:9006   */\n      0x00\n        /* \"#utility.yul\":8996:9002   */\n      dup4\n        /* \"#utility.yul\":8991:8994   */\n      dup4\n        /* \"#utility.yul\":8987:9003   */\n      add\n        /* \"#utility.yul\":8980:9007   */\n      mstore\n        /* \"#utility.yul\":8859:9013   */\n      pop\n      pop\n      pop\n      jump\t// out\n        /* \"#utility.yul\":9019:9339   */\n    tag_106:\n        /* \"#utility.yul\":9063:9069   */\n      0x00\n        /* \"#utility.yul\":9100:9101   */\n      0x02\n        /* \"#utility.yul\":9094:9098   */\n      dup3\n        /* \"#utility.yul\":9090:9102   */\n      div\n        /* \"#utility.yul\":9080:9102   */\n      swap1\n      pop\n        /* \"#utility.yul\":9147:9148   */\n      0x01\n        /* \"#utility.yul\":9141:9145   */\n      dup3\n        /* \"#utility.yul\":9137:9149   */\n      and\n        /* \"#utility.yul\":9168:9186   */\n      dup1\n        /* \"#utility.yul\":9158:9239   */\n      tag_241\n      jumpi\n        /* \"#utility.yul\":9224:9228   */\n      0x7f\n        /* \"#utility.yul\":9216:9222   */\n      dup3\n        /* \"#utility.yul\":9212:9229   */\n      and\n        /* \"#utility.yul\":9202:9229   */\n      swap2\n      pop\n        /* \"#utility.yul\":9158:9239   */\n    tag_241:\n        /* \"#utility.yul\":9286:9288   */\n      0x20\n        /* \"#utility.yul\":9278:9284   */\n      dup3\n        /* \"#utility.yul\":9275:9289   */\n      lt\n        /* \"#utility.yul\":9255:9273   */\n      dup2\n        /* \"#utility.yul\":9252:9290   */\n      eq\n        /* \"#utility.yul\":9249:9333   */\n      iszero\n      tag_242\n      jumpi\n        /* \"#utility.yul\":9305:9323   */\n      tag_243\n      tag_244\n      jump\t// in\n    tag_243:\n        /* \"#utility.yul\":9249:9333   */\n    tag_242:\n        /* \"#utility.yul\":9070:9339   */\n      pop\n        /* \"#utility.yul\":9019:9339   */\n      swap2\n      swap1\n      pop\n      jump\t// out\n        /* \"#utility.yul\":9345:9626   */\n    tag_216:\n        /* \"#utility.yul\":9428:9455   */\n      tag_246\n        /* \"#utility.yul\":9450:9454   */\n      dup3\n        /* \"#utility.yul\":9428:9455   */\n      tag_223\n      jump\t// in\n    tag_246:\n        /* \"#utility.yul\":9420:9426   */\n      dup2\n        /* \"#utility.yul\":9416:9456   */\n      add\n        /* \"#utility.yul\":9558:9564   */\n      dup2\n        /* \"#utility.yul\":9546:9556   */\n      dup2\n        /* \"#utility.yul\":9543:9565   */\n      lt\n        /* \"#utility.yul\":9522:9540   */\n      0xffffffffffffffff\n        /* \"#utility.yul\":9510:9520   */\n      dup3\n        /* \"#utility.yul\":9507:9541   */\n      gt\n        /* \"#utility.yul\":9504:9566   */\n      or\n        /* \"#utility.yul\":9501:9589   */\n      iszero\n      tag_247\n      jumpi\n        /* \"#utility.yul\":9569:9587   */\n      tag_248\n      tag_221\n      jump\t// in\n    tag_248:\n        /* \"#utility.yul\":9501:9589   */\n    tag_247:\n        /* \"#utility.yul\":9609:9619   */\n      dup1\n        /* \"#utility.yul\":9605:9607   */\n      0x40\n        /* \"#utility.yul\":9598:9620   */\n      mstore\n        /* \"#utility.yul\":9388:9626   */\n      pop\n        /* \"#utility.yul\":9345:9626   */\n      pop\n      pop\n      jump\t// out\n        /* \"#utility.yul\":9632:9865   */\n    tag_81:\n        /* \"#utility.yul\":9671:9674   */\n      0x00\n        /* \"#utility.yul\":9694:9718   */\n      tag_250\n        /* \"#utility.yul\":9712:9717   */\n      dup3\n        /* \"#utility.yul\":9694:9718   */\n      tag_197\n      jump\t// in\n    tag_250:\n        /* \"#utility.yul\":9685:9718   */\n      swap2\n      pop\n        /* \"#utility.yul\":9740:9806   */\n      0xffffffffffffffffffffffffffffffffffffffffffffffffffffffffffffffff\n        /* \"#utility.yul\":9733:9738   */\n      dup3\n        /* \"#utility.yul\":9730:9807   */\n      eq\n        /* \"#utility.yul\":9727:9830   */\n      iszero\n      tag_251\n      jumpi\n        /* \"#utility.yul\":9810:9828   */\n      tag_252\n      tag_230\n      jump\t// in\n    tag_252:\n        /* \"#utility.yul\":9727:9830   */\n    tag_251:\n        /* \"#utility.yul\":9857:9858   */\n      0x01\n        /* \"#utility.yul\":9850:9855   */\n      dup3\n        /* \"#utility.yul\":9846:9859   */\n      add\n        /* \"#utility.yul\":9839:9859   */\n      swap1\n      pop\n        /* \"#utility.yul\":9632:9865   */\n      swap2\n      swap1\n      pop\n      jump\t// out\n        /* \"#utility.yul\":9871:10051   */\n    tag_230:\n        /* \"#utility.yul\":9919:9996   */\n      0x4e487b7100000000000000000000000000000000000000000000000000000000\n        /* \"#utility.yul\":9916:9917   */\n      0x00\n        /* \"#utility.yul\":9909:9997   */\n      mstore\n        /* \"#utility.yul\":10016:10020   */\n      0x11\n        /* \"#utility.yul\":10013:10014   */\n      0x04\n        /* \"#utility.yul\":10006:10021   */\n      mstore\n        /* \"#utility.yul\":10040:10044   */\n      0x24\n        /* \"#utility.yul\":10037:10038   */\n      0x00\n        /* \"#utility.yul\":10030:10045   */\n      revert\n        /* \"#utility.yul\":10057:10237   */\n    tag_244:\n        /* \"#utility.yul\":10105:10182   */\n      0x4e487b7100000000000000000000000000000000000000000000000000000000\n        /* \"#utility.yul\":10102:10103   */\n      0x00\n        /* \"#utility.yul\":10095:10183   */\n      mstore\n        /* \"#utility.yul\":10202:10206   */\n      0x22\n        /* \"#utility.yul\":10199:10200   */\n      0x04\n        /* \"#utility.yul\":10192:10207   */\n      mstore\n        /* \"#utility.yul\":10226:10230   */\n      0x24\n        /* \"#utility.yul\":10223:10224   */\n      0x00\n        /* \"#utility.yul\":10216:10231   */\n      revert\n        /* \"#utility.yul\":10243:10423   */\n    tag_221:\n        /* \"#utility.yul\":10291:10368   */\n      0x4e487b7100000000000000000000000000000000000000000000000000000000\n        /* \"#utility.yul\":10288:10289   */\n      0x00\n        /* \"#utility.yul\":10281:10369   */\n      mstore\n        /* \"#utility.yul\":10388:10392   */\n      0x41\n        /* \"#utility.yul\":10385:10386   */\n      0x04\n        /* \"#utility.yul\":10378:10393   */\n      mstore\n        /* \"#utility.yul\":10412:10416   */\n      0x24\n        /* \"#utility.yul\":10409:10410   */\n      0x00\n        /* \"#utility.yul\":10402:10417   */\n      revert\n        /* \"#utility.yul\":10429:10546   */\n    tag_140:\n        /* \"#utility.yul\":10538:10539   */\n      0x00\n        /* \"#utility.yul\":10535:10536   */\n      dup1\n        /* \"#utility.yul\":10528:10540   */\n      revert\n        /* \"#utility.yul\":10552:10669   */\n    tag_125:\n        /* \"#utility.yul\":10661:10662   */\n      0x00\n        /* \"#utility.yul\":10658:10659   */\n      dup1\n        /* \"#utility.yul\":10651:10663   */\n      revert\n        /* \"#utility.yul\":10675:10792   */\n    tag_156:\n        /* \"#utility.yul\":10784:10785   */\n      0x00\n        /* \"#utility.yul\":10781:10782   */\n      dup1\n        /* \"#utility.yul\":10774:10786   */\n      revert\n        /* \"#utility.yul\":10798:10915   */\n    tag_149:\n        /* \"#utility.yul\":10907:10908   */\n      0x00\n        /* \"#utility.yul\":10904:10905   */\n      dup1\n        /* \"#utility.yul\":10897:10909   */\n      revert\n        /* \"#utility.yul\":10921:11023   */\n    tag_223:\n        /* \"#utility.yul\":10962:10968   */\n      0x00\n        /* \"#utility.yul\":11013:11015   */\n      0x1f\n        /* \"#utility.yul\":11009:11016   */\n      not\n        /* \"#utility.yul\":11004:11006   */\n      0x1f\n        /* \"#utility.yul\":10997:11002   */\n      dup4\n        /* \"#utility.yul\":10993:11007   */\n      add\n        /* \"#utility.yul\":10989:11017   */\n      and\n        /* \"#utility.yul\":10979:11017   */\n      swap1\n      pop\n        /* \"#utility.yul\":10921:11023   */\n      swap2\n      swap1\n      pop\n      jump\t// out\n        /* \"#utility.yul\":11029:11251   */\n    tag_173:\n        /* \"#utility.yul\":11169:11203   */\n      0x4f6e6c79206d616e616765722063616e2063616c6c20746869732066756e6374\n        /* \"#utility.yul\":11165:11166   */\n      0x00\n        /* \"#utility.yul\":11157:11163   */\n      dup3\n        /* \"#utility.yul\":11153:11167   */\n      add\n        /* \"#utility.yul\":11146:11204   */\n      mstore\n        /* \"#utility.yul\":11238:11243   */\n      0x696f6e0000000000000000000000000000000000000000000000000000000000\n        /* \"#utility.yul\":11233:11235   */\n      0x20\n        /* \"#utility.yul\":11225:11231   */\n      dup3\n        /* \"#utility.yul\":11221:11236   */\n      add\n        /* \"#utility.yul\":11214:11244   */\n      mstore\n        /* \"#utility.yul\":11029:11251   */\n      pop\n      jump\t// out\n        /* \"#utility.yul\":11257:11479   */\n    tag_178:\n        /* \"#utility.yul\":11397:11431   */\n      0x4d696e696d756d20636f6e747269627574696f6e206973206f66203130302077\n        /* \"#utility.yul\":11393:11394   */\n      0x00\n        /* \"#utility.yul\":11385:11391   */\n      dup3\n        /* \"#utility.yul\":11381:11395   */\n      add\n        /* \"#utility.yul\":11374:11432   */\n      mstore\n        /* \"#utility.yul\":11466:11471   */\n      0x6569210000000000000000000000000000000000000000000000000000000000\n        /* \"#utility.yul\":11461:11463   */\n      0x20\n        /* \"#utility.yul\":11453:11459   */\n      dup3\n        /* \"#utility.yul\":11449:11464   */\n      add\n        /* \"#utility.yul\":11442:11472   */\n      mstore\n        /* \"#utility.yul\":11257:11479   */\n      pop\n      jump\t// out\n        /* \"#utility.yul\":11485:11662   */\n    tag_183:\n        /* \"#utility.yul\":11625:11654   */\n      0x596f7520686176656e277420636f6e7472696275746564207965740000000000\n        /* \"#utility.yul\":11621:11622   */\n      0x00\n        /* \"#utility.yul\":11613:11619   */\n      dup3\n        /* \"#utility.yul\":11609:11623   */\n      add\n        /* \"#utility.yul\":11602:11655   */\n      mstore\n        /* \"#utility.yul\":11485:11662   */\n      pop\n      jump\t// out\n        /* \"#utility.yul\":11668:11849   */\n    tag_188:\n        /* \"#utility.yul\":11808:11841   */\n      0x596f7520617265206e6f7420656c696769626c6520666f7220726566756e6400\n        /* \"#utility.yul\":11804:11805   */\n      0x00\n        /* \"#utility.yul\":11796:11802   */\n      dup3\n        /* \"#utility.yul\":11792:11806   */\n      add\n        /* \"#utility.yul\":11785:11842   */\n      mstore\n        /* \"#utility.yul\":11668:11849   */\n      pop\n      jump\t// out\n        /* \"#utility.yul\":11855:12026   */\n    tag_193:\n        /* \"#utility.yul\":11995:12018   */\n      0x446561646c696e65207061737365642061776179210000000000000000000000\n        /* \"#utility.yul\":11991:11992   */\n      0x00\n        /* \"#utility.yul\":11983:11989   */\n      dup3\n        /* \"#utility.yul\":11979:11993   */\n      add\n        /* \"#utility.yul\":11972:12019   */\n      mstore\n        /* \"#utility.yul\":11855:12026   */\n      pop\n      jump\t// out\n        /* \"#utility.yul\":12032:12154   */\n    tag_131:\n        /* \"#utility.yul\":12105:12129   */\n      tag_267\n        /* \"#utility.yul\":12123:12128   */\n      dup2\n        /* \"#utility.yul\":12105:12129   */\n      tag_167\n      jump\t// in\n    tag_267:\n        /* \"#utility.yul\":12098:12103   */\n      dup2\n        /* \"#utility.yul\":12095:12130   */\n      eq\n        /* \"#utility.yul\":12085:12148   */\n      tag_268\n      jumpi\n        /* \"#utility.yul\":12144:12145   */\n      0x00\n        /* \"#utility.yul\":12141:12142   */\n      dup1\n        /* \"#utility.yul\":12134:12146   */\n      revert\n        /* \"#utility.yul\":12085:12148   */\n    tag_268:\n        /* \"#utility.yul\":12032:12154   */\n      pop\n      jump\t// out\n        /* \"#utility.yul\":12160:12298   */\n    tag_135:\n        /* \"#utility.yul\":12241:12273   */\n      tag_270\n        /* \"#utility.yul\":12267:12272   */\n      dup2\n        /* \"#utility.yul\":12241:12273   */\n      tag_234\n      jump\t// in\n    tag_270:\n        /* \"#utility.yul\":12234:12239   */\n      dup2\n        /* \"#utility.yul\":12231:12274   */\n      eq\n        /* \"#utility.yul\":12221:12292   */\n      tag_271\n      jumpi\n        /* \"#utility.yul\":12288:12289   */\n      0x00\n        /* \"#utility.yul\":12285:12286   */\n      dup1\n        /* \"#utility.yul\":12278:12290   */\n      revert\n        /* \"#utility.yul\":12221:12292   */\n    tag_271:\n        /* \"#utility.yul\":12160:12298   */\n      pop\n      jump\t// out\n        /* \"#utility.yul\":12304:12426   */\n    tag_145:\n        /* \"#utility.yul\":12377:12401   */\n      tag_273\n        /* \"#utility.yul\":12395:12400   */\n      dup2\n        /* \"#utility.yul\":12377:12401   */\n      tag_197\n      jump\t// in\n    tag_273:\n        /* \"#utility.yul\":12370:12375   */\n      dup2\n        /* \"#utility.yul\":12367:12402   */\n      eq\n        /* \"#utility.yul\":12357:12420   */\n      tag_274\n      jumpi\n        /* \"#utility.yul\":12416:12417   */\n      0x00\n        /* \"#utility.yul\":12413:12414   */\n      dup1\n        /* \"#utility.yul\":12406:12418   */\n      revert\n        /* \"#utility.yul\":12357:12420   */\n    tag_274:\n        /* \"#utility.yul\":12304:12426   */\n      pop\n      jump\t// out\n\n    auxdata: 0xa264697066735822122063a8cba862bd99bc6578e421d4f0c31bab1d10e2e84c5f4b56660d3ca01e8be764736f6c63430008070033\n}\n",
				"bytecode": {
					"linkReferences": {},
					"object": "60806040523480156200001157600080fd5b506040516200111d3803806200111d8339818101604052810190620000379190620000ba565b8160048190555080426200004c919062000101565b600381905550606460028190555033600160006101000a81548173ffffffffffffffffffffffffffffffffffffffff021916908373ffffffffffffffffffffffffffffffffffffffff1602179055505050620001b6565b600081519050620000b4816200019c565b92915050565b60008060408385031215620000d457620000d362000197565b5b6000620000e485828601620000a3565b9250506020620000f785828601620000a3565b9150509250929050565b60006200010e826200015e565b91506200011b836200015e565b9250827fffffffffffffffffffffffffffffffffffffffffffffffffffffffffffffffff0382111562000153576200015262000168565b5b828201905092915050565b6000819050919050565b7f4e487b7100000000000000000000000000000000000000000000000000000000600052601160045260246000fd5b600080fd5b620001a7816200015e565b8114620001b357600080fd5b50565b610f5780620001c66000396000f3fe6080604052600436106100c25760003560e01c80634e260f6f1161007f5780639fb42b1f116100595780639fb42b1f14610223578063aaffadf31461024e578063c59ee1dc14610279578063d4b83992146102a4576100c2565b80634e260f6f146101b6578063590e1ae3146101e15780636f9fb98a146101f8576100c2565b806306e99fef146100c75780631f6d4942146100d157806329dcb0cf1461010e5780633eb7647b14610139578063481c6a75146101625780634cb6f4a51461018d575b600080fd5b6100cf6102cf565b005b3480156100dd57600080fd5b506100f860048036038101906100f391906108df565b610428565b6040516101059190610b30565b60405180910390f35b34801561011a57600080fd5b50610123610440565b6040516101309190610b30565b60405180910390f35b34801561014557600080fd5b50610160600480360381019061015b919061090c565b610446565b005b34801561016e57600080fd5b50610177610599565b6040516101849190610a75565b60405180910390f35b34801561019957600080fd5b506101b460048036038101906101af919061097b565b6105bf565b005b3480156101c257600080fd5b506101cb6105c2565b6040516101d89190610b30565b60405180910390f35b3480156101ed57600080fd5b506101f66105c8565b005b34801561020457600080fd5b5061020d61076d565b60405161021a9190610b30565b60405180910390f35b34801561022f57600080fd5b50610238610775565b6040516102459190610b30565b60405180910390f35b34801561025a57600080fd5b5061026361077b565b6040516102709190610b30565b60405180910390f35b34801561028557600080fd5b5061028e610781565b60405161029b9190610b30565b60405180910390f35b3480156102b057600080fd5b506102b9610787565b6040516102c69190610b30565b60405180910390f35b6003544210610313576040517f08c379a000000000000000000000000000000000000000000000000000000000815260040161030a90610b10565b60405180910390fd5b600254341015610358576040517f08c379a000000000000000000000000000000000000000000000000000000000815260040161034f90610ab0565b60405180910390fd5b60008060003373ffffffffffffffffffffffffffffffffffffffff1673ffffffffffffffffffffffffffffffffffffffff1681526020019081526020016000205414156103b857600660008154809291906103b290610cc8565b91905055505b346000803373ffffffffffffffffffffffffffffffffffffffff1673ffffffffffffffffffffffffffffffffffffffff16815260200190815260200160002060008282546104069190610bb2565b92505081905550346005600082825461041f9190610bb2565b92505081905550565b60006020528060005260406000206000915090505481565b60035481565b600160009054906101000a900473ffffffffffffffffffffffffffffffffffffffff1673ffffffffffffffffffffffffffffffffffffffff163373ffffffffffffffffffffffffffffffffffffffff16146104d6576040517f08c379a00000000000000000000000000000000000000000000000000000000081526004016104cd90610a90565b60405180910390fd5b600060076000600854815260200190815260200160002090506008600081548092919061050290610cc8565b91905055508381600001908051906020019061051f92919061078d565b50828160010160006101000a81548173ffffffffffffffffffffffffffffffffffffffff021916908373ffffffffffffffffffffffffffffffffffffffff16021790555081816002018190555060008160030160006101000a81548160ff0219169083151502179055506000816004018190555050505050565b600160009054906101000a900473ffffffffffffffffffffffffffffffffffffffff1681565b50565b60065481565b600354421180156105dc5750600554600454115b61061b576040517f08c379a000000000000000000000000000000000000000000000000000000000815260040161061290610af0565b60405180910390fd5b60008060003373ffffffffffffffffffffffffffffffffffffffff1673ffffffffffffffffffffffffffffffffffffffff168152602001908152602001600020541161069c576040517f08c379a000000000000000000000000000000000000000000000000000000000815260040161069390610ad0565b60405180910390fd5b60003390508073ffffffffffffffffffffffffffffffffffffffff166108fc6000803373ffffffffffffffffffffffffffffffffffffffff1673ffffffffffffffffffffffffffffffffffffffff168152602001908152602001600020549081150290604051600060405180830381858888f19350505050158015610725573d6000803e3d6000fd5b5060008060003373ffffffffffffffffffffffffffffffffffffffff1673ffffffffffffffffffffffffffffffffffffffff1681526020019081526020016000208190555050565b600047905090565b60085481565b60025481565b60055481565b60045481565b82805461079990610c65565b90600052602060002090601f0160209004810192826107bb5760008555610802565b82601f106107d457805160ff1916838001178555610802565b82800160010185558215610802579182015b828111156108015782518255916020019190600101906107e6565b5b50905061080f9190610813565b5090565b5b8082111561082c576000816000905550600101610814565b5090565b600061084361083e84610b70565b610b4b565b90508281526020810184848401111561085f5761085e610da3565b5b61086a848285610c56565b509392505050565b60008135905061088181610edc565b92915050565b60008135905061089681610ef3565b92915050565b600082601f8301126108b1576108b0610d9e565b5b81356108c1848260208601610830565b91505092915050565b6000813590506108d981610f0a565b92915050565b6000602082840312156108f5576108f4610dad565b5b600061090384828501610872565b91505092915050565b60008060006060848603121561092557610924610dad565b5b600084013567ffffffffffffffff81111561094357610942610da8565b5b61094f8682870161089c565b935050602061096086828701610887565b9250506040610971868287016108ca565b9150509250925092565b60006020828403121561099157610990610dad565b5b600061099f848285016108ca565b91505092915050565b6109b181610c08565b82525050565b60006109c4602383610ba1565b91506109cf82610dc3565b604082019050919050565b60006109e7602383610ba1565b91506109f282610e12565b604082019050919050565b6000610a0a601b83610ba1565b9150610a1582610e61565b602082019050919050565b6000610a2d601f83610ba1565b9150610a3882610e8a565b602082019050919050565b6000610a50601583610ba1565b9150610a5b82610eb3565b602082019050919050565b610a6f81610c4c565b82525050565b6000602082019050610a8a60008301846109a8565b92915050565b60006020820190508181036000830152610aa9816109b7565b9050919050565b60006020820190508181036000830152610ac9816109da565b9050919050565b60006020820190508181036000830152610ae9816109fd565b9050919050565b60006020820190508181036000830152610b0981610a20565b9050919050565b60006020820190508181036000830152610b2981610a43565b9050919050565b6000602082019050610b456000830184610a66565b92915050565b6000610b55610b66565b9050610b618282610c97565b919050565b6000604051905090565b600067ffffffffffffffff821115610b8b57610b8a610d6f565b5b610b9482610db2565b9050602081019050919050565b600082825260208201905092915050565b6000610bbd82610c4c565b9150610bc883610c4c565b9250827fffffffffffffffffffffffffffffffffffffffffffffffffffffffffffffffff03821115610bfd57610bfc610d11565b5b828201905092915050565b6000610c1382610c2c565b9050919050565b6000610c2582610c2c565b9050919050565b600073ffffffffffffffffffffffffffffffffffffffff82169050919050565b6000819050919050565b82818337600083830152505050565b60006002820490506001821680610c7d57607f821691505b60208210811415610c9157610c90610d40565b5b50919050565b610ca082610db2565b810181811067ffffffffffffffff82111715610cbf57610cbe610d6f565b5b80604052505050565b6000610cd382610c4c565b91507fffffffffffffffffffffffffffffffffffffffffffffffffffffffffffffffff821415610d0657610d05610d11565b5b600182019050919050565b7f4e487b7100000000000000000000000000000000000000000000000000000000600052601160045260246000fd5b7f4e487b7100000000000000000000000000000000000000000000000000000000600052602260045260246000fd5b7f4e487b7100000000000000000000000000000000000000000000000000000000600052604160045260246000fd5b600080fd5b600080fd5b600080fd5b600080fd5b6000601f19601f8301169050919050565b7f4f6e6c79206d616e616765722063616e2063616c6c20746869732066756e637460008201527f696f6e0000000000000000000000000000000000000000000000000000000000602082015250565b7f4d696e696d756d20636f6e747269627574696f6e206973206f6620313030207760008201527f6569210000000000000000000000000000000000000000000000000000000000602082015250565b7f596f7520686176656e277420636f6e7472696275746564207965740000000000600082015250565b7f596f7520617265206e6f7420656c696769626c6520666f7220726566756e6400600082015250565b7f446561646c696e65207061737365642061776179210000000000000000000000600082015250565b610ee581610c08565b8114610ef057600080fd5b50565b610efc81610c1a565b8114610f0757600080fd5b50565b610f1381610c4c565b8114610f1e57600080fd5b5056fea264697066735822122063a8cba862bd99bc6578e421d4f0c31bab1d10e2e84c5f4b56660d3ca01e8be764736f6c63430008070033",
					"opcodes": "PUSH1 0x80 PUSH1 0x40 MSTORE CALLVALUE DUP1 ISZERO PUSH3 0x11 JUMPI PUSH1 0x0 DUP1 REVERT JUMPDEST POP PUSH1 0x40 MLOAD PUSH3 0x111D CODESIZE SUB DUP1 PUSH3 0x111D DUP4 CODECOPY DUP2 DUP2 ADD PUSH1 0x40 MSTORE DUP2 ADD SWAP1 PUSH3 0x37 SWAP2 SWAP1 PUSH3 0xBA JUMP JUMPDEST DUP2 PUSH1 0x4 DUP2 SWAP1 SSTORE POP DUP1 TIMESTAMP PUSH3 0x4C SWAP2 SWAP1 PUSH3 0x101 JUMP JUMPDEST PUSH1 0x3 DUP2 SWAP1 SSTORE POP PUSH1 0x64 PUSH1 0x2 DUP2 SWAP1 SSTORE POP CALLER PUSH1 0x1 PUSH1 0x0 PUSH2 0x100 EXP DUP2 SLOAD DUP2 PUSH20 0xFFFFFFFFFFFFFFFFFFFFFFFFFFFFFFFFFFFFFFFF MUL NOT AND SWAP1 DUP4 PUSH20 0xFFFFFFFFFFFFFFFFFFFFFFFFFFFFFFFFFFFFFFFF AND MUL OR SWAP1 SSTORE POP POP POP PUSH3 0x1B6 JUMP JUMPDEST PUSH1 0x0 DUP2 MLOAD SWAP1 POP PUSH3 0xB4 DUP2 PUSH3 0x19C JUMP JUMPDEST SWAP3 SWAP2 POP POP JUMP JUMPDEST PUSH1 0x0 DUP1 PUSH1 0x40 DUP4 DUP6 SUB SLT ISZERO PUSH3 0xD4 JUMPI PUSH3 0xD3 PUSH3 0x197 JUMP JUMPDEST JUMPDEST PUSH1 0x0 PUSH3 0xE4 DUP6 DUP3 DUP7 ADD PUSH3 0xA3 JUMP JUMPDEST SWAP3 POP POP PUSH1 0x20 PUSH3 0xF7 DUP6 DUP3 DUP7 ADD PUSH3 0xA3 JUMP JUMPDEST SWAP2 POP POP SWAP3 POP SWAP3 SWAP1 POP JUMP JUMPDEST PUSH1 0x0 PUSH3 0x10E DUP3 PUSH3 0x15E JUMP JUMPDEST SWAP2 POP PUSH3 0x11B DUP4 PUSH3 0x15E JUMP JUMPDEST SWAP3 POP DUP3 PUSH32 0xFFFFFFFFFFFFFFFFFFFFFFFFFFFFFFFFFFFFFFFFFFFFFFFFFFFFFFFFFFFFFFFF SUB DUP3 GT ISZERO PUSH3 0x153 JUMPI PUSH3 0x152 PUSH3 0x168 JUMP JUMPDEST JUMPDEST DUP3 DUP3 ADD SWAP1 POP SWAP3 SWAP2 POP POP JUMP JUMPDEST PUSH1 0x0 DUP2 SWAP1 POP SWAP2 SWAP1 POP JUMP JUMPDEST PUSH32 0x4E487B7100000000000000000000000000000000000000000000000000000000 PUSH1 0x0 MSTORE PUSH1 0x11 PUSH1 0x4 MSTORE PUSH1 0x24 PUSH1 0x0 REVERT JUMPDEST PUSH1 0x0 DUP1 REVERT JUMPDEST PUSH3 0x1A7 DUP2 PUSH3 0x15E JUMP JUMPDEST DUP2 EQ PUSH3 0x1B3 JUMPI PUSH1 0x0 DUP1 REVERT JUMPDEST POP JUMP JUMPDEST PUSH2 0xF57 DUP1 PUSH3 0x1C6 PUSH1 0x0 CODECOPY PUSH1 0x0 RETURN INVALID PUSH1 0x80 PUSH1 0x40 MSTORE PUSH1 0x4 CALLDATASIZE LT PUSH2 0xC2 JUMPI PUSH1 0x0 CALLDATALOAD PUSH1 0xE0 SHR DUP1 PUSH4 0x4E260F6F GT PUSH2 0x7F JUMPI DUP1 PUSH4 0x9FB42B1F GT PUSH2 0x59 JUMPI DUP1 PUSH4 0x9FB42B1F EQ PUSH2 0x223 JUMPI DUP1 PUSH4 0xAAFFADF3 EQ PUSH2 0x24E JUMPI DUP1 PUSH4 0xC59EE1DC EQ PUSH2 0x279 JUMPI DUP1 PUSH4 0xD4B83992 EQ PUSH2 0x2A4 JUMPI PUSH2 0xC2 JUMP JUMPDEST DUP1 PUSH4 0x4E260F6F EQ PUSH2 0x1B6 JUMPI DUP1 PUSH4 0x590E1AE3 EQ PUSH2 0x1E1 JUMPI DUP1 PUSH4 0x6F9FB98A EQ PUSH2 0x1F8 JUMPI PUSH2 0xC2 JUMP JUMPDEST DUP1 PUSH4 0x6E99FEF EQ PUSH2 0xC7 JUMPI DUP1 PUSH4 0x1F6D4942 EQ PUSH2 0xD1 JUMPI DUP1 PUSH4 0x29DCB0CF EQ PUSH2 0x10E JUMPI DUP1 PUSH4 0x3EB7647B EQ PUSH2 0x139 JUMPI DUP1 PUSH4 0x481C6A75 EQ PUSH2 0x162 JUMPI DUP1 PUSH4 0x4CB6F4A5 EQ PUSH2 0x18D JUMPI JUMPDEST PUSH1 0x0 DUP1 REVERT JUMPDEST PUSH2 0xCF PUSH2 0x2CF JUMP JUMPDEST STOP JUMPDEST CALLVALUE DUP1 ISZERO PUSH2 0xDD JUMPI PUSH1 0x0 DUP1 REVERT JUMPDEST POP PUSH2 0xF8 PUSH1 0x4 DUP1 CALLDATASIZE SUB DUP2 ADD SWAP1 PUSH2 0xF3 SWAP2 SWAP1 PUSH2 0x8DF JUMP JUMPDEST PUSH2 0x428 JUMP JUMPDEST PUSH1 0x40 MLOAD PUSH2 0x105 SWAP2 SWAP1 PUSH2 0xB30 JUMP JUMPDEST PUSH1 0x40 MLOAD DUP1 SWAP2 SUB SWAP1 RETURN JUMPDEST CALLVALUE DUP1 ISZERO PUSH2 0x11A JUMPI PUSH1 0x0 DUP1 REVERT JUMPDEST POP PUSH2 0x123 PUSH2 0x440 JUMP JUMPDEST PUSH1 0x40 MLOAD PUSH2 0x130 SWAP2 SWAP1 PUSH2 0xB30 JUMP JUMPDEST PUSH1 0x40 MLOAD DUP1 SWAP2 SUB SWAP1 RETURN JUMPDEST CALLVALUE DUP1 ISZERO PUSH2 0x145 JUMPI PUSH1 0x0 DUP1 REVERT JUMPDEST POP PUSH2 0x160 PUSH1 0x4 DUP1 CALLDATASIZE SUB DUP2 ADD SWAP1 PUSH2 0x15B SWAP2 SWAP1 PUSH2 0x90C JUMP JUMPDEST PUSH2 0x446 JUMP JUMPDEST STOP JUMPDEST CALLVALUE DUP1 ISZERO PUSH2 0x16E JUMPI PUSH1 0x0 DUP1 REVERT JUMPDEST POP PUSH2 0x177 PUSH2 0x599 JUMP JUMPDEST PUSH1 0x40 MLOAD PUSH2 0x184 SWAP2 SWAP1 PUSH2 0xA75 JUMP JUMPDEST PUSH1 0x40 MLOAD DUP1 SWAP2 SUB SWAP1 RETURN JUMPDEST CALLVALUE DUP1 ISZERO PUSH2 0x199 JUMPI PUSH1 0x0 DUP1 REVERT JUMPDEST POP PUSH2 0x1B4 PUSH1 0x4 DUP1 CALLDATASIZE SUB DUP2 ADD SWAP1 PUSH2 0x1AF SWAP2 SWAP1 PUSH2 0x97B JUMP JUMPDEST PUSH2 0x5BF JUMP JUMPDEST STOP JUMPDEST CALLVALUE DUP1 ISZERO PUSH2 0x1C2 JUMPI PUSH1 0x0 DUP1 REVERT JUMPDEST POP PUSH2 0x1CB PUSH2 0x5C2 JUMP JUMPDEST PUSH1 0x40 MLOAD PUSH2 0x1D8 SWAP2 SWAP1 PUSH2 0xB30 JUMP JUMPDEST PUSH1 0x40 MLOAD DUP1 SWAP2 SUB SWAP1 RETURN JUMPDEST CALLVALUE DUP1 ISZERO PUSH2 0x1ED JUMPI PUSH1 0x0 DUP1 REVERT JUMPDEST POP PUSH2 0x1F6 PUSH2 0x5C8 JUMP JUMPDEST STOP JUMPDEST CALLVALUE DUP1 ISZERO PUSH2 0x204 JUMPI PUSH1 0x0 DUP1 REVERT JUMPDEST POP PUSH2 0x20D PUSH2 0x76D JUMP JUMPDEST PUSH1 0x40 MLOAD PUSH2 0x21A SWAP2 SWAP1 PUSH2 0xB30 JUMP JUMPDEST PUSH1 0x40 MLOAD DUP1 SWAP2 SUB SWAP1 RETURN JUMPDEST CALLVALUE DUP1 ISZERO PUSH2 0x22F JUMPI PUSH1 0x0 DUP1 REVERT JUMPDEST POP PUSH2 0x238 PUSH2 0x775 JUMP JUMPDEST PUSH1 0x40 MLOAD PUSH2 0x245 SWAP2 SWAP1 PUSH2 0xB30 JUMP JUMPDEST PUSH1 0x40 MLOAD DUP1 SWAP2 SUB SWAP1 RETURN JUMPDEST CALLVALUE DUP1 ISZERO PUSH2 0x25A JUMPI PUSH1 0x0 DUP1 REVERT JUMPDEST POP PUSH2 0x263 PUSH2 0x77B JUMP JUMPDEST PUSH1 0x40 MLOAD PUSH2 0x270 SWAP2 SWAP1 PUSH2 0xB30 JUMP JUMPDEST PUSH1 0x40 MLOAD DUP1 SWAP2 SUB SWAP1 RETURN JUMPDEST CALLVALUE DUP1 ISZERO PUSH2 0x285 JUMPI PUSH1 0x0 DUP1 REVERT JUMPDEST POP PUSH2 0x28E PUSH2 0x781 JUMP JUMPDEST PUSH1 0x40 MLOAD PUSH2 0x29B SWAP2 SWAP1 PUSH2 0xB30 JUMP JUMPDEST PUSH1 0x40 MLOAD DUP1 SWAP2 SUB SWAP1 RETURN JUMPDEST CALLVALUE DUP1 ISZERO PUSH2 0x2B0 JUMPI PUSH1 0x0 DUP1 REVERT JUMPDEST POP PUSH2 0x2B9 PUSH2 0x787 JUMP JUMPDEST PUSH1 0x40 MLOAD PUSH2 0x2C6 SWAP2 SWAP1 PUSH2 0xB30 JUMP JUMPDEST PUSH1 0x40 MLOAD DUP1 SWAP2 SUB SWAP1 RETURN JUMPDEST PUSH1 0x3 SLOAD TIMESTAMP LT PUSH2 0x313 JUMPI PUSH1 0x40 MLOAD PUSH32 0x8C379A000000000000000000000000000000000000000000000000000000000 DUP2 MSTORE PUSH1 0x4 ADD PUSH2 0x30A SWAP1 PUSH2 0xB10 JUMP JUMPDEST PUSH1 0x40 MLOAD DUP1 SWAP2 SUB SWAP1 REVERT JUMPDEST PUSH1 0x2 SLOAD CALLVALUE LT ISZERO PUSH2 0x358 JUMPI PUSH1 0x40 MLOAD PUSH32 0x8C379A000000000000000000000000000000000000000000000000000000000 DUP2 MSTORE PUSH1 0x4 ADD PUSH2 0x34F SWAP1 PUSH2 0xAB0 JUMP JUMPDEST PUSH1 0x40 MLOAD DUP1 SWAP2 SUB SWAP1 REVERT JUMPDEST PUSH1 0x0 DUP1 PUSH1 0x0 CALLER PUSH20 0xFFFFFFFFFFFFFFFFFFFFFFFFFFFFFFFFFFFFFFFF AND PUSH20 0xFFFFFFFFFFFFFFFFFFFFFFFFFFFFFFFFFFFFFFFF AND DUP2 MSTORE PUSH1 0x20 ADD SWAP1 DUP2 MSTORE PUSH1 0x20 ADD PUSH1 0x0 KECCAK256 SLOAD EQ ISZERO PUSH2 0x3B8 JUMPI PUSH1 0x6 PUSH1 0x0 DUP2 SLOAD DUP1 SWAP3 SWAP2 SWAP1 PUSH2 0x3B2 SWAP1 PUSH2 0xCC8 JUMP JUMPDEST SWAP2 SWAP1 POP SSTORE POP JUMPDEST CALLVALUE PUSH1 0x0 DUP1 CALLER PUSH20 0xFFFFFFFFFFFFFFFFFFFFFFFFFFFFFFFFFFFFFFFF AND PUSH20 0xFFFFFFFFFFFFFFFFFFFFFFFFFFFFFFFFFFFFFFFF AND DUP2 MSTORE PUSH1 0x20 ADD SWAP1 DUP2 MSTORE PUSH1 0x20 ADD PUSH1 0x0 KECCAK256 PUSH1 0x0 DUP3 DUP3 SLOAD PUSH2 0x406 SWAP2 SWAP1 PUSH2 0xBB2 JUMP JUMPDEST SWAP3 POP POP DUP2 SWAP1 SSTORE POP CALLVALUE PUSH1 0x5 PUSH1 0x0 DUP3 DUP3 SLOAD PUSH2 0x41F SWAP2 SWAP1 PUSH2 0xBB2 JUMP JUMPDEST SWAP3 POP POP DUP2 SWAP1 SSTORE POP JUMP JUMPDEST PUSH1 0x0 PUSH1 0x20 MSTORE DUP1 PUSH1 0x0 MSTORE PUSH1 0x40 PUSH1 0x0 KECCAK256 PUSH1 0x0 SWAP2 POP SWAP1 POP SLOAD DUP2 JUMP JUMPDEST PUSH1 0x3 SLOAD DUP2 JUMP JUMPDEST PUSH1 0x1 PUSH1 0x0 SWAP1 SLOAD SWAP1 PUSH2 0x100 EXP SWAP1 DIV PUSH20 0xFFFFFFFFFFFFFFFFFFFFFFFFFFFFFFFFFFFFFFFF AND PUSH20 0xFFFFFFFFFFFFFFFFFFFFFFFFFFFFFFFFFFFFFFFF AND CALLER PUSH20 0xFFFFFFFFFFFFFFFFFFFFFFFFFFFFFFFFFFFFFFFF AND EQ PUSH2 0x4D6 JUMPI PUSH1 0x40 MLOAD PUSH32 0x8C379A000000000000000000000000000000000000000000000000000000000 DUP2 MSTORE PUSH1 0x4 ADD PUSH2 0x4CD SWAP1 PUSH2 0xA90 JUMP JUMPDEST PUSH1 0x40 MLOAD DUP1 SWAP2 SUB SWAP1 REVERT JUMPDEST PUSH1 0x0 PUSH1 0x7 PUSH1 0x0 PUSH1 0x8 SLOAD DUP2 MSTORE PUSH1 0x20 ADD SWAP1 DUP2 MSTORE PUSH1 0x20 ADD PUSH1 0x0 KECCAK256 SWAP1 POP PUSH1 0x8 PUSH1 0x0 DUP2 SLOAD DUP1 SWAP3 SWAP2 SWAP1 PUSH2 0x502 SWAP1 PUSH2 0xCC8 JUMP JUMPDEST SWAP2 SWAP1 POP SSTORE POP DUP4 DUP2 PUSH1 0x0 ADD SWAP1 DUP1 MLOAD SWAP1 PUSH1 0x20 ADD SWAP1 PUSH2 0x51F SWAP3 SWAP2 SWAP1 PUSH2 0x78D JUMP JUMPDEST POP DUP3 DUP2 PUSH1 0x1 ADD PUSH1 0x0 PUSH2 0x100 EXP DUP2 SLOAD DUP2 PUSH20 0xFFFFFFFFFFFFFFFFFFFFFFFFFFFFFFFFFFFFFFFF MUL NOT AND SWAP1 DUP4 PUSH20 0xFFFFFFFFFFFFFFFFFFFFFFFFFFFFFFFFFFFFFFFF AND MUL OR SWAP1 SSTORE POP DUP2 DUP2 PUSH1 0x2 ADD DUP2 SWAP1 SSTORE POP PUSH1 0x0 DUP2 PUSH1 0x3 ADD PUSH1 0x0 PUSH2 0x100 EXP DUP2 SLOAD DUP2 PUSH1 0xFF MUL NOT AND SWAP1 DUP4 ISZERO ISZERO MUL OR SWAP1 SSTORE POP PUSH1 0x0 DUP2 PUSH1 0x4 ADD DUP2 SWAP1 SSTORE POP POP POP POP POP JUMP JUMPDEST PUSH1 0x1 PUSH1 0x0 SWAP1 SLOAD SWAP1 PUSH2 0x100 EXP SWAP1 DIV PUSH20 0xFFFFFFFFFFFFFFFFFFFFFFFFFFFFFFFFFFFFFFFF AND DUP2 JUMP JUMPDEST POP JUMP JUMPDEST PUSH1 0x6 SLOAD DUP2 JUMP JUMPDEST PUSH1 0x3 SLOAD TIMESTAMP GT DUP1 ISZERO PUSH2 0x5DC JUMPI POP PUSH1 0x5 SLOAD PUSH1 0x4 SLOAD GT JUMPDEST PUSH2 0x61B JUMPI PUSH1 0x40 MLOAD PUSH32 0x8C379A000000000000000000000000000000000000000000000000000000000 DUP2 MSTORE PUSH1 0x4 ADD PUSH2 0x612 SWAP1 PUSH2 0xAF0 JUMP JUMPDEST PUSH1 0x40 MLOAD DUP1 SWAP2 SUB SWAP1 REVERT JUMPDEST PUSH1 0x0 DUP1 PUSH1 0x0 CALLER PUSH20 0xFFFFFFFFFFFFFFFFFFFFFFFFFFFFFFFFFFFFFFFF AND PUSH20 0xFFFFFFFFFFFFFFFFFFFFFFFFFFFFFFFFFFFFFFFF AND DUP2 MSTORE PUSH1 0x20 ADD SWAP1 DUP2 MSTORE PUSH1 0x20 ADD PUSH1 0x0 KECCAK256 SLOAD GT PUSH2 0x69C JUMPI PUSH1 0x40 MLOAD PUSH32 0x8C379A000000000000000000000000000000000000000000000000000000000 DUP2 MSTORE PUSH1 0x4 ADD PUSH2 0x693 SWAP1 PUSH2 0xAD0 JUMP JUMPDEST PUSH1 0x40 MLOAD DUP1 SWAP2 SUB SWAP1 REVERT JUMPDEST PUSH1 0x0 CALLER SWAP1 POP DUP1 PUSH20 0xFFFFFFFFFFFFFFFFFFFFFFFFFFFFFFFFFFFFFFFF AND PUSH2 0x8FC PUSH1 0x0 DUP1 CALLER PUSH20 0xFFFFFFFFFFFFFFFFFFFFFFFFFFFFFFFFFFFFFFFF AND PUSH20 0xFFFFFFFFFFFFFFFFFFFFFFFFFFFFFFFFFFFFFFFF AND DUP2 MSTORE PUSH1 0x20 ADD SWAP1 DUP2 MSTORE PUSH1 0x20 ADD PUSH1 0x0 KECCAK256 SLOAD SWAP1 DUP2 ISZERO MUL SWAP1 PUSH1 0x40 MLOAD PUSH1 0x0 PUSH1 0x40 MLOAD DUP1 DUP4 SUB DUP2 DUP6 DUP9 DUP9 CALL SWAP4 POP POP POP POP ISZERO DUP1 ISZERO PUSH2 0x725 JUMPI RETURNDATASIZE PUSH1 0x0 DUP1 RETURNDATACOPY RETURNDATASIZE PUSH1 0x0 REVERT JUMPDEST POP PUSH1 0x0 DUP1 PUSH1 0x0 CALLER PUSH20 0xFFFFFFFFFFFFFFFFFFFFFFFFFFFFFFFFFFFFFFFF AND PUSH20 0xFFFFFFFFFFFFFFFFFFFFFFFFFFFFFFFFFFFFFFFF AND DUP2 MSTORE PUSH1 0x20 ADD SWAP1 DUP2 MSTORE PUSH1 0x20 ADD PUSH1 0x0 KECCAK256 DUP2 SWAP1 SSTORE POP POP JUMP JUMPDEST PUSH1 0x0 SELFBALANCE SWAP1 POP SWAP1 JUMP JUMPDEST PUSH1 0x8 SLOAD DUP2 JUMP JUMPDEST PUSH1 0x2 SLOAD DUP2 JUMP JUMPDEST PUSH1 0x5 SLOAD DUP2 JUMP JUMPDEST PUSH1 0x4 SLOAD DUP2 JUMP JUMPDEST DUP3 DUP1 SLOAD PUSH2 0x799 SWAP1 PUSH2 0xC65 JUMP JUMPDEST SWAP1 PUSH1 0x0 MSTORE PUSH1 0x20 PUSH1 0x0 KECCAK256 SWAP1 PUSH1 0x1F ADD PUSH1 0x20 SWAP1 DIV DUP2 ADD SWAP3 DUP3 PUSH2 0x7BB JUMPI PUSH1 0x0 DUP6 SSTORE PUSH2 0x802 JUMP JUMPDEST DUP3 PUSH1 0x1F LT PUSH2 0x7D4 JUMPI DUP1 MLOAD PUSH1 0xFF NOT AND DUP4 DUP1 ADD OR DUP6 SSTORE PUSH2 0x802 JUMP JUMPDEST DUP3 DUP1 ADD PUSH1 0x1 ADD DUP6 SSTORE DUP3 ISZERO PUSH2 0x802 JUMPI SWAP2 DUP3 ADD JUMPDEST DUP3 DUP2 GT ISZERO PUSH2 0x801 JUMPI DUP3 MLOAD DUP3 SSTORE SWAP2 PUSH1 0x20 ADD SWAP2 SWAP1 PUSH1 0x1 ADD SWAP1 PUSH2 0x7E6 JUMP JUMPDEST JUMPDEST POP SWAP1 POP PUSH2 0x80F SWAP2 SWAP1 PUSH2 0x813 JUMP JUMPDEST POP SWAP1 JUMP JUMPDEST JUMPDEST DUP1 DUP3 GT ISZERO PUSH2 0x82C JUMPI PUSH1 0x0 DUP2 PUSH1 0x0 SWAP1 SSTORE POP PUSH1 0x1 ADD PUSH2 0x814 JUMP JUMPDEST POP SWAP1 JUMP JUMPDEST PUSH1 0x0 PUSH2 0x843 PUSH2 0x83E DUP5 PUSH2 0xB70 JUMP JUMPDEST PUSH2 0xB4B JUMP JUMPDEST SWAP1 POP DUP3 DUP2 MSTORE PUSH1 0x20 DUP2 ADD DUP5 DUP5 DUP5 ADD GT ISZERO PUSH2 0x85F JUMPI PUSH2 0x85E PUSH2 0xDA3 JUMP JUMPDEST JUMPDEST PUSH2 0x86A DUP5 DUP3 DUP6 PUSH2 0xC56 JUMP JUMPDEST POP SWAP4 SWAP3 POP POP POP JUMP JUMPDEST PUSH1 0x0 DUP2 CALLDATALOAD SWAP1 POP PUSH2 0x881 DUP2 PUSH2 0xEDC JUMP JUMPDEST SWAP3 SWAP2 POP POP JUMP JUMPDEST PUSH1 0x0 DUP2 CALLDATALOAD SWAP1 POP PUSH2 0x896 DUP2 PUSH2 0xEF3 JUMP JUMPDEST SWAP3 SWAP2 POP POP JUMP JUMPDEST PUSH1 0x0 DUP3 PUSH1 0x1F DUP4 ADD SLT PUSH2 0x8B1 JUMPI PUSH2 0x8B0 PUSH2 0xD9E JUMP JUMPDEST JUMPDEST DUP2 CALLDATALOAD PUSH2 0x8C1 DUP5 DUP3 PUSH1 0x20 DUP7 ADD PUSH2 0x830 JUMP JUMPDEST SWAP2 POP POP SWAP3 SWAP2 POP POP JUMP JUMPDEST PUSH1 0x0 DUP2 CALLDATALOAD SWAP1 POP PUSH2 0x8D9 DUP2 PUSH2 0xF0A JUMP JUMPDEST SWAP3 SWAP2 POP POP JUMP JUMPDEST PUSH1 0x0 PUSH1 0x20 DUP3 DUP5 SUB SLT ISZERO PUSH2 0x8F5 JUMPI PUSH2 0x8F4 PUSH2 0xDAD JUMP JUMPDEST JUMPDEST PUSH1 0x0 PUSH2 0x903 DUP5 DUP3 DUP6 ADD PUSH2 0x872 JUMP JUMPDEST SWAP2 POP POP SWAP3 SWAP2 POP POP JUMP JUMPDEST PUSH1 0x0 DUP1 PUSH1 0x0 PUSH1 0x60 DUP5 DUP7 SUB SLT ISZERO PUSH2 0x925 JUMPI PUSH2 0x924 PUSH2 0xDAD JUMP JUMPDEST JUMPDEST PUSH1 0x0 DUP5 ADD CALLDATALOAD PUSH8 0xFFFFFFFFFFFFFFFF DUP2 GT ISZERO PUSH2 0x943 JUMPI PUSH2 0x942 PUSH2 0xDA8 JUMP JUMPDEST JUMPDEST PUSH2 0x94F DUP7 DUP3 DUP8 ADD PUSH2 0x89C JUMP JUMPDEST SWAP4 POP POP PUSH1 0x20 PUSH2 0x960 DUP7 DUP3 DUP8 ADD PUSH2 0x887 JUMP JUMPDEST SWAP3 POP POP PUSH1 0x40 PUSH2 0x971 DUP7 DUP3 DUP8 ADD PUSH2 0x8CA JUMP JUMPDEST SWAP2 POP POP SWAP3 POP SWAP3 POP SWAP3 JUMP JUMPDEST PUSH1 0x0 PUSH1 0x20 DUP3 DUP5 SUB SLT ISZERO PUSH2 0x991 JUMPI PUSH2 0x990 PUSH2 0xDAD JUMP JUMPDEST JUMPDEST PUSH1 0x0 PUSH2 0x99F DUP5 DUP3 DUP6 ADD PUSH2 0x8CA JUMP JUMPDEST SWAP2 POP POP SWAP3 SWAP2 POP POP JUMP JUMPDEST PUSH2 0x9B1 DUP2 PUSH2 0xC08 JUMP JUMPDEST DUP3 MSTORE POP POP JUMP JUMPDEST PUSH1 0x0 PUSH2 0x9C4 PUSH1 0x23 DUP4 PUSH2 0xBA1 JUMP JUMPDEST SWAP2 POP PUSH2 0x9CF DUP3 PUSH2 0xDC3 JUMP JUMPDEST PUSH1 0x40 DUP3 ADD SWAP1 POP SWAP2 SWAP1 POP JUMP JUMPDEST PUSH1 0x0 PUSH2 0x9E7 PUSH1 0x23 DUP4 PUSH2 0xBA1 JUMP JUMPDEST SWAP2 POP PUSH2 0x9F2 DUP3 PUSH2 0xE12 JUMP JUMPDEST PUSH1 0x40 DUP3 ADD SWAP1 POP SWAP2 SWAP1 POP JUMP JUMPDEST PUSH1 0x0 PUSH2 0xA0A PUSH1 0x1B DUP4 PUSH2 0xBA1 JUMP JUMPDEST SWAP2 POP PUSH2 0xA15 DUP3 PUSH2 0xE61 JUMP JUMPDEST PUSH1 0x20 DUP3 ADD SWAP1 POP SWAP2 SWAP1 POP JUMP JUMPDEST PUSH1 0x0 PUSH2 0xA2D PUSH1 0x1F DUP4 PUSH2 0xBA1 JUMP JUMPDEST SWAP2 POP PUSH2 0xA38 DUP3 PUSH2 0xE8A JUMP JUMPDEST PUSH1 0x20 DUP3 ADD SWAP1 POP SWAP2 SWAP1 POP JUMP JUMPDEST PUSH1 0x0 PUSH2 0xA50 PUSH1 0x15 DUP4 PUSH2 0xBA1 JUMP JUMPDEST SWAP2 POP PUSH2 0xA5B DUP3 PUSH2 0xEB3 JUMP JUMPDEST PUSH1 0x20 DUP3 ADD SWAP1 POP SWAP2 SWAP1 POP JUMP JUMPDEST PUSH2 0xA6F DUP2 PUSH2 0xC4C JUMP JUMPDEST DUP3 MSTORE POP POP JUMP JUMPDEST PUSH1 0x0 PUSH1 0x20 DUP3 ADD SWAP1 POP PUSH2 0xA8A PUSH1 0x0 DUP4 ADD DUP5 PUSH2 0x9A8 JUMP JUMPDEST SWAP3 SWAP2 POP POP JUMP JUMPDEST PUSH1 0x0 PUSH1 0x20 DUP3 ADD SWAP1 POP DUP2 DUP2 SUB PUSH1 0x0 DUP4 ADD MSTORE PUSH2 0xAA9 DUP2 PUSH2 0x9B7 JUMP JUMPDEST SWAP1 POP SWAP2 SWAP1 POP JUMP JUMPDEST PUSH1 0x0 PUSH1 0x20 DUP3 ADD SWAP1 POP DUP2 DUP2 SUB PUSH1 0x0 DUP4 ADD MSTORE PUSH2 0xAC9 DUP2 PUSH2 0x9DA JUMP JUMPDEST SWAP1 POP SWAP2 SWAP1 POP JUMP JUMPDEST PUSH1 0x0 PUSH1 0x20 DUP3 ADD SWAP1 POP DUP2 DUP2 SUB PUSH1 0x0 DUP4 ADD MSTORE PUSH2 0xAE9 DUP2 PUSH2 0x9FD JUMP JUMPDEST SWAP1 POP SWAP2 SWAP1 POP JUMP JUMPDEST PUSH1 0x0 PUSH1 0x20 DUP3 ADD SWAP1 POP DUP2 DUP2 SUB PUSH1 0x0 DUP4 ADD MSTORE PUSH2 0xB09 DUP2 PUSH2 0xA20 JUMP JUMPDEST SWAP1 POP SWAP2 SWAP1 POP JUMP JUMPDEST PUSH1 0x0 PUSH1 0x20 DUP3 ADD SWAP1 POP DUP2 DUP2 SUB PUSH1 0x0 DUP4 ADD MSTORE PUSH2 0xB29 DUP2 PUSH2 0xA43 JUMP JUMPDEST SWAP1 POP SWAP2 SWAP1 POP JUMP JUMPDEST PUSH1 0x0 PUSH1 0x20 DUP3 ADD SWAP1 POP PUSH2 0xB45 PUSH1 0x0 DUP4 ADD DUP5 PUSH2 0xA66 JUMP JUMPDEST SWAP3 SWAP2 POP POP JUMP JUMPDEST PUSH1 0x0 PUSH2 0xB55 PUSH2 0xB66 JUMP JUMPDEST SWAP1 POP PUSH2 0xB61 DUP3 DUP3 PUSH2 0xC97 JUMP JUMPDEST SWAP2 SWAP1 POP JUMP JUMPDEST PUSH1 0x0 PUSH1 0x40 MLOAD SWAP1 POP SWAP1 JUMP JUMPDEST PUSH1 0x0 PUSH8 0xFFFFFFFFFFFFFFFF DUP3 GT ISZERO PUSH2 0xB8B JUMPI PUSH2 0xB8A PUSH2 0xD6F JUMP JUMPDEST JUMPDEST PUSH2 0xB94 DUP3 PUSH2 0xDB2 JUMP JUMPDEST SWAP1 POP PUSH1 0x20 DUP2 ADD SWAP1 POP SWAP2 SWAP1 POP JUMP JUMPDEST PUSH1 0x0 DUP3 DUP3 MSTORE PUSH1 0x20 DUP3 ADD SWAP1 POP SWAP3 SWAP2 POP POP JUMP JUMPDEST PUSH1 0x0 PUSH2 0xBBD DUP3 PUSH2 0xC4C JUMP JUMPDEST SWAP2 POP PUSH2 0xBC8 DUP4 PUSH2 0xC4C JUMP JUMPDEST SWAP3 POP DUP3 PUSH32 0xFFFFFFFFFFFFFFFFFFFFFFFFFFFFFFFFFFFFFFFFFFFFFFFFFFFFFFFFFFFFFFFF SUB DUP3 GT ISZERO PUSH2 0xBFD JUMPI PUSH2 0xBFC PUSH2 0xD11 JUMP JUMPDEST JUMPDEST DUP3 DUP3 ADD SWAP1 POP SWAP3 SWAP2 POP POP JUMP JUMPDEST PUSH1 0x0 PUSH2 0xC13 DUP3 PUSH2 0xC2C JUMP JUMPDEST SWAP1 POP SWAP2 SWAP1 POP JUMP JUMPDEST PUSH1 0x0 PUSH2 0xC25 DUP3 PUSH2 0xC2C JUMP JUMPDEST SWAP1 POP SWAP2 SWAP1 POP JUMP JUMPDEST PUSH1 0x0 PUSH20 0xFFFFFFFFFFFFFFFFFFFFFFFFFFFFFFFFFFFFFFFF DUP3 AND SWAP1 POP SWAP2 SWAP1 POP JUMP JUMPDEST PUSH1 0x0 DUP2 SWAP1 POP SWAP2 SWAP1 POP JUMP JUMPDEST DUP3 DUP2 DUP4 CALLDATACOPY PUSH1 0x0 DUP4 DUP4 ADD MSTORE POP POP POP JUMP JUMPDEST PUSH1 0x0 PUSH1 0x2 DUP3 DIV SWAP1 POP PUSH1 0x1 DUP3 AND DUP1 PUSH2 0xC7D JUMPI PUSH1 0x7F DUP3 AND SWAP2 POP JUMPDEST PUSH1 0x20 DUP3 LT DUP2 EQ ISZERO PUSH2 0xC91 JUMPI PUSH2 0xC90 PUSH2 0xD40 JUMP JUMPDEST JUMPDEST POP SWAP2 SWAP1 POP JUMP JUMPDEST PUSH2 0xCA0 DUP3 PUSH2 0xDB2 JUMP JUMPDEST DUP2 ADD DUP2 DUP2 LT PUSH8 0xFFFFFFFFFFFFFFFF DUP3 GT OR ISZERO PUSH2 0xCBF JUMPI PUSH2 0xCBE PUSH2 0xD6F JUMP JUMPDEST JUMPDEST DUP1 PUSH1 0x40 MSTORE POP POP POP JUMP JUMPDEST PUSH1 0x0 PUSH2 0xCD3 DUP3 PUSH2 0xC4C JUMP JUMPDEST SWAP2 POP PUSH32 0xFFFFFFFFFFFFFFFFFFFFFFFFFFFFFFFFFFFFFFFFFFFFFFFFFFFFFFFFFFFFFFFF DUP3 EQ ISZERO PUSH2 0xD06 JUMPI PUSH2 0xD05 PUSH2 0xD11 JUMP JUMPDEST JUMPDEST PUSH1 0x1 DUP3 ADD SWAP1 POP SWAP2 SWAP1 POP JUMP JUMPDEST PUSH32 0x4E487B7100000000000000000000000000000000000000000000000000000000 PUSH1 0x0 MSTORE PUSH1 0x11 PUSH1 0x4 MSTORE PUSH1 0x24 PUSH1 0x0 REVERT JUMPDEST PUSH32 0x4E487B7100000000000000000000000000000000000000000000000000000000 PUSH1 0x0 MSTORE PUSH1 0x22 PUSH1 0x4 MSTORE PUSH1 0x24 PUSH1 0x0 REVERT JUMPDEST PUSH32 0x4E487B7100000000000000000000000000000000000000000000000000000000 PUSH1 0x0 MSTORE PUSH1 0x41 PUSH1 0x4 MSTORE PUSH1 0x24 PUSH1 0x0 REVERT JUMPDEST PUSH1 0x0 DUP1 REVERT JUMPDEST PUSH1 0x0 DUP1 REVERT JUMPDEST PUSH1 0x0 DUP1 REVERT JUMPDEST PUSH1 0x0 DUP1 REVERT JUMPDEST PUSH1 0x0 PUSH1 0x1F NOT PUSH1 0x1F DUP4 ADD AND SWAP1 POP SWAP2 SWAP1 POP JUMP JUMPDEST PUSH32 0x4F6E6C79206D616E616765722063616E2063616C6C20746869732066756E6374 PUSH1 0x0 DUP3 ADD MSTORE PUSH32 0x696F6E0000000000000000000000000000000000000000000000000000000000 PUSH1 0x20 DUP3 ADD MSTORE POP JUMP JUMPDEST PUSH32 0x4D696E696D756D20636F6E747269627574696F6E206973206F66203130302077 PUSH1 0x0 DUP3 ADD MSTORE PUSH32 0x6569210000000000000000000000000000000000000000000000000000000000 PUSH1 0x20 DUP3 ADD MSTORE POP JUMP JUMPDEST PUSH32 0x596F7520686176656E277420636F6E7472696275746564207965740000000000 PUSH1 0x0 DUP3 ADD MSTORE POP JUMP JUMPDEST PUSH32 0x596F7520617265206E6F7420656C696769626C6520666F7220726566756E6400 PUSH1 0x0 DUP3 ADD MSTORE POP JUMP JUMPDEST PUSH32 0x446561646C696E65207061737365642061776179210000000000000000000000 PUSH1 0x0 DUP3 ADD MSTORE POP JUMP JUMPDEST PUSH2 0xEE5 DUP2 PUSH2 0xC08 JUMP JUMPDEST DUP2 EQ PUSH2 0xEF0 JUMPI PUSH1 0x0 DUP1 REVERT JUMPDEST POP JUMP JUMPDEST PUSH2 0xEFC DUP2 PUSH2 0xC1A JUMP JUMPDEST DUP2 EQ PUSH2 0xF07 JUMPI PUSH1 0x0 DUP1 REVERT JUMPDEST POP JUMP JUMPDEST PUSH2 0xF13 DUP2 PUSH2 0xC4C JUMP JUMPDEST DUP2 EQ PUSH2 0xF1E JUMPI PUSH1 0x0 DUP1 REVERT JUMPDEST POP JUMP INVALID LOG2 PUSH5 0x6970667358 0x22 SLT KECCAK256 PUSH4 0xA8CBA862 0xBD SWAP10 0xBC PUSH6 0x78E421D4F0C3 SHL 0xAB SAR LT 0xE2 0xE8 0x4C 0x5F 0x4B JUMP PUSH7 0xD3CA01E8BE764 PUSH20 0x6F6C634300080700330000000000000000000000 "
				},
				"gasEstimates": {
					"creation": {
						"codeDepositCost": "785400",
						"executionCost": "infinite",
						"totalCost": "infinite"
					},
					"external": {
						"contributors(address)": "2837",
						"createRequests(string,address,uint256)": "infinite",
						"deadline()": "2474",
						"getContractBalance()": "406",
						"manager()": "2603",
						"minContribution()": "2473",
						"noOfContributors()": "2452",
						"numRequests()": "2451",
						"raisedAmount()": "2495",
						"refund()": "infinite",
						"sendEth()": "infinite",
						"target()": "2517",
						"voteRequest(uint256)": "517"
					}
				},
				"methodIdentifiers": {
					"contributors(address)": "1f6d4942",
					"createRequests(string,address,uint256)": "3eb7647b",
					"deadline()": "29dcb0cf",
					"getContractBalance()": "6f9fb98a",
					"manager()": "481c6a75",
					"minContribution()": "aaffadf3",
					"noOfContributors()": "4e260f6f",
					"numRequests()": "9fb42b1f",
					"raisedAmount()": "c59ee1dc",
					"refund()": "590e1ae3",
					"sendEth()": "06e99fef",
					"target()": "d4b83992",
					"voteRequest(uint256)": "4cb6f4a5"
				}
			},
			"storageLayout": {
				"storage": [
					{
						"astId": 5,
						"contract": "contracts/CrowdFunding.sol:CrowdFunding",
						"label": "contributors",
						"offset": 0,
						"slot": "0",
						"type": "t_mapping(t_address,t_uint256)"
					},
					{
						"astId": 7,
						"contract": "contracts/CrowdFunding.sol:CrowdFunding",
						"label": "manager",
						"offset": 0,
						"slot": "1",
						"type": "t_address"
					},
					{
						"astId": 9,
						"contract": "contracts/CrowdFunding.sol:CrowdFunding",
						"label": "minContribution",
						"offset": 0,
						"slot": "2",
						"type": "t_uint256"
					},
					{
						"astId": 11,
						"contract": "contracts/CrowdFunding.sol:CrowdFunding",
						"label": "deadline",
						"offset": 0,
						"slot": "3",
						"type": "t_uint256"
					},
					{
						"astId": 13,
						"contract": "contracts/CrowdFunding.sol:CrowdFunding",
						"label": "target",
						"offset": 0,
						"slot": "4",
						"type": "t_uint256"
					},
					{
						"astId": 15,
						"contract": "contracts/CrowdFunding.sol:CrowdFunding",
						"label": "raisedAmount",
						"offset": 0,
						"slot": "5",
						"type": "t_uint256"
					},
					{
						"astId": 17,
						"contract": "contracts/CrowdFunding.sol:CrowdFunding",
						"label": "noOfContributors",
						"offset": 0,
						"slot": "6",
						"type": "t_uint256"
					},
					{
						"astId": 37,
						"contract": "contracts/CrowdFunding.sol:CrowdFunding",
						"label": "requests",
						"offset": 0,
						"slot": "7",
						"type": "t_mapping(t_uint256,t_struct(Request)32_storage)"
					},
					{
						"astId": 39,
						"contract": "contracts/CrowdFunding.sol:CrowdFunding",
						"label": "numRequests",
						"offset": 0,
						"slot": "8",
						"type": "t_uint256"
					}
				],
				"types": {
					"t_address": {
						"encoding": "inplace",
						"label": "address",
						"numberOfBytes": "20"
					},
					"t_address_payable": {
						"encoding": "inplace",
						"label": "address payable",
						"numberOfBytes": "20"
					},
					"t_bool": {
						"encoding": "inplace",
						"label": "bool",
						"numberOfBytes": "1"
					},
					"t_mapping(t_address,t_bool)": {
						"encoding": "mapping",
						"key": "t_address",
						"label": "mapping(address => bool)",
						"numberOfBytes": "32",
						"value": "t_bool"
					},
					"t_mapping(t_address,t_uint256)": {
						"encoding": "mapping",
						"key": "t_address",
						"label": "mapping(address => uint256)",
						"numberOfBytes": "32",
						"value": "t_uint256"
					},
					"t_mapping(t_uint256,t_struct(Request)32_storage)": {
						"encoding": "mapping",
						"key": "t_uint256",
						"label": "mapping(uint256 => struct CrowdFunding.Request)",
						"numberOfBytes": "32",
						"value": "t_struct(Request)32_storage"
					},
					"t_string_storage": {
						"encoding": "bytes",
						"label": "string",
						"numberOfBytes": "32"
					},
					"t_struct(Request)32_storage": {
						"encoding": "inplace",
						"label": "struct CrowdFunding.Request",
						"members": [
							{
								"astId": 19,
								"contract": "contracts/CrowdFunding.sol:CrowdFunding",
								"label": "description",
								"offset": 0,
								"slot": "0",
								"type": "t_string_storage"
							},
							{
								"astId": 21,
								"contract": "contracts/CrowdFunding.sol:CrowdFunding",
								"label": "recipient",
								"offset": 0,
								"slot": "1",
								"type": "t_address_payable"
							},
							{
								"astId": 23,
								"contract": "contracts/CrowdFunding.sol:CrowdFunding",
								"label": "value",
								"offset": 0,
								"slot": "2",
								"type": "t_uint256"
							},
							{
								"astId": 25,
								"contract": "contracts/CrowdFunding.sol:CrowdFunding",
								"label": "completed",
								"offset": 0,
								"slot": "3",
								"type": "t_bool"
							},
							{
								"astId": 27,
								"contract": "contracts/CrowdFunding.sol:CrowdFunding",
								"label": "noOfVoters",
								"offset": 0,
								"slot": "4",
								"type": "t_uint256"
							},
							{
								"astId": 31,
								"contract": "contracts/CrowdFunding.sol:CrowdFunding",
								"label": "voters",
								"offset": 0,
								"slot": "5",
								"type": "t_mapping(t_address,t_bool)"
							}
						],
						"numberOfBytes": "192"
					},
					"t_uint256": {
						"encoding": "inplace",
						"label": "uint256",
						"numberOfBytes": "32"
					}
				}
			},
			"userdoc": {
				"kind": "user",
				"methods": {},
				"version": 1
			}
		}
	}
}